{
  "_format": "hh-sol-artifact-1",
  "contractName": "ZkProverRegistry",
  "sourceName": "contracts/ZkProverRegistry.sol",
  "abi": [
    {
      "inputs": [
        {
          "internalType": "address",
          "name": "_symToken",
          "type": "address"
        }
      ],
      "stateMutability": "nonpayable",
      "type": "constructor"
    },
    {
      "anonymous": false,
      "inputs": [
        {
          "indexed": true,
          "internalType": "address",
          "name": "registry",
          "type": "address"
        }
      ],
      "name": "ConsensusRegistryUpdated",
      "type": "event"
    },
    {
      "anonymous": false,
      "inputs": [
        {
          "indexed": true,
          "internalType": "bytes32",
          "name": "proofHash",
          "type": "bytes32"
        },
        {
          "indexed": true,
          "internalType": "bytes32",
          "name": "computationHash",
          "type": "bytes32"
        },
        {
          "indexed": true,
          "internalType": "address",
          "name": "prover",
          "type": "address"
        }
      ],
      "name": "ProofVerified",
      "type": "event"
    },
    {
      "anonymous": false,
      "inputs": [
        {
          "indexed": true,
          "internalType": "address",
          "name": "prover",
          "type": "address"
        },
        {
          "indexed": false,
          "internalType": "bool",
          "name": "status",
          "type": "bool"
        }
      ],
      "name": "ProverStatusUpdated",
      "type": "event"
    },
    {
      "inputs": [
        {
          "internalType": "address",
          "name": "",
          "type": "address"
        }
      ],
      "name": "authorizedProvers",
      "outputs": [
        {
          "internalType": "bool",
          "name": "",
          "type": "bool"
        }
      ],
      "stateMutability": "view",
      "type": "function"
    },
    {
      "inputs": [],
      "name": "consensusRegistry",
      "outputs": [
        {
          "internalType": "address",
          "name": "",
          "type": "address"
        }
      ],
      "stateMutability": "view",
      "type": "function"
    },
    {
      "inputs": [
        {
          "internalType": "address",
          "name": "consensusRegistryAddress",
          "type": "address"
        }
      ],
      "name": "setConsensusRegistry",
      "outputs": [],
      "stateMutability": "nonpayable",
      "type": "function"
    },
    {
      "inputs": [
        {
          "internalType": "address",
          "name": "prover",
          "type": "address"
        },
        {
          "internalType": "bool",
          "name": "status",
          "type": "bool"
        }
      ],
      "name": "setProverStatus",
      "outputs": [],
      "stateMutability": "nonpayable",
      "type": "function"
    },
    {
      "inputs": [
        {
          "internalType": "bytes32",
          "name": "computationHash",
          "type": "bytes32"
        },
        {
          "internalType": "bytes",
          "name": "proof",
          "type": "bytes"
        },
        {
          "internalType": "bytes32",
          "name": "publicInputsHash",
          "type": "bytes32"
        },
        {
          "internalType": "address",
          "name": "validatorAddress",
          "type": "address"
        }
      ],
      "name": "submitAndVerifyProof",
      "outputs": [
        {
          "internalType": "bool",
          "name": "",
          "type": "bool"
        }
      ],
      "stateMutability": "nonpayable",
      "type": "function"
    },
    {
      "inputs": [],
      "name": "symToken",
      "outputs": [
        {
          "internalType": "contract SymbiosisToken",
          "name": "",
          "type": "address"
        }
      ],
      "stateMutability": "view",
      "type": "function"
    },
    {
      "inputs": [
        {
          "internalType": "bytes32",
          "name": "",
          "type": "bytes32"
        }
      ],
      "name": "verifiedProofs",
      "outputs": [
        {
          "internalType": "bool",
          "name": "",
          "type": "bool"
        }
      ],
      "stateMutability": "view",
      "type": "function"
    }
  ],
  "bytecode": "0x60a060405234801561001057600080fd5b506040516109a53803806109a583398101604081905261002f916100eb565b6001600160a01b0381166100895760405162461bcd60e51b815260206004820152601560248201527f496e76616c696420746f6b656e20616464726573730000000000000000000000604482015260640160405180910390fd5b6001600160a01b0381166080523360008181526020818152604091829020805460ff1916600190811790915591519182527ffc28d4c6848b1785a0d24d6c2d50e3e2307d3fceb5cf6302c62471a67a887bfc910160405180910390a25061011b565b6000602082840312156100fd57600080fd5b81516001600160a01b038116811461011457600080fd5b9392505050565b608051610861610144600039600081816101350152818161045a015261055b01526108616000f3fe608060405234801561001057600080fd5b506004361061007d5760003560e01c8063a1ca11941161005b578063a1ca1194146100f0578063afcda28514610105578063ea1804bb14610130578063fe9b56971461015757600080fd5b8063176d80c41461008257806317d32fb6146100ba57806357e77e7c146100dd575b600080fd5b6100a5610090366004610679565b60016020526000908152604090205460ff1681565b60405190151581526020015b60405180910390f35b6100a56100c83660046106ae565b60006020819052908152604090205460ff1681565b6100a56100eb3660046106d0565b61016a565b6101036100fe366004610778565b610445565b005b600254610118906001600160a01b031681565b6040516001600160a01b0390911681526020016100b1565b6101187f000000000000000000000000000000000000000000000000000000000000000081565b6101036101653660046106ae565b610546565b3360009081526020819052604081205460ff166101dc5760405162461bcd60e51b815260206004820152602560248201527f43616c6c6572206973206e6f7420616e20617574686f72697a6564205a4b20706044820152643937bb32b960d91b60648201526084015b60405180910390fd5b6001600160a01b03821661022b5760405162461bcd60e51b81526020600482015260166024820152752d32b9379030b2323932b9b9903b30b634b230ba37b960511b60448201526064016101d3565b8361026e5760405162461bcd60e51b8152602060048201526013602482015272115b5c1d1e481c1c9bdbd9881c185e5b1bd859606a1b60448201526064016101d3565b60008686868660405160200161028794939291906107af565b60408051601f1981840301815291815281516020928301206000818152600190935291205490915060ff16156102f85760405162461bcd60e51b8152602060048201526016602482015275141c9bdbd988185b1c9958591e481d995c9a599a595960521b60448201526064016101d3565b600046617a690361030e57506020851015610315565b5060408510155b8061037e5760405162461bcd60e51b815260206004820152603360248201527f496e76616c69642063727970746f67726170686963205a4b2070726f6f6620766044820152726572696669636174696f6e206661696c75726560681b60648201526084016101d3565b6000828152600160208190526040808320805460ff19169092179091555133918a9185917f7621416042544b5de780d93a4cc03cb6e5445dfad95bd62f7bd7280018146ded91a46002546001600160a01b03161561043757600254604051631b3dc30760e31b81526001600160a01b038681166004830152601460248301529091169063d9ee183890604401600060405180830381600087803b15801561042457600080fd5b505af1925050508015610435575060015b505b506001979650505050505050565b604051631c86b03760e31b81523360048201527f00000000000000000000000000000000000000000000000000000000000000006001600160a01b03169063e43581b890602401602060405180830381865afa1580156104a9573d6000803e3d6000fd5b505050506040513d601f19601f820116820180604052508101906104cd91906107ca565b6104e95760405162461bcd60e51b81526004016101d3906107e7565b6001600160a01b03821660008181526020818152604091829020805460ff191685151590811790915591519182527ffc28d4c6848b1785a0d24d6c2d50e3e2307d3fceb5cf6302c62471a67a887bfc910160405180910390a25050565b604051631c86b03760e31b81523360048201527f00000000000000000000000000000000000000000000000000000000000000006001600160a01b03169063e43581b890602401602060405180830381865afa1580156105aa573d6000803e3d6000fd5b505050506040513d601f19601f820116820180604052508101906105ce91906107ca565b6105ea5760405162461bcd60e51b81526004016101d3906107e7565b6001600160a01b03811661062f5760405162461bcd60e51b815260206004820152600c60248201526b5a65726f206164647265737360a01b60448201526064016101d3565b600280546001600160a01b0319166001600160a01b0383169081179091556040517f63b8f8e18de64ac58c4dee814613d77626f2f0b579c2d8ff03117b32d82aa39590600090a250565b60006020828403121561068b57600080fd5b5035919050565b80356001600160a01b03811681146106a957600080fd5b919050565b6000602082840312156106c057600080fd5b6106c982610692565b9392505050565b6000806000806000608086880312156106e857600080fd5b85359450602086013567ffffffffffffffff8082111561070757600080fd5b818801915088601f83011261071b57600080fd5b81358181111561072a57600080fd5b89602082850101111561073c57600080fd5b6020830196508095505050506040860135915061075b60608701610692565b90509295509295909350565b801515811461077557600080fd5b50565b6000806040838503121561078b57600080fd5b61079483610692565b915060208301356107a481610767565b809150509250929050565b84815282846020830137602092019182015260400192915050565b6000602082840312156107dc57600080fd5b81516106c981610767565b60208082526024908201527f43616c6c6572206973206e6f7420616e20617574686f72697a656420676f7665604082015263393737b960e11b60608201526080019056fea264697066735822122027359737ce26eb8d8de07c9c42ef5ac82b107b0bc8fbb30a7568e34e24ce019c64736f6c63430008180033",
  "linkReferences": {},
  "deployedLinkReferences": {}
}