{
  "_format": "hh-sol-artifact-1",
  "contractName": "ZkProverRegistry",
  "sourceName": "contracts/ZkProverRegistry.sol",
  "abi": [
    {
      "inputs": [
        {
          "internalType": "address",
          "name": "_symToken",
          "type": "address"
        }
      ],
      "stateMutability": "nonpayable",
      "type": "constructor"
    },
    {
      "anonymous": false,
      "inputs": [
        {
          "indexed": true,
          "internalType": "address",
          "name": "registry",
          "type": "address"
        }
      ],
      "name": "ConsensusRegistryUpdated",
      "type": "event"
    },
    {
      "anonymous": false,
      "inputs": [
        {
          "indexed": true,
          "internalType": "bytes32",
          "name": "proofHash",
          "type": "bytes32"
        },
        {
          "indexed": true,
          "internalType": "bytes32",
          "name": "computationHash",
          "type": "bytes32"
        },
        {
          "indexed": true,
          "internalType": "address",
          "name": "prover",
          "type": "address"
        }
      ],
      "name": "ProofVerified",
      "type": "event"
    },
    {
      "anonymous": false,
      "inputs": [
        {
          "indexed": true,
          "internalType": "address",
          "name": "prover",
          "type": "address"
        },
        {
          "indexed": false,
          "internalType": "bool",
          "name": "status",
          "type": "bool"
        }
      ],
      "name": "ProverStatusUpdated",
      "type": "event"
    },
    {
      "inputs": [
        {
          "internalType": "address",
          "name": "",
          "type": "address"
        }
      ],
      "name": "authorizedProvers",
      "outputs": [
        {
          "internalType": "bool",
          "name": "",
          "type": "bool"
        }
      ],
      "stateMutability": "view",
      "type": "function"
    },
    {
      "inputs": [],
      "name": "consensusRegistry",
      "outputs": [
        {
          "internalType": "address",
          "name": "",
          "type": "address"
        }
      ],
      "stateMutability": "view",
      "type": "function"
    },
    {
      "inputs": [
        {
          "internalType": "address",
          "name": "consensusRegistryAddress",
          "type": "address"
        }
      ],
      "name": "setConsensusRegistry",
      "outputs": [],
      "stateMutability": "nonpayable",
      "type": "function"
    },
    {
      "inputs": [
        {
          "internalType": "address",
          "name": "prover",
          "type": "address"
        },
        {
          "internalType": "bool",
          "name": "status",
          "type": "bool"
        }
      ],
      "name": "setProverStatus",
      "outputs": [],
      "stateMutability": "nonpayable",
      "type": "function"
    },
    {
      "inputs": [
        {
          "internalType": "bytes32",
          "name": "computationHash",
          "type": "bytes32"
        },
        {
          "internalType": "bytes",
          "name": "proof",
          "type": "bytes"
        },
        {
          "internalType": "bytes32",
          "name": "publicInputsHash",
          "type": "bytes32"
        },
        {
          "internalType": "address",
          "name": "validatorAddress",
          "type": "address"
        }
      ],
      "name": "submitAndVerifyProof",
      "outputs": [
        {
          "internalType": "bool",
          "name": "",
          "type": "bool"
        }
      ],
      "stateMutability": "nonpayable",
      "type": "function"
    },
    {
      "inputs": [],
      "name": "symToken",
      "outputs": [
        {
          "internalType": "contract SymbiosisToken",
          "name": "",
          "type": "address"
        }
      ],
      "stateMutability": "view",
      "type": "function"
    },
    {
      "inputs": [
        {
          "internalType": "bytes32",
          "name": "",
          "type": "bytes32"
        }
      ],
      "name": "verifiedProofs",
      "outputs": [
        {
          "internalType": "bool",
          "name": "",
          "type": "bool"
        }
      ],
      "stateMutability": "view",
      "type": "function"
    }
  ],
  "bytecode": "0x60a06040523480156200001157600080fd5b5060405162001af938038062001af98339818101604052810190620000379190620002f5565b6200005367b1429cf8deaf146c60c01b6200028860201b60201c565b6200006f67bb9066c0bf31414460c01b6200028860201b60201c565b6200008b679370161cb615478160c01b6200028860201b60201c565b620000a76766184c14b2a5b1b460c01b6200028860201b60201c565b600073ffffffffffffffffffffffffffffffffffffffff168173ffffffffffffffffffffffffffffffffffffffff160362000119576040517f08c379a0000000000000000000000000000000000000000000000000000000008152600401620001109062000388565b60405180910390fd5b62000135677dd96a1e1242c5ee60c01b6200028860201b60201c565b620001516716df3d2ede9273e060c01b6200028860201b60201c565b8073ffffffffffffffffffffffffffffffffffffffff1660808173ffffffffffffffffffffffffffffffffffffffff1681525050620001a167aac73d179850b30d60c01b6200028860201b60201c565b60016000803373ffffffffffffffffffffffffffffffffffffffff1673ffffffffffffffffffffffffffffffffffffffff16815260200190815260200160002060006101000a81548160ff0219169083151502179055506200021467caef1f729588c9a660c01b6200028860201b60201c565b62000230676ea86aa5089a2bbe60c01b6200028860201b60201c565b3373ffffffffffffffffffffffffffffffffffffffff167ffc28d4c6848b1785a0d24d6c2d50e3e2307d3fceb5cf6302c62471a67a887bfc6001604051620002799190620003c7565b60405180910390a250620003e4565b50565b600080fd5b600073ffffffffffffffffffffffffffffffffffffffff82169050919050565b6000620002bd8262000290565b9050919050565b620002cf81620002b0565b8114620002db57600080fd5b50565b600081519050620002ef81620002c4565b92915050565b6000602082840312156200030e576200030d6200028b565b5b60006200031e84828501620002de565b91505092915050565b600082825260208201905092915050565b7f496e76616c696420746f6b656e20616464726573730000000000000000000000600082015250565b60006200037060158362000327565b91506200037d8262000338565b602082019050919050565b60006020820190508181036000830152620003a38162000361565b9050919050565b60008115159050919050565b620003c181620003aa565b82525050565b6000602082019050620003de6000830184620003b6565b92915050565b6080516116eb6200040e6000396000818161096101528181610b940152610c1c01526116eb6000f3fe608060405234801561001057600080fd5b506004361061007d5760003560e01c8063a1ca11941161005b578063a1ca119414610112578063afcda2851461012e578063ea1804bb1461014c578063fe9b56971461016a5761007d565b8063176d80c41461008257806317d32fb6146100b257806357e77e7c146100e2575b600080fd5b61009c60048036038101906100979190610f08565b610186565b6040516100a99190610f50565b60405180910390f35b6100cc60048036038101906100c79190610fc9565b6101a6565b6040516100d99190610f50565b60405180910390f35b6100fc60048036038101906100f7919061105b565b6101c6565b6040516101099190610f50565b60405180910390f35b61012c6004803603810190610127919061110f565b6108fb565b005b610136610b6c565b604051610143919061115e565b60405180910390f35b610154610b92565b60405161016191906111d8565b60405180910390f35b610184600480360381019061017f9190610fc9565b610bb6565b005b60016020528060005260406000206000915054906101000a900460ff1681565b60006020528060005260406000206000915054906101000a900460ff1681565b60006101dc67d0e52add3f89580060c01b610ec5565b6101f067e1e434d9ec50520960c01b610ec5565b61020467802b2b4f6a4f99b560c01b610ec5565b610218678cdf2f1bfbadc86b60c01b610ec5565b61022c67e8d5880f76cc41ca60c01b610ec5565b6000803373ffffffffffffffffffffffffffffffffffffffff1673ffffffffffffffffffffffffffffffffffffffff16815260200190815260200160002060009054906101000a900460ff166102b7576040517f08c379a00000000000000000000000000000000000000000000000000000000081526004016102ae90611276565b60405180910390fd5b6102cb677b4cd459dc6e86ed60c01b610ec5565b6102df672af53216911cfe0660c01b610ec5565b6102f367b7c3ebafb36cc16c60c01b610ec5565b610307676b877def7e43014760c01b610ec5565b61031b67d9fba5ae3dd10cb860c01b610ec5565b61032f676368a54ffdc16c3b60c01b610ec5565b61034367e6778ee09200b30660c01b610ec5565b600073ffffffffffffffffffffffffffffffffffffffff168273ffffffffffffffffffffffffffffffffffffffff16036103b2576040517f08c379a00000000000000000000000000000000000000000000000000000000081526004016103a9906112e2565b60405180910390fd5b6103c667080aa1c9b892cb3b60c01b610ec5565b6103da67ca3604b35ebd6cdb60c01b610ec5565b6103ed66dc26d025ae888f60c01b610ec5565b61040167316a4ae8f678422360c01b610ec5565b60008585905011610447576040517f08c379a000000000000000000000000000000000000000000000000000000000815260040161043e9061134e565b60405180910390fd5b61045b6708dda5ecb66e2b2560c01b610ec5565b61046f67bb7aa2c76ad4257d60c01b610ec5565b610483679bc909f6abd25ead60c01b610ec5565b60008686868660405160200161049c94939291906113ce565b6040516020818303038152906040528051906020012090506104c8671af2f1b0845f27c360c01b610ec5565b6104dc678c8d7acbd94a4f9760c01b610ec5565b6104f06741a4523370df995260c01b610ec5565b6001600082815260200190815260200160002060009054906101000a900460ff1615610551576040517f08c379a000000000000000000000000000000000000000000000000000000000815260040161054890611455565b60405180910390fd5b6105656750aa2d2366632b5b60c01b610ec5565b61057967a6c2a86f3aee6f9660c01b610ec5565b61058d678b9238c677033ee660c01b610ec5565b60006105a367f42ccd4f9e8eb78b60c01b610ec5565b6105b7672a8f0ba5cdbc85da60c01b610ec5565b617a6946036105f7576105d467cbab185d381bc29860c01b610ec5565b6105e8679dbdad46f773908a60c01b610ec5565b6020878790501015905061062a565b61060b67e9edae2ec07f01a760c01b610ec5565b61061f67ac456d995d17d05f60c01b610ec5565b604087879050101590505b61063e67171e2883d4cae39160c01b610ec5565b61065267dd13766e6050429760c01b610ec5565b6106666735a215a1f2026d9a60c01b610ec5565b806106a6576040517f08c379a000000000000000000000000000000000000000000000000000000000815260040161069d906114e7565b60405180910390fd5b6106ba67070e55b5a9e07d7f60c01b610ec5565b6106ce6736e2bf5368eb478760c01b610ec5565b600180600084815260200190815260200160002060006101000a81548160ff02191690831515021790555061070d673c6a7d7c9e7505cc60c01b610ec5565b610721675115d50b472c583460c01b610ec5565b3373ffffffffffffffffffffffffffffffffffffffff1688837f7621416042544b5de780d93a4cc03cb6e5445dfad95bd62f7bd7280018146ded60405160405180910390a461077a6715f816f74463d23e60c01b610ec5565b61078e679c39bef1918067b060c01b610ec5565b600073ffffffffffffffffffffffffffffffffffffffff16600260009054906101000a900473ffffffffffffffffffffffffffffffffffffffff1673ffffffffffffffffffffffffffffffffffffffff16146108af576107f867185584097d1ab11660c01b610ec5565b61080c67602c6ff217d0548360c01b610ec5565b61082067dbf99fd77708af9960c01b610ec5565b600260009054906101000a900473ffffffffffffffffffffffffffffffffffffffff1673ffffffffffffffffffffffffffffffffffffffff1663d9ee18388560146040518363ffffffff1660e01b815260040161087e92919061154c565b600060405180830381600087803b15801561089857600080fd5b505af19250505080156108a9575060015b506108c4565b6108c367462c581b705f6a4160c01b610ec5565b5b6108d8674ff68e8a8f7019da60c01b610ec5565b6108ec67aa4a0bb71a19d86960c01b610ec5565b60019250505095945050505050565b61090f676c61475cd5cfd63060c01b610ec5565b6109236738dfd99d08b04c1c60c01b610ec5565b61093767396c7fe11e49087560c01b610ec5565b61094b67866df7e2277ad3d160c01b610ec5565b61095f670fd42cbd35410b6160c01b610ec5565b7f000000000000000000000000000000000000000000000000000000000000000073ffffffffffffffffffffffffffffffffffffffff1663e43581b8336040518263ffffffff1660e01b81526004016109b8919061115e565b602060405180830381865afa1580156109d5573d6000803e3d6000fd5b505050506040513d601f19601f820116820180604052508101906109f9919061158a565b610a38576040517f08c379a0000000000000000000000000000000000000000000000000000000008152600401610a2f90611629565b60405180910390fd5b610a4c677fc511b96c2f3b9f60c01b610ec5565b610a60674081614306975f1c60c01b610ec5565b610a74671576573b6a897d9b60c01b610ec5565b610a88671bb5a5a6ad46cda060c01b610ec5565b610a9c67654fd9c4052c893260c01b610ec5565b806000808473ffffffffffffffffffffffffffffffffffffffff1673ffffffffffffffffffffffffffffffffffffffff16815260200190815260200160002060006101000a81548160ff021916908315150217905550610b06670ec2659d5e887f1260c01b610ec5565b610b1a67ad2329dcab6dc53a60c01b610ec5565b8173ffffffffffffffffffffffffffffffffffffffff167ffc28d4c6848b1785a0d24d6c2d50e3e2307d3fceb5cf6302c62471a67a887bfc82604051610b609190610f50565b60405180910390a25050565b600260009054906101000a900473ffffffffffffffffffffffffffffffffffffffff1681565b7f000000000000000000000000000000000000000000000000000000000000000081565b610bca6738660b059b0dbf8660c01b610ec5565b610bde6738dfd99d08b04c1c60c01b610ec5565b610bf267396c7fe11e49087560c01b610ec5565b610c0667866df7e2277ad3d160c01b610ec5565b610c1a670fd42cbd35410b6160c01b610ec5565b7f000000000000000000000000000000000000000000000000000000000000000073ffffffffffffffffffffffffffffffffffffffff1663e43581b8336040518263ffffffff1660e01b8152600401610c73919061115e565b602060405180830381865afa158015610c90573d6000803e3d6000fd5b505050506040513d601f19601f82011682018060405250810190610cb4919061158a565b610cf3576040517f08c379a0000000000000000000000000000000000000000000000000000000008152600401610cea90611629565b60405180910390fd5b610d07677fc511b96c2f3b9f60c01b610ec5565b610d1b674081614306975f1c60c01b610ec5565b610d2f671e3f791fcf1c08e260c01b610ec5565b610d4367b0c7a3e4690b31f760c01b610ec5565b610d5767724c3f7c4bba553760c01b610ec5565b610d6b67c4553051269f301560c01b610ec5565b610d7f6739ee0fddd084bcca60c01b610ec5565b600073ffffffffffffffffffffffffffffffffffffffff168173ffffffffffffffffffffffffffffffffffffffff1603610dee576040517f08c379a0000000000000000000000000000000000000000000000000000000008152600401610de590611695565b60405180910390fd5b610e0267a97795506bbdb48b60c01b610ec5565b610e16673812369c6f84ed4260c01b610ec5565b80600260006101000a81548173ffffffffffffffffffffffffffffffffffffffff021916908373ffffffffffffffffffffffffffffffffffffffff160217905550610e6b6768e479dc42d45d5c60c01b610ec5565b610e7f67cc87f34ab023cae660c01b610ec5565b8073ffffffffffffffffffffffffffffffffffffffff167f63b8f8e18de64ac58c4dee814613d77626f2f0b579c2d8ff03117b32d82aa39560405160405180910390a250565b50565b600080fd5b600080fd5b6000819050919050565b610ee581610ed2565b8114610ef057600080fd5b50565b600081359050610f0281610edc565b92915050565b600060208284031215610f1e57610f1d610ec8565b5b6000610f2c84828501610ef3565b91505092915050565b60008115159050919050565b610f4a81610f35565b82525050565b6000602082019050610f656000830184610f41565b92915050565b600073ffffffffffffffffffffffffffffffffffffffff82169050919050565b6000610f9682610f6b565b9050919050565b610fa681610f8b565b8114610fb157600080fd5b50565b600081359050610fc381610f9d565b92915050565b600060208284031215610fdf57610fde610ec8565b5b6000610fed84828501610fb4565b91505092915050565b600080fd5b600080fd5b600080fd5b60008083601f84011261101b5761101a610ff6565b5b8235905067ffffffffffffffff81111561103857611037610ffb565b5b60208301915083600182028301111561105457611053611000565b5b9250929050565b60008060008060006080868803121561107757611076610ec8565b5b600061108588828901610ef3565b955050602086013567ffffffffffffffff8111156110a6576110a5610ecd565b5b6110b288828901611005565b945094505060406110c588828901610ef3565b92505060606110d688828901610fb4565b9150509295509295909350565b6110ec81610f35565b81146110f757600080fd5b50565b600081359050611109816110e3565b92915050565b6000806040838503121561112657611125610ec8565b5b600061113485828601610fb4565b9250506020611145858286016110fa565b9150509250929050565b61115881610f8b565b82525050565b6000602082019050611173600083018461114f565b92915050565b6000819050919050565b600061119e61119961119484610f6b565b611179565b610f6b565b9050919050565b60006111b082611183565b9050919050565b60006111c2826111a5565b9050919050565b6111d2816111b7565b82525050565b60006020820190506111ed60008301846111c9565b92915050565b600082825260208201905092915050565b7f43616c6c6572206973206e6f7420616e20617574686f72697a6564205a4b207060008201527f726f766572000000000000000000000000000000000000000000000000000000602082015250565b60006112606025836111f3565b915061126b82611204565b604082019050919050565b6000602082019050818103600083015261128f81611253565b9050919050565b7f5a65726f20616464726573732076616c696461746f7200000000000000000000600082015250565b60006112cc6016836111f3565b91506112d782611296565b602082019050919050565b600060208201905081810360008301526112fb816112bf565b9050919050565b7f456d7074792070726f6f66207061796c6f616400000000000000000000000000600082015250565b60006113386013836111f3565b915061134382611302565b602082019050919050565b600060208201905081810360008301526113678161132b565b9050919050565b6000819050919050565b61138961138482610ed2565b61136e565b82525050565b600081905092915050565b82818337600083830152505050565b60006113b5838561138f565b93506113c283858461139a565b82840190509392505050565b60006113da8287611378565b6020820191506113eb8285876113a9565b91506113f78284611378565b60208201915081905095945050505050565b7f50726f6f6620616c726561647920766572696669656400000000000000000000600082015250565b600061143f6016836111f3565b915061144a82611409565b602082019050919050565b6000602082019050818103600083015261146e81611432565b9050919050565b7f496e76616c69642063727970746f67726170686963205a4b2070726f6f66207660008201527f6572696669636174696f6e206661696c75726500000000000000000000000000602082015250565b60006114d16033836111f3565b91506114dc82611475565b604082019050919050565b60006020820190508181036000830152611500816114c4565b9050919050565b6000819050919050565b6000819050919050565b600061153661153161152c84611507565b611179565b611511565b9050919050565b6115468161151b565b82525050565b6000604082019050611561600083018561114f565b61156e602083018461153d565b9392505050565b600081519050611584816110e3565b92915050565b6000602082840312156115a05761159f610ec8565b5b60006115ae84828501611575565b91505092915050565b7f43616c6c6572206973206e6f7420616e20617574686f72697a656420676f766560008201527f726e6f7200000000000000000000000000000000000000000000000000000000602082015250565b60006116136024836111f3565b915061161e826115b7565b604082019050919050565b6000602082019050818103600083015261164281611606565b9050919050565b7f5a65726f20616464726573730000000000000000000000000000000000000000600082015250565b600061167f600c836111f3565b915061168a82611649565b602082019050919050565b600060208201905081810360008301526116ae81611672565b905091905056fea2646970667358221220eacbafa3d7c6d1a4e2e1f3d6dafd27f2551cbd898ecd4aa3bbdb7f836cc7037a64736f6c63430008180033",
  "linkReferences": {},
  "deployedLinkReferences": {}
}