{
  "_format": "hh-sol-artifact-1",
  "contractName": "SymbiosisToken",
  "sourceName": "contracts/SymbiosisToken.sol",
  "abi": [
    {
      "inputs": [],
      "stateMutability": "nonpayable",
      "type": "constructor"
    },
    {
      "inputs": [
        {
          "internalType": "address",
          "name": "spender",
          "type": "address"
        },
        {
          "internalType": "uint256",
          "name": "allowance",
          "type": "uint256"
        },
        {
          "internalType": "uint256",
          "name": "needed",
          "type": "uint256"
        }
      ],
      "name": "ERC20InsufficientAllowance",
      "type": "error"
    },
    {
      "inputs": [
        {
          "internalType": "address",
          "name": "sender",
          "type": "address"
        },
        {
          "internalType": "uint256",
          "name": "balance",
          "type": "uint256"
        },
        {
          "internalType": "uint256",
          "name": "needed",
          "type": "uint256"
        }
      ],
      "name": "ERC20InsufficientBalance",
      "type": "error"
    },
    {
      "inputs": [
        {
          "internalType": "address",
          "name": "approver",
          "type": "address"
        }
      ],
      "name": "ERC20InvalidApprover",
      "type": "error"
    },
    {
      "inputs": [
        {
          "internalType": "address",
          "name": "receiver",
          "type": "address"
        }
      ],
      "name": "ERC20InvalidReceiver",
      "type": "error"
    },
    {
      "inputs": [
        {
          "internalType": "address",
          "name": "sender",
          "type": "address"
        }
      ],
      "name": "ERC20InvalidSender",
      "type": "error"
    },
    {
      "inputs": [
        {
          "internalType": "address",
          "name": "spender",
          "type": "address"
        }
      ],
      "name": "ERC20InvalidSpender",
      "type": "error"
    },
    {
      "anonymous": false,
      "inputs": [
        {
          "indexed": true,
          "internalType": "address",
          "name": "owner",
          "type": "address"
        },
        {
          "indexed": true,
          "internalType": "address",
          "name": "spender",
          "type": "address"
        },
        {
          "indexed": false,
          "internalType": "uint256",
          "name": "value",
          "type": "uint256"
        }
      ],
      "name": "Approval",
      "type": "event"
    },
    {
      "anonymous": false,
      "inputs": [
        {
          "indexed": true,
          "internalType": "address",
          "name": "registry",
          "type": "address"
        }
      ],
      "name": "ConsensusRegistryUpdated",
      "type": "event"
    },
    {
      "anonymous": false,
      "inputs": [
        {
          "indexed": true,
          "internalType": "address",
          "name": "validator",
          "type": "address"
        },
        {
          "indexed": false,
          "internalType": "uint256",
          "name": "amount",
          "type": "uint256"
        }
      ],
      "name": "GasRecycled",
      "type": "event"
    },
    {
      "anonymous": false,
      "inputs": [
        {
          "indexed": true,
          "internalType": "uint256",
          "name": "proposalId",
          "type": "uint256"
        },
        {
          "indexed": false,
          "internalType": "string",
          "name": "actionType",
          "type": "string"
        },
        {
          "indexed": true,
          "internalType": "address",
          "name": "target",
          "type": "address"
        },
        {
          "indexed": false,
          "internalType": "uint256",
          "name": "eta",
          "type": "uint256"
        }
      ],
      "name": "ProposalCreated",
      "type": "event"
    },
    {
      "anonymous": false,
      "inputs": [
        {
          "indexed": true,
          "internalType": "uint256",
          "name": "proposalId",
          "type": "uint256"
        },
        {
          "indexed": false,
          "internalType": "string",
          "name": "actionType",
          "type": "string"
        },
        {
          "indexed": true,
          "internalType": "address",
          "name": "target",
          "type": "address"
        }
      ],
      "name": "ProposalExecuted",
      "type": "event"
    },
    {
      "anonymous": false,
      "inputs": [
        {
          "indexed": true,
          "internalType": "uint256",
          "name": "proposalId",
          "type": "uint256"
        },
        {
          "indexed": true,
          "internalType": "address",
          "name": "governor",
          "type": "address"
        },
        {
          "indexed": false,
          "internalType": "uint256",
          "name": "currentVotes",
          "type": "uint256"
        }
      ],
      "name": "ProposalVoted",
      "type": "event"
    },
    {
      "anonymous": false,
      "inputs": [
        {
          "indexed": true,
          "internalType": "address",
          "name": "from",
          "type": "address"
        },
        {
          "indexed": true,
          "internalType": "address",
          "name": "to",
          "type": "address"
        },
        {
          "indexed": false,
          "internalType": "uint256",
          "name": "value",
          "type": "uint256"
        }
      ],
      "name": "Transfer",
      "type": "event"
    },
    {
      "inputs": [],
      "name": "MAX_SUPPLY",
      "outputs": [
        {
          "internalType": "uint256",
          "name": "",
          "type": "uint256"
        }
      ],
      "stateMutability": "view",
      "type": "function"
    },
    {
      "inputs": [],
      "name": "TIMELOCK_DELAY",
      "outputs": [
        {
          "internalType": "uint256",
          "name": "",
          "type": "uint256"
        }
      ],
      "stateMutability": "view",
      "type": "function"
    },
    {
      "inputs": [
        {
          "internalType": "address",
          "name": "owner",
          "type": "address"
        },
        {
          "internalType": "address",
          "name": "spender",
          "type": "address"
        }
      ],
      "name": "allowance",
      "outputs": [
        {
          "internalType": "uint256",
          "name": "",
          "type": "uint256"
        }
      ],
      "stateMutability": "view",
      "type": "function"
    },
    {
      "inputs": [
        {
          "internalType": "address",
          "name": "spender",
          "type": "address"
        },
        {
          "internalType": "uint256",
          "name": "value",
          "type": "uint256"
        }
      ],
      "name": "approve",
      "outputs": [
        {
          "internalType": "bool",
          "name": "",
          "type": "bool"
        }
      ],
      "stateMutability": "nonpayable",
      "type": "function"
    },
    {
      "inputs": [
        {
          "internalType": "address",
          "name": "account",
          "type": "address"
        }
      ],
      "name": "balanceOf",
      "outputs": [
        {
          "internalType": "uint256",
          "name": "",
          "type": "uint256"
        }
      ],
      "stateMutability": "view",
      "type": "function"
    },
    {
      "inputs": [
        {
          "internalType": "uint256",
          "name": "value",
          "type": "uint256"
        }
      ],
      "name": "burn",
      "outputs": [],
      "stateMutability": "nonpayable",
      "type": "function"
    },
    {
      "inputs": [
        {
          "internalType": "address",
          "name": "account",
          "type": "address"
        },
        {
          "internalType": "uint256",
          "name": "value",
          "type": "uint256"
        }
      ],
      "name": "burnFrom",
      "outputs": [],
      "stateMutability": "nonpayable",
      "type": "function"
    },
    {
      "inputs": [],
      "name": "consensusRegistry",
      "outputs": [
        {
          "internalType": "address",
          "name": "",
          "type": "address"
        }
      ],
      "stateMutability": "view",
      "type": "function"
    },
    {
      "inputs": [],
      "name": "decimals",
      "outputs": [
        {
          "internalType": "uint8",
          "name": "",
          "type": "uint8"
        }
      ],
      "stateMutability": "view",
      "type": "function"
    },
    {
      "inputs": [
        {
          "internalType": "uint256",
          "name": "proposalId",
          "type": "uint256"
        }
      ],
      "name": "executeProposal",
      "outputs": [],
      "stateMutability": "nonpayable",
      "type": "function"
    },
    {
      "inputs": [],
      "name": "gasBackPercentage",
      "outputs": [
        {
          "internalType": "uint256",
          "name": "",
          "type": "uint256"
        }
      ],
      "stateMutability": "view",
      "type": "function"
    },
    {
      "inputs": [
        {
          "internalType": "uint256",
          "name": "",
          "type": "uint256"
        }
      ],
      "name": "governors",
      "outputs": [
        {
          "internalType": "address",
          "name": "",
          "type": "address"
        }
      ],
      "stateMutability": "view",
      "type": "function"
    },
    {
      "inputs": [
        {
          "internalType": "uint256",
          "name": "",
          "type": "uint256"
        },
        {
          "internalType": "address",
          "name": "",
          "type": "address"
        }
      ],
      "name": "hasVoted",
      "outputs": [
        {
          "internalType": "bool",
          "name": "",
          "type": "bool"
        }
      ],
      "stateMutability": "view",
      "type": "function"
    },
    {
      "inputs": [
        {
          "internalType": "address",
          "name": "",
          "type": "address"
        }
      ],
      "name": "isGovernor",
      "outputs": [
        {
          "internalType": "bool",
          "name": "",
          "type": "bool"
        }
      ],
      "stateMutability": "view",
      "type": "function"
    },
    {
      "inputs": [
        {
          "internalType": "address",
          "name": "",
          "type": "address"
        }
      ],
      "name": "isValidatorNode",
      "outputs": [
        {
          "internalType": "bool",
          "name": "",
          "type": "bool"
        }
      ],
      "stateMutability": "view",
      "type": "function"
    },
    {
      "inputs": [],
      "name": "name",
      "outputs": [
        {
          "internalType": "string",
          "name": "",
          "type": "string"
        }
      ],
      "stateMutability": "view",
      "type": "function"
    },
    {
      "inputs": [
        {
          "internalType": "uint256",
          "name": "",
          "type": "uint256"
        }
      ],
      "name": "proposals",
      "outputs": [
        {
          "internalType": "string",
          "name": "actionType",
          "type": "string"
        },
        {
          "internalType": "address",
          "name": "targetAddress",
          "type": "address"
        },
        {
          "internalType": "uint256",
          "name": "eta",
          "type": "uint256"
        },
        {
          "internalType": "bool",
          "name": "executed",
          "type": "bool"
        },
        {
          "internalType": "uint256",
          "name": "yesVotes",
          "type": "uint256"
        }
      ],
      "stateMutability": "view",
      "type": "function"
    },
    {
      "inputs": [
        {
          "internalType": "string",
          "name": "actionType",
          "type": "string"
        },
        {
          "internalType": "address",
          "name": "target",
          "type": "address"
        }
      ],
      "name": "proposeAction",
      "outputs": [
        {
          "internalType": "uint256",
          "name": "",
          "type": "uint256"
        }
      ],
      "stateMutability": "nonpayable",
      "type": "function"
    },
    {
      "inputs": [
        {
          "internalType": "address",
          "name": "validator",
          "type": "address"
        },
        {
          "internalType": "uint256",
          "name": "gasUsed",
          "type": "uint256"
        }
      ],
      "name": "recycleGas",
      "outputs": [],
      "stateMutability": "nonpayable",
      "type": "function"
    },
    {
      "inputs": [],
      "name": "symbol",
      "outputs": [
        {
          "internalType": "string",
          "name": "",
          "type": "string"
        }
      ],
      "stateMutability": "view",
      "type": "function"
    },
    {
      "inputs": [],
      "name": "totalSupply",
      "outputs": [
        {
          "internalType": "uint256",
          "name": "",
          "type": "uint256"
        }
      ],
      "stateMutability": "view",
      "type": "function"
    },
    {
      "inputs": [
        {
          "internalType": "address",
          "name": "to",
          "type": "address"
        },
        {
          "internalType": "uint256",
          "name": "value",
          "type": "uint256"
        }
      ],
      "name": "transfer",
      "outputs": [
        {
          "internalType": "bool",
          "name": "",
          "type": "bool"
        }
      ],
      "stateMutability": "nonpayable",
      "type": "function"
    },
    {
      "inputs": [
        {
          "internalType": "address",
          "name": "from",
          "type": "address"
        },
        {
          "internalType": "address",
          "name": "to",
          "type": "address"
        },
        {
          "internalType": "uint256",
          "name": "value",
          "type": "uint256"
        }
      ],
      "name": "transferFrom",
      "outputs": [
        {
          "internalType": "bool",
          "name": "",
          "type": "bool"
        }
      ],
      "stateMutability": "nonpayable",
      "type": "function"
    },
    {
      "inputs": [
        {
          "internalType": "uint256",
          "name": "proposalId",
          "type": "uint256"
        }
      ],
      "name": "voteProposal",
      "outputs": [],
      "stateMutability": "nonpayable",
      "type": "function"
    }
  ],
  "bytecode": "0x60806040523480156200001157600080fd5b506040518060400160405280600f81526020016e29bcb6b134b7b9b4b9902a37b5b2b760891b8152506040518060400160405280600381526020016253594d60e81b8152508160039081620000679190620003f9565b506004620000768282620003f9565b505060078054600180820183557fa66cc928b5edb82af9bd49922954155ab7b0942694bea4ce44661d9a8736c6889182018054336001600160a01b031991821681179092558454808401865584018054732c6f91ce3a6abd991ffcd4c6dee3b689cde1528b908316811790915585548085019096559490930180547398fc4e22c5ed7ce8f7da550babdc6bbaef9a12b19416841790556000818152600860205260408120805460ff1990811685179091557f7f409dc33cb62ad7507581dbc6e0d9512599687901997c426cf99d4af34e7bac8054821685179055908490527f9809dd42a53de6f37beccf14bfd4c732c4bf525499e3f03aa3cd3ed52e763d8f80549091169092179091559250620001b4836064620001a26b033b2e3c9fd0803ce80000006050620004db565b620001ae9190620004fb565b620001dd565b620001d4306064620001a26b033b2e3c9fd0803ce80000006014620004db565b50505062000534565b6001600160a01b0382166200020d5760405163ec442f0560e01b8152600060048201526024015b60405180910390fd5b6200021b600083836200021f565b5050565b6001600160a01b0383166200024e5780600260008282546200024291906200051e565b90915550620002c29050565b6001600160a01b03831660009081526020819052604090205481811015620002a35760405163391434e360e21b81526001600160a01b0385166004820152602481018290526044810183905260640162000204565b6001600160a01b03841660009081526020819052604090209082900390555b6001600160a01b038216620002e057600280548290039055620002ff565b6001600160a01b03821660009081526020819052604090208054820190555b816001600160a01b0316836001600160a01b03167fddf252ad1be2c89b69c2b068fc378daa952ba7f163c4a11628f55a4df523b3ef836040516200034591815260200190565b60405180910390a3505050565b634e487b7160e01b600052604160045260246000fd5b600181811c908216806200037d57607f821691505b6020821081036200039e57634e487b7160e01b600052602260045260246000fd5b50919050565b601f821115620003f4576000816000526020600020601f850160051c81016020861015620003cf5750805b601f850160051c820191505b81811015620003f057828155600101620003db565b5050505b505050565b81516001600160401b0381111562000415576200041562000352565b6200042d8162000426845462000368565b84620003a4565b602080601f8311600181146200046557600084156200044c5750858301515b600019600386901b1c1916600185901b178555620003f0565b600085815260208120601f198616915b82811015620004965788860151825594840194600190910190840162000475565b5085821015620004b55787850151600019600388901b60f8161c191681555b5050505050600190811b01905550565b634e487b7160e01b600052601160045260246000fd5b8082028115828204841417620004f557620004f5620004c5565b92915050565b6000826200051957634e487b7160e01b600052601260045260246000fd5b500490565b80820180821115620004f557620004f5620004c5565b61177280620005446000396000f3fe608060405234801561001057600080fd5b50600436106101585760003560e01c806370a08231116100c3578063a7277b001161007c578063a7277b00146102fe578063a9059cbb14610329578063afcda2851461033c578063dc751d671461034f578063dd62ed3e14610362578063e43581b81461039b57600080fd5b806370a082311461027c57806379bb032f146102a557806379cc6790146102c8578063807896d5146102db57806395d89b41146102ee5780639e40df82146102f657600080fd5b806323b872dd1161011557806323b872dd146101fc578063313ce5671461020f57806332cb6b0c1461021e57806342966c681461023157806343859632146102445780635ba1c1a91461027257600080fd5b8063013cf08b1461015d57806306fdde031461018a578063095ea7b31461019f5780630d61b519146101c257806318160ddd146101d757806318bf49e6146101e9575b600080fd5b61017061016b366004611180565b6103be565b6040516101819594939291906111df565b60405180910390f35b61019261049d565b604051610181919061121f565b6101b26101ad366004611255565b61052f565b6040519015158152602001610181565b6101d56101d0366004611180565b610549565b005b6002545b604051908152602001610181565b6101db6101f7366004611295565b610936565b6101b261020a366004611357565b610acb565b60405160128152602001610181565b6101db6b033b2e3c9fd0803ce800000081565b6101d561023f366004611180565b610aef565b6101b2610252366004611393565b600a60209081526000928352604080842090915290825290205460ff1681565b6101db6201518081565b6101db61028a3660046113b6565b6001600160a01b031660009081526020819052604090205490565b6101b26102b33660046113b6565b60056020526000908152604090205460ff1681565b6101d56102d6366004611255565b610afc565b6101d56102e9366004611180565b610b15565b610192610ca1565b6101db601981565b61031161030c366004611180565b610cb0565b6040516001600160a01b039091168152602001610181565b6101b2610337366004611255565b610cda565b600654610311906001600160a01b031681565b6101d561035d366004611255565b610ce8565b6101db6103703660046113d1565b6001600160a01b03918216600090815260016020908152604080832093909416825291909152205490565b6101b26103a93660046113b6565b60086020526000908152604090205460ff1681565b600981815481106103ce57600080fd5b90600052602060002090600502016000915090508060000180546103f1906113fb565b80601f016020809104026020016040519081016040528092919081815260200182805461041d906113fb565b801561046a5780601f1061043f5761010080835404028352916020019161046a565b820191906000526020600020905b81548152906001019060200180831161044d57829003601f168201915b50505060018401546002850154600386015460049096015494956001600160a01b039092169490935060ff909116915085565b6060600380546104ac906113fb565b80601f01602080910402602001604051908101604052809291908181526020018280546104d8906113fb565b80156105255780601f106104fa57610100808354040283529160200191610525565b820191906000526020600020905b81548152906001019060200180831161050857829003601f168201915b5050505050905090565b60003361053d818585610e5c565b60019150505b92915050565b3360009081526008602052604090205460ff166105815760405162461bcd60e51b815260040161057890611435565b60405180910390fd5b60006009828154811061059657610596611479565b60009182526020909120600590910201600381015490915060ff16156105fa5760405162461bcd60e51b8152602060048201526019602482015278141c9bdc1bdcd85b08185b1c9958591e48195e1958dd5d1959603a1b6044820152606401610578565b806002015442101561064e5760405162461bcd60e51b815260206004820152601e60248201527f54696d656c6f636b2064656c6179206973206e6f74206f7665722079657400006044820152606401610578565b6002816004015410156106be5760405162461bcd60e51b815260206004820152603260248201527f496e73756666696369656e7420636f6e73656e737573207369676e61747572656044820152717320286d696e20322072657175697265642960701b6064820152608401610578565b60038101805460ff191660011790556040805180820182526014815273736574436f6e73656e737573526567697374727960601b602090910152517f4e460d3876a355fc61bf123bdf3e8dcff7f897cf93416dae8cefc635f41256ae9061072690839061148f565b60405180910390200361078857600181018054600680546001600160a01b0319166001600160a01b0392831617905590546040519116907f63b8f8e18de64ac58c4dee814613d77626f2f0b579c2d8ff03117b32d82aa39590600090a26108e7565b60408051808201825260118152703932b3b4b9ba32b92b30b634b230ba37b960791b602090910152517f6e6cf01c2035ecf0121c5dd8de79c0f6b9bc4d0ac18bc59954259d4a8e0bbd46906107de90839061148f565b604051809103902003610818576001818101546001600160a01b03166000908152600560205260409020805460ff191690911790556108e7565b604080518082018252600e81526d3ab83230ba32a3b7bb32b93737b960911b602090910152517f0b7a5b32cc588549cd4be1cd7ef03e68c69a2bc2f77975d849c660abc6cdab419061086b90839061148f565b6040518091039020036108a95760018101546001600160a01b03166000908152600860205260409020805460ff19811660ff909116151790556108e7565b60405162461bcd60e51b8152602060048201526013602482015272556e6b6e6f776e20616374696f6e207479706560681b6044820152606401610578565b60018101546040516001600160a01b039091169083907f815e4bff68e0a6f81d6ca6129bc921f2d6f47a1ea4e0e2f086cf5a9ca78027129061092a908590611505565b60405180910390a35050565b3360009081526008602052604081205460ff166109655760405162461bcd60e51b815260040161057890611435565b600061097462015180426115ab565b6040805160a0810182528681526001600160a01b03861660208201529081018290526000606082018190526001608083018190526009805491820181559091528151929350909160059091027f6e1540171b6c0c960b71a7020d9f60077f6af931a8bbf590da0223dacf75c7af019081906109ef908261160e565b506020820151600182810180546001600160a01b0319166001600160a01b039093169290921790915560408301516002830155606083015160038301805460ff1916911515919091179055608090920151600490910155600954600091610a55916116ce565b6000818152600a6020908152604080832033845290915290819020805460ff19166001179055519091506001600160a01b0385169082907f9cc3d9dd626042cdefb76484b91708c3207b637214b44f20111c893548d9c85f90610abb90899087906116e1565b60405180910390a3949350505050565b600033610ad9858285610e6e565b610ae4858585610eec565b506001949350505050565b610af93382610f4b565b50565b610b07823383610e6e565b610b118282610f4b565b5050565b3360009081526008602052604090205460ff16610b445760405162461bcd60e51b815260040161057890611435565b600060098281548110610b5957610b59611479565b60009182526020909120600590910201600381015490915060ff1615610bbd5760405162461bcd60e51b8152602060048201526019602482015278141c9bdc1bdcd85b08185b1c9958591e48195e1958dd5d1959603a1b6044820152606401610578565b6000828152600a6020908152604080832033845290915290205460ff1615610c275760405162461bcd60e51b815260206004820152601e60248201527f416c726561647920766f746564206f6e20746869732070726f706f73616c00006044820152606401610578565b6000828152600a602090815260408083203384529091528120805460ff1916600190811790915560048301805491929091610c639084906115ab565b90915550506004810154604051908152339083907f12602b81b4b3a6bc77534c571e8af3d316246bc5e5bea24efdf512ff6715da159060200161092a565b6060600480546104ac906113fb565b60078181548110610cc057600080fd5b6000918252602090912001546001600160a01b0316905081565b60003361053d818585610eec565b6006546001600160a01b03163314610d585760405162461bcd60e51b815260206004820152602d60248201527f4f6e6c7920436f6e73656e7375732052656769737472792063616e207472696760448201526c6765722072656379636c696e6760981b6064820152608401610578565b600060646019610d683a85611703565b610d729190611703565b610d7c919061171a565b905069010f0cf064dd5920000080821115610d95578091505b30600090815260208190526040902054821115610e085760405162461bcd60e51b815260206004820152602b60248201527f496e73756666696369656e74207472656173757279206761732072656379636c60448201526a696e672062616c616e636560a81b6064820152608401610578565b610e13308584610eec565b836001600160a01b03167f11c9a275a519d3bb61902765b0126632a3397dc2ba6c8f6fd983118ff2a98ccd83604051610e4e91815260200190565b60405180910390a250505050565b610e698383836001610f81565b505050565b6001600160a01b038381166000908152600160209081526040808320938616835292905220546000198114610ee65781811015610ed757604051637dc7a0d960e11b81526001600160a01b03841660048201526024810182905260448101839052606401610578565b610ee684848484036000610f81565b50505050565b6001600160a01b038316610f1657604051634b637e8f60e11b815260006004820152602401610578565b6001600160a01b038216610f405760405163ec442f0560e01b815260006004820152602401610578565b610e69838383611056565b6001600160a01b038216610f7557604051634b637e8f60e11b815260006004820152602401610578565b610b1182600083611056565b6001600160a01b038416610fab5760405163e602df0560e01b815260006004820152602401610578565b6001600160a01b038316610fd557604051634a1406b160e11b815260006004820152602401610578565b6001600160a01b0380851660009081526001602090815260408083209387168352929052208290558015610ee657826001600160a01b0316846001600160a01b03167f8c5be1e5ebec7d5bd14f71427d1e84f3dd0314c0f7b2291e5b200ac8c7c3b9258460405161104891815260200190565b60405180910390a350505050565b6001600160a01b03831661108157806002600082825461107691906115ab565b909155506110f39050565b6001600160a01b038316600090815260208190526040902054818110156110d45760405163391434e360e21b81526001600160a01b03851660048201526024810182905260448101839052606401610578565b6001600160a01b03841660009081526020819052604090209082900390555b6001600160a01b03821661110f5760028054829003905561112e565b6001600160a01b03821660009081526020819052604090208054820190555b816001600160a01b0316836001600160a01b03167fddf252ad1be2c89b69c2b068fc378daa952ba7f163c4a11628f55a4df523b3ef8360405161117391815260200190565b60405180910390a3505050565b60006020828403121561119257600080fd5b5035919050565b6000815180845260005b818110156111bf576020818501810151868301820152016111a3565b506000602082860101526020601f19601f83011685010191505092915050565b60a0815260006111f260a0830188611199565b6001600160a01b039690961660208301525060408101939093529015156060830152608090910152919050565b6020815260006112326020830184611199565b9392505050565b80356001600160a01b038116811461125057600080fd5b919050565b6000806040838503121561126857600080fd5b61127183611239565b946020939093013593505050565b634e487b7160e01b600052604160045260246000fd5b600080604083850312156112a857600080fd5b823567ffffffffffffffff808211156112c057600080fd5b818501915085601f8301126112d457600080fd5b8135818111156112e6576112e661127f565b604051601f8201601f19908116603f0116810190838211818310171561130e5761130e61127f565b8160405282815288602084870101111561132757600080fd5b82602086016020830137600060208483010152809650505050505061134e60208401611239565b90509250929050565b60008060006060848603121561136c57600080fd5b61137584611239565b925061138360208501611239565b9150604084013590509250925092565b600080604083850312156113a657600080fd5b8235915061134e60208401611239565b6000602082840312156113c857600080fd5b61123282611239565b600080604083850312156113e457600080fd5b6113ed83611239565b915061134e60208401611239565b600181811c9082168061140f57607f821691505b60208210810361142f57634e487b7160e01b600052602260045260246000fd5b50919050565b60208082526024908201527f43616c6c6572206973206e6f7420616e20617574686f72697a656420676f7665604082015263393737b960e11b606082015260800190565b634e487b7160e01b600052603260045260246000fd5b600080835461149d816113fb565b600182811680156114b557600181146114ca576114f9565b60ff19841687528215158302870194506114f9565b8760005260208060002060005b858110156114f05781548a8201529084019082016114d7565b50505082870194505b50929695505050505050565b6000602080835260008454611519816113fb565b806020870152604060018084166000811461153b576001811461155757611587565b60ff19851660408a0152604084151560051b8a01019550611587565b89600052602060002060005b8581101561157e5781548b8201860152908301908801611563565b8a016040019650505b509398975050505050505050565b634e487b7160e01b600052601160045260246000fd5b8082018082111561054357610543611595565b601f821115610e69576000816000526020600020601f850160051c810160208610156115e75750805b601f850160051c820191505b81811015611606578281556001016115f3565b505050505050565b815167ffffffffffffffff8111156116285761162861127f565b61163c8161163684546113fb565b846115be565b602080601f83116001811461167157600084156116595750858301515b600019600386901b1c1916600185901b178555611606565b600085815260208120601f198616915b828110156116a057888601518255948401946001909101908401611681565b50858210156116be5787850151600019600388901b60f8161c191681555b5050505050600190811b01905550565b8181038181111561054357610543611595565b6040815260006116f46040830185611199565b90508260208301529392505050565b808202811582820484141761054357610543611595565b60008261173757634e487b7160e01b600052601260045260246000fd5b50049056fea2646970667358221220b45b44ddb65f826d4c3b0af792b5faafe276e3413182b9da3bc65f946fe0379164736f6c63430008180033",
  "linkReferences": {},
  "deployedLinkReferences": {}
}