{
  "_format": "hh-sol-artifact-1",
  "contractName": "SymbiosisToken",
  "sourceName": "contracts/SymbiosisToken.sol",
  "abi": [
    {
      "inputs": [],
      "stateMutability": "nonpayable",
      "type": "constructor"
    },
    {
      "inputs": [
        {
          "internalType": "address",
          "name": "spender",
          "type": "address"
        },
        {
          "internalType": "uint256",
          "name": "allowance",
          "type": "uint256"
        },
        {
          "internalType": "uint256",
          "name": "needed",
          "type": "uint256"
        }
      ],
      "name": "ERC20InsufficientAllowance",
      "type": "error"
    },
    {
      "inputs": [
        {
          "internalType": "address",
          "name": "sender",
          "type": "address"
        },
        {
          "internalType": "uint256",
          "name": "balance",
          "type": "uint256"
        },
        {
          "internalType": "uint256",
          "name": "needed",
          "type": "uint256"
        }
      ],
      "name": "ERC20InsufficientBalance",
      "type": "error"
    },
    {
      "inputs": [
        {
          "internalType": "address",
          "name": "approver",
          "type": "address"
        }
      ],
      "name": "ERC20InvalidApprover",
      "type": "error"
    },
    {
      "inputs": [
        {
          "internalType": "address",
          "name": "receiver",
          "type": "address"
        }
      ],
      "name": "ERC20InvalidReceiver",
      "type": "error"
    },
    {
      "inputs": [
        {
          "internalType": "address",
          "name": "sender",
          "type": "address"
        }
      ],
      "name": "ERC20InvalidSender",
      "type": "error"
    },
    {
      "inputs": [
        {
          "internalType": "address",
          "name": "spender",
          "type": "address"
        }
      ],
      "name": "ERC20InvalidSpender",
      "type": "error"
    },
    {
      "anonymous": false,
      "inputs": [
        {
          "indexed": true,
          "internalType": "address",
          "name": "owner",
          "type": "address"
        },
        {
          "indexed": true,
          "internalType": "address",
          "name": "spender",
          "type": "address"
        },
        {
          "indexed": false,
          "internalType": "uint256",
          "name": "value",
          "type": "uint256"
        }
      ],
      "name": "Approval",
      "type": "event"
    },
    {
      "anonymous": false,
      "inputs": [
        {
          "indexed": true,
          "internalType": "address",
          "name": "registry",
          "type": "address"
        }
      ],
      "name": "ConsensusRegistryUpdated",
      "type": "event"
    },
    {
      "anonymous": false,
      "inputs": [
        {
          "indexed": true,
          "internalType": "address",
          "name": "validator",
          "type": "address"
        },
        {
          "indexed": false,
          "internalType": "uint256",
          "name": "amount",
          "type": "uint256"
        }
      ],
      "name": "GasRecycled",
      "type": "event"
    },
    {
      "anonymous": false,
      "inputs": [
        {
          "indexed": true,
          "internalType": "uint256",
          "name": "proposalId",
          "type": "uint256"
        },
        {
          "indexed": false,
          "internalType": "string",
          "name": "actionType",
          "type": "string"
        },
        {
          "indexed": true,
          "internalType": "address",
          "name": "target",
          "type": "address"
        },
        {
          "indexed": false,
          "internalType": "uint256",
          "name": "eta",
          "type": "uint256"
        }
      ],
      "name": "ProposalCreated",
      "type": "event"
    },
    {
      "anonymous": false,
      "inputs": [
        {
          "indexed": true,
          "internalType": "uint256",
          "name": "proposalId",
          "type": "uint256"
        },
        {
          "indexed": false,
          "internalType": "string",
          "name": "actionType",
          "type": "string"
        },
        {
          "indexed": true,
          "internalType": "address",
          "name": "target",
          "type": "address"
        }
      ],
      "name": "ProposalExecuted",
      "type": "event"
    },
    {
      "anonymous": false,
      "inputs": [
        {
          "indexed": true,
          "internalType": "uint256",
          "name": "proposalId",
          "type": "uint256"
        },
        {
          "indexed": true,
          "internalType": "address",
          "name": "governor",
          "type": "address"
        },
        {
          "indexed": false,
          "internalType": "uint256",
          "name": "currentVotes",
          "type": "uint256"
        }
      ],
      "name": "ProposalVoted",
      "type": "event"
    },
    {
      "anonymous": false,
      "inputs": [
        {
          "indexed": true,
          "internalType": "address",
          "name": "from",
          "type": "address"
        },
        {
          "indexed": true,
          "internalType": "address",
          "name": "to",
          "type": "address"
        },
        {
          "indexed": false,
          "internalType": "uint256",
          "name": "value",
          "type": "uint256"
        }
      ],
      "name": "Transfer",
      "type": "event"
    },
    {
      "inputs": [],
      "name": "MAX_SUPPLY",
      "outputs": [
        {
          "internalType": "uint256",
          "name": "",
          "type": "uint256"
        }
      ],
      "stateMutability": "view",
      "type": "function"
    },
    {
      "inputs": [],
      "name": "TIMELOCK_DELAY",
      "outputs": [
        {
          "internalType": "uint256",
          "name": "",
          "type": "uint256"
        }
      ],
      "stateMutability": "view",
      "type": "function"
    },
    {
      "inputs": [
        {
          "internalType": "address",
          "name": "owner",
          "type": "address"
        },
        {
          "internalType": "address",
          "name": "spender",
          "type": "address"
        }
      ],
      "name": "allowance",
      "outputs": [
        {
          "internalType": "uint256",
          "name": "",
          "type": "uint256"
        }
      ],
      "stateMutability": "view",
      "type": "function"
    },
    {
      "inputs": [
        {
          "internalType": "address",
          "name": "spender",
          "type": "address"
        },
        {
          "internalType": "uint256",
          "name": "value",
          "type": "uint256"
        }
      ],
      "name": "approve",
      "outputs": [
        {
          "internalType": "bool",
          "name": "",
          "type": "bool"
        }
      ],
      "stateMutability": "nonpayable",
      "type": "function"
    },
    {
      "inputs": [
        {
          "internalType": "address",
          "name": "account",
          "type": "address"
        }
      ],
      "name": "balanceOf",
      "outputs": [
        {
          "internalType": "uint256",
          "name": "",
          "type": "uint256"
        }
      ],
      "stateMutability": "view",
      "type": "function"
    },
    {
      "inputs": [
        {
          "internalType": "uint256",
          "name": "value",
          "type": "uint256"
        }
      ],
      "name": "burn",
      "outputs": [],
      "stateMutability": "nonpayable",
      "type": "function"
    },
    {
      "inputs": [
        {
          "internalType": "address",
          "name": "account",
          "type": "address"
        },
        {
          "internalType": "uint256",
          "name": "value",
          "type": "uint256"
        }
      ],
      "name": "burnFrom",
      "outputs": [],
      "stateMutability": "nonpayable",
      "type": "function"
    },
    {
      "inputs": [],
      "name": "consensusRegistry",
      "outputs": [
        {
          "internalType": "address",
          "name": "",
          "type": "address"
        }
      ],
      "stateMutability": "view",
      "type": "function"
    },
    {
      "inputs": [],
      "name": "decimals",
      "outputs": [
        {
          "internalType": "uint8",
          "name": "",
          "type": "uint8"
        }
      ],
      "stateMutability": "view",
      "type": "function"
    },
    {
      "inputs": [
        {
          "internalType": "uint256",
          "name": "proposalId",
          "type": "uint256"
        }
      ],
      "name": "executeProposal",
      "outputs": [],
      "stateMutability": "nonpayable",
      "type": "function"
    },
    {
      "inputs": [],
      "name": "gasBackPercentage",
      "outputs": [
        {
          "internalType": "uint256",
          "name": "",
          "type": "uint256"
        }
      ],
      "stateMutability": "view",
      "type": "function"
    },
    {
      "inputs": [
        {
          "internalType": "uint256",
          "name": "",
          "type": "uint256"
        }
      ],
      "name": "governors",
      "outputs": [
        {
          "internalType": "address",
          "name": "",
          "type": "address"
        }
      ],
      "stateMutability": "view",
      "type": "function"
    },
    {
      "inputs": [
        {
          "internalType": "uint256",
          "name": "",
          "type": "uint256"
        },
        {
          "internalType": "address",
          "name": "",
          "type": "address"
        }
      ],
      "name": "hasVoted",
      "outputs": [
        {
          "internalType": "bool",
          "name": "",
          "type": "bool"
        }
      ],
      "stateMutability": "view",
      "type": "function"
    },
    {
      "inputs": [
        {
          "internalType": "address",
          "name": "",
          "type": "address"
        }
      ],
      "name": "isGovernor",
      "outputs": [
        {
          "internalType": "bool",
          "name": "",
          "type": "bool"
        }
      ],
      "stateMutability": "view",
      "type": "function"
    },
    {
      "inputs": [
        {
          "internalType": "address",
          "name": "",
          "type": "address"
        }
      ],
      "name": "isValidatorNode",
      "outputs": [
        {
          "internalType": "bool",
          "name": "",
          "type": "bool"
        }
      ],
      "stateMutability": "view",
      "type": "function"
    },
    {
      "inputs": [],
      "name": "name",
      "outputs": [
        {
          "internalType": "string",
          "name": "",
          "type": "string"
        }
      ],
      "stateMutability": "view",
      "type": "function"
    },
    {
      "inputs": [
        {
          "internalType": "uint256",
          "name": "",
          "type": "uint256"
        }
      ],
      "name": "proposals",
      "outputs": [
        {
          "internalType": "string",
          "name": "actionType",
          "type": "string"
        },
        {
          "internalType": "address",
          "name": "targetAddress",
          "type": "address"
        },
        {
          "internalType": "uint256",
          "name": "eta",
          "type": "uint256"
        },
        {
          "internalType": "bool",
          "name": "executed",
          "type": "bool"
        },
        {
          "internalType": "uint256",
          "name": "yesVotes",
          "type": "uint256"
        }
      ],
      "stateMutability": "view",
      "type": "function"
    },
    {
      "inputs": [
        {
          "internalType": "string",
          "name": "_actionType",
          "type": "string"
        },
        {
          "internalType": "address",
          "name": "_target",
          "type": "address"
        }
      ],
      "name": "proposeAction",
      "outputs": [
        {
          "internalType": "uint256",
          "name": "",
          "type": "uint256"
        }
      ],
      "stateMutability": "nonpayable",
      "type": "function"
    },
    {
      "inputs": [
        {
          "internalType": "address",
          "name": "validator",
          "type": "address"
        },
        {
          "internalType": "uint256",
          "name": "gasUsed",
          "type": "uint256"
        }
      ],
      "name": "recycleGas",
      "outputs": [],
      "stateMutability": "nonpayable",
      "type": "function"
    },
    {
      "inputs": [],
      "name": "symbol",
      "outputs": [
        {
          "internalType": "string",
          "name": "",
          "type": "string"
        }
      ],
      "stateMutability": "view",
      "type": "function"
    },
    {
      "inputs": [],
      "name": "totalSupply",
      "outputs": [
        {
          "internalType": "uint256",
          "name": "",
          "type": "uint256"
        }
      ],
      "stateMutability": "view",
      "type": "function"
    },
    {
      "inputs": [
        {
          "internalType": "address",
          "name": "to",
          "type": "address"
        },
        {
          "internalType": "uint256",
          "name": "value",
          "type": "uint256"
        }
      ],
      "name": "transfer",
      "outputs": [
        {
          "internalType": "bool",
          "name": "",
          "type": "bool"
        }
      ],
      "stateMutability": "nonpayable",
      "type": "function"
    },
    {
      "inputs": [
        {
          "internalType": "address",
          "name": "from",
          "type": "address"
        },
        {
          "internalType": "address",
          "name": "to",
          "type": "address"
        },
        {
          "internalType": "uint256",
          "name": "value",
          "type": "uint256"
        }
      ],
      "name": "transferFrom",
      "outputs": [
        {
          "internalType": "bool",
          "name": "",
          "type": "bool"
        }
      ],
      "stateMutability": "nonpayable",
      "type": "function"
    },
    {
      "inputs": [
        {
          "internalType": "uint256",
          "name": "proposalId",
          "type": "uint256"
        }
      ],
      "name": "voteProposal",
      "outputs": [],
      "stateMutability": "nonpayable",
      "type": "function"
    }
  ],
  "bytecode": "0x608060405260196007553480156200001657600080fd5b506040518060400160405280600f81526020016e29bcb6b134b7b9b4b9902a37b5b2b760891b8152506040518060400160405280600381526020016253594d60e81b81525081600390816200006c9190620003fe565b5060046200007b8282620003fe565b505060088054600180820183557ff3f7a9fe364faab93b216da50a3214154f22a0a2b415b23a84c8169e8b636ee39182018054336001600160a01b031991821681179092558454808401865584018054732c6f91ce3a6abd991ffcd4c6dee3b689cde1528b908316811790915585548085019096559490930180547398fc4e22c5ed7ce8f7da550babdc6bbaef9a12b19416841790556000818152600960205260408120805460ff1990811685179091557fa5e0062e2a563cb5e6f77cb46f274a1a501b0b6f59b5871dda08731da99b38068054821685179055908490527f8a276bc274995563e5c6842057b73d283c3bdea71488cbff1d3df1eac20ab9c680549091169092179091559250620001b9836064620001a76b033b2e3c9fd0803ce80000006050620004e0565b620001b3919062000500565b620001e2565b620001d9306064620001a76b033b2e3c9fd0803ce80000006014620004e0565b50505062000539565b6001600160a01b038216620002125760405163ec442f0560e01b8152600060048201526024015b60405180910390fd5b620002206000838362000224565b5050565b6001600160a01b0383166200025357806002600082825462000247919062000523565b90915550620002c79050565b6001600160a01b03831660009081526020819052604090205481811015620002a85760405163391434e360e21b81526001600160a01b0385166004820152602481018290526044810183905260640162000209565b6001600160a01b03841660009081526020819052604090209082900390555b6001600160a01b038216620002e55760028054829003905562000304565b6001600160a01b03821660009081526020819052604090208054820190555b816001600160a01b0316836001600160a01b03167fddf252ad1be2c89b69c2b068fc378daa952ba7f163c4a11628f55a4df523b3ef836040516200034a91815260200190565b60405180910390a3505050565b634e487b7160e01b600052604160045260246000fd5b600181811c908216806200038257607f821691505b602082108103620003a357634e487b7160e01b600052602260045260246000fd5b50919050565b601f821115620003f9576000816000526020600020601f850160051c81016020861015620003d45750805b601f850160051c820191505b81811015620003f557828155600101620003e0565b5050505b505050565b81516001600160401b038111156200041a576200041a62000357565b62000432816200042b84546200036d565b84620003a9565b602080601f8311600181146200046a5760008415620004515750858301515b600019600386901b1c1916600185901b178555620003f5565b600085815260208120601f198616915b828110156200049b578886015182559484019460019091019084016200047a565b5085821015620004ba5787850151600019600388901b60f8161c191681555b5050505050600190811b01905550565b634e487b7160e01b600052601160045260246000fd5b8082028115828204841417620004fa57620004fa620004ca565b92915050565b6000826200051e57634e487b7160e01b600052601260045260246000fd5b500490565b80820180821115620004fa57620004fa620004ca565b61177780620005496000396000f3fe608060405234801561001057600080fd5b50600436106101585760003560e01c806370a08231116100c3578063a7277b001161007c578063a7277b00146102ff578063a9059cbb1461032a578063afcda2851461033d578063dc751d6714610350578063dd62ed3e14610363578063e43581b81461039c57600080fd5b806370a082311461027c57806379bb032f146102a557806379cc6790146102c8578063807896d5146102db57806395d89b41146102ee5780639e40df82146102f657600080fd5b806323b872dd1161011557806323b872dd146101fc578063313ce5671461020f57806332cb6b0c1461021e57806342966c681461023157806343859632146102445780635ba1c1a91461027257600080fd5b8063013cf08b1461015d57806306fdde031461018a578063095ea7b31461019f5780630d61b519146101c257806318160ddd146101d757806318bf49e6146101e9575b600080fd5b61017061016b366004611185565b6103bf565b6040516101819594939291906111e4565b60405180910390f35b61019261049e565b6040516101819190611224565b6101b26101ad36600461125a565b610530565b6040519015158152602001610181565b6101d56101d0366004611185565b61054a565b005b6002545b604051908152602001610181565b6101db6101f736600461129a565b610937565b6101b261020a36600461135c565b610acc565b60405160128152602001610181565b6101db6b033b2e3c9fd0803ce800000081565b6101d561023f366004611185565b610af0565b6101b2610252366004611398565b600b60209081526000928352604080842090915290825290205460ff1681565b6101db6201518081565b6101db61028a3660046113bb565b6001600160a01b031660009081526020819052604090205490565b6101b26102b33660046113bb565b60056020526000908152604090205460ff1681565b6101d56102d636600461125a565b610afd565b6101d56102e9366004611185565b610b16565b610192610ca2565b6101db60075481565b61031261030d366004611185565b610cb1565b6040516001600160a01b039091168152602001610181565b6101b261033836600461125a565b610cdb565b600654610312906001600160a01b031681565b6101d561035e36600461125a565b610ce9565b6101db6103713660046113d6565b6001600160a01b03918216600090815260016020908152604080832093909416825291909152205490565b6101b26103aa3660046113bb565b60096020526000908152604090205460ff1681565b600a81815481106103cf57600080fd5b90600052602060002090600502016000915090508060000180546103f290611400565b80601f016020809104026020016040519081016040528092919081815260200182805461041e90611400565b801561046b5780601f106104405761010080835404028352916020019161046b565b820191906000526020600020905b81548152906001019060200180831161044e57829003601f168201915b50505060018401546002850154600386015460049096015494956001600160a01b039092169490935060ff909116915085565b6060600380546104ad90611400565b80601f01602080910402602001604051908101604052809291908181526020018280546104d990611400565b80156105265780601f106104fb57610100808354040283529160200191610526565b820191906000526020600020905b81548152906001019060200180831161050957829003601f168201915b5050505050905090565b60003361053e818585610e60565b60019150505b92915050565b3360009081526009602052604090205460ff166105825760405162461bcd60e51b81526004016105799061143a565b60405180910390fd5b6000600a82815481106105975761059761147e565b60009182526020909120600590910201600381015490915060ff16156105fb5760405162461bcd60e51b8152602060048201526019602482015278141c9bdc1bdcd85b08185b1c9958591e48195e1958dd5d1959603a1b6044820152606401610579565b806002015442101561064f5760405162461bcd60e51b815260206004820152601e60248201527f54696d656c6f636b2064656c6179206973206e6f74206f7665722079657400006044820152606401610579565b6002816004015410156106bf5760405162461bcd60e51b815260206004820152603260248201527f496e73756666696369656e7420636f6e73656e737573207369676e61747572656044820152717320286d696e20322072657175697265642960701b6064820152608401610579565b60038101805460ff191660011790556040805180820182526014815273736574436f6e73656e737573526567697374727960601b602090910152517f4e460d3876a355fc61bf123bdf3e8dcff7f897cf93416dae8cefc635f41256ae90610727908390611494565b60405180910390200361078957600181018054600680546001600160a01b0319166001600160a01b0392831617905590546040519116907f63b8f8e18de64ac58c4dee814613d77626f2f0b579c2d8ff03117b32d82aa39590600090a26108e8565b60408051808201825260118152703932b3b4b9ba32b92b30b634b230ba37b960791b602090910152517f6e6cf01c2035ecf0121c5dd8de79c0f6b9bc4d0ac18bc59954259d4a8e0bbd46906107df908390611494565b604051809103902003610819576001818101546001600160a01b03166000908152600560205260409020805460ff191690911790556108e8565b604080518082018252600e81526d3ab83230ba32a3b7bb32b93737b960911b602090910152517f0b7a5b32cc588549cd4be1cd7ef03e68c69a2bc2f77975d849c660abc6cdab419061086c908390611494565b6040518091039020036108aa5760018101546001600160a01b03166000908152600960205260409020805460ff19811660ff909116151790556108e8565b60405162461bcd60e51b8152602060048201526013602482015272556e6b6e6f776e20616374696f6e207479706560681b6044820152606401610579565b60018101546040516001600160a01b039091169083907f815e4bff68e0a6f81d6ca6129bc921f2d6f47a1ea4e0e2f086cf5a9ca78027129061092b90859061150a565b60405180910390a35050565b3360009081526009602052604081205460ff166109665760405162461bcd60e51b81526004016105799061143a565b600061097562015180426115b0565b6040805160a0810182528681526001600160a01b0386166020820152908101829052600060608201819052600160808301819052600a805491820181559091528151929350909160059091027fc65a7bb8d6351c1cf70c95a316cc6a92839c986682d98bc35f958f4883f9d2a8019081906109f09082611613565b506020820151600182810180546001600160a01b0319166001600160a01b039093169290921790915560408301516002830155606083015160038301805460ff1916911515919091179055608090920151600490910155600a54600091610a56916116d3565b6000818152600b6020908152604080832033845290915290819020805460ff19166001179055519091506001600160a01b0385169082907f9cc3d9dd626042cdefb76484b91708c3207b637214b44f20111c893548d9c85f90610abc90899087906116e6565b60405180910390a3949350505050565b600033610ada858285610e72565b610ae5858585610ef1565b506001949350505050565b610afa3382610f50565b50565b610b08823383610e72565b610b128282610f50565b5050565b3360009081526009602052604090205460ff16610b455760405162461bcd60e51b81526004016105799061143a565b6000600a8281548110610b5a57610b5a61147e565b60009182526020909120600590910201600381015490915060ff1615610bbe5760405162461bcd60e51b8152602060048201526019602482015278141c9bdc1bdcd85b08185b1c9958591e48195e1958dd5d1959603a1b6044820152606401610579565b6000828152600b6020908152604080832033845290915290205460ff1615610c285760405162461bcd60e51b815260206004820152601e60248201527f416c726561647920766f746564206f6e20746869732070726f706f73616c00006044820152606401610579565b6000828152600b602090815260408083203384529091528120805460ff1916600190811790915560048301805491929091610c649084906115b0565b90915550506004810154604051908152339083907f12602b81b4b3a6bc77534c571e8af3d316246bc5e5bea24efdf512ff6715da159060200161092b565b6060600480546104ad90611400565b60088181548110610cc157600080fd5b6000918252602090912001546001600160a01b0316905081565b60003361053e818585610ef1565b6006546001600160a01b03163314610d595760405162461bcd60e51b815260206004820152602d60248201527f4f6e6c7920436f6e73656e7375732052656769737472792063616e207472696760448201526c6765722072656379636c696e6760981b6064820152608401610579565b600060646007543a84610d6c9190611708565b610d769190611708565b610d80919061171f565b905069010f0cf064dd5920000080821115610d99578091505b30600090815260208190526040902054821115610e0c5760405162461bcd60e51b815260206004820152602b60248201527f496e73756666696369656e74207472656173757279206761732072656379636c60448201526a696e672062616c616e636560a81b6064820152608401610579565b610e17308584610ef1565b836001600160a01b03167f11c9a275a519d3bb61902765b0126632a3397dc2ba6c8f6fd983118ff2a98ccd83604051610e5291815260200190565b60405180910390a250505050565b610e6d8383836001610f86565b505050565b6001600160a01b03838116600090815260016020908152604080832093861683529290522054600019811015610eeb5781811015610edc57604051637dc7a0d960e11b81526001600160a01b03841660048201526024810182905260448101839052606401610579565b610eeb84848484036000610f86565b50505050565b6001600160a01b038316610f1b57604051634b637e8f60e11b815260006004820152602401610579565b6001600160a01b038216610f455760405163ec442f0560e01b815260006004820152602401610579565b610e6d83838361105b565b6001600160a01b038216610f7a57604051634b637e8f60e11b815260006004820152602401610579565b610b128260008361105b565b6001600160a01b038416610fb05760405163e602df0560e01b815260006004820152602401610579565b6001600160a01b038316610fda57604051634a1406b160e11b815260006004820152602401610579565b6001600160a01b0380851660009081526001602090815260408083209387168352929052208290558015610eeb57826001600160a01b0316846001600160a01b03167f8c5be1e5ebec7d5bd14f71427d1e84f3dd0314c0f7b2291e5b200ac8c7c3b9258460405161104d91815260200190565b60405180910390a350505050565b6001600160a01b03831661108657806002600082825461107b91906115b0565b909155506110f89050565b6001600160a01b038316600090815260208190526040902054818110156110d95760405163391434e360e21b81526001600160a01b03851660048201526024810182905260448101839052606401610579565b6001600160a01b03841660009081526020819052604090209082900390555b6001600160a01b03821661111457600280548290039055611133565b6001600160a01b03821660009081526020819052604090208054820190555b816001600160a01b0316836001600160a01b03167fddf252ad1be2c89b69c2b068fc378daa952ba7f163c4a11628f55a4df523b3ef8360405161117891815260200190565b60405180910390a3505050565b60006020828403121561119757600080fd5b5035919050565b6000815180845260005b818110156111c4576020818501810151868301820152016111a8565b506000602082860101526020601f19601f83011685010191505092915050565b60a0815260006111f760a083018861119e565b6001600160a01b039690961660208301525060408101939093529015156060830152608090910152919050565b602081526000611237602083018461119e565b9392505050565b80356001600160a01b038116811461125557600080fd5b919050565b6000806040838503121561126d57600080fd5b6112768361123e565b946020939093013593505050565b634e487b7160e01b600052604160045260246000fd5b600080604083850312156112ad57600080fd5b823567ffffffffffffffff808211156112c557600080fd5b818501915085601f8301126112d957600080fd5b8135818111156112eb576112eb611284565b604051601f8201601f19908116603f0116810190838211818310171561131357611313611284565b8160405282815288602084870101111561132c57600080fd5b8260208601602083013760006020848301015280965050505050506113536020840161123e565b90509250929050565b60008060006060848603121561137157600080fd5b61137a8461123e565b92506113886020850161123e565b9150604084013590509250925092565b600080604083850312156113ab57600080fd5b823591506113536020840161123e565b6000602082840312156113cd57600080fd5b6112378261123e565b600080604083850312156113e957600080fd5b6113f28361123e565b91506113536020840161123e565b600181811c9082168061141457607f821691505b60208210810361143457634e487b7160e01b600052602260045260246000fd5b50919050565b60208082526024908201527f43616c6c6572206973206e6f7420616e20617574686f72697a656420676f7665604082015263393737b960e11b606082015260800190565b634e487b7160e01b600052603260045260246000fd5b60008083546114a281611400565b600182811680156114ba57600181146114cf576114fe565b60ff19841687528215158302870194506114fe565b8760005260208060002060005b858110156114f55781548a8201529084019082016114dc565b50505082870194505b50929695505050505050565b600060208083526000845461151e81611400565b8060208701526040600180841660008114611540576001811461155c5761158c565b60ff19851660408a0152604084151560051b8a0101955061158c565b89600052602060002060005b858110156115835781548b8201860152908301908801611568565b8a016040019650505b509398975050505050505050565b634e487b7160e01b600052601160045260246000fd5b808201808211156105445761054461159a565b601f821115610e6d576000816000526020600020601f850160051c810160208610156115ec5750805b601f850160051c820191505b8181101561160b578281556001016115f8565b505050505050565b815167ffffffffffffffff81111561162d5761162d611284565b6116418161163b8454611400565b846115c3565b602080601f831160018114611676576000841561165e5750858301515b600019600386901b1c1916600185901b17855561160b565b600085815260208120601f198616915b828110156116a557888601518255948401946001909101908401611686565b50858210156116c35787850151600019600388901b60f8161c191681555b5050505050600190811b01905550565b818103818111156105445761054461159a565b6040815260006116f9604083018561119e565b90508260208301529392505050565b80820281158282048414176105445761054461159a565b60008261173c57634e487b7160e01b600052601260045260246000fd5b50049056fea26469706673582212200f01f9b43fdc17c7a9c132e293cf19459830c30bf621b1c78b1fef1386c82c5664736f6c63430008180033",
  "linkReferences": {},
  "deployedLinkReferences": {}
}