{
  "_format": "hh-sol-artifact-1",
  "contractName": "SymbiosisToken",
  "sourceName": "contracts/SymbiosisToken.sol",
  "abi": [
    {
      "inputs": [],
      "stateMutability": "nonpayable",
      "type": "constructor"
    },
    {
      "inputs": [
        {
          "internalType": "address",
          "name": "spender",
          "type": "address"
        },
        {
          "internalType": "uint256",
          "name": "allowance",
          "type": "uint256"
        },
        {
          "internalType": "uint256",
          "name": "needed",
          "type": "uint256"
        }
      ],
      "name": "ERC20InsufficientAllowance",
      "type": "error"
    },
    {
      "inputs": [
        {
          "internalType": "address",
          "name": "sender",
          "type": "address"
        },
        {
          "internalType": "uint256",
          "name": "balance",
          "type": "uint256"
        },
        {
          "internalType": "uint256",
          "name": "needed",
          "type": "uint256"
        }
      ],
      "name": "ERC20InsufficientBalance",
      "type": "error"
    },
    {
      "inputs": [
        {
          "internalType": "address",
          "name": "approver",
          "type": "address"
        }
      ],
      "name": "ERC20InvalidApprover",
      "type": "error"
    },
    {
      "inputs": [
        {
          "internalType": "address",
          "name": "receiver",
          "type": "address"
        }
      ],
      "name": "ERC20InvalidReceiver",
      "type": "error"
    },
    {
      "inputs": [
        {
          "internalType": "address",
          "name": "sender",
          "type": "address"
        }
      ],
      "name": "ERC20InvalidSender",
      "type": "error"
    },
    {
      "inputs": [
        {
          "internalType": "address",
          "name": "spender",
          "type": "address"
        }
      ],
      "name": "ERC20InvalidSpender",
      "type": "error"
    },
    {
      "inputs": [],
      "name": "EnforcedPause",
      "type": "error"
    },
    {
      "inputs": [],
      "name": "ExpectedPause",
      "type": "error"
    },
    {
      "anonymous": false,
      "inputs": [
        {
          "indexed": true,
          "internalType": "address",
          "name": "owner",
          "type": "address"
        },
        {
          "indexed": true,
          "internalType": "address",
          "name": "spender",
          "type": "address"
        },
        {
          "indexed": false,
          "internalType": "uint256",
          "name": "value",
          "type": "uint256"
        }
      ],
      "name": "Approval",
      "type": "event"
    },
    {
      "anonymous": false,
      "inputs": [
        {
          "indexed": true,
          "internalType": "address",
          "name": "registry",
          "type": "address"
        }
      ],
      "name": "ConsensusRegistryUpdated",
      "type": "event"
    },
    {
      "anonymous": false,
      "inputs": [
        {
          "indexed": true,
          "internalType": "address",
          "name": "validator",
          "type": "address"
        },
        {
          "indexed": false,
          "internalType": "uint256",
          "name": "amount",
          "type": "uint256"
        }
      ],
      "name": "GasRecycled",
      "type": "event"
    },
    {
      "anonymous": false,
      "inputs": [
        {
          "indexed": false,
          "internalType": "address",
          "name": "account",
          "type": "address"
        }
      ],
      "name": "Paused",
      "type": "event"
    },
    {
      "anonymous": false,
      "inputs": [
        {
          "indexed": true,
          "internalType": "uint256",
          "name": "proposalId",
          "type": "uint256"
        },
        {
          "indexed": false,
          "internalType": "string",
          "name": "actionType",
          "type": "string"
        },
        {
          "indexed": true,
          "internalType": "address",
          "name": "target",
          "type": "address"
        },
        {
          "indexed": false,
          "internalType": "uint256",
          "name": "eta",
          "type": "uint256"
        }
      ],
      "name": "ProposalCreated",
      "type": "event"
    },
    {
      "anonymous": false,
      "inputs": [
        {
          "indexed": true,
          "internalType": "uint256",
          "name": "proposalId",
          "type": "uint256"
        },
        {
          "indexed": false,
          "internalType": "string",
          "name": "actionType",
          "type": "string"
        },
        {
          "indexed": true,
          "internalType": "address",
          "name": "target",
          "type": "address"
        }
      ],
      "name": "ProposalExecuted",
      "type": "event"
    },
    {
      "anonymous": false,
      "inputs": [
        {
          "indexed": true,
          "internalType": "uint256",
          "name": "proposalId",
          "type": "uint256"
        },
        {
          "indexed": true,
          "internalType": "address",
          "name": "governor",
          "type": "address"
        },
        {
          "indexed": false,
          "internalType": "uint256",
          "name": "currentVotes",
          "type": "uint256"
        }
      ],
      "name": "ProposalVoted",
      "type": "event"
    },
    {
      "anonymous": false,
      "inputs": [
        {
          "indexed": true,
          "internalType": "address",
          "name": "validator",
          "type": "address"
        },
        {
          "indexed": false,
          "internalType": "uint256",
          "name": "amount",
          "type": "uint256"
        }
      ],
      "name": "RewardsClaimed",
      "type": "event"
    },
    {
      "anonymous": false,
      "inputs": [
        {
          "indexed": true,
          "internalType": "address",
          "name": "from",
          "type": "address"
        },
        {
          "indexed": true,
          "internalType": "address",
          "name": "to",
          "type": "address"
        },
        {
          "indexed": false,
          "internalType": "uint256",
          "name": "value",
          "type": "uint256"
        }
      ],
      "name": "Transfer",
      "type": "event"
    },
    {
      "anonymous": false,
      "inputs": [
        {
          "indexed": false,
          "internalType": "address",
          "name": "account",
          "type": "address"
        }
      ],
      "name": "Unpaused",
      "type": "event"
    },
    {
      "inputs": [],
      "name": "MAX_SUPPLY",
      "outputs": [
        {
          "internalType": "uint256",
          "name": "",
          "type": "uint256"
        }
      ],
      "stateMutability": "view",
      "type": "function"
    },
    {
      "inputs": [
        {
          "internalType": "address",
          "name": "owner",
          "type": "address"
        },
        {
          "internalType": "address",
          "name": "spender",
          "type": "address"
        }
      ],
      "name": "allowance",
      "outputs": [
        {
          "internalType": "uint256",
          "name": "",
          "type": "uint256"
        }
      ],
      "stateMutability": "view",
      "type": "function"
    },
    {
      "inputs": [
        {
          "internalType": "address",
          "name": "spender",
          "type": "address"
        },
        {
          "internalType": "uint256",
          "name": "value",
          "type": "uint256"
        }
      ],
      "name": "approve",
      "outputs": [
        {
          "internalType": "bool",
          "name": "",
          "type": "bool"
        }
      ],
      "stateMutability": "nonpayable",
      "type": "function"
    },
    {
      "inputs": [
        {
          "internalType": "address",
          "name": "account",
          "type": "address"
        }
      ],
      "name": "balanceOf",
      "outputs": [
        {
          "internalType": "uint256",
          "name": "",
          "type": "uint256"
        }
      ],
      "stateMutability": "view",
      "type": "function"
    },
    {
      "inputs": [
        {
          "internalType": "uint256",
          "name": "value",
          "type": "uint256"
        }
      ],
      "name": "burn",
      "outputs": [],
      "stateMutability": "nonpayable",
      "type": "function"
    },
    {
      "inputs": [
        {
          "internalType": "address",
          "name": "account",
          "type": "address"
        },
        {
          "internalType": "uint256",
          "name": "value",
          "type": "uint256"
        }
      ],
      "name": "burnFrom",
      "outputs": [],
      "stateMutability": "nonpayable",
      "type": "function"
    },
    {
      "inputs": [
        {
          "internalType": "address",
          "name": "validator",
          "type": "address"
        },
        {
          "internalType": "uint256",
          "name": "rewardAmount",
          "type": "uint256"
        }
      ],
      "name": "claimValidatorRewards",
      "outputs": [],
      "stateMutability": "nonpayable",
      "type": "function"
    },
    {
      "inputs": [],
      "name": "consensusRegistry",
      "outputs": [
        {
          "internalType": "address",
          "name": "",
          "type": "address"
        }
      ],
      "stateMutability": "view",
      "type": "function"
    },
    {
      "inputs": [],
      "name": "decimals",
      "outputs": [
        {
          "internalType": "uint8",
          "name": "",
          "type": "uint8"
        }
      ],
      "stateMutability": "view",
      "type": "function"
    },
    {
      "inputs": [
        {
          "internalType": "uint256",
          "name": "proposalId",
          "type": "uint256"
        }
      ],
      "name": "executeProposal",
      "outputs": [],
      "stateMutability": "nonpayable",
      "type": "function"
    },
    {
      "inputs": [],
      "name": "gasBackPercentage",
      "outputs": [
        {
          "internalType": "uint256",
          "name": "",
          "type": "uint256"
        }
      ],
      "stateMutability": "view",
      "type": "function"
    },
    {
      "inputs": [
        {
          "internalType": "uint256",
          "name": "",
          "type": "uint256"
        }
      ],
      "name": "governors",
      "outputs": [
        {
          "internalType": "address",
          "name": "",
          "type": "address"
        }
      ],
      "stateMutability": "view",
      "type": "function"
    },
    {
      "inputs": [
        {
          "internalType": "uint256",
          "name": "",
          "type": "uint256"
        },
        {
          "internalType": "address",
          "name": "",
          "type": "address"
        }
      ],
      "name": "hasVoted",
      "outputs": [
        {
          "internalType": "bool",
          "name": "",
          "type": "bool"
        }
      ],
      "stateMutability": "view",
      "type": "function"
    },
    {
      "inputs": [
        {
          "internalType": "address",
          "name": "",
          "type": "address"
        }
      ],
      "name": "isGovernor",
      "outputs": [
        {
          "internalType": "bool",
          "name": "",
          "type": "bool"
        }
      ],
      "stateMutability": "view",
      "type": "function"
    },
    {
      "inputs": [
        {
          "internalType": "address",
          "name": "",
          "type": "address"
        }
      ],
      "name": "isValidatorNode",
      "outputs": [
        {
          "internalType": "bool",
          "name": "",
          "type": "bool"
        }
      ],
      "stateMutability": "view",
      "type": "function"
    },
    {
      "inputs": [],
      "name": "name",
      "outputs": [
        {
          "internalType": "string",
          "name": "",
          "type": "string"
        }
      ],
      "stateMutability": "view",
      "type": "function"
    },
    {
      "inputs": [],
      "name": "pause",
      "outputs": [],
      "stateMutability": "nonpayable",
      "type": "function"
    },
    {
      "inputs": [],
      "name": "paused",
      "outputs": [
        {
          "internalType": "bool",
          "name": "",
          "type": "bool"
        }
      ],
      "stateMutability": "view",
      "type": "function"
    },
    {
      "inputs": [
        {
          "internalType": "uint256",
          "name": "",
          "type": "uint256"
        }
      ],
      "name": "proposals",
      "outputs": [
        {
          "internalType": "string",
          "name": "actionType",
          "type": "string"
        },
        {
          "internalType": "address",
          "name": "targetAddress",
          "type": "address"
        },
        {
          "internalType": "uint256",
          "name": "eta",
          "type": "uint256"
        },
        {
          "internalType": "bool",
          "name": "executed",
          "type": "bool"
        },
        {
          "internalType": "uint256",
          "name": "yesVotes",
          "type": "uint256"
        }
      ],
      "stateMutability": "view",
      "type": "function"
    },
    {
      "inputs": [
        {
          "internalType": "string",
          "name": "actionType",
          "type": "string"
        },
        {
          "internalType": "address",
          "name": "target",
          "type": "address"
        }
      ],
      "name": "proposeAction",
      "outputs": [
        {
          "internalType": "uint256",
          "name": "",
          "type": "uint256"
        }
      ],
      "stateMutability": "nonpayable",
      "type": "function"
    },
    {
      "inputs": [
        {
          "internalType": "address",
          "name": "validator",
          "type": "address"
        },
        {
          "internalType": "uint256",
          "name": "gasUsed",
          "type": "uint256"
        }
      ],
      "name": "recycleGas",
      "outputs": [],
      "stateMutability": "nonpayable",
      "type": "function"
    },
    {
      "inputs": [],
      "name": "symbol",
      "outputs": [
        {
          "internalType": "string",
          "name": "",
          "type": "string"
        }
      ],
      "stateMutability": "view",
      "type": "function"
    },
    {
      "inputs": [],
      "name": "timelockDelay",
      "outputs": [
        {
          "internalType": "uint256",
          "name": "",
          "type": "uint256"
        }
      ],
      "stateMutability": "view",
      "type": "function"
    },
    {
      "inputs": [],
      "name": "totalSupply",
      "outputs": [
        {
          "internalType": "uint256",
          "name": "",
          "type": "uint256"
        }
      ],
      "stateMutability": "view",
      "type": "function"
    },
    {
      "inputs": [
        {
          "internalType": "address",
          "name": "to",
          "type": "address"
        },
        {
          "internalType": "uint256",
          "name": "value",
          "type": "uint256"
        }
      ],
      "name": "transfer",
      "outputs": [
        {
          "internalType": "bool",
          "name": "",
          "type": "bool"
        }
      ],
      "stateMutability": "nonpayable",
      "type": "function"
    },
    {
      "inputs": [
        {
          "internalType": "address",
          "name": "from",
          "type": "address"
        },
        {
          "internalType": "address",
          "name": "to",
          "type": "address"
        },
        {
          "internalType": "uint256",
          "name": "value",
          "type": "uint256"
        }
      ],
      "name": "transferFrom",
      "outputs": [
        {
          "internalType": "bool",
          "name": "",
          "type": "bool"
        }
      ],
      "stateMutability": "nonpayable",
      "type": "function"
    },
    {
      "inputs": [],
      "name": "unpause",
      "outputs": [],
      "stateMutability": "nonpayable",
      "type": "function"
    },
    {
      "inputs": [
        {
          "internalType": "uint256",
          "name": "proposalId",
          "type": "uint256"
        }
      ],
      "name": "voteProposal",
      "outputs": [],
      "stateMutability": "nonpayable",
      "type": "function"
    }
  ],
  "bytecode": "0x60806040526019600855620151806009553480156200001d57600080fd5b506040518060400160405280600f81526020016e29bcb6b134b7b9b4b9902a37b5b2b760891b8152506040518060400160405280600381526020016253594d60e81b81525081600390816200007391906200040e565b5060046200008282826200040e565b50506005805460ff19908116909155600a8054600181810183557fc65a7bb8d6351c1cf70c95a316cc6a92839c986682d98bc35f958f4883f9d2a89182018054336001600160a01b031991821681179092558454808401865584018054732c6f91ce3a6abd991ffcd4c6dee3b689cde1528b908316811790915585548085019096559490930180547398fc4e22c5ed7ce8f7da550babdc6bbaef9a12b19416841790556000818152600b6020526040812080548716841790557ff2bcad679452ee4552d4a561d2197d49388676e589d14837dd1640eab5436e8e80548716841790558390527fa499399c6ecf0df6a333c2f14332908e46588fc4798af916d5371dbebc0a7dc3805490951690911790935591925090620001c9836064620001b76b033b2e3c9fd0803ce80000006050620004f0565b620001c3919062000510565b620001f2565b620001e9306064620001b76b033b2e3c9fd0803ce80000006014620004f0565b50505062000549565b6001600160a01b038216620002225760405163ec442f0560e01b8152600060048201526024015b60405180910390fd5b620002306000838362000234565b5050565b6001600160a01b0383166200026357806002600082825462000257919062000533565b90915550620002d79050565b6001600160a01b03831660009081526020819052604090205481811015620002b85760405163391434e360e21b81526001600160a01b0385166004820152602481018290526044810183905260640162000219565b6001600160a01b03841660009081526020819052604090209082900390555b6001600160a01b038216620002f55760028054829003905562000314565b6001600160a01b03821660009081526020819052604090208054820190555b816001600160a01b0316836001600160a01b03167fddf252ad1be2c89b69c2b068fc378daa952ba7f163c4a11628f55a4df523b3ef836040516200035a91815260200190565b60405180910390a3505050565b634e487b7160e01b600052604160045260246000fd5b600181811c908216806200039257607f821691505b602082108103620003b357634e487b7160e01b600052602260045260246000fd5b50919050565b601f82111562000409576000816000526020600020601f850160051c81016020861015620003e45750805b601f850160051c820191505b818110156200040557828155600101620003f0565b5050505b505050565b81516001600160401b038111156200042a576200042a62000367565b62000442816200043b84546200037d565b84620003b9565b602080601f8311600181146200047a5760008415620004615750858301515b600019600386901b1c1916600185901b17855562000405565b600085815260208120601f198616915b82811015620004ab578886015182559484019460019091019084016200048a565b5085821015620004ca5787850151600019600388901b60f8161c191681555b5050505050600190811b01905550565b634e487b7160e01b600052601160045260246000fd5b80820281158282048414176200050a576200050a620004da565b92915050565b6000826200052e57634e487b7160e01b600052601260045260246000fd5b500490565b808201808211156200050a576200050a620004da565b611bd280620005596000396000f3fe608060405234801561001057600080fd5b50600436106101c45760003560e01c806379bb032f116100f9578063a9059cbb11610097578063dd62ed3e11610071578063dd62ed3e146103e0578063e307495114610419578063e43581b81461042c578063eef09bad1461044f57600080fd5b8063a9059cbb146103a7578063afcda285146103ba578063dc751d67146103cd57600080fd5b80638456cb59116100d35780638456cb591461036357806395d89b411461036b5780639e40df8214610373578063a7277b001461037c57600080fd5b806379bb032f1461031a57806379cc67901461033d578063807896d51461035057600080fd5b8063313ce5671161016657806342966c681161014057806342966c68146102a557806343859632146102b85780635c975abb146102e657806370a08231146102f157600080fd5b8063313ce5671461027b57806332cb6b0c1461028a5780633f4ba83a1461029d57600080fd5b80630d61b519116101a25780630d61b5191461022e57806318160ddd1461024357806318bf49e61461025557806323b872dd1461026857600080fd5b8063013cf08b146101c957806306fdde03146101f6578063095ea7b31461020b575b600080fd5b6101dc6101d73660046115e7565b610458565b6040516101ed959493929190611646565b60405180910390f35b6101fe610537565b6040516101ed9190611686565b61021e6102193660046116b5565b6105c9565b60405190151581526020016101ed565b61024161023c3660046115e7565b6105e3565b005b6002545b6040519081526020016101ed565b6102476102633660046116f5565b610a8a565b61021e6102763660046117b7565b610c28565b604051601281526020016101ed565b6102476b033b2e3c9fd0803ce800000081565b610241610c45565b6102416102b33660046115e7565b610c7e565b61021e6102c63660046117f3565b600d60209081526000928352604080842090915290825290205460ff1681565b60055460ff1661021e565b6102476102ff366004611816565b6001600160a01b031660009081526020819052604090205490565b61021e610328366004611816565b60066020526000908152604090205460ff1681565b61024161034b3660046116b5565b610c8b565b61024161035e3660046115e7565b610ca4565b610241610e92565b6101fe610ec9565b61024760085481565b61038f61038a3660046115e7565b610ed8565b6040516001600160a01b0390911681526020016101ed565b61021e6103b53660046116b5565b610f02565b60075461038f906001600160a01b031681565b6102416103db3660046116b5565b610f1d565b6102476103ee366004611831565b6001600160a01b03918216600090815260016020908152604080832093909416825291909152205490565b6102416104273660046116b5565b6110b0565b61021e61043a366004611816565b600b6020526000908152604090205460ff1681565b61024760095481565b600c818154811061046857600080fd5b906000526020600020906005020160009150905080600001805461048b9061185b565b80601f01602080910402602001604051908101604052809291908181526020018280546104b79061185b565b80156105045780601f106104d957610100808354040283529160200191610504565b820191906000526020600020905b8154815290600101906020018083116104e757829003601f168201915b50505060018401546002850154600386015460049096015494956001600160a01b039092169490935060ff909116915085565b6060600380546105469061185b565b80601f01602080910402602001604051908101604052809291908181526020018280546105729061185b565b80156105bf5780601f10610594576101008083540402835291602001916105bf565b820191906000526020600020905b8154815290600101906020018083116105a257829003601f168201915b5050505050905090565b6000336105d78185856111cc565b60019150505b92915050565b336000908152600b602052604090205460ff1661061b5760405162461bcd60e51b815260040161061290611895565b60405180910390fd5b6106236111de565b6000600c8281548110610638576106386118d9565b60009182526020909120600590910201600381015490915060ff161561069c5760405162461bcd60e51b8152602060048201526019602482015278141c9bdc1bdcd85b08185b1c9958591e48195e1958dd5d1959603a1b6044820152606401610612565b80600201544210156106f05760405162461bcd60e51b815260206004820152601e60248201527f54696d656c6f636b2064656c6179206973206e6f74206f7665722079657400006044820152606401610612565b6002816004015410156107605760405162461bcd60e51b815260206004820152603260248201527f496e73756666696369656e7420636f6e73656e737573207369676e61747572656044820152717320286d696e20322072657175697265642960701b6064820152608401610612565b60038101805460ff191660011790556040516000906107809083906118ef565b604080519182900382208282019091526014825273736574436f6e73656e737573526567697374727960601b60209092019190915290507fb1b9f2c7895caa039e40edc420c17230080768306cbe9251731039ca0beda952810161083357600182018054600780546001600160a01b0319166001600160a01b0392831617905590546040519116907f63b8f8e18de64ac58c4dee814613d77626f2f0b579c2d8ff03117b32d82aa39590600090a2610a3a565b6040805180820190915260118152703932b3b4b9ba32b92b30b634b230ba37b960791b6020909101527f91930fe3dfca130fede3a22721863f094643b2f53e743a66abda62b571f442ba81016108b0576001828101546001600160a01b03166000908152600660205260409020805460ff19169091179055610a3a565b60408051808201909152600e81526d3ab83230ba32a3b7bb32b93737b960911b6020909101527ff485a4cd33a77ab632b41e32810fc1973965d43d08868a27b6399f54393254bf810161092e5760018201546001600160a01b03166000908152600b60205260409020805460ff19811660ff90911615179055610a3a565b6040805180820190915260148152737365744761734261636b50657263656e7461676560601b6020909101527f453aadc1c1c7a80ba58d514723b90f4da38186eda0cbaaf01a0774ada0f7f2cb81016109975760018201546001600160a01b0316600855610a3a565b60408051808201909152601081526f73657454696d656c6f636b44656c617960801b6020909101527fe9582e29e0397b670e57fd3656d494ca92b1d5a5cbc984933f9b276a9a54c9ce81016109fc5760018201546001600160a01b0316600955610a3a565b60405162461bcd60e51b8152602060048201526013602482015272556e6b6e6f776e20616374696f6e207479706560681b6044820152606401610612565b60018201546040516001600160a01b039091169084907f815e4bff68e0a6f81d6ca6129bc921f2d6f47a1ea4e0e2f086cf5a9ca780271290610a7d908690611965565b60405180910390a3505050565b336000908152600b602052604081205460ff16610ab95760405162461bcd60e51b815260040161061290611895565b610ac16111de565b600060095442610ad19190611a0b565b6040805160a0810182528681526001600160a01b0386166020820152908101829052600060608201819052600160808301819052600c805491820181559091528151929350909160059091027fdf6966c971051c3d54ec59162606531493a51404a002842f56009d7e5cf4a8c701908190610b4c9082611a6e565b506020820151600182810180546001600160a01b0319166001600160a01b039093169290921790915560408301516002830155606083015160038301805460ff1916911515919091179055608090920151600490910155600c54600091610bb291611b2e565b6000818152600d6020908152604080832033845290915290819020805460ff19166001179055519091506001600160a01b0385169082907f9cc3d9dd626042cdefb76484b91708c3207b637214b44f20111c893548d9c85f90610c189089908790611b41565b60405180910390a3949350505050565b6000610c326111de565b610c3d848484611202565b949350505050565b336000908152600b602052604090205460ff16610c745760405162461bcd60e51b815260040161061290611895565b610c7c611226565b565b610c883382611278565b50565b610c968233836112ae565b610ca08282611278565b5050565b336000908152600b602052604090205460ff16610cd35760405162461bcd60e51b815260040161061290611895565b610cdb6111de565b6000600c8281548110610cf057610cf06118d9565b60009182526020909120600590910201600381015490915060ff1615610d545760405162461bcd60e51b8152602060048201526019602482015278141c9bdc1bdcd85b08185b1c9958591e48195e1958dd5d1959603a1b6044820152606401610612565b80600201544210610da75760405162461bcd60e51b815260206004820152601760248201527f566f74696e6720706572696f642068617320656e6465640000000000000000006044820152606401610612565b6000828152600d6020908152604080832033845290915290205460ff1615610e115760405162461bcd60e51b815260206004820152601e60248201527f416c726561647920766f746564206f6e20746869732070726f706f73616c00006044820152606401610612565b6000828152600d602090815260408083203384529091528120805460ff1916600190811790915560048301805491929091610e4d908490611a0b565b90915550506004810154604051908152339083907f12602b81b4b3a6bc77534c571e8af3d316246bc5e5bea24efdf512ff6715da159060200160405180910390a35050565b336000908152600b602052604090205460ff16610ec15760405162461bcd60e51b815260040161061290611895565b610c7c61132c565b6060600480546105469061185b565b600a8181548110610ee857600080fd5b6000918252602090912001546001600160a01b0316905081565b6000610f0c6111de565b610f168383611369565b9392505050565b610f256111de565b6007546001600160a01b03163314610f955760405162461bcd60e51b815260206004820152602d60248201527f4f6e6c7920436f6e73656e7375732052656769737472792063616e207472696760448201526c6765722072656379636c696e6760981b6064820152608401610612565b6000804811610fa4573a610fa6565b485b9050600060646008548385610fbb9190611b63565b610fc59190611b63565b610fcf9190611b7a565b905069010f0cf064dd5920000080821115610fe8578091505b3060009081526020819052604090205482111561105b5760405162461bcd60e51b815260206004820152602b60248201527f496e73756666696369656e74207472656173757279206761732072656379636c60448201526a696e672062616c616e636560a81b6064820152608401610612565b611066308684611373565b846001600160a01b03167f11c9a275a519d3bb61902765b0126632a3397dc2ba6c8f6fd983118ff2a98ccd836040516110a191815260200190565b60405180910390a25050505050565b6110b86111de565b6007546001600160a01b031633146111245760405162461bcd60e51b815260206004820152602960248201527f4f6e6c7920436f6e73656e7375732052656769737472792063616e20636c61696044820152686d207265776172647360b81b6064820152608401610612565b3060009081526020819052604090205481111561117a5760405162461bcd60e51b815260206004820152601460248201527352657761726420706f6f6c20697320656d70747960601b6044820152606401610612565b611185308383611373565b816001600160a01b03167ffc30cddea38e2bf4d6ea7d3f9ed3b6ad7f176419f4963bd81318067a4aee73fe826040516111c091815260200190565b60405180910390a25050565b6111d983838360016113d2565b505050565b60055460ff1615610c7c5760405163d93c066560e01b815260040160405180910390fd5b6000336112108582856112ae565b61121b858585611373565b506001949350505050565b61122e6114a7565b6005805460ff191690557f5db9ee0a495bf2e6ff9c91a7834c1ba4fdd244a5e8aa4e537bd38aeae4b073aa335b6040516001600160a01b03909116815260200160405180910390a1565b6001600160a01b0382166112a257604051634b637e8f60e11b815260006004820152602401610612565b610ca0826000836114ca565b6001600160a01b038381166000908152600160209081526040808320938616835292905220546000198114611326578181101561131757604051637dc7a0d960e11b81526001600160a01b03841660048201526024810182905260448101839052606401610612565b611326848484840360006113d2565b50505050565b6113346111de565b6005805460ff191660011790557f62e78cea01bee320cd4e420270b5ea74000d11b0c9f74754ebdbfc544b05a25861125b3390565b6000336105d78185855b6001600160a01b03831661139d57604051634b637e8f60e11b815260006004820152602401610612565b6001600160a01b0382166113c75760405163ec442f0560e01b815260006004820152602401610612565b6111d98383836114ca565b6001600160a01b0384166113fc5760405163e602df0560e01b815260006004820152602401610612565b6001600160a01b03831661142657604051634a1406b160e11b815260006004820152602401610612565b6001600160a01b038085166000908152600160209081526040808320938716835292905220829055801561132657826001600160a01b0316846001600160a01b03167f8c5be1e5ebec7d5bd14f71427d1e84f3dd0314c0f7b2291e5b200ac8c7c3b9258460405161149991815260200190565b60405180910390a350505050565b60055460ff16610c7c57604051638dfc202b60e01b815260040160405180910390fd5b6001600160a01b0383166114f55780600260008282546114ea9190611a0b565b909155506115679050565b6001600160a01b038316600090815260208190526040902054818110156115485760405163391434e360e21b81526001600160a01b03851660048201526024810182905260448101839052606401610612565b6001600160a01b03841660009081526020819052604090209082900390555b6001600160a01b038216611583576002805482900390556115a2565b6001600160a01b03821660009081526020819052604090208054820190555b816001600160a01b0316836001600160a01b03167fddf252ad1be2c89b69c2b068fc378daa952ba7f163c4a11628f55a4df523b3ef83604051610a7d91815260200190565b6000602082840312156115f957600080fd5b5035919050565b6000815180845260005b818110156116265760208185018101518683018201520161160a565b506000602082860101526020601f19601f83011685010191505092915050565b60a08152600061165960a0830188611600565b6001600160a01b039690961660208301525060408101939093529015156060830152608090910152919050565b602081526000610f166020830184611600565b80356001600160a01b03811681146116b057600080fd5b919050565b600080604083850312156116c857600080fd5b6116d183611699565b946020939093013593505050565b634e487b7160e01b600052604160045260246000fd5b6000806040838503121561170857600080fd5b823567ffffffffffffffff8082111561172057600080fd5b818501915085601f83011261173457600080fd5b813581811115611746576117466116df565b604051601f8201601f19908116603f0116810190838211818310171561176e5761176e6116df565b8160405282815288602084870101111561178757600080fd5b8260208601602083013760006020848301015280965050505050506117ae60208401611699565b90509250929050565b6000806000606084860312156117cc57600080fd5b6117d584611699565b92506117e360208501611699565b9150604084013590509250925092565b6000806040838503121561180657600080fd5b823591506117ae60208401611699565b60006020828403121561182857600080fd5b610f1682611699565b6000806040838503121561184457600080fd5b61184d83611699565b91506117ae60208401611699565b600181811c9082168061186f57607f821691505b60208210810361188f57634e487b7160e01b600052602260045260246000fd5b50919050565b60208082526024908201527f43616c6c6572206973206e6f7420616e20617574686f72697a656420676f7665604082015263393737b960e11b606082015260800190565b634e487b7160e01b600052603260045260246000fd5b60008083546118fd8161185b565b60018281168015611915576001811461192a57611959565b60ff1984168752821515830287019450611959565b8760005260208060002060005b858110156119505781548a820152908401908201611937565b50505082870194505b50929695505050505050565b60006020808352600084546119798161185b565b806020870152604060018084166000811461199b57600181146119b7576119e7565b60ff19851660408a0152604084151560051b8a010195506119e7565b89600052602060002060005b858110156119de5781548b82018601529083019088016119c3565b8a016040019650505b509398975050505050505050565b634e487b7160e01b600052601160045260246000fd5b808201808211156105dd576105dd6119f5565b601f8211156111d9576000816000526020600020601f850160051c81016020861015611a475750805b601f850160051c820191505b81811015611a6657828155600101611a53565b505050505050565b815167ffffffffffffffff811115611a8857611a886116df565b611a9c81611a96845461185b565b84611a1e565b602080601f831160018114611ad15760008415611ab95750858301515b600019600386901b1c1916600185901b178555611a66565b600085815260208120601f198616915b82811015611b0057888601518255948401946001909101908401611ae1565b5085821015611b1e5787850151600019600388901b60f8161c191681555b5050505050600190811b01905550565b818103818111156105dd576105dd6119f5565b604081526000611b546040830185611600565b90508260208301529392505050565b80820281158282048414176105dd576105dd6119f5565b600082611b9757634e487b7160e01b600052601260045260246000fd5b50049056fea26469706673582212203304ab1f578cc3e4a8bf0b7767e164a16113531d63e840457cb1b1096806318464736f6c63430008180033",
  "linkReferences": {},
  "deployedLinkReferences": {}
}