{
  "_format": "hh-sol-artifact-1",
  "contractName": "SymbiosisToken",
  "sourceName": "contracts/SymbiosisToken.sol",
  "abi": [
    {
      "inputs": [],
      "stateMutability": "nonpayable",
      "type": "constructor"
    },
    {
      "inputs": [
        {
          "internalType": "address",
          "name": "spender",
          "type": "address"
        },
        {
          "internalType": "uint256",
          "name": "allowance",
          "type": "uint256"
        },
        {
          "internalType": "uint256",
          "name": "needed",
          "type": "uint256"
        }
      ],
      "name": "ERC20InsufficientAllowance",
      "type": "error"
    },
    {
      "inputs": [
        {
          "internalType": "address",
          "name": "sender",
          "type": "address"
        },
        {
          "internalType": "uint256",
          "name": "balance",
          "type": "uint256"
        },
        {
          "internalType": "uint256",
          "name": "needed",
          "type": "uint256"
        }
      ],
      "name": "ERC20InsufficientBalance",
      "type": "error"
    },
    {
      "inputs": [
        {
          "internalType": "address",
          "name": "approver",
          "type": "address"
        }
      ],
      "name": "ERC20InvalidApprover",
      "type": "error"
    },
    {
      "inputs": [
        {
          "internalType": "address",
          "name": "receiver",
          "type": "address"
        }
      ],
      "name": "ERC20InvalidReceiver",
      "type": "error"
    },
    {
      "inputs": [
        {
          "internalType": "address",
          "name": "sender",
          "type": "address"
        }
      ],
      "name": "ERC20InvalidSender",
      "type": "error"
    },
    {
      "inputs": [
        {
          "internalType": "address",
          "name": "spender",
          "type": "address"
        }
      ],
      "name": "ERC20InvalidSpender",
      "type": "error"
    },
    {
      "inputs": [],
      "name": "EnforcedPause",
      "type": "error"
    },
    {
      "inputs": [],
      "name": "ExpectedPause",
      "type": "error"
    },
    {
      "anonymous": false,
      "inputs": [
        {
          "indexed": true,
          "internalType": "address",
          "name": "owner",
          "type": "address"
        },
        {
          "indexed": true,
          "internalType": "address",
          "name": "spender",
          "type": "address"
        },
        {
          "indexed": false,
          "internalType": "uint256",
          "name": "value",
          "type": "uint256"
        }
      ],
      "name": "Approval",
      "type": "event"
    },
    {
      "anonymous": false,
      "inputs": [
        {
          "indexed": true,
          "internalType": "address",
          "name": "registry",
          "type": "address"
        }
      ],
      "name": "ConsensusRegistryUpdated",
      "type": "event"
    },
    {
      "anonymous": false,
      "inputs": [
        {
          "indexed": true,
          "internalType": "address",
          "name": "validator",
          "type": "address"
        },
        {
          "indexed": false,
          "internalType": "uint256",
          "name": "amount",
          "type": "uint256"
        }
      ],
      "name": "GasRecycled",
      "type": "event"
    },
    {
      "anonymous": false,
      "inputs": [
        {
          "indexed": false,
          "internalType": "address",
          "name": "account",
          "type": "address"
        }
      ],
      "name": "Paused",
      "type": "event"
    },
    {
      "anonymous": false,
      "inputs": [
        {
          "indexed": true,
          "internalType": "uint256",
          "name": "proposalId",
          "type": "uint256"
        },
        {
          "indexed": false,
          "internalType": "string",
          "name": "actionType",
          "type": "string"
        },
        {
          "indexed": true,
          "internalType": "address",
          "name": "target",
          "type": "address"
        },
        {
          "indexed": false,
          "internalType": "uint256",
          "name": "eta",
          "type": "uint256"
        }
      ],
      "name": "ProposalCreated",
      "type": "event"
    },
    {
      "anonymous": false,
      "inputs": [
        {
          "indexed": true,
          "internalType": "uint256",
          "name": "proposalId",
          "type": "uint256"
        },
        {
          "indexed": false,
          "internalType": "string",
          "name": "actionType",
          "type": "string"
        },
        {
          "indexed": true,
          "internalType": "address",
          "name": "target",
          "type": "address"
        }
      ],
      "name": "ProposalExecuted",
      "type": "event"
    },
    {
      "anonymous": false,
      "inputs": [
        {
          "indexed": true,
          "internalType": "uint256",
          "name": "proposalId",
          "type": "uint256"
        },
        {
          "indexed": true,
          "internalType": "address",
          "name": "governor",
          "type": "address"
        },
        {
          "indexed": false,
          "internalType": "uint256",
          "name": "currentVotes",
          "type": "uint256"
        }
      ],
      "name": "ProposalVoted",
      "type": "event"
    },
    {
      "anonymous": false,
      "inputs": [
        {
          "indexed": true,
          "internalType": "address",
          "name": "validator",
          "type": "address"
        },
        {
          "indexed": false,
          "internalType": "uint256",
          "name": "amount",
          "type": "uint256"
        }
      ],
      "name": "RewardsClaimed",
      "type": "event"
    },
    {
      "anonymous": false,
      "inputs": [
        {
          "indexed": true,
          "internalType": "address",
          "name": "from",
          "type": "address"
        },
        {
          "indexed": true,
          "internalType": "address",
          "name": "to",
          "type": "address"
        },
        {
          "indexed": false,
          "internalType": "uint256",
          "name": "value",
          "type": "uint256"
        }
      ],
      "name": "Transfer",
      "type": "event"
    },
    {
      "anonymous": false,
      "inputs": [
        {
          "indexed": false,
          "internalType": "address",
          "name": "account",
          "type": "address"
        }
      ],
      "name": "Unpaused",
      "type": "event"
    },
    {
      "inputs": [],
      "name": "MAX_SUPPLY",
      "outputs": [
        {
          "internalType": "uint256",
          "name": "",
          "type": "uint256"
        }
      ],
      "stateMutability": "view",
      "type": "function"
    },
    {
      "inputs": [
        {
          "internalType": "address",
          "name": "owner",
          "type": "address"
        },
        {
          "internalType": "address",
          "name": "spender",
          "type": "address"
        }
      ],
      "name": "allowance",
      "outputs": [
        {
          "internalType": "uint256",
          "name": "",
          "type": "uint256"
        }
      ],
      "stateMutability": "view",
      "type": "function"
    },
    {
      "inputs": [
        {
          "internalType": "address",
          "name": "spender",
          "type": "address"
        },
        {
          "internalType": "uint256",
          "name": "value",
          "type": "uint256"
        }
      ],
      "name": "approve",
      "outputs": [
        {
          "internalType": "bool",
          "name": "",
          "type": "bool"
        }
      ],
      "stateMutability": "nonpayable",
      "type": "function"
    },
    {
      "inputs": [
        {
          "internalType": "address",
          "name": "account",
          "type": "address"
        }
      ],
      "name": "balanceOf",
      "outputs": [
        {
          "internalType": "uint256",
          "name": "",
          "type": "uint256"
        }
      ],
      "stateMutability": "view",
      "type": "function"
    },
    {
      "inputs": [
        {
          "internalType": "uint256",
          "name": "value",
          "type": "uint256"
        }
      ],
      "name": "burn",
      "outputs": [],
      "stateMutability": "nonpayable",
      "type": "function"
    },
    {
      "inputs": [
        {
          "internalType": "address",
          "name": "account",
          "type": "address"
        },
        {
          "internalType": "uint256",
          "name": "value",
          "type": "uint256"
        }
      ],
      "name": "burnFrom",
      "outputs": [],
      "stateMutability": "nonpayable",
      "type": "function"
    },
    {
      "inputs": [
        {
          "internalType": "address",
          "name": "validator",
          "type": "address"
        },
        {
          "internalType": "uint256",
          "name": "rewardAmount",
          "type": "uint256"
        }
      ],
      "name": "claimValidatorRewards",
      "outputs": [],
      "stateMutability": "nonpayable",
      "type": "function"
    },
    {
      "inputs": [],
      "name": "consensusRegistry",
      "outputs": [
        {
          "internalType": "address",
          "name": "",
          "type": "address"
        }
      ],
      "stateMutability": "view",
      "type": "function"
    },
    {
      "inputs": [],
      "name": "decimals",
      "outputs": [
        {
          "internalType": "uint8",
          "name": "",
          "type": "uint8"
        }
      ],
      "stateMutability": "view",
      "type": "function"
    },
    {
      "inputs": [
        {
          "internalType": "uint256",
          "name": "proposalId",
          "type": "uint256"
        }
      ],
      "name": "executeProposal",
      "outputs": [],
      "stateMutability": "nonpayable",
      "type": "function"
    },
    {
      "inputs": [],
      "name": "gasBackPercentage",
      "outputs": [
        {
          "internalType": "uint256",
          "name": "",
          "type": "uint256"
        }
      ],
      "stateMutability": "view",
      "type": "function"
    },
    {
      "inputs": [
        {
          "internalType": "uint256",
          "name": "",
          "type": "uint256"
        }
      ],
      "name": "governors",
      "outputs": [
        {
          "internalType": "address",
          "name": "",
          "type": "address"
        }
      ],
      "stateMutability": "view",
      "type": "function"
    },
    {
      "inputs": [
        {
          "internalType": "uint256",
          "name": "",
          "type": "uint256"
        },
        {
          "internalType": "address",
          "name": "",
          "type": "address"
        }
      ],
      "name": "hasVoted",
      "outputs": [
        {
          "internalType": "bool",
          "name": "",
          "type": "bool"
        }
      ],
      "stateMutability": "view",
      "type": "function"
    },
    {
      "inputs": [
        {
          "internalType": "address",
          "name": "",
          "type": "address"
        }
      ],
      "name": "isGovernor",
      "outputs": [
        {
          "internalType": "bool",
          "name": "",
          "type": "bool"
        }
      ],
      "stateMutability": "view",
      "type": "function"
    },
    {
      "inputs": [
        {
          "internalType": "address",
          "name": "",
          "type": "address"
        }
      ],
      "name": "isValidatorNode",
      "outputs": [
        {
          "internalType": "bool",
          "name": "",
          "type": "bool"
        }
      ],
      "stateMutability": "view",
      "type": "function"
    },
    {
      "inputs": [],
      "name": "name",
      "outputs": [
        {
          "internalType": "string",
          "name": "",
          "type": "string"
        }
      ],
      "stateMutability": "view",
      "type": "function"
    },
    {
      "inputs": [],
      "name": "pause",
      "outputs": [],
      "stateMutability": "nonpayable",
      "type": "function"
    },
    {
      "inputs": [],
      "name": "paused",
      "outputs": [
        {
          "internalType": "bool",
          "name": "",
          "type": "bool"
        }
      ],
      "stateMutability": "view",
      "type": "function"
    },
    {
      "inputs": [
        {
          "internalType": "uint256",
          "name": "",
          "type": "uint256"
        }
      ],
      "name": "proposals",
      "outputs": [
        {
          "internalType": "string",
          "name": "actionType",
          "type": "string"
        },
        {
          "internalType": "address",
          "name": "targetAddress",
          "type": "address"
        },
        {
          "internalType": "uint256",
          "name": "eta",
          "type": "uint256"
        },
        {
          "internalType": "bool",
          "name": "executed",
          "type": "bool"
        },
        {
          "internalType": "uint256",
          "name": "yesVotes",
          "type": "uint256"
        }
      ],
      "stateMutability": "view",
      "type": "function"
    },
    {
      "inputs": [
        {
          "internalType": "string",
          "name": "actionType",
          "type": "string"
        },
        {
          "internalType": "address",
          "name": "target",
          "type": "address"
        }
      ],
      "name": "proposeAction",
      "outputs": [
        {
          "internalType": "uint256",
          "name": "",
          "type": "uint256"
        }
      ],
      "stateMutability": "nonpayable",
      "type": "function"
    },
    {
      "inputs": [
        {
          "internalType": "address",
          "name": "validator",
          "type": "address"
        },
        {
          "internalType": "uint256",
          "name": "gasUsed",
          "type": "uint256"
        }
      ],
      "name": "recycleGas",
      "outputs": [],
      "stateMutability": "nonpayable",
      "type": "function"
    },
    {
      "inputs": [
        {
          "internalType": "address",
          "name": "contractAddr",
          "type": "address"
        },
        {
          "internalType": "bool",
          "name": "status",
          "type": "bool"
        }
      ],
      "name": "setWhitelistedContract",
      "outputs": [],
      "stateMutability": "nonpayable",
      "type": "function"
    },
    {
      "inputs": [],
      "name": "symbol",
      "outputs": [
        {
          "internalType": "string",
          "name": "",
          "type": "string"
        }
      ],
      "stateMutability": "view",
      "type": "function"
    },
    {
      "inputs": [],
      "name": "timelockDelay",
      "outputs": [
        {
          "internalType": "uint256",
          "name": "",
          "type": "uint256"
        }
      ],
      "stateMutability": "view",
      "type": "function"
    },
    {
      "inputs": [],
      "name": "totalSupply",
      "outputs": [
        {
          "internalType": "uint256",
          "name": "",
          "type": "uint256"
        }
      ],
      "stateMutability": "view",
      "type": "function"
    },
    {
      "inputs": [
        {
          "internalType": "address",
          "name": "to",
          "type": "address"
        },
        {
          "internalType": "uint256",
          "name": "value",
          "type": "uint256"
        }
      ],
      "name": "transfer",
      "outputs": [
        {
          "internalType": "bool",
          "name": "",
          "type": "bool"
        }
      ],
      "stateMutability": "nonpayable",
      "type": "function"
    },
    {
      "inputs": [
        {
          "internalType": "address",
          "name": "from",
          "type": "address"
        },
        {
          "internalType": "address",
          "name": "to",
          "type": "address"
        },
        {
          "internalType": "uint256",
          "name": "value",
          "type": "uint256"
        }
      ],
      "name": "transferFrom",
      "outputs": [
        {
          "internalType": "bool",
          "name": "",
          "type": "bool"
        }
      ],
      "stateMutability": "nonpayable",
      "type": "function"
    },
    {
      "inputs": [],
      "name": "unpause",
      "outputs": [],
      "stateMutability": "nonpayable",
      "type": "function"
    },
    {
      "inputs": [
        {
          "internalType": "uint256",
          "name": "proposalId",
          "type": "uint256"
        }
      ],
      "name": "voteProposal",
      "outputs": [],
      "stateMutability": "nonpayable",
      "type": "function"
    },
    {
      "inputs": [
        {
          "internalType": "address",
          "name": "",
          "type": "address"
        }
      ],
      "name": "whitelistedContracts",
      "outputs": [
        {
          "internalType": "bool",
          "name": "",
          "type": "bool"
        }
      ],
      "stateMutability": "view",
      "type": "function"
    }
  ],
  "bytecode": "0x60806040526019600855620151806009553480156200001d57600080fd5b506040518060400160405280600f81526020017f53796d62696f73697320546f6b656e00000000000000000000000000000000008152506040518060400160405280600381526020017f53594d000000000000000000000000000000000000000000000000000000000081525081600390816200009b919062000b1a565b508060049081620000ad919062000b1a565b5050506000600560006101000a81548160ff021916908315150217905550620000e76793af14ad6876712c60c01b620005e060201b60201c565b6200010367e4593acbffe6246560c01b620005e060201b60201c565b6200011f6772a6b7c1fbfd687260c01b620005e060201b60201c565b600033905062000140678d83fb935b54839860c01b620005e060201b60201c565b6200015c674f3241c631a1732260c01b620005e060201b60201c565b6000732c6f91ce3a6abd991ffcd4c6dee3b689cde1528b9050620001916705990bca495f8ffa60c01b620005e060201b60201c565b620001ad676f93a222bfa89bd160c01b620005e060201b60201c565b60007398fc4e22c5ed7ce8f7da550babdc6bbaef9a12b19050620001e2673deef3389e0879f960c01b620005e060201b60201c565b620001fe6775281f1b97e56eee60c01b620005e060201b60201c565b600a839080600181540180825580915050600190039060005260206000200160009091909190916101000a81548173ffffffffffffffffffffffffffffffffffffffff021916908373ffffffffffffffffffffffffffffffffffffffff1602179055506200027d677c2918d2be875e6460c01b620005e060201b60201c565b62000299678b7fe1aad62a3dc260c01b620005e060201b60201c565b600a829080600181540180825580915050600190039060005260206000200160009091909190916101000a81548173ffffffffffffffffffffffffffffffffffffffff021916908373ffffffffffffffffffffffffffffffffffffffff16021790555062000318676e5f40bd39917fcc60c01b620005e060201b60201c565b62000334674e8dd40d232429fd60c01b620005e060201b60201c565b600a819080600181540180825580915050600190039060005260206000200160009091909190916101000a81548173ffffffffffffffffffffffffffffffffffffffff021916908373ffffffffffffffffffffffffffffffffffffffff160217905550620003b367a5cd95f0bd1584d860c01b620005e060201b60201c565b6001600b60008573ffffffffffffffffffffffffffffffffffffffff1673ffffffffffffffffffffffffffffffffffffffff16815260200190815260200160002060006101000a81548160ff02191690831515021790555062000427679840f1280cc7d46460c01b620005e060201b60201c565b6001600b60008473ffffffffffffffffffffffffffffffffffffffff1673ffffffffffffffffffffffffffffffffffffffff16815260200190815260200160002060006101000a81548160ff0219169083151502179055506200049b671a9c5c2b3d0b401760c01b620005e060201b60201c565b6001600b60008373ffffffffffffffffffffffffffffffffffffffff1673ffffffffffffffffffffffffffffffffffffffff16815260200190815260200160002060006101000a81548160ff0219169083151502179055506200050f67c11d12cd6e418f6360c01b620005e060201b60201c565b6200052b675365ffcba76a13b860c01b620005e060201b60201c565b6200056533606460506b033b2e3c9fd0803ce80000006200054d919062000c30565b62000559919062000caa565b620005e360201b60201c565b6200058167ecb2c0bf4b59064260c01b620005e060201b60201c565b6200059d670e0cd8809b2e43a560c01b620005e060201b60201c565b620005d730606460146b033b2e3c9fd0803ce8000000620005bf919062000c30565b620005cb919062000caa565b620005e360201b60201c565b50505062000dea565b50565b600073ffffffffffffffffffffffffffffffffffffffff168273ffffffffffffffffffffffffffffffffffffffff1603620006585760006040517fec442f050000000000000000000000000000000000000000000000000000000081526004016200064f919062000d27565b60405180910390fd5b6200066c600083836200067060201b60201c565b5050565b600073ffffffffffffffffffffffffffffffffffffffff168373ffffffffffffffffffffffffffffffffffffffff1603620006c6578060026000828254620006b9919062000d44565b925050819055506200079c565b60008060008573ffffffffffffffffffffffffffffffffffffffff1673ffffffffffffffffffffffffffffffffffffffff1681526020019081526020016000205490508181101562000755578381836040517fe450d38c0000000000000000000000000000000000000000000000000000000081526004016200074c9392919062000d90565b60405180910390fd5b8181036000808673ffffffffffffffffffffffffffffffffffffffff1673ffffffffffffffffffffffffffffffffffffffff16815260200190815260200160002081905550505b600073ffffffffffffffffffffffffffffffffffffffff168273ffffffffffffffffffffffffffffffffffffffff1603620007e7578060026000828254039250508190555062000834565b806000808473ffffffffffffffffffffffffffffffffffffffff1673ffffffffffffffffffffffffffffffffffffffff168152602001908152602001600020600082825401925050819055505b8173ffffffffffffffffffffffffffffffffffffffff168373ffffffffffffffffffffffffffffffffffffffff167fddf252ad1be2c89b69c2b068fc378daa952ba7f163c4a11628f55a4df523b3ef8360405162000893919062000dcd565b60405180910390a3505050565b600081519050919050565b7f4e487b7100000000000000000000000000000000000000000000000000000000600052604160045260246000fd5b7f4e487b7100000000000000000000000000000000000000000000000000000000600052602260045260246000fd5b600060028204905060018216806200092257607f821691505b602082108103620009385762000937620008da565b5b50919050565b60008190508160005260206000209050919050565b60006020601f8301049050919050565b600082821b905092915050565b600060088302620009a27fffffffffffffffffffffffffffffffffffffffffffffffffffffffffffffffff8262000963565b620009ae868362000963565b95508019841693508086168417925050509392505050565b6000819050919050565b6000819050919050565b6000620009fb620009f5620009ef84620009c6565b620009d0565b620009c6565b9050919050565b6000819050919050565b62000a1783620009da565b62000a2f62000a268262000a02565b84845462000970565b825550505050565b600090565b62000a4662000a37565b62000a5381848462000a0c565b505050565b5b8181101562000a7b5762000a6f60008262000a3c565b60018101905062000a59565b5050565b601f82111562000aca5762000a94816200093e565b62000a9f8462000953565b8101602085101562000aaf578190505b62000ac762000abe8562000953565b83018262000a58565b50505b505050565b600082821c905092915050565b600062000aef6000198460080262000acf565b1980831691505092915050565b600062000b0a838362000adc565b9150826002028217905092915050565b62000b2582620008a0565b67ffffffffffffffff81111562000b415762000b40620008ab565b5b62000b4d825462000909565b62000b5a82828562000a7f565b600060209050601f83116001811462000b92576000841562000b7d578287015190505b62000b89858262000afc565b86555062000bf9565b601f19841662000ba2866200093e565b60005b8281101562000bcc5784890151825560018201915060208501945060208101905062000ba5565b8683101562000bec578489015162000be8601f89168262000adc565b8355505b6001600288020188555050505b505050505050565b7f4e487b7100000000000000000000000000000000000000000000000000000000600052601160045260246000fd5b600062000c3d82620009c6565b915062000c4a83620009c6565b925082820262000c5a81620009c6565b9150828204841483151762000c745762000c7362000c01565b5b5092915050565b7f4e487b7100000000000000000000000000000000000000000000000000000000600052601260045260246000fd5b600062000cb782620009c6565b915062000cc483620009c6565b92508262000cd75762000cd662000c7b565b5b828204905092915050565b600073ffffffffffffffffffffffffffffffffffffffff82169050919050565b600062000d0f8262000ce2565b9050919050565b62000d218162000d02565b82525050565b600060208201905062000d3e600083018462000d16565b92915050565b600062000d5182620009c6565b915062000d5e83620009c6565b925082820190508082111562000d795762000d7862000c01565b5b92915050565b62000d8a81620009c6565b82525050565b600060608201905062000da7600083018662000d16565b62000db6602083018562000d7f565b62000dc5604083018462000d7f565b949350505050565b600060208201905062000de4600083018462000d7f565b92915050565b614f2f8062000dfa6000396000f3fe608060405234801561001057600080fd5b50600436106101da5760003560e01c806379bb032f11610104578063a9059cbb116100a2578063dd62ed3e11610071578063dd62ed3e1461056f578063e30749511461059f578063e43581b8146105bb578063eef09bad146105eb576101da565b8063a9059cbb146104e9578063afcda28514610519578063c421449214610537578063dc751d6714610553576101da565b80638456cb59116100de5780638456cb591461047357806395d89b411461047d5780639e40df821461049b578063a7277b00146104b9576101da565b806379bb032f1461040b57806379cc67901461043b578063807896d514610457576101da565b8063313ce5671161017c57806342966c681161014b57806342966c6814610371578063438596321461038d5780635c975abb146103bd57806370a08231146103db576101da565b8063313ce567146102fb57806332cb6b0c14610319578063391feebb146103375780633f4ba83a14610367576101da565b80630d61b519116101b85780630d61b5191461026157806318160ddd1461027d57806318bf49e61461029b57806323b872dd146102cb576101da565b8063013cf08b146101df57806306fdde0314610213578063095ea7b314610231575b600080fd5b6101f960048036038101906101f49190613c45565b610609565b60405161020a959493929190613d6d565b60405180910390f35b61021b610704565b6040516102289190613dc7565b60405180910390f35b61024b60048036038101906102469190613e15565b610796565b6040516102589190613e55565b60405180910390f35b61027b60048036038101906102769190613c45565b6107b9565b005b6102856114dd565b6040516102929190613e70565b60405180910390f35b6102b560048036038101906102b09190613fc0565b6114e7565b6040516102c29190613e70565b60405180910390f35b6102e560048036038101906102e0919061401c565b611c34565b6040516102f29190613e55565b60405180910390f35b610303611edd565b604051610310919061408b565b60405180910390f35b610321611ee6565b60405161032e9190613e70565b60405180910390f35b610351600480360381019061034c91906140a6565b611ef6565b60405161035e9190613e55565b60405180910390f35b61036f611f16565b005b61038b60048036038101906103869190613c45565b612088565b005b6103a760048036038101906103a291906140d3565b61209c565b6040516103b49190613e55565b60405180910390f35b6103c56120cb565b6040516103d29190613e55565b60405180910390f35b6103f560048036038101906103f091906140a6565b6120e2565b6040516104029190613e70565b60405180910390f35b610425600480360381019061042091906140a6565b61212a565b6040516104329190613e55565b60405180910390f35b61045560048036038101906104509190613e15565b61214a565b005b610471600480360381019061046c9190613c45565b61216a565b005b61047b612711565b005b610485612883565b6040516104929190613dc7565b60405180910390f35b6104a3612915565b6040516104b09190613e70565b60405180910390f35b6104d360048036038101906104ce9190613c45565b61291b565b6040516104e09190614113565b60405180910390f35b61050360048036038101906104fe9190613e15565b61295a565b6040516105109190613e55565b60405180910390f35b610521612b75565b60405161052e9190614113565b60405180910390f35b610551600480360381019061054c919061415a565b612b9b565b005b61056d60048036038101906105689190613e15565b612d4a565b005b6105896004803603810190610584919061419a565b613114565b6040516105969190613e70565b60405180910390f35b6105b960048036038101906105b49190613e15565b61319b565b005b6105d560048036038101906105d091906140a6565b613407565b6040516105e29190613e55565b60405180910390f35b6105f3613427565b6040516106009190613e70565b60405180910390f35b600d818154811061061957600080fd5b906000526020600020906005020160009150905080600001805461063c90614209565b80601f016020809104026020016040519081016040528092919081815260200182805461066890614209565b80156106b55780601f1061068a576101008083540402835291602001916106b5565b820191906000526020600020905b81548152906001019060200180831161069857829003601f168201915b5050505050908060010160009054906101000a900473ffffffffffffffffffffffffffffffffffffffff16908060020154908060030160009054906101000a900460ff16908060040154905085565b60606003805461071390614209565b80601f016020809104026020016040519081016040528092919081815260200182805461073f90614209565b801561078c5780601f106107615761010080835404028352916020019161078c565b820191906000526020600020905b81548152906001019060200180831161076f57829003601f168201915b5050505050905090565b6000806107a161342d565b90506107ae818585613435565b600191505092915050565b6107cd67e87d0ca3e9d875a460c01b613447565b6107e167292830b0c7ea9c0a60c01b613447565b6107f56732a776e6818d721e60c01b613447565b61080967358e5bfde918f41b60c01b613447565b61081d67911268462f73988e60c01b613447565b600b60003373ffffffffffffffffffffffffffffffffffffffff1673ffffffffffffffffffffffffffffffffffffffff16815260200190815260200160002060009054906101000a900460ff166108a9576040517f08c379a00000000000000000000000000000000000000000000000000000000081526004016108a0906142ac565b60405180910390fd5b6108bd671d85e74f2900ebb460c01b613447565b6108d1678af58a4d778aca7360c01b613447565b6108e567adbd50d13f0f3e2460c01b613447565b6108f967bec92a14c201532860c01b613447565b61090161344a565b61091567e458f871e2ae4f6c60c01b613447565b61092967db24fe4d73c3aaf760c01b613447565b61093d673219abfe0a4a027f60c01b613447565b61095167b7501ae0feb2de7460c01b613447565b610965670e2cda3063431a1760c01b613447565b600d8054905081106109ac576040517f08c379a00000000000000000000000000000000000000000000000000000000081526004016109a390614318565b60405180910390fd5b6109c067c66e2f96f5fc878060c01b613447565b6109d4670fa567e7352a22d260c01b613447565b6109e86743067df8da70d82c60c01b613447565b6000600d82815481106109fe576109fd614338565b5b90600052602060002090600502019050610a2267a54306238000ed4160c01b613447565b610a3667170b41bc35ff9fe960c01b613447565b610a4a671c082c6b8e0d43a660c01b613447565b8060030160009054906101000a900460ff1615610a9c576040517f08c379a0000000000000000000000000000000000000000000000000000000008152600401610a93906143b3565b60405180910390fd5b610ab067106e28cb07b2500a60c01b613447565b610ac4676cdff253bae4335e60c01b613447565b610ad86701a94a67e977b1b660c01b613447565b610aec6778e93b23688bcdd060c01b613447565b8060020154421015610b33576040517f08c379a0000000000000000000000000000000000000000000000000000000008152600401610b2a9061441f565b60405180910390fd5b610b476714952a90a4a83fc960c01b613447565b610b5b678c2841574a27f00e60c01b613447565b610b6f67708c665ba4e0b81d60c01b613447565b610b83673aeb616aa73f83f760c01b613447565b600281600401541015610bcb576040517f08c379a0000000000000000000000000000000000000000000000000000000008152600401610bc2906144b1565b60405180910390fd5b610bdf67ec78118b8be7090a60c01b613447565b610bf367b7a46f4ced946e0960c01b613447565b60018160030160006101000a81548160ff021916908315150217905550610c2467b0e97bda49a5869360c01b613447565b610c386732a8a6c1c7b58e0f60c01b613447565b600081600001604051610c4b9190614574565b60405180910390209050610c6967569e3d81f7a6f86c60c01b613447565b610c7d67e4ae385dca2d409560c01b613447565b6040518060400160405280601481526020017f736574436f6e73656e7375735265676973747279000000000000000000000000815250805190602001208103610de157610cd46742105bef4ad7380c60c01b613447565b610ce8674d02fb5d3581089860c01b613447565b8160010160009054906101000a900473ffffffffffffffffffffffffffffffffffffffff16600760006101000a81548173ffffffffffffffffffffffffffffffffffffffff021916908373ffffffffffffffffffffffffffffffffffffffff160217905550610d61677cdc9ae56f23becd60c01b613447565b610d75676792b8ee2b03096260c01b613447565b8160010160009054906101000a900473ffffffffffffffffffffffffffffffffffffffff1673ffffffffffffffffffffffffffffffffffffffff167f63b8f8e18de64ac58c4dee814613d77626f2f0b579c2d8ff03117b32d82aa39560405160405180910390a261143a565b610df5679177466eb699d1ad60c01b613447565b610e09675db7eeb5cfe58ffe60c01b613447565b6040518060400160405280601181526020017f726567697374657256616c696461746f72000000000000000000000000000000815250805190602001208103610ef557610e606725d5cf522cecba4760c01b613447565b610e7467381bf93835660e6a60c01b613447565b6001600660008460010160009054906101000a900473ffffffffffffffffffffffffffffffffffffffff1673ffffffffffffffffffffffffffffffffffffffff1673ffffffffffffffffffffffffffffffffffffffff16815260200190815260200160002060006101000a81548160ff021916908315150217905550611439565b610f0967fa58168becf48bff60c01b613447565b610f1d67c1f2994d03e22d3f60c01b613447565b6040518060400160405280600e81526020017f757064617465476f7665726e6f7200000000000000000000000000000000000081525080519060200120810361107957610f74671eefe60b919966bd60c01b613447565b610f8867961831000f7d435960c01b613447565b600b60008360010160009054906101000a900473ffffffffffffffffffffffffffffffffffffffff1673ffffffffffffffffffffffffffffffffffffffff1673ffffffffffffffffffffffffffffffffffffffff16815260200190815260200160002060009054906101000a900460ff1615600b60008460010160009054906101000a900473ffffffffffffffffffffffffffffffffffffffff1673ffffffffffffffffffffffffffffffffffffffff1673ffffffffffffffffffffffffffffffffffffffff16815260200190815260200160002060006101000a81548160ff021916908315150217905550611438565b61108d67a8ea7ad16577e36960c01b613447565b6110a167a00f629ce83b1e8260c01b613447565b6040518060400160405280601481526020017f7365744761734261636b50657263656e74616765000000000000000000000000815250805190602001208103611214576110f867f5d1ee98309b171460c01b613447565b61110c673f7078b14da355e960c01b613447565b611120670370936be42ae97960c01b613447565b60008260010160009054906101000a900473ffffffffffffffffffffffffffffffffffffffff1673ffffffffffffffffffffffffffffffffffffffff169050611173677d7cc9e375192d7460c01b613447565b6111876742b6ee5c4731903f60c01b613447565b61119b6735a07566910a5fd060c01b613447565b60648111156111df576040517f08c379a00000000000000000000000000000000000000000000000000000000081526004016111d6906145d7565b60405180910390fd5b6111f36796cd33788b51bfd660c01b613447565b61120767bf0ca076a6c099bc60c01b613447565b8060088190555050611437565b6112286761d82f3a2b48b82960c01b613447565b61123c67bbe3715b19849c9460c01b613447565b6040518060400160405280601081526020017f73657454696d656c6f636b44656c6179000000000000000000000000000000008152508051906020012081036113bf5761129367506e38b46964ee1260c01b613447565b6112a7675c0d99a55d93d63460c01b613447565b6112bb6726c2f585a37d91e960c01b613447565b60008260010160009054906101000a900473ffffffffffffffffffffffffffffffffffffffff1673ffffffffffffffffffffffffffffffffffffffff16905061130e67ffcf0cd2a441024960c01b613447565b61132267814d281d84c0b5e560c01b613447565b61133667f63997562436dc9c60c01b613447565b610e10811015801561134b575062278d008111155b61138a576040517f08c379a000000000000000000000000000000000000000000000000000000000815260040161138190614643565b60405180910390fd5b61139e6776b75308a0f9755e60c01b613447565b6113b267d32613c7de68744360c01b613447565b8060098190555050611436565b6113d3677decf2b372f03e6860c01b613447565b6113e767a7722a8ab1043ffb60c01b613447565b6113fb67c4044b3745f0007f60c01b613447565b6040517f08c379a000000000000000000000000000000000000000000000000000000000815260040161142d906146af565b60405180910390fd5b5b5b5b5b61144e67bb2f7125fb0247e460c01b613447565b611462673cd5360ad9a84ce060c01b613447565b8160010160009054906101000a900473ffffffffffffffffffffffffffffffffffffffff1673ffffffffffffffffffffffffffffffffffffffff16837f815e4bff68e0a6f81d6ca6129bc921f2d6f47a1ea4e0e2f086cf5a9ca7802712846000016040516114d09190614768565b60405180910390a3505050565b6000600254905090565b60006114fd67d172fca066621e3d60c01b613447565b61151167292830b0c7ea9c0a60c01b613447565b6115256732a776e6818d721e60c01b613447565b61153967358e5bfde918f41b60c01b613447565b61154d67911268462f73988e60c01b613447565b600b60003373ffffffffffffffffffffffffffffffffffffffff1673ffffffffffffffffffffffffffffffffffffffff16815260200190815260200160002060009054906101000a900460ff166115d9576040517f08c379a00000000000000000000000000000000000000000000000000000000081526004016115d0906142ac565b60405180910390fd5b6115ed671d85e74f2900ebb460c01b613447565b611601678af58a4d778aca7360c01b613447565b61161567c438dca8bda534d160c01b613447565b61162967b31062305ca8ebb160c01b613447565b61163161344a565b61164567be852f8a53ecfbb860c01b613447565b611659670d0f96e74a14a0ab60c01b613447565b61166d67ccd87e3933bd684e60c01b613447565b611681673d346e881f8ddebc60c01b613447565b6000838051906020012090506116a167deee425741359a9a60c01b613447565b6116b5674cfb6e756ba3fee860c01b613447565b6040518060400160405280601481526020017f7365744761734261636b50657263656e746167650000000000000000000000008152508051906020012081036117e95761170c67e3fc57c1c5fb536860c01b613447565b6117206785c62edec6bb35b660c01b613447565b61173467eb0a8aad9620e61960c01b613447565b60008373ffffffffffffffffffffffffffffffffffffffff1690506117636775574844a9b62bd760c01b613447565b61177767fe4d64ed412da68060c01b613447565b61178b6753d79c6cfee0e1dd60c01b613447565b60648111156117cf576040517f08c379a00000000000000000000000000000000000000000000000000000000081526004016117c6906145d7565b60405180910390fd5b6117e36746169e4894394b5060c01b613447565b5061196b565b6117fd67cfeb8b08ef9a657360c01b613447565b61181167053cde0e75662aab60c01b613447565b6040518060400160405280601081526020017f73657454696d656c6f636b44656c617900000000000000000000000000000000815250805190602001208103611955576118686750481f1bbf1dc42660c01b613447565b61187c67f6df0bc2f869888c60c01b613447565b6118906709ebf570cb2ecca060c01b613447565b60008373ffffffffffffffffffffffffffffffffffffffff1690506118bf673cd72b60d8ade8b760c01b613447565b6118d367c8141cb867a1e16260c01b613447565b6118e7675042aa2d48dc22bb60c01b613447565b610e1081101580156118fc575062278d008111155b61193b576040517f08c379a000000000000000000000000000000000000000000000000000000000815260040161193290614643565b60405180910390fd5b61194f67a8b531a6abc815ba60c01b613447565b5061196a565b6119696774da9d9d0b005f0360c01b613447565b5b5b61197f671f1f19863fc2249860c01b613447565b611993672a20251931642a1b60c01b613447565b6000600954426119a391906147b9565b90506119b967ed22224cec772f5f60c01b613447565b6119cd676d9c60904ad8436960c01b613447565b600d6040518060a001604052808781526020018673ffffffffffffffffffffffffffffffffffffffff168152602001838152602001600015158152602001600181525090806001815401808255809150506001900390600052602060002090600502016000909190919091506000820151816000019081611a4e9190614984565b5060208201518160010160006101000a81548173ffffffffffffffffffffffffffffffffffffffff021916908373ffffffffffffffffffffffffffffffffffffffff1602179055506040820151816002015560608201518160030160006101000a81548160ff021916908315150217905550608082015181600401555050611ae0670b7d3872a6afd31760c01b613447565b611af467bf47425b12491ffd60c01b613447565b60006001600d80549050611b089190614a56565b9050611b1e670ecf0ec37f78710a60c01b613447565b6001600e600083815260200190815260200160002060003373ffffffffffffffffffffffffffffffffffffffff1673ffffffffffffffffffffffffffffffffffffffff16815260200190815260200160002060006101000a81548160ff021916908315150217905550611b9b6752768b7ee3b1da0a60c01b613447565b611baf67da306b35b51a346860c01b613447565b8473ffffffffffffffffffffffffffffffffffffffff16817f9cc3d9dd626042cdefb76484b91708c3207b637214b44f20111c893548d9c85f8885604051611bf8929190614a8a565b60405180910390a3611c1467a9b3088bd7d799dc60c01b613447565b611c2867196b956cb1eee51160c01b613447565b80935050505092915050565b6000611c4a673abd83b669e233c260c01b613447565b611c5e67b25fb55a450c799260c01b613447565b611c726791b560f1658ef09360c01b613447565b611c7a6120cb565b15611e8c57611c93678b188f37abee41c160c01b613447565b611ca767fecc7297e04785d260c01b613447565b611cbb6723b2503eb42588e260c01b613447565b611ccf67734884f9bf50f3dc60c01b613447565b600c60003373ffffffffffffffffffffffffffffffffffffffff1673ffffffffffffffffffffffffffffffffffffffff16815260200190815260200160002060009054906101000a900460ff168015611d385750611d37671145b4b2c3d799c260c01b61348b565b5b80611dc45750600c60008473ffffffffffffffffffffffffffffffffffffffff1673ffffffffffffffffffffffffffffffffffffffff16815260200190815260200160002060009054906101000a900460ff168015611da75750611da667ea23f4558d58784860c01b61348b565b5b8015611dc35750611dc26754a07233ef2e1be160c01b61348b565b5b5b80611e345750600c60008573ffffffffffffffffffffffffffffffffffffffff1673ffffffffffffffffffffffffffffffffffffffff16815260200190815260200160002060009054906101000a900460ff168015611e335750611e32676a6459ff192d055160c01b61348b565b5b5b611e73576040517f08c379a0000000000000000000000000000000000000000000000000000000008152600401611e6a90614b06565b60405180910390fd5b611e87674c4413ea2f09c08160c01b613447565b611ea1565b611ea067a71de755a7b4aa6b60c01b613447565b5b611eb5679472a48e8e87097d60c01b613447565b611ec967ef135c92e43ac1cc60c01b613447565b611ed4848484613496565b90509392505050565b60006012905090565b6b033b2e3c9fd0803ce800000081565b600c6020528060005260406000206000915054906101000a900460ff1681565b611f2a67a0bde2e069691c0560c01b613447565b611f3e67292830b0c7ea9c0a60c01b613447565b611f526732a776e6818d721e60c01b613447565b611f6667358e5bfde918f41b60c01b613447565b611f7a67911268462f73988e60c01b613447565b600b60003373ffffffffffffffffffffffffffffffffffffffff1673ffffffffffffffffffffffffffffffffffffffff16815260200190815260200160002060009054906101000a900460ff16612006576040517f08c379a0000000000000000000000000000000000000000000000000000000008152600401611ffd906142ac565b60405180910390fd5b61201a671d85e74f2900ebb460c01b613447565b61202e678af58a4d778aca7360c01b613447565b61204267c8781572db004cd960c01b613447565b6120566715b3cd660e61130360c01b613447565b61206a67ef1aab410243577a60c01b613447565b61207e672cf1b1a322d0cfb960c01b613447565b6120866134c5565b565b61209961209361342d565b82613528565b50565b600e6020528160005260406000206020528060005260406000206000915091509054906101000a900460ff1681565b6000600560009054906101000a900460ff16905090565b60008060008373ffffffffffffffffffffffffffffffffffffffff1673ffffffffffffffffffffffffffffffffffffffff168152602001908152602001600020549050919050565b60066020528060005260406000206000915054906101000a900460ff1681565b61215c8261215661342d565b836135aa565b6121668282613528565b5050565b61217e6754c7fcaebad267e160c01b613447565b61219267292830b0c7ea9c0a60c01b613447565b6121a66732a776e6818d721e60c01b613447565b6121ba67358e5bfde918f41b60c01b613447565b6121ce67911268462f73988e60c01b613447565b600b60003373ffffffffffffffffffffffffffffffffffffffff1673ffffffffffffffffffffffffffffffffffffffff16815260200190815260200160002060009054906101000a900460ff1661225a576040517f08c379a0000000000000000000000000000000000000000000000000000000008152600401612251906142ac565b60405180910390fd5b61226e671d85e74f2900ebb460c01b613447565b612282678af58a4d778aca7360c01b613447565b612296676d564a995542ca8660c01b613447565b6122aa67f82a2d9452a3b59a60c01b613447565b6122b261344a565b6122c667872551113e40438560c01b613447565b6122da670d5a3474fd3ac2cd60c01b613447565b6122ee677f8fbdcd082e91bd60c01b613447565b61230267c23806d4f556696f60c01b613447565b61231667a75a5be327089feb60c01b613447565b600d80549050811061235d576040517f08c379a000000000000000000000000000000000000000000000000000000000815260040161235490614318565b60405180910390fd5b6123716745788255ba121f7760c01b613447565b6123856710b86ce390a291fd60c01b613447565b61239967db755619d31ea06a60c01b613447565b6000600d82815481106123af576123ae614338565b5b906000526020600020906005020190506123d367830e2e0338b825c360c01b613447565b6123e76783d63bcac330ceac60c01b613447565b6123fb67ef170604040dbad660c01b613447565b8060030160009054906101000a900460ff161561244d576040517f08c379a0000000000000000000000000000000000000000000000000000000008152600401612444906143b3565b60405180910390fd5b612461677b8db47ed736341060c01b613447565b61247567e68f8e3601c8355260c01b613447565b61248967b09105073f79fbaf60c01b613447565b61249d67a83d790a686e0c7960c01b613447565b806002015442106124e3576040517f08c379a00000000000000000000000000000000000000000000000000000000081526004016124da90614b72565b60405180910390fd5b6124f767d6742714d4a51dfc60c01b613447565b61250b6778b55b05dd3d914060c01b613447565b61251f67faf3c8c4ddd48a3760c01b613447565b61253367eb1c8ee71e709fa260c01b613447565b600e600083815260200190815260200160002060003373ffffffffffffffffffffffffffffffffffffffff1673ffffffffffffffffffffffffffffffffffffffff16815260200190815260200160002060009054906101000a900460ff16156125d1576040517f08c379a00000000000000000000000000000000000000000000000000000000081526004016125c890614bde565b60405180910390fd5b6125e56789cf905cea43e55760c01b613447565b6125f967e4dc0e96d6b9bb8060c01b613447565b6001600e600084815260200190815260200160002060003373ffffffffffffffffffffffffffffffffffffffff1673ffffffffffffffffffffffffffffffffffffffff16815260200190815260200160002060006101000a81548160ff02191690831515021790555061267667dc10d53deaa2688d60c01b613447565b600181600401600082825461268b91906147b9565b925050819055506126a66723c991ed8639fccf60c01b613447565b6126ba672cc0b5d30b80a01760c01b613447565b3373ffffffffffffffffffffffffffffffffffffffff16827f12602b81b4b3a6bc77534c571e8af3d316246bc5e5bea24efdf512ff6715da1583600401546040516127059190613e70565b60405180910390a35050565b6127256781517cf67334c4cc60c01b613447565b61273967292830b0c7ea9c0a60c01b613447565b61274d6732a776e6818d721e60c01b613447565b61276167358e5bfde918f41b60c01b613447565b61277567911268462f73988e60c01b613447565b600b60003373ffffffffffffffffffffffffffffffffffffffff1673ffffffffffffffffffffffffffffffffffffffff16815260200190815260200160002060009054906101000a900460ff16612801576040517f08c379a00000000000000000000000000000000000000000000000000000000081526004016127f8906142ac565b60405180910390fd5b612815671d85e74f2900ebb460c01b613447565b612829678af58a4d778aca7360c01b613447565b61283d67fa4b57c7fb32351b60c01b613447565b612851678507ea6bcf72239a60c01b613447565b61286567a53c2221a844fc5960c01b613447565b61287967f9be9b0cfa41390c60c01b613447565b61288161363e565b565b60606004805461289290614209565b80601f01602080910402602001604051908101604052809291908181526020018280546128be90614209565b801561290b5780601f106128e05761010080835404028352916020019161290b565b820191906000526020600020905b8154815290600101906020018083116128ee57829003601f168201915b5050505050905090565b60085481565b600a818154811061292b57600080fd5b906000526020600020016000915054906101000a900473ffffffffffffffffffffffffffffffffffffffff1681565b600061297067c3ac251ba3893c1e60c01b613447565b6129846701e48b4414cdc54c60c01b613447565b61299867aba9d8ccbcd1e94660c01b613447565b6129a06120cb565b15612b26576129b967b4f335ad57131ff760c01b613447565b6129cd67b8b8c38a1e14e27e60c01b613447565b6129e167e0070be840790f8d60c01b613447565b6129f56772ea63a3bc4882d960c01b613447565b600c60003373ffffffffffffffffffffffffffffffffffffffff1673ffffffffffffffffffffffffffffffffffffffff16815260200190815260200160002060009054906101000a900460ff168015612a5e5750612a5d67568e1dc8b41871ee60c01b61348b565b5b80612ace5750600c60008473ffffffffffffffffffffffffffffffffffffffff1673ffffffffffffffffffffffffffffffffffffffff16815260200190815260200160002060009054906101000a900460ff168015612acd5750612acc67772abf650533a79460c01b61348b565b5b5b612b0d576040517f08c379a0000000000000000000000000000000000000000000000000000000008152600401612b0490614b06565b60405180910390fd5b612b2167eeda30732465a4cc60c01b613447565b612b3b565b612b3a67c3fdd19fcdcbe25460c01b613447565b5b612b4f673daffa706877347460c01b613447565b612b6367e7784e2ed03c01c960c01b613447565b612b6d83836136a1565b905092915050565b600760009054906101000a900473ffffffffffffffffffffffffffffffffffffffff1681565b612baf67cedd1e380d294ca060c01b613447565b612bc367292830b0c7ea9c0a60c01b613447565b612bd76732a776e6818d721e60c01b613447565b612beb67358e5bfde918f41b60c01b613447565b612bff67911268462f73988e60c01b613447565b600b60003373ffffffffffffffffffffffffffffffffffffffff1673ffffffffffffffffffffffffffffffffffffffff16815260200190815260200160002060009054906101000a900460ff16612c8b576040517f08c379a0000000000000000000000000000000000000000000000000000000008152600401612c82906142ac565b60405180910390fd5b612c9f671d85e74f2900ebb460c01b613447565b612cb3678af58a4d778aca7360c01b613447565b612cc7677f8ff2a80e4b025960c01b613447565b612cdb67225767164d4eaf1360c01b613447565b612cef67d516191f04f34e2f60c01b613447565b80600c60008473ffffffffffffffffffffffffffffffffffffffff1673ffffffffffffffffffffffffffffffffffffffff16815260200190815260200160002060006101000a81548160ff0219169083151502179055505050565b612d5e670b730b52b523089960c01b613447565b612d6661344a565b612d7a6745a252fd0e7230c960c01b613447565b612d8e67e1dc3f6b037b308360c01b613447565b612da26799c21201796c408160c01b613447565b612db66730415493636d44ec60c01b613447565b612dca677fa04ff415933a6b60c01b613447565b600760009054906101000a900473ffffffffffffffffffffffffffffffffffffffff1673ffffffffffffffffffffffffffffffffffffffff163373ffffffffffffffffffffffffffffffffffffffff1614612e5a576040517f08c379a0000000000000000000000000000000000000000000000000000000008152600401612e5190614c70565b60405180910390fd5b612e6e67887e3eff8cfde58260c01b613447565b612e8267c9cb59159d4d850160c01b613447565b612e96675ed3ec0647ab943460c01b613447565b600080481180612eb65750612eb567fa70f3b476ed436660c01b6136c4565b5b8015612ed25750612ed167c6026b89c0f63a6c60c01b61348b565b5b612edc573a612ede565b485b9050612ef467f8930101a9f8372460c01b613447565b612f086728866cc6a6cff3d660c01b613447565b600060646008548385612f1b9190614c90565b612f259190614c90565b612f2f9190614d01565b9050612f4567ee72e4047cecb8d860c01b613447565b612f5967474209819700129560c01b613447565b600069010f0cf064dd592000009050612f7c67562f7684478260d460c01b613447565b612f9067a8ea0323e576041c60c01b613447565b80821115612fb457612fac678ebde5330a4dc15360c01b613447565b809150612fc9565b612fc867bf00d61b719984b760c01b613447565b5b612fdd67efbcc3c83271728b60c01b613447565b612ff167291d50404667bf8260c01b613447565b61300567f81568c1f740b89760c01b613447565b8161300f306120e2565b1015613050576040517f08c379a000000000000000000000000000000000000000000000000000000000815260040161304790614da4565b60405180910390fd5b6130646765dec5181b209ec260c01b613447565b61307867b0613d6c0b672c9160c01b613447565b61308c67955e1da814a0d93760c01b613447565b6130973086846136cb565b6130ab6725c11af2989b1dce60c01b613447565b6130bf676d41b43e2da50d4e60c01b613447565b8473ffffffffffffffffffffffffffffffffffffffff167f11c9a275a519d3bb61902765b0126632a3397dc2ba6c8f6fd983118ff2a98ccd836040516131059190613e70565b60405180910390a25050505050565b6000600160008473ffffffffffffffffffffffffffffffffffffffff1673ffffffffffffffffffffffffffffffffffffffff16815260200190815260200160002060008373ffffffffffffffffffffffffffffffffffffffff1673ffffffffffffffffffffffffffffffffffffffff16815260200190815260200160002054905092915050565b6131af67798a55b3224312cb60c01b613447565b6131b761344a565b6131cb6745a7757e27be004060c01b613447565b6131df67af88cf598f0e6fe560c01b613447565b6131f3676d58600601bc35f760c01b613447565b613207670db971a1f21b532860c01b613447565b61321b671b4f0a97ade5f93f60c01b613447565b600760009054906101000a900473ffffffffffffffffffffffffffffffffffffffff1673ffffffffffffffffffffffffffffffffffffffff163373ffffffffffffffffffffffffffffffffffffffff16146132ab576040517f08c379a00000000000000000000000000000000000000000000000000000000081526004016132a290614e36565b60405180910390fd5b6132bf67fd7e6b804050c78660c01b613447565b6132d36726f820fe81cc17bd60c01b613447565b6132e76766765a15e2aeaefa60c01b613447565b6132fb67d7db6074d76932a960c01b613447565b80613305306120e2565b1015613346576040517f08c379a000000000000000000000000000000000000000000000000000000000815260040161333d90614ea2565b60405180910390fd5b61335a67b4787370b11fc0e960c01b613447565b61336e679e4c3e80e6f58f7e60c01b613447565b6133826766dcc2fa272e5f4660c01b613447565b61338d3083836136cb565b6133a167244652251ad747e560c01b613447565b6133b5679fdc010148977e0a60c01b613447565b8173ffffffffffffffffffffffffffffffffffffffff167ffc30cddea38e2bf4d6ea7d3f9ed3b6ad7f176419f4963bd81318067a4aee73fe826040516133fb9190613e70565b60405180910390a25050565b600b6020528060005260406000206000915054906101000a900460ff1681565b60095481565b600033905090565b61344283838360016137bf565b505050565b50565b6134526120cb565b15613489576040517fd93c066500000000000000000000000000000000000000000000000000000000815260040160405180910390fd5b565b600060019050919050565b6000806134a161342d565b90506134ae8582856135aa565b6134b98585856136cb565b60019150509392505050565b6134cd613996565b6000600560006101000a81548160ff0219169083151502179055507f5db9ee0a495bf2e6ff9c91a7834c1ba4fdd244a5e8aa4e537bd38aeae4b073aa61351161342d565b60405161351e9190614113565b60405180910390a1565b600073ffffffffffffffffffffffffffffffffffffffff168273ffffffffffffffffffffffffffffffffffffffff160361359a5760006040517f96c6fd1e0000000000000000000000000000000000000000000000000000000081526004016135919190614113565b60405180910390fd5b6135a6826000836139d6565b5050565b60006135b68484613114565b90507fffffffffffffffffffffffffffffffffffffffffffffffffffffffffffffffff81146136385781811015613628578281836040517ffb8f41b200000000000000000000000000000000000000000000000000000000815260040161361f93929190614ec2565b60405180910390fd5b613637848484840360006137bf565b5b50505050565b61364661344a565b6001600560006101000a81548160ff0219169083151502179055507f62e78cea01bee320cd4e420270b5ea74000d11b0c9f74754ebdbfc544b05a25861368a61342d565b6040516136979190614113565b60405180910390a1565b6000806136ac61342d565b90506136b98185856136cb565b600191505092915050565b6000919050565b600073ffffffffffffffffffffffffffffffffffffffff168373ffffffffffffffffffffffffffffffffffffffff160361373d5760006040517f96c6fd1e0000000000000000000000000000000000000000000000000000000081526004016137349190614113565b60405180910390fd5b600073ffffffffffffffffffffffffffffffffffffffff168273ffffffffffffffffffffffffffffffffffffffff16036137af5760006040517fec442f050000000000000000000000000000000000000000000000000000000081526004016137a69190614113565b60405180910390fd5b6137ba8383836139d6565b505050565b600073ffffffffffffffffffffffffffffffffffffffff168473ffffffffffffffffffffffffffffffffffffffff16036138315760006040517fe602df050000000000000000000000000000000000000000000000000000000081526004016138289190614113565b60405180910390fd5b600073ffffffffffffffffffffffffffffffffffffffff168373ffffffffffffffffffffffffffffffffffffffff16036138a35760006040517f94280d6200000000000000000000000000000000000000000000000000000000815260040161389a9190614113565b60405180910390fd5b81600160008673ffffffffffffffffffffffffffffffffffffffff1673ffffffffffffffffffffffffffffffffffffffff16815260200190815260200160002060008573ffffffffffffffffffffffffffffffffffffffff1673ffffffffffffffffffffffffffffffffffffffff168152602001908152602001600020819055508015613990578273ffffffffffffffffffffffffffffffffffffffff168473ffffffffffffffffffffffffffffffffffffffff167f8c5be1e5ebec7d5bd14f71427d1e84f3dd0314c0f7b2291e5b200ac8c7c3b925846040516139879190613e70565b60405180910390a35b50505050565b61399e6120cb565b6139d4576040517f8dfc202b00000000000000000000000000000000000000000000000000000000815260040160405180910390fd5b565b600073ffffffffffffffffffffffffffffffffffffffff168373ffffffffffffffffffffffffffffffffffffffff1603613a28578060026000828254613a1c91906147b9565b92505081905550613afb565b60008060008573ffffffffffffffffffffffffffffffffffffffff1673ffffffffffffffffffffffffffffffffffffffff16815260200190815260200160002054905081811015613ab4578381836040517fe450d38c000000000000000000000000000000000000000000000000000000008152600401613aab93929190614ec2565b60405180910390fd5b8181036000808673ffffffffffffffffffffffffffffffffffffffff1673ffffffffffffffffffffffffffffffffffffffff16815260200190815260200160002081905550505b600073ffffffffffffffffffffffffffffffffffffffff168273ffffffffffffffffffffffffffffffffffffffff1603613b445780600260008282540392505081905550613b91565b806000808473ffffffffffffffffffffffffffffffffffffffff1673ffffffffffffffffffffffffffffffffffffffff168152602001908152602001600020600082825401925050819055505b8173ffffffffffffffffffffffffffffffffffffffff168373ffffffffffffffffffffffffffffffffffffffff167fddf252ad1be2c89b69c2b068fc378daa952ba7f163c4a11628f55a4df523b3ef83604051613bee9190613e70565b60405180910390a3505050565b6000604051905090565b600080fd5b600080fd5b6000819050919050565b613c2281613c0f565b8114613c2d57600080fd5b50565b600081359050613c3f81613c19565b92915050565b600060208284031215613c5b57613c5a613c05565b5b6000613c6984828501613c30565b91505092915050565b600081519050919050565b600082825260208201905092915050565b60005b83811015613cac578082015181840152602081019050613c91565b60008484015250505050565b6000601f19601f8301169050919050565b6000613cd482613c72565b613cde8185613c7d565b9350613cee818560208601613c8e565b613cf781613cb8565b840191505092915050565b600073ffffffffffffffffffffffffffffffffffffffff82169050919050565b6000613d2d82613d02565b9050919050565b613d3d81613d22565b82525050565b613d4c81613c0f565b82525050565b60008115159050919050565b613d6781613d52565b82525050565b600060a0820190508181036000830152613d878188613cc9565b9050613d966020830187613d34565b613da36040830186613d43565b613db06060830185613d5e565b613dbd6080830184613d43565b9695505050505050565b60006020820190508181036000830152613de18184613cc9565b905092915050565b613df281613d22565b8114613dfd57600080fd5b50565b600081359050613e0f81613de9565b92915050565b60008060408385031215613e2c57613e2b613c05565b5b6000613e3a85828601613e00565b9250506020613e4b85828601613c30565b9150509250929050565b6000602082019050613e6a6000830184613d5e565b92915050565b6000602082019050613e856000830184613d43565b92915050565b600080fd5b600080fd5b7f4e487b7100000000000000000000000000000000000000000000000000000000600052604160045260246000fd5b613ecd82613cb8565b810181811067ffffffffffffffff82111715613eec57613eeb613e95565b5b80604052505050565b6000613eff613bfb565b9050613f0b8282613ec4565b919050565b600067ffffffffffffffff821115613f2b57613f2a613e95565b5b613f3482613cb8565b9050602081019050919050565b82818337600083830152505050565b6000613f63613f5e84613f10565b613ef5565b905082815260208101848484011115613f7f57613f7e613e90565b5b613f8a848285613f41565b509392505050565b600082601f830112613fa757613fa6613e8b565b5b8135613fb7848260208601613f50565b91505092915050565b60008060408385031215613fd757613fd6613c05565b5b600083013567ffffffffffffffff811115613ff557613ff4613c0a565b5b61400185828601613f92565b925050602061401285828601613e00565b9150509250929050565b60008060006060848603121561403557614034613c05565b5b600061404386828701613e00565b935050602061405486828701613e00565b925050604061406586828701613c30565b9150509250925092565b600060ff82169050919050565b6140858161406f565b82525050565b60006020820190506140a0600083018461407c565b92915050565b6000602082840312156140bc576140bb613c05565b5b60006140ca84828501613e00565b91505092915050565b600080604083850312156140ea576140e9613c05565b5b60006140f885828601613c30565b925050602061410985828601613e00565b9150509250929050565b60006020820190506141286000830184613d34565b92915050565b61413781613d52565b811461414257600080fd5b50565b6000813590506141548161412e565b92915050565b6000806040838503121561417157614170613c05565b5b600061417f85828601613e00565b925050602061419085828601614145565b9150509250929050565b600080604083850312156141b1576141b0613c05565b5b60006141bf85828601613e00565b92505060206141d085828601613e00565b9150509250929050565b7f4e487b7100000000000000000000000000000000000000000000000000000000600052602260045260246000fd5b6000600282049050600182168061422157607f821691505b602082108103614234576142336141da565b5b50919050565b7f43616c6c6572206973206e6f7420616e20617574686f72697a656420676f766560008201527f726e6f7200000000000000000000000000000000000000000000000000000000602082015250565b6000614296602483613c7d565b91506142a18261423a565b604082019050919050565b600060208201905081810360008301526142c581614289565b9050919050565b7f496e76616c69642070726f706f73616c20494400000000000000000000000000600082015250565b6000614302601383613c7d565b915061430d826142cc565b602082019050919050565b60006020820190508181036000830152614331816142f5565b9050919050565b7f4e487b7100000000000000000000000000000000000000000000000000000000600052603260045260246000fd5b7f50726f706f73616c20616c726561647920657865637574656400000000000000600082015250565b600061439d601983613c7d565b91506143a882614367565b602082019050919050565b600060208201905081810360008301526143cc81614390565b9050919050565b7f54696d656c6f636b2064656c6179206973206e6f74206f766572207965740000600082015250565b6000614409601e83613c7d565b9150614414826143d3565b602082019050919050565b60006020820190508181036000830152614438816143fc565b9050919050565b7f496e73756666696369656e7420636f6e73656e737573207369676e617475726560008201527f7320286d696e2032207265717569726564290000000000000000000000000000602082015250565b600061449b603283613c7d565b91506144a68261443f565b604082019050919050565b600060208201905081810360008301526144ca8161448e565b9050919050565b600081905092915050565b60008190508160005260206000209050919050565b600081546144fe81614209565b61450881866144d1565b9450600182166000811461452357600181146145385761456b565b60ff198316865281151582028601935061456b565b614541856144dc565b60005b8381101561456357815481890152600182019150602081019050614544565b838801955050505b50505092915050565b600061458082846144f1565b915081905092915050565b7f476173206261636b2070657263656e7461676520746f6f206869676800000000600082015250565b60006145c1601c83613c7d565b91506145cc8261458b565b602082019050919050565b600060208201905081810360008301526145f0816145b4565b9050919050565b7f496e76616c69642074696d656c6f636b2064656c61792072616e676500000000600082015250565b600061462d601c83613c7d565b9150614638826145f7565b602082019050919050565b6000602082019050818103600083015261465c81614620565b9050919050565b7f556e6b6e6f776e20616374696f6e207479706500000000000000000000000000600082015250565b6000614699601383613c7d565b91506146a482614663565b602082019050919050565b600060208201905081810360008301526146c88161468c565b9050919050565b60008190508160005260206000209050919050565b600081546146f181614209565b6146fb8186613c7d565b94506001821660008114614716576001811461472c5761475f565b60ff19831686528115156020028601935061475f565b614735856146cf565b60005b8381101561475757815481890152600182019150602081019050614738565b808801955050505b50505092915050565b6000602082019050818103600083015261478281846146e4565b905092915050565b7f4e487b7100000000000000000000000000000000000000000000000000000000600052601160045260246000fd5b60006147c482613c0f565b91506147cf83613c0f565b92508282019050808211156147e7576147e661478a565b5b92915050565b60006020601f8301049050919050565b600082821b905092915050565b60006008830261483a7fffffffffffffffffffffffffffffffffffffffffffffffffffffffffffffffff826147fd565b61484486836147fd565b95508019841693508086168417925050509392505050565b6000819050919050565b600061488161487c61487784613c0f565b61485c565b613c0f565b9050919050565b6000819050919050565b61489b83614866565b6148af6148a782614888565b84845461480a565b825550505050565b600090565b6148c46148b7565b6148cf818484614892565b505050565b5b818110156148f3576148e86000826148bc565b6001810190506148d5565b5050565b601f82111561493857614909816146cf565b614912846147ed565b81016020851015614921578190505b61493561492d856147ed565b8301826148d4565b50505b505050565b600082821c905092915050565b600061495b6000198460080261493d565b1980831691505092915050565b6000614974838361494a565b9150826002028217905092915050565b61498d82613c72565b67ffffffffffffffff8111156149a6576149a5613e95565b5b6149b08254614209565b6149bb8282856148f7565b600060209050601f8311600181146149ee57600084156149dc578287015190505b6149e68582614968565b865550614a4e565b601f1984166149fc866146cf565b60005b82811015614a24578489015182556001820191506020850194506020810190506149ff565b86831015614a415784890151614a3d601f89168261494a565b8355505b6001600288020188555050505b505050505050565b6000614a6182613c0f565b9150614a6c83613c0f565b9250828203905081811115614a8457614a8361478a565b5b92915050565b60006040820190508181036000830152614aa48185613cc9565b9050614ab36020830184613d43565b9392505050565b7f546f6b656e207472616e73666572206973207061757365640000000000000000600082015250565b6000614af0601883613c7d565b9150614afb82614aba565b602082019050919050565b60006020820190508181036000830152614b1f81614ae3565b9050919050565b7f566f74696e6720706572696f642068617320656e646564000000000000000000600082015250565b6000614b5c601783613c7d565b9150614b6782614b26565b602082019050919050565b60006020820190508181036000830152614b8b81614b4f565b9050919050565b7f416c726561647920766f746564206f6e20746869732070726f706f73616c0000600082015250565b6000614bc8601e83613c7d565b9150614bd382614b92565b602082019050919050565b60006020820190508181036000830152614bf781614bbb565b9050919050565b7f4f6e6c7920436f6e73656e7375732052656769737472792063616e207472696760008201527f6765722072656379636c696e6700000000000000000000000000000000000000602082015250565b6000614c5a602d83613c7d565b9150614c6582614bfe565b604082019050919050565b60006020820190508181036000830152614c8981614c4d565b9050919050565b6000614c9b82613c0f565b9150614ca683613c0f565b9250828202614cb481613c0f565b91508282048414831517614ccb57614cca61478a565b5b5092915050565b7f4e487b7100000000000000000000000000000000000000000000000000000000600052601260045260246000fd5b6000614d0c82613c0f565b9150614d1783613c0f565b925082614d2757614d26614cd2565b5b828204905092915050565b7f496e73756666696369656e74207472656173757279206761732072656379636c60008201527f696e672062616c616e6365000000000000000000000000000000000000000000602082015250565b6000614d8e602b83613c7d565b9150614d9982614d32565b604082019050919050565b60006020820190508181036000830152614dbd81614d81565b9050919050565b7f4f6e6c7920436f6e73656e7375732052656769737472792063616e20636c616960008201527f6d20726577617264730000000000000000000000000000000000000000000000602082015250565b6000614e20602983613c7d565b9150614e2b82614dc4565b604082019050919050565b60006020820190508181036000830152614e4f81614e13565b9050919050565b7f52657761726420706f6f6c20697320656d707479000000000000000000000000600082015250565b6000614e8c601483613c7d565b9150614e9782614e56565b602082019050919050565b60006020820190508181036000830152614ebb81614e7f565b9050919050565b6000606082019050614ed76000830186613d34565b614ee46020830185613d43565b614ef16040830184613d43565b94935050505056fea26469706673582212200a5719b0c59f21a573206e5457cb66265b735447d21557261ed9273d33993e9b64736f6c63430008180033",
  "linkReferences": {},
  "deployedLinkReferences": {}
}