{
  "_format": "hh-sol-artifact-1",
  "contractName": "SymbiosisToken",
  "sourceName": "contracts/SymbiosisToken.sol",
  "abi": [
    {
      "inputs": [],
      "stateMutability": "nonpayable",
      "type": "constructor"
    },
    {
      "inputs": [
        {
          "internalType": "address",
          "name": "spender",
          "type": "address"
        },
        {
          "internalType": "uint256",
          "name": "allowance",
          "type": "uint256"
        },
        {
          "internalType": "uint256",
          "name": "needed",
          "type": "uint256"
        }
      ],
      "name": "ERC20InsufficientAllowance",
      "type": "error"
    },
    {
      "inputs": [
        {
          "internalType": "address",
          "name": "sender",
          "type": "address"
        },
        {
          "internalType": "uint256",
          "name": "balance",
          "type": "uint256"
        },
        {
          "internalType": "uint256",
          "name": "needed",
          "type": "uint256"
        }
      ],
      "name": "ERC20InsufficientBalance",
      "type": "error"
    },
    {
      "inputs": [
        {
          "internalType": "address",
          "name": "approver",
          "type": "address"
        }
      ],
      "name": "ERC20InvalidApprover",
      "type": "error"
    },
    {
      "inputs": [
        {
          "internalType": "address",
          "name": "receiver",
          "type": "address"
        }
      ],
      "name": "ERC20InvalidReceiver",
      "type": "error"
    },
    {
      "inputs": [
        {
          "internalType": "address",
          "name": "sender",
          "type": "address"
        }
      ],
      "name": "ERC20InvalidSender",
      "type": "error"
    },
    {
      "inputs": [
        {
          "internalType": "address",
          "name": "spender",
          "type": "address"
        }
      ],
      "name": "ERC20InvalidSpender",
      "type": "error"
    },
    {
      "anonymous": false,
      "inputs": [
        {
          "indexed": true,
          "internalType": "address",
          "name": "owner",
          "type": "address"
        },
        {
          "indexed": true,
          "internalType": "address",
          "name": "spender",
          "type": "address"
        },
        {
          "indexed": false,
          "internalType": "uint256",
          "name": "value",
          "type": "uint256"
        }
      ],
      "name": "Approval",
      "type": "event"
    },
    {
      "anonymous": false,
      "inputs": [
        {
          "indexed": true,
          "internalType": "address",
          "name": "registry",
          "type": "address"
        }
      ],
      "name": "ConsensusRegistryUpdated",
      "type": "event"
    },
    {
      "anonymous": false,
      "inputs": [
        {
          "indexed": true,
          "internalType": "address",
          "name": "validator",
          "type": "address"
        },
        {
          "indexed": false,
          "internalType": "uint256",
          "name": "amount",
          "type": "uint256"
        }
      ],
      "name": "GasRecycled",
      "type": "event"
    },
    {
      "anonymous": false,
      "inputs": [
        {
          "indexed": true,
          "internalType": "uint256",
          "name": "proposalId",
          "type": "uint256"
        },
        {
          "indexed": false,
          "internalType": "string",
          "name": "actionType",
          "type": "string"
        },
        {
          "indexed": true,
          "internalType": "address",
          "name": "target",
          "type": "address"
        },
        {
          "indexed": false,
          "internalType": "uint256",
          "name": "eta",
          "type": "uint256"
        }
      ],
      "name": "ProposalCreated",
      "type": "event"
    },
    {
      "anonymous": false,
      "inputs": [
        {
          "indexed": true,
          "internalType": "uint256",
          "name": "proposalId",
          "type": "uint256"
        },
        {
          "indexed": false,
          "internalType": "string",
          "name": "actionType",
          "type": "string"
        },
        {
          "indexed": true,
          "internalType": "address",
          "name": "target",
          "type": "address"
        }
      ],
      "name": "ProposalExecuted",
      "type": "event"
    },
    {
      "anonymous": false,
      "inputs": [
        {
          "indexed": true,
          "internalType": "uint256",
          "name": "proposalId",
          "type": "uint256"
        },
        {
          "indexed": true,
          "internalType": "address",
          "name": "governor",
          "type": "address"
        },
        {
          "indexed": false,
          "internalType": "uint256",
          "name": "currentVotes",
          "type": "uint256"
        }
      ],
      "name": "ProposalVoted",
      "type": "event"
    },
    {
      "anonymous": false,
      "inputs": [
        {
          "indexed": true,
          "internalType": "address",
          "name": "from",
          "type": "address"
        },
        {
          "indexed": true,
          "internalType": "address",
          "name": "to",
          "type": "address"
        },
        {
          "indexed": false,
          "internalType": "uint256",
          "name": "value",
          "type": "uint256"
        }
      ],
      "name": "Transfer",
      "type": "event"
    },
    {
      "inputs": [],
      "name": "MAX_SUPPLY",
      "outputs": [
        {
          "internalType": "uint256",
          "name": "",
          "type": "uint256"
        }
      ],
      "stateMutability": "view",
      "type": "function"
    },
    {
      "inputs": [],
      "name": "TIMELOCK_DELAY",
      "outputs": [
        {
          "internalType": "uint256",
          "name": "",
          "type": "uint256"
        }
      ],
      "stateMutability": "view",
      "type": "function"
    },
    {
      "inputs": [
        {
          "internalType": "address",
          "name": "owner",
          "type": "address"
        },
        {
          "internalType": "address",
          "name": "spender",
          "type": "address"
        }
      ],
      "name": "allowance",
      "outputs": [
        {
          "internalType": "uint256",
          "name": "",
          "type": "uint256"
        }
      ],
      "stateMutability": "view",
      "type": "function"
    },
    {
      "inputs": [
        {
          "internalType": "address",
          "name": "spender",
          "type": "address"
        },
        {
          "internalType": "uint256",
          "name": "value",
          "type": "uint256"
        }
      ],
      "name": "approve",
      "outputs": [
        {
          "internalType": "bool",
          "name": "",
          "type": "bool"
        }
      ],
      "stateMutability": "nonpayable",
      "type": "function"
    },
    {
      "inputs": [
        {
          "internalType": "address",
          "name": "account",
          "type": "address"
        }
      ],
      "name": "balanceOf",
      "outputs": [
        {
          "internalType": "uint256",
          "name": "",
          "type": "uint256"
        }
      ],
      "stateMutability": "view",
      "type": "function"
    },
    {
      "inputs": [
        {
          "internalType": "uint256",
          "name": "value",
          "type": "uint256"
        }
      ],
      "name": "burn",
      "outputs": [],
      "stateMutability": "nonpayable",
      "type": "function"
    },
    {
      "inputs": [
        {
          "internalType": "address",
          "name": "account",
          "type": "address"
        },
        {
          "internalType": "uint256",
          "name": "value",
          "type": "uint256"
        }
      ],
      "name": "burnFrom",
      "outputs": [],
      "stateMutability": "nonpayable",
      "type": "function"
    },
    {
      "inputs": [],
      "name": "consensusRegistry",
      "outputs": [
        {
          "internalType": "address",
          "name": "",
          "type": "address"
        }
      ],
      "stateMutability": "view",
      "type": "function"
    },
    {
      "inputs": [],
      "name": "decimals",
      "outputs": [
        {
          "internalType": "uint8",
          "name": "",
          "type": "uint8"
        }
      ],
      "stateMutability": "view",
      "type": "function"
    },
    {
      "inputs": [
        {
          "internalType": "uint256",
          "name": "proposalId",
          "type": "uint256"
        }
      ],
      "name": "executeProposal",
      "outputs": [],
      "stateMutability": "nonpayable",
      "type": "function"
    },
    {
      "inputs": [],
      "name": "gasBackPercentage",
      "outputs": [
        {
          "internalType": "uint256",
          "name": "",
          "type": "uint256"
        }
      ],
      "stateMutability": "view",
      "type": "function"
    },
    {
      "inputs": [
        {
          "internalType": "uint256",
          "name": "",
          "type": "uint256"
        }
      ],
      "name": "governors",
      "outputs": [
        {
          "internalType": "address",
          "name": "",
          "type": "address"
        }
      ],
      "stateMutability": "view",
      "type": "function"
    },
    {
      "inputs": [
        {
          "internalType": "uint256",
          "name": "",
          "type": "uint256"
        },
        {
          "internalType": "address",
          "name": "",
          "type": "address"
        }
      ],
      "name": "hasVoted",
      "outputs": [
        {
          "internalType": "bool",
          "name": "",
          "type": "bool"
        }
      ],
      "stateMutability": "view",
      "type": "function"
    },
    {
      "inputs": [
        {
          "internalType": "address",
          "name": "",
          "type": "address"
        }
      ],
      "name": "isGovernor",
      "outputs": [
        {
          "internalType": "bool",
          "name": "",
          "type": "bool"
        }
      ],
      "stateMutability": "view",
      "type": "function"
    },
    {
      "inputs": [
        {
          "internalType": "address",
          "name": "",
          "type": "address"
        }
      ],
      "name": "isValidatorNode",
      "outputs": [
        {
          "internalType": "bool",
          "name": "",
          "type": "bool"
        }
      ],
      "stateMutability": "view",
      "type": "function"
    },
    {
      "inputs": [
        {
          "internalType": "address",
          "name": "",
          "type": "address"
        }
      ],
      "name": "lastRecycledBlock",
      "outputs": [
        {
          "internalType": "uint256",
          "name": "",
          "type": "uint256"
        }
      ],
      "stateMutability": "view",
      "type": "function"
    },
    {
      "inputs": [],
      "name": "name",
      "outputs": [
        {
          "internalType": "string",
          "name": "",
          "type": "string"
        }
      ],
      "stateMutability": "view",
      "type": "function"
    },
    {
      "inputs": [
        {
          "internalType": "uint256",
          "name": "",
          "type": "uint256"
        }
      ],
      "name": "proposals",
      "outputs": [
        {
          "internalType": "string",
          "name": "actionType",
          "type": "string"
        },
        {
          "internalType": "address",
          "name": "targetAddress",
          "type": "address"
        },
        {
          "internalType": "uint256",
          "name": "eta",
          "type": "uint256"
        },
        {
          "internalType": "bool",
          "name": "executed",
          "type": "bool"
        },
        {
          "internalType": "uint256",
          "name": "yesVotes",
          "type": "uint256"
        }
      ],
      "stateMutability": "view",
      "type": "function"
    },
    {
      "inputs": [
        {
          "internalType": "string",
          "name": "_actionType",
          "type": "string"
        },
        {
          "internalType": "address",
          "name": "_target",
          "type": "address"
        }
      ],
      "name": "proposeAction",
      "outputs": [
        {
          "internalType": "uint256",
          "name": "",
          "type": "uint256"
        }
      ],
      "stateMutability": "nonpayable",
      "type": "function"
    },
    {
      "inputs": [
        {
          "internalType": "address",
          "name": "validator",
          "type": "address"
        },
        {
          "internalType": "uint256",
          "name": "gasUsed",
          "type": "uint256"
        }
      ],
      "name": "recycleGas",
      "outputs": [],
      "stateMutability": "nonpayable",
      "type": "function"
    },
    {
      "inputs": [],
      "name": "symbol",
      "outputs": [
        {
          "internalType": "string",
          "name": "",
          "type": "string"
        }
      ],
      "stateMutability": "view",
      "type": "function"
    },
    {
      "inputs": [],
      "name": "totalSupply",
      "outputs": [
        {
          "internalType": "uint256",
          "name": "",
          "type": "uint256"
        }
      ],
      "stateMutability": "view",
      "type": "function"
    },
    {
      "inputs": [
        {
          "internalType": "address",
          "name": "to",
          "type": "address"
        },
        {
          "internalType": "uint256",
          "name": "value",
          "type": "uint256"
        }
      ],
      "name": "transfer",
      "outputs": [
        {
          "internalType": "bool",
          "name": "",
          "type": "bool"
        }
      ],
      "stateMutability": "nonpayable",
      "type": "function"
    },
    {
      "inputs": [
        {
          "internalType": "address",
          "name": "from",
          "type": "address"
        },
        {
          "internalType": "address",
          "name": "to",
          "type": "address"
        },
        {
          "internalType": "uint256",
          "name": "value",
          "type": "uint256"
        }
      ],
      "name": "transferFrom",
      "outputs": [
        {
          "internalType": "bool",
          "name": "",
          "type": "bool"
        }
      ],
      "stateMutability": "nonpayable",
      "type": "function"
    },
    {
      "inputs": [
        {
          "internalType": "uint256",
          "name": "proposalId",
          "type": "uint256"
        }
      ],
      "name": "voteProposal",
      "outputs": [],
      "stateMutability": "nonpayable",
      "type": "function"
    }
  ],
  "bytecode": "0x608060405260196007553480156200001657600080fd5b506040518060400160405280600f81526020016e29bcb6b134b7b9b4b9902a37b5b2b760891b8152506040518060400160405280600381526020016253594d60e81b81525081600390816200006c9190620003fe565b5060046200007b8282620003fe565b505060088054600180820183557ff3f7a9fe364faab93b216da50a3214154f22a0a2b415b23a84c8169e8b636ee39182018054336001600160a01b031991821681179092558454808401865584018054732c6f91ce3a6abd991ffcd4c6dee3b689cde1528b908316811790915585548085019096559490930180547398fc4e22c5ed7ce8f7da550babdc6bbaef9a12b19416841790556000818152600960205260408120805460ff1990811685179091557fa5e0062e2a563cb5e6f77cb46f274a1a501b0b6f59b5871dda08731da99b38068054821685179055908490527f8a276bc274995563e5c6842057b73d283c3bdea71488cbff1d3df1eac20ab9c680549091169092179091559250620001b9836064620001a76b033b2e3c9fd0803ce80000006050620004e0565b620001b3919062000500565b620001e2565b620001d9306064620001a76b033b2e3c9fd0803ce80000006014620004e0565b50505062000539565b6001600160a01b038216620002125760405163ec442f0560e01b8152600060048201526024015b60405180910390fd5b620002206000838362000224565b5050565b6001600160a01b0383166200025357806002600082825462000247919062000523565b90915550620002c79050565b6001600160a01b03831660009081526020819052604090205481811015620002a85760405163391434e360e21b81526001600160a01b0385166004820152602481018290526044810183905260640162000209565b6001600160a01b03841660009081526020819052604090209082900390555b6001600160a01b038216620002e55760028054829003905562000304565b6001600160a01b03821660009081526020819052604090208054820190555b816001600160a01b0316836001600160a01b03167fddf252ad1be2c89b69c2b068fc378daa952ba7f163c4a11628f55a4df523b3ef836040516200034a91815260200190565b60405180910390a3505050565b634e487b7160e01b600052604160045260246000fd5b600181811c908216806200038257607f821691505b602082108103620003a357634e487b7160e01b600052602260045260246000fd5b50919050565b601f821115620003f9576000816000526020600020601f850160051c81016020861015620003d45750805b601f850160051c820191505b81811015620003f557828155600101620003e0565b5050505b505050565b81516001600160401b038111156200041a576200041a62000357565b62000432816200042b84546200036d565b84620003a9565b602080601f8311600181146200046a5760008415620004515750858301515b600019600386901b1c1916600185901b178555620003f5565b600085815260208120601f198616915b828110156200049b578886015182559484019460019091019084016200047a565b5085821015620004ba5787850151600019600388901b60f8161c191681555b5050505050600190811b01905550565b634e487b7160e01b600052601160045260246000fd5b8082028115828204841417620004fa57620004fa620004ca565b92915050565b6000826200051e57634e487b7160e01b600052601260045260246000fd5b500490565b80820180821115620004fa57620004fa620004ca565b611aa480620005496000396000f3fe608060405234801561001057600080fd5b50600436106101735760003560e01c8063621da54c116100de5780639e40df8211610097578063afcda28511610071578063afcda28514610378578063dc751d671461038b578063dd62ed3e1461039e578063e43581b8146103d757600080fd5b80639e40df8214610331578063a7277b001461033a578063a9059cbb1461036557600080fd5b8063621da54c1461029757806370a08231146102b757806379bb032f146102e057806379cc679014610303578063807896d51461031657806395d89b411461032957600080fd5b806323b872dd1161013057806323b872dd14610217578063313ce5671461022a57806332cb6b0c1461023957806342966c681461024c578063438596321461025f5780635ba1c1a91461028d57600080fd5b8063013cf08b1461017857806306fdde03146101a5578063095ea7b3146101ba5780630d61b519146101dd57806318160ddd146101f257806318bf49e614610204575b600080fd5b61018b610186366004611499565b6103fa565b60405161019c9594939291906114f8565b60405180910390f35b6101ad6104d9565b60405161019c9190611538565b6101cd6101c836600461156e565b61056b565b604051901515815260200161019c565b6101f06101eb366004611499565b610585565b005b6002545b60405190815260200161019c565b6101f66102123660046115ae565b610b62565b6101cd610225366004611670565b610cf7565b6040516012815260200161019c565b6101f66b033b2e3c9fd0803ce800000081565b6101f061025a366004611499565b610d1b565b6101cd61026d3660046116ac565b600b60209081526000928352604080842090915290825290205460ff1681565b6101f66201518081565b6101f66102a53660046116cf565b600c6020526000908152604090205481565b6101f66102c53660046116cf565b6001600160a01b031660009081526020819052604090205490565b6101cd6102ee3660046116cf565b60056020526000908152604090205460ff1681565b6101f061031136600461156e565b610d28565b6101f0610324366004611499565b610d41565b6101ad610ecd565b6101f660075481565b61034d610348366004611499565b610edc565b6040516001600160a01b03909116815260200161019c565b6101cd61037336600461156e565b610f06565b60065461034d906001600160a01b031681565b6101f061039936600461156e565b610f14565b6101f66103ac3660046116ea565b6001600160a01b03918216600090815260016020908152604080832093909416825291909152205490565b6101cd6103e53660046116cf565b60096020526000908152604090205460ff1681565b600a818154811061040a57600080fd5b906000526020600020906005020160009150905080600001805461042d90611714565b80601f016020809104026020016040519081016040528092919081815260200182805461045990611714565b80156104a65780601f1061047b576101008083540402835291602001916104a6565b820191906000526020600020905b81548152906001019060200180831161048957829003601f168201915b50505060018401546002850154600386015460049096015494956001600160a01b039092169490935060ff909116915085565b6060600380546104e890611714565b80601f016020809104026020016040519081016040528092919081815260200182805461051490611714565b80156105615780601f1061053657610100808354040283529160200191610561565b820191906000526020600020905b81548152906001019060200180831161054457829003601f168201915b5050505050905090565b600033610579818585611175565b60019150505b92915050565b3360009081526009602052604090205460ff166105bd5760405162461bcd60e51b81526004016105b49061174e565b60405180910390fd5b6000600a82815481106105d2576105d2611792565b60009182526020909120600590910201600381015490915060ff16156106365760405162461bcd60e51b8152602060048201526019602482015278141c9bdc1bdcd85b08185b1c9958591e48195e1958dd5d1959603a1b60448201526064016105b4565b806002015442101561068a5760405162461bcd60e51b815260206004820152601e60248201527f54696d656c6f636b2064656c6179206973206e6f74206f76657220796574000060448201526064016105b4565b6002816004015410156106fa5760405162461bcd60e51b815260206004820152603260248201527f496e73756666696369656e7420636f6e73656e737573207369676e61747572656044820152717320286d696e20322072657175697265642960701b60648201526084016105b4565b60038101805460ff191660011790556040805180820182526014815273736574436f6e73656e737573526567697374727960601b602090910152517f4e460d3876a355fc61bf123bdf3e8dcff7f897cf93416dae8cefc635f41256ae906107629083906117a8565b6040518091039020036107c457600181018054600680546001600160a01b0319166001600160a01b0392831617905590546040519116907f63b8f8e18de64ac58c4dee814613d77626f2f0b579c2d8ff03117b32d82aa39590600090a2610b13565b60408051808201825260118152703932b3b4b9ba32b92b30b634b230ba37b960791b602090910152517f6e6cf01c2035ecf0121c5dd8de79c0f6b9bc4d0ac18bc59954259d4a8e0bbd469061081a9083906117a8565b604051809103902003610854576001818101546001600160a01b03166000908152600560205260409020805460ff19169091179055610b13565b604080518082018252600e81526d3ab83230ba32a3b7bb32b93737b960911b602090910152517f0b7a5b32cc588549cd4be1cd7ef03e68c69a2bc2f77975d849c660abc6cdab41906108a79083906117a8565b604051809103902003610ad55760018101546001600160a01b031660009081526009602052604090205460ff16156109f0576000805b6008548110156109415760096000600883815481106108fe576108fe611792565b60009182526020808320909101546001600160a01b0316835282019290925260400190205460ff1615610939578161093581611834565b9250505b6001016108dd565b50600181116109c65760405162461bcd60e51b8152602060048201526044602482018190527f43616e6e6f742072656d6f766520676f7665726e6f723a206d696e696d756d20908201527f312061637469766520676f7665726e6f72207468726573686f6c6420726571756064820152631a5c995960e21b608482015260a4016105b4565b5060018101546001600160a01b03166000908152600960205260409020805460ff19169055610b13565b6001818101546001600160a01b03166000908152600960205260408120805460ff1916909217909155805b600854811015610a75576001830154600880546001600160a01b039092169183908110610a4a57610a4a611792565b6000918252602090912001546001600160a01b031603610a6d5760019150610a75565b600101610a1b565b5080610acf576001808301546008805492830181556000527ff3f7a9fe364faab93b216da50a3214154f22a0a2b415b23a84c8169e8b636ee390910180546001600160a01b0319166001600160a01b039092169190911790555b50610b13565b60405162461bcd60e51b8152602060048201526013602482015272556e6b6e6f776e20616374696f6e207479706560681b60448201526064016105b4565b60018101546040516001600160a01b039091169083907f815e4bff68e0a6f81d6ca6129bc921f2d6f47a1ea4e0e2f086cf5a9ca780271290610b5690859061184d565b60405180910390a35050565b3360009081526009602052604081205460ff16610b915760405162461bcd60e51b81526004016105b49061174e565b6000610ba062015180426118dd565b6040805160a0810182528681526001600160a01b0386166020820152908101829052600060608201819052600160808301819052600a805491820181559091528151929350909160059091027fc65a7bb8d6351c1cf70c95a316cc6a92839c986682d98bc35f958f4883f9d2a801908190610c1b9082611940565b506020820151600182810180546001600160a01b0319166001600160a01b039093169290921790915560408301516002830155606083015160038301805460ff1916911515919091179055608090920151600490910155600a54600091610c8191611a00565b6000818152600b6020908152604080832033845290915290819020805460ff19166001179055519091506001600160a01b0385169082907f9cc3d9dd626042cdefb76484b91708c3207b637214b44f20111c893548d9c85f90610ce79089908790611a13565b60405180910390a3949350505050565b600033610d05858285611187565b610d10858585611205565b506001949350505050565b610d253382611264565b50565b610d33823383611187565b610d3d8282611264565b5050565b3360009081526009602052604090205460ff16610d705760405162461bcd60e51b81526004016105b49061174e565b6000600a8281548110610d8557610d85611792565b60009182526020909120600590910201600381015490915060ff1615610de95760405162461bcd60e51b8152602060048201526019602482015278141c9bdc1bdcd85b08185b1c9958591e48195e1958dd5d1959603a1b60448201526064016105b4565b6000828152600b6020908152604080832033845290915290205460ff1615610e535760405162461bcd60e51b815260206004820152601e60248201527f416c726561647920766f746564206f6e20746869732070726f706f73616c000060448201526064016105b4565b6000828152600b602090815260408083203384529091528120805460ff1916600190811790915560048301805491929091610e8f9084906118dd565b90915550506004810154604051908152339083907f12602b81b4b3a6bc77534c571e8af3d316246bc5e5bea24efdf512ff6715da1590602001610b56565b6060600480546104e890611714565b60088181548110610eec57600080fd5b6000918252602090912001546001600160a01b0316905081565b600033610579818585611205565b6006546001600160a01b03163314610f845760405162461bcd60e51b815260206004820152602d60248201527f4f6e6c7920436f6e73656e7375732052656769737472792063616e207472696760448201526c6765722072656379636c696e6760981b60648201526084016105b4565b6001600160a01b0382166000908152600c6020526040902054431015610ffc5760405162461bcd60e51b815260206004820152602760248201527f52656379636c652072617465206c696d69742061637469766520696e2073616d6044820152666520626c6f636b60c81b60648201526084016105b4565b6001600160a01b0382166000908152600c6020526040902043905566038d7ea4c6800081111561106e5760405162461bcd60e51b815260206004820152601760248201527f45786365737369766520676173557365642076616c756500000000000000000060448201526064016105b4565b600060646007543a846110819190611a35565b61108b9190611a35565b6110959190611a4c565b905069010f0cf064dd59200000808211156110ae578091505b306000908152602081905260409020548211156111215760405162461bcd60e51b815260206004820152602b60248201527f496e73756666696369656e74207472656173757279206761732072656379636c60448201526a696e672062616c616e636560a81b60648201526084016105b4565b61112c308584611205565b836001600160a01b03167f11c9a275a519d3bb61902765b0126632a3397dc2ba6c8f6fd983118ff2a98ccd8360405161116791815260200190565b60405180910390a250505050565b611182838383600161129a565b505050565b6001600160a01b0383811660009081526001602090815260408083209386168352929052205460001981146111ff57818110156111f057604051637dc7a0d960e11b81526001600160a01b038416600482015260248101829052604481018390526064016105b4565b6111ff8484848403600061129a565b50505050565b6001600160a01b03831661122f57604051634b637e8f60e11b8152600060048201526024016105b4565b6001600160a01b0382166112595760405163ec442f0560e01b8152600060048201526024016105b4565b61118283838361136f565b6001600160a01b03821661128e57604051634b637e8f60e11b8152600060048201526024016105b4565b610d3d8260008361136f565b6001600160a01b0384166112c45760405163e602df0560e01b8152600060048201526024016105b4565b6001600160a01b0383166112ee57604051634a1406b160e11b8152600060048201526024016105b4565b6001600160a01b03808516600090815260016020908152604080832093871683529290522082905580156111ff57826001600160a01b0316846001600160a01b03167f8c5be1e5ebec7d5bd14f71427d1e84f3dd0314c0f7b2291e5b200ac8c7c3b9258460405161136191815260200190565b60405180910390a350505050565b6001600160a01b03831661139a57806002600082825461138f91906118dd565b9091555061140c9050565b6001600160a01b038316600090815260208190526040902054818110156113ed5760405163391434e360e21b81526001600160a01b038516600482015260248101829052604481018390526064016105b4565b6001600160a01b03841660009081526020819052604090209082900390555b6001600160a01b03821661142857600280548290039055611447565b6001600160a01b03821660009081526020819052604090208054820190555b816001600160a01b0316836001600160a01b03167fddf252ad1be2c89b69c2b068fc378daa952ba7f163c4a11628f55a4df523b3ef8360405161148c91815260200190565b60405180910390a3505050565b6000602082840312156114ab57600080fd5b5035919050565b6000815180845260005b818110156114d8576020818501810151868301820152016114bc565b506000602082860101526020601f19601f83011685010191505092915050565b60a08152600061150b60a08301886114b2565b6001600160a01b039690961660208301525060408101939093529015156060830152608090910152919050565b60208152600061154b60208301846114b2565b9392505050565b80356001600160a01b038116811461156957600080fd5b919050565b6000806040838503121561158157600080fd5b61158a83611552565b946020939093013593505050565b634e487b7160e01b600052604160045260246000fd5b600080604083850312156115c157600080fd5b823567ffffffffffffffff808211156115d957600080fd5b818501915085601f8301126115ed57600080fd5b8135818111156115ff576115ff611598565b604051601f8201601f19908116603f0116810190838211818310171561162757611627611598565b8160405282815288602084870101111561164057600080fd5b82602086016020830137600060208483010152809650505050505061166760208401611552565b90509250929050565b60008060006060848603121561168557600080fd5b61168e84611552565b925061169c60208501611552565b9150604084013590509250925092565b600080604083850312156116bf57600080fd5b8235915061166760208401611552565b6000602082840312156116e157600080fd5b61154b82611552565b600080604083850312156116fd57600080fd5b61170683611552565b915061166760208401611552565b600181811c9082168061172857607f821691505b60208210810361174857634e487b7160e01b600052602260045260246000fd5b50919050565b60208082526024908201527f43616c6c6572206973206e6f7420616e20617574686f72697a656420676f7665604082015263393737b960e11b606082015260800190565b634e487b7160e01b600052603260045260246000fd5b60008083546117b681611714565b600182811680156117ce57600181146117e357611812565b60ff1984168752821515830287019450611812565b8760005260208060002060005b858110156118095781548a8201529084019082016117f0565b50505082870194505b50929695505050505050565b634e487b7160e01b600052601160045260246000fd5b6000600182016118465761184661181e565b5060010190565b600060208083526000845461186181611714565b8060208701526040600180841660008114611883576001811461189f576118cf565b60ff19851660408a0152604084151560051b8a010195506118cf565b89600052602060002060005b858110156118c65781548b82018601529083019088016118ab565b8a016040019650505b509398975050505050505050565b8082018082111561057f5761057f61181e565b601f821115611182576000816000526020600020601f850160051c810160208610156119195750805b601f850160051c820191505b8181101561193857828155600101611925565b505050505050565b815167ffffffffffffffff81111561195a5761195a611598565b61196e816119688454611714565b846118f0565b602080601f8311600181146119a3576000841561198b5750858301515b600019600386901b1c1916600185901b178555611938565b600085815260208120601f198616915b828110156119d2578886015182559484019460019091019084016119b3565b50858210156119f05787850151600019600388901b60f8161c191681555b5050505050600190811b01905550565b8181038181111561057f5761057f61181e565b604081526000611a2660408301856114b2565b90508260208301529392505050565b808202811582820484141761057f5761057f61181e565b600082611a6957634e487b7160e01b600052601260045260246000fd5b50049056fea2646970667358221220b6e18de92c14b07507d8585d3d48e652e2b8e3faa9621da64eedaa2f8e10819e64736f6c63430008180033",
  "linkReferences": {},
  "deployedLinkReferences": {}
}