{
  "_format": "hh-sol-artifact-1",
  "contractName": "SymbiosisToken",
  "sourceName": "contracts/SymbiosisToken.sol",
  "abi": [
    {
      "inputs": [],
      "stateMutability": "nonpayable",
      "type": "constructor"
    },
    {
      "inputs": [
        {
          "internalType": "address",
          "name": "spender",
          "type": "address"
        },
        {
          "internalType": "uint256",
          "name": "allowance",
          "type": "uint256"
        },
        {
          "internalType": "uint256",
          "name": "needed",
          "type": "uint256"
        }
      ],
      "name": "ERC20InsufficientAllowance",
      "type": "error"
    },
    {
      "inputs": [
        {
          "internalType": "address",
          "name": "sender",
          "type": "address"
        },
        {
          "internalType": "uint256",
          "name": "balance",
          "type": "uint256"
        },
        {
          "internalType": "uint256",
          "name": "needed",
          "type": "uint256"
        }
      ],
      "name": "ERC20InsufficientBalance",
      "type": "error"
    },
    {
      "inputs": [
        {
          "internalType": "address",
          "name": "approver",
          "type": "address"
        }
      ],
      "name": "ERC20InvalidApprover",
      "type": "error"
    },
    {
      "inputs": [
        {
          "internalType": "address",
          "name": "receiver",
          "type": "address"
        }
      ],
      "name": "ERC20InvalidReceiver",
      "type": "error"
    },
    {
      "inputs": [
        {
          "internalType": "address",
          "name": "sender",
          "type": "address"
        }
      ],
      "name": "ERC20InvalidSender",
      "type": "error"
    },
    {
      "inputs": [
        {
          "internalType": "address",
          "name": "spender",
          "type": "address"
        }
      ],
      "name": "ERC20InvalidSpender",
      "type": "error"
    },
    {
      "inputs": [],
      "name": "EnforcedPause",
      "type": "error"
    },
    {
      "inputs": [],
      "name": "ExpectedPause",
      "type": "error"
    },
    {
      "anonymous": false,
      "inputs": [
        {
          "indexed": true,
          "internalType": "address",
          "name": "owner",
          "type": "address"
        },
        {
          "indexed": true,
          "internalType": "address",
          "name": "spender",
          "type": "address"
        },
        {
          "indexed": false,
          "internalType": "uint256",
          "name": "value",
          "type": "uint256"
        }
      ],
      "name": "Approval",
      "type": "event"
    },
    {
      "anonymous": false,
      "inputs": [
        {
          "indexed": true,
          "internalType": "address",
          "name": "registry",
          "type": "address"
        }
      ],
      "name": "ConsensusRegistryUpdated",
      "type": "event"
    },
    {
      "anonymous": false,
      "inputs": [
        {
          "indexed": true,
          "internalType": "address",
          "name": "validator",
          "type": "address"
        },
        {
          "indexed": false,
          "internalType": "uint256",
          "name": "amount",
          "type": "uint256"
        }
      ],
      "name": "GasRecycled",
      "type": "event"
    },
    {
      "anonymous": false,
      "inputs": [
        {
          "indexed": false,
          "internalType": "address",
          "name": "account",
          "type": "address"
        }
      ],
      "name": "Paused",
      "type": "event"
    },
    {
      "anonymous": false,
      "inputs": [
        {
          "indexed": true,
          "internalType": "uint256",
          "name": "proposalId",
          "type": "uint256"
        },
        {
          "indexed": false,
          "internalType": "string",
          "name": "actionType",
          "type": "string"
        },
        {
          "indexed": true,
          "internalType": "address",
          "name": "target",
          "type": "address"
        },
        {
          "indexed": false,
          "internalType": "uint256",
          "name": "eta",
          "type": "uint256"
        }
      ],
      "name": "ProposalCreated",
      "type": "event"
    },
    {
      "anonymous": false,
      "inputs": [
        {
          "indexed": true,
          "internalType": "uint256",
          "name": "proposalId",
          "type": "uint256"
        },
        {
          "indexed": false,
          "internalType": "string",
          "name": "actionType",
          "type": "string"
        },
        {
          "indexed": true,
          "internalType": "address",
          "name": "target",
          "type": "address"
        }
      ],
      "name": "ProposalExecuted",
      "type": "event"
    },
    {
      "anonymous": false,
      "inputs": [
        {
          "indexed": true,
          "internalType": "uint256",
          "name": "proposalId",
          "type": "uint256"
        },
        {
          "indexed": true,
          "internalType": "address",
          "name": "governor",
          "type": "address"
        },
        {
          "indexed": false,
          "internalType": "uint256",
          "name": "currentVotes",
          "type": "uint256"
        }
      ],
      "name": "ProposalVoted",
      "type": "event"
    },
    {
      "anonymous": false,
      "inputs": [
        {
          "indexed": true,
          "internalType": "address",
          "name": "validator",
          "type": "address"
        },
        {
          "indexed": false,
          "internalType": "uint256",
          "name": "amount",
          "type": "uint256"
        }
      ],
      "name": "RewardsClaimed",
      "type": "event"
    },
    {
      "anonymous": false,
      "inputs": [
        {
          "indexed": true,
          "internalType": "address",
          "name": "from",
          "type": "address"
        },
        {
          "indexed": true,
          "internalType": "address",
          "name": "to",
          "type": "address"
        },
        {
          "indexed": false,
          "internalType": "uint256",
          "name": "value",
          "type": "uint256"
        }
      ],
      "name": "Transfer",
      "type": "event"
    },
    {
      "anonymous": false,
      "inputs": [
        {
          "indexed": false,
          "internalType": "address",
          "name": "account",
          "type": "address"
        }
      ],
      "name": "Unpaused",
      "type": "event"
    },
    {
      "inputs": [],
      "name": "MAX_SUPPLY",
      "outputs": [
        {
          "internalType": "uint256",
          "name": "",
          "type": "uint256"
        }
      ],
      "stateMutability": "view",
      "type": "function"
    },
    {
      "inputs": [
        {
          "internalType": "address",
          "name": "owner",
          "type": "address"
        },
        {
          "internalType": "address",
          "name": "spender",
          "type": "address"
        }
      ],
      "name": "allowance",
      "outputs": [
        {
          "internalType": "uint256",
          "name": "",
          "type": "uint256"
        }
      ],
      "stateMutability": "view",
      "type": "function"
    },
    {
      "inputs": [
        {
          "internalType": "address",
          "name": "spender",
          "type": "address"
        },
        {
          "internalType": "uint256",
          "name": "value",
          "type": "uint256"
        }
      ],
      "name": "approve",
      "outputs": [
        {
          "internalType": "bool",
          "name": "",
          "type": "bool"
        }
      ],
      "stateMutability": "nonpayable",
      "type": "function"
    },
    {
      "inputs": [
        {
          "internalType": "address",
          "name": "account",
          "type": "address"
        }
      ],
      "name": "balanceOf",
      "outputs": [
        {
          "internalType": "uint256",
          "name": "",
          "type": "uint256"
        }
      ],
      "stateMutability": "view",
      "type": "function"
    },
    {
      "inputs": [
        {
          "internalType": "uint256",
          "name": "value",
          "type": "uint256"
        }
      ],
      "name": "burn",
      "outputs": [],
      "stateMutability": "nonpayable",
      "type": "function"
    },
    {
      "inputs": [
        {
          "internalType": "address",
          "name": "account",
          "type": "address"
        },
        {
          "internalType": "uint256",
          "name": "value",
          "type": "uint256"
        }
      ],
      "name": "burnFrom",
      "outputs": [],
      "stateMutability": "nonpayable",
      "type": "function"
    },
    {
      "inputs": [
        {
          "internalType": "address",
          "name": "validator",
          "type": "address"
        },
        {
          "internalType": "uint256",
          "name": "rewardAmount",
          "type": "uint256"
        }
      ],
      "name": "claimValidatorRewards",
      "outputs": [],
      "stateMutability": "nonpayable",
      "type": "function"
    },
    {
      "inputs": [],
      "name": "consensusRegistry",
      "outputs": [
        {
          "internalType": "address",
          "name": "",
          "type": "address"
        }
      ],
      "stateMutability": "view",
      "type": "function"
    },
    {
      "inputs": [],
      "name": "decimals",
      "outputs": [
        {
          "internalType": "uint8",
          "name": "",
          "type": "uint8"
        }
      ],
      "stateMutability": "view",
      "type": "function"
    },
    {
      "inputs": [
        {
          "internalType": "uint256",
          "name": "proposalId",
          "type": "uint256"
        }
      ],
      "name": "executeProposal",
      "outputs": [],
      "stateMutability": "nonpayable",
      "type": "function"
    },
    {
      "inputs": [],
      "name": "gasBackPercentage",
      "outputs": [
        {
          "internalType": "uint256",
          "name": "",
          "type": "uint256"
        }
      ],
      "stateMutability": "view",
      "type": "function"
    },
    {
      "inputs": [
        {
          "internalType": "uint256",
          "name": "",
          "type": "uint256"
        }
      ],
      "name": "governors",
      "outputs": [
        {
          "internalType": "address",
          "name": "",
          "type": "address"
        }
      ],
      "stateMutability": "view",
      "type": "function"
    },
    {
      "inputs": [
        {
          "internalType": "uint256",
          "name": "",
          "type": "uint256"
        },
        {
          "internalType": "address",
          "name": "",
          "type": "address"
        }
      ],
      "name": "hasVoted",
      "outputs": [
        {
          "internalType": "bool",
          "name": "",
          "type": "bool"
        }
      ],
      "stateMutability": "view",
      "type": "function"
    },
    {
      "inputs": [
        {
          "internalType": "address",
          "name": "",
          "type": "address"
        }
      ],
      "name": "isGovernor",
      "outputs": [
        {
          "internalType": "bool",
          "name": "",
          "type": "bool"
        }
      ],
      "stateMutability": "view",
      "type": "function"
    },
    {
      "inputs": [
        {
          "internalType": "address",
          "name": "",
          "type": "address"
        }
      ],
      "name": "isValidatorNode",
      "outputs": [
        {
          "internalType": "bool",
          "name": "",
          "type": "bool"
        }
      ],
      "stateMutability": "view",
      "type": "function"
    },
    {
      "inputs": [],
      "name": "name",
      "outputs": [
        {
          "internalType": "string",
          "name": "",
          "type": "string"
        }
      ],
      "stateMutability": "view",
      "type": "function"
    },
    {
      "inputs": [],
      "name": "pause",
      "outputs": [],
      "stateMutability": "nonpayable",
      "type": "function"
    },
    {
      "inputs": [],
      "name": "paused",
      "outputs": [
        {
          "internalType": "bool",
          "name": "",
          "type": "bool"
        }
      ],
      "stateMutability": "view",
      "type": "function"
    },
    {
      "inputs": [
        {
          "internalType": "uint256",
          "name": "",
          "type": "uint256"
        }
      ],
      "name": "proposals",
      "outputs": [
        {
          "internalType": "string",
          "name": "actionType",
          "type": "string"
        },
        {
          "internalType": "address",
          "name": "targetAddress",
          "type": "address"
        },
        {
          "internalType": "uint256",
          "name": "eta",
          "type": "uint256"
        },
        {
          "internalType": "bool",
          "name": "executed",
          "type": "bool"
        },
        {
          "internalType": "uint256",
          "name": "yesVotes",
          "type": "uint256"
        }
      ],
      "stateMutability": "view",
      "type": "function"
    },
    {
      "inputs": [
        {
          "internalType": "string",
          "name": "actionType",
          "type": "string"
        },
        {
          "internalType": "address",
          "name": "target",
          "type": "address"
        }
      ],
      "name": "proposeAction",
      "outputs": [
        {
          "internalType": "uint256",
          "name": "",
          "type": "uint256"
        }
      ],
      "stateMutability": "nonpayable",
      "type": "function"
    },
    {
      "inputs": [
        {
          "internalType": "address",
          "name": "validator",
          "type": "address"
        },
        {
          "internalType": "uint256",
          "name": "gasUsed",
          "type": "uint256"
        }
      ],
      "name": "recycleGas",
      "outputs": [],
      "stateMutability": "nonpayable",
      "type": "function"
    },
    {
      "inputs": [
        {
          "internalType": "address",
          "name": "contractAddr",
          "type": "address"
        },
        {
          "internalType": "bool",
          "name": "status",
          "type": "bool"
        }
      ],
      "name": "setWhitelistedContract",
      "outputs": [],
      "stateMutability": "nonpayable",
      "type": "function"
    },
    {
      "inputs": [],
      "name": "symbol",
      "outputs": [
        {
          "internalType": "string",
          "name": "",
          "type": "string"
        }
      ],
      "stateMutability": "view",
      "type": "function"
    },
    {
      "inputs": [],
      "name": "timelockDelay",
      "outputs": [
        {
          "internalType": "uint256",
          "name": "",
          "type": "uint256"
        }
      ],
      "stateMutability": "view",
      "type": "function"
    },
    {
      "inputs": [],
      "name": "totalSupply",
      "outputs": [
        {
          "internalType": "uint256",
          "name": "",
          "type": "uint256"
        }
      ],
      "stateMutability": "view",
      "type": "function"
    },
    {
      "inputs": [
        {
          "internalType": "address",
          "name": "to",
          "type": "address"
        },
        {
          "internalType": "uint256",
          "name": "value",
          "type": "uint256"
        }
      ],
      "name": "transfer",
      "outputs": [
        {
          "internalType": "bool",
          "name": "",
          "type": "bool"
        }
      ],
      "stateMutability": "nonpayable",
      "type": "function"
    },
    {
      "inputs": [
        {
          "internalType": "address",
          "name": "from",
          "type": "address"
        },
        {
          "internalType": "address",
          "name": "to",
          "type": "address"
        },
        {
          "internalType": "uint256",
          "name": "value",
          "type": "uint256"
        }
      ],
      "name": "transferFrom",
      "outputs": [
        {
          "internalType": "bool",
          "name": "",
          "type": "bool"
        }
      ],
      "stateMutability": "nonpayable",
      "type": "function"
    },
    {
      "inputs": [],
      "name": "unpause",
      "outputs": [],
      "stateMutability": "nonpayable",
      "type": "function"
    },
    {
      "inputs": [
        {
          "internalType": "uint256",
          "name": "proposalId",
          "type": "uint256"
        }
      ],
      "name": "voteProposal",
      "outputs": [],
      "stateMutability": "nonpayable",
      "type": "function"
    },
    {
      "inputs": [
        {
          "internalType": "address",
          "name": "",
          "type": "address"
        }
      ],
      "name": "whitelistedContracts",
      "outputs": [
        {
          "internalType": "bool",
          "name": "",
          "type": "bool"
        }
      ],
      "stateMutability": "view",
      "type": "function"
    }
  ],
  "bytecode": "0x60806040526019600855620151806009553480156200001d57600080fd5b506040518060400160405280600f81526020016e29bcb6b134b7b9b4b9902a37b5b2b760891b8152506040518060400160405280600381526020016253594d60e81b81525081600390816200007391906200040e565b5060046200008282826200040e565b50506005805460ff19908116909155600a8054600181810183557fc65a7bb8d6351c1cf70c95a316cc6a92839c986682d98bc35f958f4883f9d2a89182018054336001600160a01b031991821681179092558454808401865584018054732c6f91ce3a6abd991ffcd4c6dee3b689cde1528b908316811790915585548085019096559490930180547398fc4e22c5ed7ce8f7da550babdc6bbaef9a12b19416841790556000818152600b6020526040812080548716841790557ff2bcad679452ee4552d4a561d2197d49388676e589d14837dd1640eab5436e8e80548716841790558390527fa499399c6ecf0df6a333c2f14332908e46588fc4798af916d5371dbebc0a7dc3805490951690911790935591925090620001c9836064620001b76b033b2e3c9fd0803ce80000006050620004f0565b620001c3919062000510565b620001f2565b620001e9306064620001b76b033b2e3c9fd0803ce80000006014620004f0565b50505062000549565b6001600160a01b038216620002225760405163ec442f0560e01b8152600060048201526024015b60405180910390fd5b620002306000838362000234565b5050565b6001600160a01b0383166200026357806002600082825462000257919062000533565b90915550620002d79050565b6001600160a01b03831660009081526020819052604090205481811015620002b85760405163391434e360e21b81526001600160a01b0385166004820152602481018290526044810183905260640162000219565b6001600160a01b03841660009081526020819052604090209082900390555b6001600160a01b038216620002f55760028054829003905562000314565b6001600160a01b03821660009081526020819052604090208054820190555b816001600160a01b0316836001600160a01b03167fddf252ad1be2c89b69c2b068fc378daa952ba7f163c4a11628f55a4df523b3ef836040516200035a91815260200190565b60405180910390a3505050565b634e487b7160e01b600052604160045260246000fd5b600181811c908216806200039257607f821691505b602082108103620003b357634e487b7160e01b600052602260045260246000fd5b50919050565b601f82111562000409576000816000526020600020601f850160051c81016020861015620003e45750805b601f850160051c820191505b818110156200040557828155600101620003f0565b5050505b505050565b81516001600160401b038111156200042a576200042a62000367565b62000442816200043b84546200037d565b84620003b9565b602080601f8311600181146200047a5760008415620004615750858301515b600019600386901b1c1916600185901b17855562000405565b600085815260208120601f198616915b82811015620004ab578886015182559484019460019091019084016200048a565b5085821015620004ca5787850151600019600388901b60f8161c191681555b5050505050600190811b01905550565b634e487b7160e01b600052601160045260246000fd5b80820281158282048414176200050a576200050a620004da565b92915050565b6000826200052e57634e487b7160e01b600052601260045260246000fd5b500490565b808201808211156200050a576200050a620004da565b61209f80620005596000396000f3fe608060405234801561001057600080fd5b50600436106101da5760003560e01c806379bb032f11610104578063a9059cbb116100a2578063dd62ed3e11610071578063dd62ed3e1461042c578063e307495114610465578063e43581b814610478578063eef09bad1461049b57600080fd5b8063a9059cbb146103e0578063afcda285146103f3578063c421449214610406578063dc751d671461041957600080fd5b80638456cb59116100de5780638456cb591461039c57806395d89b41146103a45780639e40df82146103ac578063a7277b00146103b557600080fd5b806379bb032f1461035357806379cc679014610376578063807896d51461038957600080fd5b8063313ce5671161017c57806342966c681161014b57806342966c68146102de57806343859632146102f15780635c975abb1461031f57806370a082311461032a57600080fd5b8063313ce5671461029157806332cb6b0c146102a0578063391feebb146102b35780633f4ba83a146102d657600080fd5b80630d61b519116101b85780630d61b5191461024457806318160ddd1461025957806318bf49e61461026b57806323b872dd1461027e57600080fd5b8063013cf08b146101df57806306fdde031461020c578063095ea7b314610221575b600080fd5b6101f26101ed366004611a78565b6104a4565b604051610203959493929190611ad7565b60405180910390f35b610214610583565b6040516102039190611b17565b61023461022f366004611b46565b610615565b6040519015158152602001610203565b610257610252366004611a78565b61062f565b005b6002545b604051908152602001610203565b61025d610279366004611b86565b610bcf565b61023461028c366004611c48565b610ee9565b60405160128152602001610203565b61025d6b033b2e3c9fd0803ce800000081565b6102346102c1366004611c84565b600c6020526000908152604090205460ff1681565b610257610faf565b6102576102ec366004611a78565b610fe8565b6102346102ff366004611c9f565b600e60209081526000928352604080842090915290825290205460ff1681565b60055460ff16610234565b61025d610338366004611c84565b6001600160a01b031660009081526020819052604090205490565b610234610361366004611c84565b60066020526000908152604090205460ff1681565b610257610384366004611b46565b610ff5565b610257610397366004611a78565b61100e565b610257611243565b61021461127a565b61025d60085481565b6103c86103c3366004611a78565b611289565b6040516001600160a01b039091168152602001610203565b6102346103ee366004611b46565b6112b3565b6007546103c8906001600160a01b031681565b610257610414366004611cc2565b611354565b610257610427366004611b46565b6113ae565b61025d61043a366004611cfe565b6001600160a01b03918216600090815260016020908152604080832093909416825291909152205490565b610257610473366004611b46565b611541565b610234610486366004611c84565b600b6020526000908152604090205460ff1681565b61025d60095481565b600d81815481106104b457600080fd5b90600052602060002090600502016000915090508060000180546104d790611d28565b80601f016020809104026020016040519081016040528092919081815260200182805461050390611d28565b80156105505780601f1061052557610100808354040283529160200191610550565b820191906000526020600020905b81548152906001019060200180831161053357829003601f168201915b50505060018401546002850154600386015460049096015494956001600160a01b039092169490935060ff909116915085565b60606003805461059290611d28565b80601f01602080910402602001604051908101604052809291908181526020018280546105be90611d28565b801561060b5780601f106105e05761010080835404028352916020019161060b565b820191906000526020600020905b8154815290600101906020018083116105ee57829003601f168201915b5050505050905090565b60003361062381858561165d565b60019150505b92915050565b336000908152600b602052604090205460ff166106675760405162461bcd60e51b815260040161065e90611d62565b60405180910390fd5b61066f61166f565b600d5481106106b65760405162461bcd60e51b8152602060048201526013602482015272125b9d985b1a59081c1c9bdc1bdcd85b081251606a1b604482015260640161065e565b6000600d82815481106106cb576106cb611da6565b60009182526020909120600590910201600381015490915060ff161561072f5760405162461bcd60e51b8152602060048201526019602482015278141c9bdc1bdcd85b08185b1c9958591e48195e1958dd5d1959603a1b604482015260640161065e565b80600201544210156107835760405162461bcd60e51b815260206004820152601e60248201527f54696d656c6f636b2064656c6179206973206e6f74206f766572207965740000604482015260640161065e565b6002816004015410156107f35760405162461bcd60e51b815260206004820152603260248201527f496e73756666696369656e7420636f6e73656e737573207369676e61747572656044820152717320286d696e20322072657175697265642960701b606482015260840161065e565b60038101805460ff19166001179055604051600090610813908390611dbc565b604080519182900382208282019091526014825273736574436f6e73656e737573526567697374727960601b60209092019190915290507fb1b9f2c7895caa039e40edc420c17230080768306cbe9251731039ca0beda95281016108c657600182018054600780546001600160a01b0319166001600160a01b0392831617905590546040519116907f63b8f8e18de64ac58c4dee814613d77626f2f0b579c2d8ff03117b32d82aa39590600090a2610b7f565b6040805180820190915260118152703932b3b4b9ba32b92b30b634b230ba37b960791b6020909101527f91930fe3dfca130fede3a22721863f094643b2f53e743a66abda62b571f442ba8101610943576001828101546001600160a01b03166000908152600660205260409020805460ff19169091179055610b7f565b60408051808201909152600e81526d3ab83230ba32a3b7bb32b93737b960911b6020909101527ff485a4cd33a77ab632b41e32810fc1973965d43d08868a27b6399f54393254bf81016109c15760018201546001600160a01b03166000908152600b60205260409020805460ff19811660ff90911615179055610b7f565b6040805180820190915260148152737365744761734261636b50657263656e7461676560601b6020909101527f453aadc1c1c7a80ba58d514723b90f4da38186eda0cbaaf01a0774ada0f7f2cb8101610a7b5760018201546001600160a01b03166064811115610a735760405162461bcd60e51b815260206004820152601c60248201527f476173206261636b2070657263656e7461676520746f6f206869676800000000604482015260640161065e565b600855610b7f565b60408051808201909152601081526f73657454696d656c6f636b44656c617960801b6020909101527fe9582e29e0397b670e57fd3656d494ca92b1d5a5cbc984933f9b276a9a54c9ce8101610b415760018201546001600160a01b0316610e108110801590610aed575062278d008111155b610b395760405162461bcd60e51b815260206004820152601c60248201527f496e76616c69642074696d656c6f636b2064656c61792072616e676500000000604482015260640161065e565b600955610b7f565b60405162461bcd60e51b8152602060048201526013602482015272556e6b6e6f776e20616374696f6e207479706560681b604482015260640161065e565b60018201546040516001600160a01b039091169084907f815e4bff68e0a6f81d6ca6129bc921f2d6f47a1ea4e0e2f086cf5a9ca780271290610bc2908690611e32565b60405180910390a3505050565b336000908152600b602052604081205460ff16610bfe5760405162461bcd60e51b815260040161065e90611d62565b610c0661166f565b82516020808501919091206040805180820190915260148152737365744761734261636b50657263656e7461676560601b9201919091527f453aadc1c1c7a80ba58d514723b90f4da38186eda0cbaaf01a0774ada0f7f2cb8101610cc5576001600160a01b0383166064811115610cbf5760405162461bcd60e51b815260206004820152601c60248201527f476173206261636b2070657263656e7461676520746f6f206869676800000000604482015260640161065e565b50610d81565b60408051808201909152601081526f73657454696d656c6f636b44656c617960801b6020909101527fe9582e29e0397b670e57fd3656d494ca92b1d5a5cbc984933f9b276a9a54c9ce8101610d81576001600160a01b038316610e108110801590610d33575062278d008111155b610d7f5760405162461bcd60e51b815260206004820152601c60248201527f496e76616c69642074696d656c6f636b2064656c61792072616e676500000000604482015260640161065e565b505b600060095442610d919190611ed8565b6040805160a0810182528781526001600160a01b0387166020820152908101829052600060608201819052600160808301819052600d805491820181559091528151929350909160059091027fd7b6990105719101dabeb77144f2a3385c8033acd3af97e9423a695e81ad1eb501908190610e0c9082611f3b565b506020820151600182810180546001600160a01b0319166001600160a01b039093169290921790915560408301516002830155606083015160038301805460ff1916911515919091179055608090920151600490910155600d54600091610e7291611ffb565b6000818152600e6020908152604080832033845290915290819020805460ff19166001179055519091506001600160a01b0386169082907f9cc3d9dd626042cdefb76484b91708c3207b637214b44f20111c893548d9c85f90610ed8908a90879061200e565b60405180910390a395945050505050565b6000610ef760055460ff1690565b15610f9c57336000908152600c602052604090205460ff1680610f3257506001600160a01b0383166000908152600c602052604090205460ff165b80610f5557506001600160a01b0384166000908152600c602052604090205460ff165b610f9c5760405162461bcd60e51b8152602060048201526018602482015277151bdad95b881d1c985b9cd9995c881a5cc81c185d5cd95960421b604482015260640161065e565b610fa7848484611693565b949350505050565b336000908152600b602052604090205460ff16610fde5760405162461bcd60e51b815260040161065e90611d62565b610fe66116b7565b565b610ff23382611709565b50565b61100082338361173f565b61100a8282611709565b5050565b336000908152600b602052604090205460ff1661103d5760405162461bcd60e51b815260040161065e90611d62565b61104561166f565b600d54811061108c5760405162461bcd60e51b8152602060048201526013602482015272125b9d985b1a59081c1c9bdc1bdcd85b081251606a1b604482015260640161065e565b6000600d82815481106110a1576110a1611da6565b60009182526020909120600590910201600381015490915060ff16156111055760405162461bcd60e51b8152602060048201526019602482015278141c9bdc1bdcd85b08185b1c9958591e48195e1958dd5d1959603a1b604482015260640161065e565b806002015442106111585760405162461bcd60e51b815260206004820152601760248201527f566f74696e6720706572696f642068617320656e646564000000000000000000604482015260640161065e565b6000828152600e6020908152604080832033845290915290205460ff16156111c25760405162461bcd60e51b815260206004820152601e60248201527f416c726561647920766f746564206f6e20746869732070726f706f73616c0000604482015260640161065e565b6000828152600e602090815260408083203384529091528120805460ff19166001908117909155600483018054919290916111fe908490611ed8565b90915550506004810154604051908152339083907f12602b81b4b3a6bc77534c571e8af3d316246bc5e5bea24efdf512ff6715da159060200160405180910390a35050565b336000908152600b602052604090205460ff166112725760405162461bcd60e51b815260040161065e90611d62565b610fe66117bd565b60606004805461059290611d28565b600a818154811061129957600080fd5b6000918252602090912001546001600160a01b0316905081565b60006112c160055460ff1690565b1561134357336000908152600c602052604090205460ff16806112fc57506001600160a01b0383166000908152600c602052604090205460ff165b6113435760405162461bcd60e51b8152602060048201526018602482015277151bdad95b881d1c985b9cd9995c881a5cc81c185d5cd95960421b604482015260640161065e565b61134d83836117fa565b9392505050565b336000908152600b602052604090205460ff166113835760405162461bcd60e51b815260040161065e90611d62565b6001600160a01b03919091166000908152600c60205260409020805460ff1916911515919091179055565b6113b661166f565b6007546001600160a01b031633146114265760405162461bcd60e51b815260206004820152602d60248201527f4f6e6c7920436f6e73656e7375732052656769737472792063616e207472696760448201526c6765722072656379636c696e6760981b606482015260840161065e565b6000804811611435573a611437565b485b905060006064600854838561144c9190612030565b6114569190612030565b6114609190612047565b905069010f0cf064dd5920000080821115611479578091505b306000908152602081905260409020548211156114ec5760405162461bcd60e51b815260206004820152602b60248201527f496e73756666696369656e74207472656173757279206761732072656379636c60448201526a696e672062616c616e636560a81b606482015260840161065e565b6114f7308684611804565b846001600160a01b03167f11c9a275a519d3bb61902765b0126632a3397dc2ba6c8f6fd983118ff2a98ccd8360405161153291815260200190565b60405180910390a25050505050565b61154961166f565b6007546001600160a01b031633146115b55760405162461bcd60e51b815260206004820152602960248201527f4f6e6c7920436f6e73656e7375732052656769737472792063616e20636c61696044820152686d207265776172647360b81b606482015260840161065e565b3060009081526020819052604090205481111561160b5760405162461bcd60e51b815260206004820152601460248201527352657761726420706f6f6c20697320656d70747960601b604482015260640161065e565b611616308383611804565b816001600160a01b03167ffc30cddea38e2bf4d6ea7d3f9ed3b6ad7f176419f4963bd81318067a4aee73fe8260405161165191815260200190565b60405180910390a25050565b61166a8383836001611863565b505050565b60055460ff1615610fe65760405163d93c066560e01b815260040160405180910390fd5b6000336116a185828561173f565b6116ac858585611804565b506001949350505050565b6116bf611938565b6005805460ff191690557f5db9ee0a495bf2e6ff9c91a7834c1ba4fdd244a5e8aa4e537bd38aeae4b073aa335b6040516001600160a01b03909116815260200160405180910390a1565b6001600160a01b03821661173357604051634b637e8f60e11b81526000600482015260240161065e565b61100a8260008361195b565b6001600160a01b0383811660009081526001602090815260408083209386168352929052205460001981146117b757818110156117a857604051637dc7a0d960e11b81526001600160a01b0384166004820152602481018290526044810183905260640161065e565b6117b784848484036000611863565b50505050565b6117c561166f565b6005805460ff191660011790557f62e78cea01bee320cd4e420270b5ea74000d11b0c9f74754ebdbfc544b05a2586116ec3390565b6000336106238185855b6001600160a01b03831661182e57604051634b637e8f60e11b81526000600482015260240161065e565b6001600160a01b0382166118585760405163ec442f0560e01b81526000600482015260240161065e565b61166a83838361195b565b6001600160a01b03841661188d5760405163e602df0560e01b81526000600482015260240161065e565b6001600160a01b0383166118b757604051634a1406b160e11b81526000600482015260240161065e565b6001600160a01b03808516600090815260016020908152604080832093871683529290522082905580156117b757826001600160a01b0316846001600160a01b03167f8c5be1e5ebec7d5bd14f71427d1e84f3dd0314c0f7b2291e5b200ac8c7c3b9258460405161192a91815260200190565b60405180910390a350505050565b60055460ff16610fe657604051638dfc202b60e01b815260040160405180910390fd5b6001600160a01b03831661198657806002600082825461197b9190611ed8565b909155506119f89050565b6001600160a01b038316600090815260208190526040902054818110156119d95760405163391434e360e21b81526001600160a01b0385166004820152602481018290526044810183905260640161065e565b6001600160a01b03841660009081526020819052604090209082900390555b6001600160a01b038216611a1457600280548290039055611a33565b6001600160a01b03821660009081526020819052604090208054820190555b816001600160a01b0316836001600160a01b03167fddf252ad1be2c89b69c2b068fc378daa952ba7f163c4a11628f55a4df523b3ef83604051610bc291815260200190565b600060208284031215611a8a57600080fd5b5035919050565b6000815180845260005b81811015611ab757602081850181015186830182015201611a9b565b506000602082860101526020601f19601f83011685010191505092915050565b60a081526000611aea60a0830188611a91565b6001600160a01b039690961660208301525060408101939093529015156060830152608090910152919050565b60208152600061134d6020830184611a91565b80356001600160a01b0381168114611b4157600080fd5b919050565b60008060408385031215611b5957600080fd5b611b6283611b2a565b946020939093013593505050565b634e487b7160e01b600052604160045260246000fd5b60008060408385031215611b9957600080fd5b823567ffffffffffffffff80821115611bb157600080fd5b818501915085601f830112611bc557600080fd5b813581811115611bd757611bd7611b70565b604051601f8201601f19908116603f01168101908382118183101715611bff57611bff611b70565b81604052828152886020848701011115611c1857600080fd5b826020860160208301376000602084830101528096505050505050611c3f60208401611b2a565b90509250929050565b600080600060608486031215611c5d57600080fd5b611c6684611b2a565b9250611c7460208501611b2a565b9150604084013590509250925092565b600060208284031215611c9657600080fd5b61134d82611b2a565b60008060408385031215611cb257600080fd5b82359150611c3f60208401611b2a565b60008060408385031215611cd557600080fd5b611cde83611b2a565b915060208301358015158114611cf357600080fd5b809150509250929050565b60008060408385031215611d1157600080fd5b611d1a83611b2a565b9150611c3f60208401611b2a565b600181811c90821680611d3c57607f821691505b602082108103611d5c57634e487b7160e01b600052602260045260246000fd5b50919050565b60208082526024908201527f43616c6c6572206973206e6f7420616e20617574686f72697a656420676f7665604082015263393737b960e11b606082015260800190565b634e487b7160e01b600052603260045260246000fd5b6000808354611dca81611d28565b60018281168015611de25760018114611df757611e26565b60ff1984168752821515830287019450611e26565b8760005260208060002060005b85811015611e1d5781548a820152908401908201611e04565b50505082870194505b50929695505050505050565b6000602080835260008454611e4681611d28565b8060208701526040600180841660008114611e685760018114611e8457611eb4565b60ff19851660408a0152604084151560051b8a01019550611eb4565b89600052602060002060005b85811015611eab5781548b8201860152908301908801611e90565b8a016040019650505b509398975050505050505050565b634e487b7160e01b600052601160045260246000fd5b8082018082111561062957610629611ec2565b601f82111561166a576000816000526020600020601f850160051c81016020861015611f145750805b601f850160051c820191505b81811015611f3357828155600101611f20565b505050505050565b815167ffffffffffffffff811115611f5557611f55611b70565b611f6981611f638454611d28565b84611eeb565b602080601f831160018114611f9e5760008415611f865750858301515b600019600386901b1c1916600185901b178555611f33565b600085815260208120601f198616915b82811015611fcd57888601518255948401946001909101908401611fae565b5085821015611feb5787850151600019600388901b60f8161c191681555b5050505050600190811b01905550565b8181038181111561062957610629611ec2565b6040815260006120216040830185611a91565b90508260208301529392505050565b808202811582820484141761062957610629611ec2565b60008261206457634e487b7160e01b600052601260045260246000fd5b50049056fea2646970667358221220b2196e290166182a45db746ee516727c78193a7b2bb0c5aa0018f95ac9e16fb864736f6c63430008180033",
  "linkReferences": {},
  "deployedLinkReferences": {}
}