{
  "_format": "hh-sol-artifact-1",
  "contractName": "LiquidStakingSsym",
  "sourceName": "contracts/LiquidStakingSsym.sol",
  "abi": [
    {
      "inputs": [
        {
          "internalType": "address",
          "name": "_symToken",
          "type": "address"
        }
      ],
      "stateMutability": "nonpayable",
      "type": "constructor"
    },
    {
      "inputs": [
        {
          "internalType": "address",
          "name": "spender",
          "type": "address"
        },
        {
          "internalType": "uint256",
          "name": "allowance",
          "type": "uint256"
        },
        {
          "internalType": "uint256",
          "name": "needed",
          "type": "uint256"
        }
      ],
      "name": "ERC20InsufficientAllowance",
      "type": "error"
    },
    {
      "inputs": [
        {
          "internalType": "address",
          "name": "sender",
          "type": "address"
        },
        {
          "internalType": "uint256",
          "name": "balance",
          "type": "uint256"
        },
        {
          "internalType": "uint256",
          "name": "needed",
          "type": "uint256"
        }
      ],
      "name": "ERC20InsufficientBalance",
      "type": "error"
    },
    {
      "inputs": [
        {
          "internalType": "address",
          "name": "approver",
          "type": "address"
        }
      ],
      "name": "ERC20InvalidApprover",
      "type": "error"
    },
    {
      "inputs": [
        {
          "internalType": "address",
          "name": "receiver",
          "type": "address"
        }
      ],
      "name": "ERC20InvalidReceiver",
      "type": "error"
    },
    {
      "inputs": [
        {
          "internalType": "address",
          "name": "sender",
          "type": "address"
        }
      ],
      "name": "ERC20InvalidSender",
      "type": "error"
    },
    {
      "inputs": [
        {
          "internalType": "address",
          "name": "spender",
          "type": "address"
        }
      ],
      "name": "ERC20InvalidSpender",
      "type": "error"
    },
    {
      "inputs": [
        {
          "internalType": "address",
          "name": "receiver",
          "type": "address"
        },
        {
          "internalType": "uint256",
          "name": "assets",
          "type": "uint256"
        },
        {
          "internalType": "uint256",
          "name": "max",
          "type": "uint256"
        }
      ],
      "name": "ERC4626ExceededMaxDeposit",
      "type": "error"
    },
    {
      "inputs": [
        {
          "internalType": "address",
          "name": "receiver",
          "type": "address"
        },
        {
          "internalType": "uint256",
          "name": "shares",
          "type": "uint256"
        },
        {
          "internalType": "uint256",
          "name": "max",
          "type": "uint256"
        }
      ],
      "name": "ERC4626ExceededMaxMint",
      "type": "error"
    },
    {
      "inputs": [
        {
          "internalType": "address",
          "name": "owner",
          "type": "address"
        },
        {
          "internalType": "uint256",
          "name": "shares",
          "type": "uint256"
        },
        {
          "internalType": "uint256",
          "name": "max",
          "type": "uint256"
        }
      ],
      "name": "ERC4626ExceededMaxRedeem",
      "type": "error"
    },
    {
      "inputs": [
        {
          "internalType": "address",
          "name": "owner",
          "type": "address"
        },
        {
          "internalType": "uint256",
          "name": "assets",
          "type": "uint256"
        },
        {
          "internalType": "uint256",
          "name": "max",
          "type": "uint256"
        }
      ],
      "name": "ERC4626ExceededMaxWithdraw",
      "type": "error"
    },
    {
      "inputs": [],
      "name": "EnforcedPause",
      "type": "error"
    },
    {
      "inputs": [],
      "name": "ExpectedPause",
      "type": "error"
    },
    {
      "inputs": [],
      "name": "ReentrancyGuardReentrantCall",
      "type": "error"
    },
    {
      "inputs": [
        {
          "internalType": "address",
          "name": "token",
          "type": "address"
        }
      ],
      "name": "SafeERC20FailedOperation",
      "type": "error"
    },
    {
      "anonymous": false,
      "inputs": [
        {
          "indexed": true,
          "internalType": "address",
          "name": "owner",
          "type": "address"
        },
        {
          "indexed": true,
          "internalType": "address",
          "name": "spender",
          "type": "address"
        },
        {
          "indexed": false,
          "internalType": "uint256",
          "name": "value",
          "type": "uint256"
        }
      ],
      "name": "Approval",
      "type": "event"
    },
    {
      "anonymous": false,
      "inputs": [
        {
          "indexed": true,
          "internalType": "address",
          "name": "sender",
          "type": "address"
        },
        {
          "indexed": true,
          "internalType": "address",
          "name": "owner",
          "type": "address"
        },
        {
          "indexed": false,
          "internalType": "uint256",
          "name": "assets",
          "type": "uint256"
        },
        {
          "indexed": false,
          "internalType": "uint256",
          "name": "shares",
          "type": "uint256"
        }
      ],
      "name": "Deposit",
      "type": "event"
    },
    {
      "anonymous": false,
      "inputs": [
        {
          "indexed": false,
          "internalType": "address",
          "name": "account",
          "type": "address"
        }
      ],
      "name": "Paused",
      "type": "event"
    },
    {
      "anonymous": false,
      "inputs": [
        {
          "indexed": true,
          "internalType": "address",
          "name": "user",
          "type": "address"
        },
        {
          "indexed": false,
          "internalType": "uint256",
          "name": "amount",
          "type": "uint256"
        },
        {
          "indexed": false,
          "internalType": "uint256",
          "name": "sSymMinted",
          "type": "uint256"
        }
      ],
      "name": "Staked",
      "type": "event"
    },
    {
      "anonymous": false,
      "inputs": [
        {
          "indexed": true,
          "internalType": "address",
          "name": "from",
          "type": "address"
        },
        {
          "indexed": true,
          "internalType": "address",
          "name": "to",
          "type": "address"
        },
        {
          "indexed": false,
          "internalType": "uint256",
          "name": "value",
          "type": "uint256"
        }
      ],
      "name": "Transfer",
      "type": "event"
    },
    {
      "anonymous": false,
      "inputs": [
        {
          "indexed": false,
          "internalType": "address",
          "name": "account",
          "type": "address"
        }
      ],
      "name": "Unpaused",
      "type": "event"
    },
    {
      "anonymous": false,
      "inputs": [
        {
          "indexed": true,
          "internalType": "address",
          "name": "user",
          "type": "address"
        },
        {
          "indexed": false,
          "internalType": "uint256",
          "name": "sSymBurned",
          "type": "uint256"
        },
        {
          "indexed": false,
          "internalType": "uint256",
          "name": "symReturned",
          "type": "uint256"
        }
      ],
      "name": "Unstaked",
      "type": "event"
    },
    {
      "anonymous": false,
      "inputs": [
        {
          "indexed": true,
          "internalType": "address",
          "name": "sender",
          "type": "address"
        },
        {
          "indexed": true,
          "internalType": "address",
          "name": "receiver",
          "type": "address"
        },
        {
          "indexed": true,
          "internalType": "address",
          "name": "owner",
          "type": "address"
        },
        {
          "indexed": false,
          "internalType": "uint256",
          "name": "assets",
          "type": "uint256"
        },
        {
          "indexed": false,
          "internalType": "uint256",
          "name": "shares",
          "type": "uint256"
        }
      ],
      "name": "Withdraw",
      "type": "event"
    },
    {
      "inputs": [
        {
          "internalType": "address",
          "name": "owner",
          "type": "address"
        },
        {
          "internalType": "address",
          "name": "spender",
          "type": "address"
        }
      ],
      "name": "allowance",
      "outputs": [
        {
          "internalType": "uint256",
          "name": "",
          "type": "uint256"
        }
      ],
      "stateMutability": "view",
      "type": "function"
    },
    {
      "inputs": [
        {
          "internalType": "address",
          "name": "spender",
          "type": "address"
        },
        {
          "internalType": "uint256",
          "name": "value",
          "type": "uint256"
        }
      ],
      "name": "approve",
      "outputs": [
        {
          "internalType": "bool",
          "name": "",
          "type": "bool"
        }
      ],
      "stateMutability": "nonpayable",
      "type": "function"
    },
    {
      "inputs": [],
      "name": "asset",
      "outputs": [
        {
          "internalType": "address",
          "name": "",
          "type": "address"
        }
      ],
      "stateMutability": "view",
      "type": "function"
    },
    {
      "inputs": [
        {
          "internalType": "address",
          "name": "account",
          "type": "address"
        }
      ],
      "name": "balanceOf",
      "outputs": [
        {
          "internalType": "uint256",
          "name": "",
          "type": "uint256"
        }
      ],
      "stateMutability": "view",
      "type": "function"
    },
    {
      "inputs": [
        {
          "internalType": "uint256",
          "name": "shares",
          "type": "uint256"
        }
      ],
      "name": "convertToAssets",
      "outputs": [
        {
          "internalType": "uint256",
          "name": "",
          "type": "uint256"
        }
      ],
      "stateMutability": "view",
      "type": "function"
    },
    {
      "inputs": [
        {
          "internalType": "uint256",
          "name": "assets",
          "type": "uint256"
        }
      ],
      "name": "convertToShares",
      "outputs": [
        {
          "internalType": "uint256",
          "name": "",
          "type": "uint256"
        }
      ],
      "stateMutability": "view",
      "type": "function"
    },
    {
      "inputs": [],
      "name": "decimals",
      "outputs": [
        {
          "internalType": "uint8",
          "name": "",
          "type": "uint8"
        }
      ],
      "stateMutability": "view",
      "type": "function"
    },
    {
      "inputs": [
        {
          "internalType": "uint256",
          "name": "assets",
          "type": "uint256"
        },
        {
          "internalType": "address",
          "name": "receiver",
          "type": "address"
        }
      ],
      "name": "deposit",
      "outputs": [
        {
          "internalType": "uint256",
          "name": "",
          "type": "uint256"
        }
      ],
      "stateMutability": "nonpayable",
      "type": "function"
    },
    {
      "inputs": [
        {
          "internalType": "address",
          "name": "",
          "type": "address"
        }
      ],
      "name": "maxDeposit",
      "outputs": [
        {
          "internalType": "uint256",
          "name": "",
          "type": "uint256"
        }
      ],
      "stateMutability": "view",
      "type": "function"
    },
    {
      "inputs": [
        {
          "internalType": "address",
          "name": "",
          "type": "address"
        }
      ],
      "name": "maxMint",
      "outputs": [
        {
          "internalType": "uint256",
          "name": "",
          "type": "uint256"
        }
      ],
      "stateMutability": "view",
      "type": "function"
    },
    {
      "inputs": [
        {
          "internalType": "address",
          "name": "owner",
          "type": "address"
        }
      ],
      "name": "maxRedeem",
      "outputs": [
        {
          "internalType": "uint256",
          "name": "",
          "type": "uint256"
        }
      ],
      "stateMutability": "view",
      "type": "function"
    },
    {
      "inputs": [
        {
          "internalType": "address",
          "name": "owner",
          "type": "address"
        }
      ],
      "name": "maxWithdraw",
      "outputs": [
        {
          "internalType": "uint256",
          "name": "",
          "type": "uint256"
        }
      ],
      "stateMutability": "view",
      "type": "function"
    },
    {
      "inputs": [
        {
          "internalType": "uint256",
          "name": "shares",
          "type": "uint256"
        },
        {
          "internalType": "address",
          "name": "receiver",
          "type": "address"
        }
      ],
      "name": "mint",
      "outputs": [
        {
          "internalType": "uint256",
          "name": "",
          "type": "uint256"
        }
      ],
      "stateMutability": "nonpayable",
      "type": "function"
    },
    {
      "inputs": [],
      "name": "name",
      "outputs": [
        {
          "internalType": "string",
          "name": "",
          "type": "string"
        }
      ],
      "stateMutability": "view",
      "type": "function"
    },
    {
      "inputs": [],
      "name": "pause",
      "outputs": [],
      "stateMutability": "nonpayable",
      "type": "function"
    },
    {
      "inputs": [],
      "name": "paused",
      "outputs": [
        {
          "internalType": "bool",
          "name": "",
          "type": "bool"
        }
      ],
      "stateMutability": "view",
      "type": "function"
    },
    {
      "inputs": [
        {
          "internalType": "uint256",
          "name": "assets",
          "type": "uint256"
        }
      ],
      "name": "previewDeposit",
      "outputs": [
        {
          "internalType": "uint256",
          "name": "",
          "type": "uint256"
        }
      ],
      "stateMutability": "view",
      "type": "function"
    },
    {
      "inputs": [
        {
          "internalType": "uint256",
          "name": "shares",
          "type": "uint256"
        }
      ],
      "name": "previewMint",
      "outputs": [
        {
          "internalType": "uint256",
          "name": "",
          "type": "uint256"
        }
      ],
      "stateMutability": "view",
      "type": "function"
    },
    {
      "inputs": [
        {
          "internalType": "uint256",
          "name": "shares",
          "type": "uint256"
        }
      ],
      "name": "previewRedeem",
      "outputs": [
        {
          "internalType": "uint256",
          "name": "",
          "type": "uint256"
        }
      ],
      "stateMutability": "view",
      "type": "function"
    },
    {
      "inputs": [
        {
          "internalType": "uint256",
          "name": "assets",
          "type": "uint256"
        }
      ],
      "name": "previewWithdraw",
      "outputs": [
        {
          "internalType": "uint256",
          "name": "",
          "type": "uint256"
        }
      ],
      "stateMutability": "view",
      "type": "function"
    },
    {
      "inputs": [
        {
          "internalType": "uint256",
          "name": "shares",
          "type": "uint256"
        },
        {
          "internalType": "address",
          "name": "receiver",
          "type": "address"
        },
        {
          "internalType": "address",
          "name": "owner",
          "type": "address"
        }
      ],
      "name": "redeem",
      "outputs": [
        {
          "internalType": "uint256",
          "name": "",
          "type": "uint256"
        }
      ],
      "stateMutability": "nonpayable",
      "type": "function"
    },
    {
      "inputs": [
        {
          "internalType": "uint256",
          "name": "amount",
          "type": "uint256"
        }
      ],
      "name": "stake",
      "outputs": [],
      "stateMutability": "nonpayable",
      "type": "function"
    },
    {
      "inputs": [],
      "name": "symbol",
      "outputs": [
        {
          "internalType": "string",
          "name": "",
          "type": "string"
        }
      ],
      "stateMutability": "view",
      "type": "function"
    },
    {
      "inputs": [],
      "name": "totalAssets",
      "outputs": [
        {
          "internalType": "uint256",
          "name": "",
          "type": "uint256"
        }
      ],
      "stateMutability": "view",
      "type": "function"
    },
    {
      "inputs": [],
      "name": "totalSupply",
      "outputs": [
        {
          "internalType": "uint256",
          "name": "",
          "type": "uint256"
        }
      ],
      "stateMutability": "view",
      "type": "function"
    },
    {
      "inputs": [
        {
          "internalType": "address",
          "name": "to",
          "type": "address"
        },
        {
          "internalType": "uint256",
          "name": "value",
          "type": "uint256"
        }
      ],
      "name": "transfer",
      "outputs": [
        {
          "internalType": "bool",
          "name": "",
          "type": "bool"
        }
      ],
      "stateMutability": "nonpayable",
      "type": "function"
    },
    {
      "inputs": [
        {
          "internalType": "address",
          "name": "from",
          "type": "address"
        },
        {
          "internalType": "address",
          "name": "to",
          "type": "address"
        },
        {
          "internalType": "uint256",
          "name": "value",
          "type": "uint256"
        }
      ],
      "name": "transferFrom",
      "outputs": [
        {
          "internalType": "bool",
          "name": "",
          "type": "bool"
        }
      ],
      "stateMutability": "nonpayable",
      "type": "function"
    },
    {
      "inputs": [],
      "name": "unpause",
      "outputs": [],
      "stateMutability": "nonpayable",
      "type": "function"
    },
    {
      "inputs": [
        {
          "internalType": "uint256",
          "name": "shares",
          "type": "uint256"
        }
      ],
      "name": "unstake",
      "outputs": [],
      "stateMutability": "nonpayable",
      "type": "function"
    },
    {
      "inputs": [
        {
          "internalType": "address",
          "name": "newRegistry",
          "type": "address"
        }
      ],
      "name": "updateZkProver",
      "outputs": [],
      "stateMutability": "nonpayable",
      "type": "function"
    },
    {
      "inputs": [
        {
          "internalType": "uint256",
          "name": "assets",
          "type": "uint256"
        },
        {
          "internalType": "address",
          "name": "receiver",
          "type": "address"
        },
        {
          "internalType": "address",
          "name": "owner",
          "type": "address"
        }
      ],
      "name": "withdraw",
      "outputs": [
        {
          "internalType": "uint256",
          "name": "",
          "type": "uint256"
        }
      ],
      "stateMutability": "nonpayable",
      "type": "function"
    },
    {
      "inputs": [],
      "name": "zkProverRegistry",
      "outputs": [
        {
          "internalType": "address",
          "name": "",
          "type": "address"
        }
      ],
      "stateMutability": "view",
      "type": "function"
    }
  ],
  "bytecode": "0x60c06040523480156200001157600080fd5b5060405162001c7138038062001c7183398101604081905262000034916200022b565b80604051806040016040528060118152602001704c6971756964205374616b65642053594d60781b815250604051806040016040528060048152602001637353594d60e01b81525081600390816200008d919062000304565b5060046200009c828262000304565b505050600080620000b3836200014660201b60201c565b9150915081620000c5576012620000c7565b805b60ff1660a05250506001600160a01b0390811660805260016005556006805460ff1916905581166200013f5760405162461bcd60e51b815260206004820152601560248201527f496e76616c696420746f6b656e20616464726573730000000000000000000000604482015260640160405180910390fd5b506200041b565b60408051600481526024810182526020810180516001600160e01b031663313ce56760e01b17905290516000918291829182916001600160a01b038716916200018f91620003d0565b600060405180830381855afa9150503d8060008114620001cc576040519150601f19603f3d011682016040523d82523d6000602084013e620001d1565b606091505b5091509150818015620001e657506020815110155b156200021e5760008180602001905181019062000204919062000401565b905060ff81116200021c576001969095509350505050565b505b5060009485945092505050565b6000602082840312156200023e57600080fd5b81516001600160a01b03811681146200025657600080fd5b9392505050565b634e487b7160e01b600052604160045260246000fd5b600181811c908216806200028857607f821691505b602082108103620002a957634e487b7160e01b600052602260045260246000fd5b50919050565b601f821115620002ff576000816000526020600020601f850160051c81016020861015620002da5750805b601f850160051c820191505b81811015620002fb57828155600101620002e6565b5050505b505050565b81516001600160401b038111156200032057620003206200025d565b620003388162000331845462000273565b84620002af565b602080601f831160018114620003705760008415620003575750858301515b600019600386901b1c1916600185901b178555620002fb565b600085815260208120601f198616915b82811015620003a15788860151825594840194600190910190840162000380565b5085821015620003c05787850151600019600388901b60f8161c191681555b5050505050600190811b01905550565b6000825160005b81811015620003f35760208186018101518583015201620003d7565b506000920191825250919050565b6000602082840312156200041457600080fd5b5051919050565b60805160a0516118066200046b600039600061067b0152600081816102ba0152818161048d015281816106a101528181610778015281816109eb0152818161113601526111e801526118066000f3fe608060405234801561001057600080fd5b50600436106101f05760003560e01c80638456cb591161010f578063c63d75b6116100a2578063d905777e11610071578063d905777e14610411578063dd62ed3e14610424578063eef34c561461045d578063ef8b30f7146103d857600080fd5b8063c63d75b6146102fa578063c6e6f592146103d8578063c8d44405146103eb578063ce96cb77146103fe57600080fd5b8063a9059cbb116100de578063a9059cbb1461038c578063b3d7f6b91461039f578063b460af94146103b2578063ba087652146103c557600080fd5b80638456cb591461035657806394bf804d1461035e57806395d89b4114610371578063a694fc3a1461037957600080fd5b8063313ce567116101875780634cdad506116101565780634cdad506146102255780635c975abb1461030f5780636e553f651461031a57806370a082311461032d57600080fd5b8063313ce5671461029e57806338d52e0f146102b85780633f4ba83a146102f2578063402d267d146102fa57600080fd5b80630a28a477116101c35780630a28a4771461025b57806318160ddd1461026e57806323b872dd146102765780632e17de781461028957600080fd5b806301e1d114146101f557806306fdde031461021057806307a2d13a14610225578063095ea7b314610238575b600080fd5b6101fd610475565b6040519081526020015b60405180910390f35b610218610505565b60405161020791906114ae565b6101fd6102333660046114fd565b610597565b61024b610246366004611532565b6105aa565b6040519015158152602001610207565b6101fd6102693660046114fd565b6105c2565b6002546101fd565b61024b61028436600461155c565b6105cf565b61029c6102973660046114fd565b6105f5565b005b6102a6610673565b60405160ff9091168152602001610207565b7f00000000000000000000000000000000000000000000000000000000000000005b6040516001600160a01b039091168152602001610207565b61029c61069f565b6101fd610308366004611598565b5060001990565b60065460ff1661024b565b6101fd6103283660046115b3565b610750565b6101fd61033b366004611598565b6001600160a01b031660009081526020819052604090205490565b61029c610776565b6101fd61036c3660046115b3565b610825565b610218610843565b61029c6103873660046114fd565b610852565b61024b61039a366004611532565b6108bc565b6101fd6103ad3660046114fd565b6108ca565b6101fd6103c03660046115df565b6108d7565b6101fd6103d33660046115df565b61092f565b6101fd6103e63660046114fd565b61097e565b61029c6103f9366004611598565b61098b565b6101fd61040c366004611598565b610af1565b6101fd61041f366004611598565b610b15565b6101fd61043236600461161b565b6001600160a01b03918216600090815260016020908152604080832093909416825291909152205490565b6006546102da9061010090046001600160a01b031681565b6040516370a0823160e01b81523060048201526000907f00000000000000000000000000000000000000000000000000000000000000006001600160a01b0316906370a0823190602401602060405180830381865afa1580156104dc573d6000803e3d6000fd5b505050506040513d601f19601f820116820180604052508101906105009190611645565b905090565b6060600380546105149061165e565b80601f01602080910402602001604051908101604052809291908181526020018280546105409061165e565b801561058d5780601f106105625761010080835404028352916020019161058d565b820191906000526020600020905b81548152906001019060200180831161057057829003601f168201915b5050505050905090565b60006105a4826000610b33565b92915050565b6000336105b8818585610b72565b5060019392505050565b60006105a4826001610b84565b6000336105dd858285610bcf565b6105e8858585610c3a565b60019150505b9392505050565b6105fd610c99565b610605610cc3565b6000811161065a5760405162461bcd60e51b815260206004820152601d60248201527f536861726573206d7573742062652067726561746572207468616e203000000060448201526064015b60405180910390fd5b61066581333361092f565b506106706001600555565b50565b6000610500817f00000000000000000000000000000000000000000000000000000000000000006116ae565b7f0000000000000000000000000000000000000000000000000000000000000000604051631c86b03760e31b81523360048201526001600160a01b03919091169063e43581b890602401602060405180830381865afa158015610706573d6000803e3d6000fd5b505050506040513d601f19601f8201168201806040525081019061072a91906116c7565b6107465760405162461bcd60e51b8152600401610651906116e9565b61074e610ce7565b565b600060001960006107608561097e565b905061076e33858784610d39565b949350505050565b7f0000000000000000000000000000000000000000000000000000000000000000604051631c86b03760e31b81523360048201526001600160a01b03919091169063e43581b890602401602060405180830381865afa1580156107dd573d6000803e3d6000fd5b505050506040513d601f19601f8201168201806040525081019061080191906116c7565b61081d5760405162461bcd60e51b8152600401610651906116e9565b61074e610e07565b60006000196000610835856108ca565b905061076e33858388610d39565b6060600480546105149061165e565b61085a610c99565b610862610cc3565b600081116108b25760405162461bcd60e51b815260206004820152601d60248201527f416d6f756e74206d7573742062652067726561746572207468616e20300000006044820152606401610651565b6106658133610750565b6000336105b8818585610c3a565b60006105a4826001610b33565b6000806108e383610af1565b90508085111561090c57828582604051633fa733bb60e21b81526004016106519392919061172d565b6000610917866105c2565b90506109263386868985610e44565b95945050505050565b60008061093b83610b15565b90508085111561096457828582604051632e52afbb60e21b81526004016106519392919061172d565b600061096f86610597565b9050610926338686848a610e44565b60006105a4826000610b84565b6001600160a01b0381166109d05760405162461bcd60e51b815260206004820152600c60248201526b5a65726f206164647265737360a01b6044820152606401610651565b60065461010090046001600160a01b0316158015610a7457507f0000000000000000000000000000000000000000000000000000000000000000604051631c86b03760e31b81523360048201526001600160a01b03919091169063e43581b890602401602060405180830381865afa158015610a50573d6000803e3d6000fd5b505050506040513d601f19601f82011682018060405250810190610a7491906116c7565b80610a8e575060065461010090046001600160a01b031633145b610ac95760405162461bcd60e51b815260206004820152600c60248201526b155b985d5d1a1bdc9a5e995960a21b6044820152606401610651565b600680546001600160a01b0390921661010002610100600160a81b0319909216919091179055565b6001600160a01b0381166000908152602081905260408120546105a4906000610b33565b6001600160a01b0381166000908152602081905260408120546105a4565b600080610b3f60025490565b90506001811015610b5e57610b56846103e861174e565b9150506105a4565b61076e610b69610475565b85908386610ea4565b610b7f8383836001610ee8565b505050565b600080610b9060025490565b90506001811015610bba576103e88411610bae5760009150506105a4565b610b566103e885611761565b61076e81610bc6610475565b86919086610ea4565b6001600160a01b038381166000908152600160209081526040808320938616835292905220546000198114610c345781811015610c2557828183604051637dc7a0d960e11b81526004016106519392919061172d565b610c3484848484036000610ee8565b50505050565b6001600160a01b038316610c6457604051634b637e8f60e11b815260006004820152602401610651565b6001600160a01b038216610c8e5760405163ec442f0560e01b815260006004820152602401610651565b610b7f838383610fbd565b600260055403610cbc57604051633ee5aeb560e01b815260040160405180910390fd5b6002600555565b60065460ff161561074e5760405163d93c066560e01b815260040160405180910390fd5b610cef6110d4565b6006805460ff191690557f5db9ee0a495bf2e6ff9c91a7834c1ba4fdd244a5e8aa4e537bd38aeae4b073aa335b6040516001600160a01b03909116815260200160405180910390a1565b610d41610cc3565b6001610d4c60025490565b1015610db1576103e88211610da35760405162461bcd60e51b815260206004820152601f60248201527f4d696e696d756d206669727374207374616b6520697320313030312053594d006044820152606401610651565b610db161dead6103e86110f7565b610dbd84848484611131565b60408051838152602081018390526001600160a01b038516917f1449c6dd7851abc30abf37f57715f492010519147cc2652fbc38202c18a6ee90910160405180910390a250505050565b610e0f610cc3565b6006805460ff191660011790557f62e78cea01bee320cd4e420270b5ea74000d11b0c9f74754ebdbfc544b05a258610d1c3390565b610e4c610cc3565b610e5985858585856111b5565b60408051828152602081018490526001600160a01b038516917f7fc4727e062e336010f2c282598ef5f14facb3de68cf8195c2f23e1454b2b74e910160405180910390a25050505050565b6000610ed3610eb283611275565b8015610ece575060008480610ec957610ec9611774565b868809115b151590565b610ede8686866112a2565b610926919061174e565b6001600160a01b038416610f125760405163e602df0560e01b815260006004820152602401610651565b6001600160a01b038316610f3c57604051634a1406b160e11b815260006004820152602401610651565b6001600160a01b0380851660009081526001602090815260408083209387168352929052208290558015610c3457826001600160a01b0316846001600160a01b03167f8c5be1e5ebec7d5bd14f71427d1e84f3dd0314c0f7b2291e5b200ac8c7c3b92584604051610faf91815260200190565b60405180910390a350505050565b6001600160a01b038316610fe8578060026000828254610fdd919061174e565b909155506110479050565b6001600160a01b038316600090815260208190526040902054818110156110285783818360405163391434e360e21b81526004016106519392919061172d565b6001600160a01b03841660009081526020819052604090209082900390555b6001600160a01b03821661106357600280548290039055611082565b6001600160a01b03821660009081526020819052604090208054820190555b816001600160a01b0316836001600160a01b03167fddf252ad1be2c89b69c2b068fc378daa952ba7f163c4a11628f55a4df523b3ef836040516110c791815260200190565b60405180910390a3505050565b60065460ff1661074e57604051638dfc202b60e01b815260040160405180910390fd5b6001600160a01b0382166111215760405163ec442f0560e01b815260006004820152602401610651565b61112d60008383610fbd565b5050565b61115d7f000000000000000000000000000000000000000000000000000000000000000085308561135d565b61116783826110f7565b826001600160a01b0316846001600160a01b03167fdcbc1c05240f31ff3ad067ef1ee35ce4997762752e3a095284754544f4c709d78484604051610faf929190918252602082015260400190565b826001600160a01b0316856001600160a01b0316146111d9576111d9838683610bcf565b6111e383826113c4565b61120e7f000000000000000000000000000000000000000000000000000000000000000085846113fa565b826001600160a01b0316846001600160a01b0316866001600160a01b03167ffbde797d201c681b91056529119e0b02407c7bb96a4a2c75c01fc9667232c8db8585604051611266929190918252602082015260400190565b60405180910390a45050505050565b6000600282600381111561128b5761128b61178a565b61129591906117a0565b60ff166001149050919050565b60008383028160001985870982811083820303915050806000036112d9578382816112cf576112cf611774565b04925050506105ee565b8084116112f0576112f0600385150260111861142b565b6000848688096000868103871696879004966002600389028118808a02820302808a02820302808a02820302808a02820302808a02820302808a02909103029181900381900460010186841190950394909402919094039290920491909117919091029150509392505050565b6040516001600160a01b038481166024830152838116604483015260648201839052610c349186918216906323b872dd906084015b604051602081830303815290604052915060e01b6020820180516001600160e01b03838183161783525050505061143d565b6001600160a01b0382166113ee57604051634b637e8f60e11b815260006004820152602401610651565b61112d82600083610fbd565b6040516001600160a01b03838116602483015260448201839052610b7f91859182169063a9059cbb90606401611392565b634e487b71600052806020526024601cfd5b600080602060008451602086016000885af180611460576040513d6000823e3d81fd5b50506000513d91508115611478578060011415611485565b6001600160a01b0384163b155b15610c3457604051635274afe760e01b81526001600160a01b0385166004820152602401610651565b60006020808352835180602085015260005b818110156114dc578581018301518582016040015282016114c0565b506000604082860101526040601f19601f8301168501019250505092915050565b60006020828403121561150f57600080fd5b5035919050565b80356001600160a01b038116811461152d57600080fd5b919050565b6000806040838503121561154557600080fd5b61154e83611516565b946020939093013593505050565b60008060006060848603121561157157600080fd5b61157a84611516565b925061158860208501611516565b9150604084013590509250925092565b6000602082840312156115aa57600080fd5b6105ee82611516565b600080604083850312156115c657600080fd5b823591506115d660208401611516565b90509250929050565b6000806000606084860312156115f457600080fd5b8335925061160460208501611516565b915061161260408501611516565b90509250925092565b6000806040838503121561162e57600080fd5b61163783611516565b91506115d660208401611516565b60006020828403121561165757600080fd5b5051919050565b600181811c9082168061167257607f821691505b60208210810361169257634e487b7160e01b600052602260045260246000fd5b50919050565b634e487b7160e01b600052601160045260246000fd5b60ff81811683821601908111156105a4576105a4611698565b6000602082840312156116d957600080fd5b815180151581146105ee57600080fd5b60208082526024908201527f43616c6c6572206973206e6f7420616e20617574686f72697a656420676f7665604082015263393737b960e11b606082015260800190565b6001600160a01b039390931683526020830191909152604082015260600190565b808201808211156105a4576105a4611698565b818103818111156105a4576105a4611698565b634e487b7160e01b600052601260045260246000fd5b634e487b7160e01b600052602160045260246000fd5b600060ff8316806117c157634e487b7160e01b600052601260045260246000fd5b8060ff8416069150509291505056fea2646970667358221220a10e486b60faa24274bc748e0b71dae2b29a5ed6063e55bf0fdb377a3623f41964736f6c63430008180033",
  "linkReferences": {},
  "deployedLinkReferences": {}
}