{
  "_format": "hh-sol-artifact-1",
  "contractName": "LiquidStakingSsym",
  "sourceName": "contracts/LiquidStakingSsym.sol",
  "abi": [
    {
      "inputs": [
        {
          "internalType": "address",
          "name": "_symToken",
          "type": "address"
        }
      ],
      "stateMutability": "nonpayable",
      "type": "constructor"
    },
    {
      "inputs": [
        {
          "internalType": "address",
          "name": "spender",
          "type": "address"
        },
        {
          "internalType": "uint256",
          "name": "allowance",
          "type": "uint256"
        },
        {
          "internalType": "uint256",
          "name": "needed",
          "type": "uint256"
        }
      ],
      "name": "ERC20InsufficientAllowance",
      "type": "error"
    },
    {
      "inputs": [
        {
          "internalType": "address",
          "name": "sender",
          "type": "address"
        },
        {
          "internalType": "uint256",
          "name": "balance",
          "type": "uint256"
        },
        {
          "internalType": "uint256",
          "name": "needed",
          "type": "uint256"
        }
      ],
      "name": "ERC20InsufficientBalance",
      "type": "error"
    },
    {
      "inputs": [
        {
          "internalType": "address",
          "name": "approver",
          "type": "address"
        }
      ],
      "name": "ERC20InvalidApprover",
      "type": "error"
    },
    {
      "inputs": [
        {
          "internalType": "address",
          "name": "receiver",
          "type": "address"
        }
      ],
      "name": "ERC20InvalidReceiver",
      "type": "error"
    },
    {
      "inputs": [
        {
          "internalType": "address",
          "name": "sender",
          "type": "address"
        }
      ],
      "name": "ERC20InvalidSender",
      "type": "error"
    },
    {
      "inputs": [
        {
          "internalType": "address",
          "name": "spender",
          "type": "address"
        }
      ],
      "name": "ERC20InvalidSpender",
      "type": "error"
    },
    {
      "inputs": [],
      "name": "ReentrancyGuardReentrantCall",
      "type": "error"
    },
    {
      "inputs": [
        {
          "internalType": "address",
          "name": "token",
          "type": "address"
        }
      ],
      "name": "SafeERC20FailedOperation",
      "type": "error"
    },
    {
      "anonymous": false,
      "inputs": [
        {
          "indexed": true,
          "internalType": "address",
          "name": "owner",
          "type": "address"
        },
        {
          "indexed": true,
          "internalType": "address",
          "name": "spender",
          "type": "address"
        },
        {
          "indexed": false,
          "internalType": "uint256",
          "name": "value",
          "type": "uint256"
        }
      ],
      "name": "Approval",
      "type": "event"
    },
    {
      "anonymous": false,
      "inputs": [
        {
          "indexed": true,
          "internalType": "address",
          "name": "user",
          "type": "address"
        },
        {
          "indexed": false,
          "internalType": "uint256",
          "name": "amount",
          "type": "uint256"
        },
        {
          "indexed": false,
          "internalType": "uint256",
          "name": "sSymMinted",
          "type": "uint256"
        }
      ],
      "name": "Staked",
      "type": "event"
    },
    {
      "anonymous": false,
      "inputs": [
        {
          "indexed": true,
          "internalType": "address",
          "name": "from",
          "type": "address"
        },
        {
          "indexed": true,
          "internalType": "address",
          "name": "to",
          "type": "address"
        },
        {
          "indexed": false,
          "internalType": "uint256",
          "name": "value",
          "type": "uint256"
        }
      ],
      "name": "Transfer",
      "type": "event"
    },
    {
      "anonymous": false,
      "inputs": [
        {
          "indexed": true,
          "internalType": "address",
          "name": "user",
          "type": "address"
        },
        {
          "indexed": false,
          "internalType": "uint256",
          "name": "sSymBurned",
          "type": "uint256"
        },
        {
          "indexed": false,
          "internalType": "uint256",
          "name": "symReturned",
          "type": "uint256"
        }
      ],
      "name": "Unstaked",
      "type": "event"
    },
    {
      "inputs": [
        {
          "internalType": "address",
          "name": "owner",
          "type": "address"
        },
        {
          "internalType": "address",
          "name": "spender",
          "type": "address"
        }
      ],
      "name": "allowance",
      "outputs": [
        {
          "internalType": "uint256",
          "name": "",
          "type": "uint256"
        }
      ],
      "stateMutability": "view",
      "type": "function"
    },
    {
      "inputs": [
        {
          "internalType": "address",
          "name": "spender",
          "type": "address"
        },
        {
          "internalType": "uint256",
          "name": "value",
          "type": "uint256"
        }
      ],
      "name": "approve",
      "outputs": [
        {
          "internalType": "bool",
          "name": "",
          "type": "bool"
        }
      ],
      "stateMutability": "nonpayable",
      "type": "function"
    },
    {
      "inputs": [
        {
          "internalType": "address",
          "name": "account",
          "type": "address"
        }
      ],
      "name": "balanceOf",
      "outputs": [
        {
          "internalType": "uint256",
          "name": "",
          "type": "uint256"
        }
      ],
      "stateMutability": "view",
      "type": "function"
    },
    {
      "inputs": [],
      "name": "decimals",
      "outputs": [
        {
          "internalType": "uint8",
          "name": "",
          "type": "uint8"
        }
      ],
      "stateMutability": "view",
      "type": "function"
    },
    {
      "inputs": [],
      "name": "name",
      "outputs": [
        {
          "internalType": "string",
          "name": "",
          "type": "string"
        }
      ],
      "stateMutability": "view",
      "type": "function"
    },
    {
      "inputs": [
        {
          "internalType": "uint256",
          "name": "amount",
          "type": "uint256"
        }
      ],
      "name": "stake",
      "outputs": [],
      "stateMutability": "nonpayable",
      "type": "function"
    },
    {
      "inputs": [],
      "name": "symToken",
      "outputs": [
        {
          "internalType": "contract SymbiosisToken",
          "name": "",
          "type": "address"
        }
      ],
      "stateMutability": "view",
      "type": "function"
    },
    {
      "inputs": [],
      "name": "symbol",
      "outputs": [
        {
          "internalType": "string",
          "name": "",
          "type": "string"
        }
      ],
      "stateMutability": "view",
      "type": "function"
    },
    {
      "inputs": [],
      "name": "totalSupply",
      "outputs": [
        {
          "internalType": "uint256",
          "name": "",
          "type": "uint256"
        }
      ],
      "stateMutability": "view",
      "type": "function"
    },
    {
      "inputs": [
        {
          "internalType": "address",
          "name": "to",
          "type": "address"
        },
        {
          "internalType": "uint256",
          "name": "value",
          "type": "uint256"
        }
      ],
      "name": "transfer",
      "outputs": [
        {
          "internalType": "bool",
          "name": "",
          "type": "bool"
        }
      ],
      "stateMutability": "nonpayable",
      "type": "function"
    },
    {
      "inputs": [
        {
          "internalType": "address",
          "name": "from",
          "type": "address"
        },
        {
          "internalType": "address",
          "name": "to",
          "type": "address"
        },
        {
          "internalType": "uint256",
          "name": "value",
          "type": "uint256"
        }
      ],
      "name": "transferFrom",
      "outputs": [
        {
          "internalType": "bool",
          "name": "",
          "type": "bool"
        }
      ],
      "stateMutability": "nonpayable",
      "type": "function"
    },
    {
      "inputs": [
        {
          "internalType": "uint256",
          "name": "shares",
          "type": "uint256"
        }
      ],
      "name": "unstake",
      "outputs": [],
      "stateMutability": "nonpayable",
      "type": "function"
    },
    {
      "inputs": [
        {
          "internalType": "address",
          "name": "newRegistry",
          "type": "address"
        }
      ],
      "name": "updateZkProver",
      "outputs": [],
      "stateMutability": "nonpayable",
      "type": "function"
    },
    {
      "inputs": [],
      "name": "zkProverRegistry",
      "outputs": [
        {
          "internalType": "address",
          "name": "",
          "type": "address"
        }
      ],
      "stateMutability": "view",
      "type": "function"
    }
  ],
  "bytecode": "0x60a06040523480156200001157600080fd5b5060405162001082380380620010828339810160408190526200003491620000b5565b604051806040016040528060118152602001704c6971756964205374616b65642053594d60781b815250604051806040016040528060048152602001637353594d60e01b81525081600390816200008c91906200018e565b5060046200009b82826200018e565b50506001600555506001600160a01b03166080526200025a565b600060208284031215620000c857600080fd5b81516001600160a01b0381168114620000e057600080fd5b9392505050565b634e487b7160e01b600052604160045260246000fd5b600181811c908216806200011257607f821691505b6020821081036200013357634e487b7160e01b600052602260045260246000fd5b50919050565b601f82111562000189576000816000526020600020601f850160051c81016020861015620001645750805b601f850160051c820191505b81811015620001855782815560010162000170565b5050505b505050565b81516001600160401b03811115620001aa57620001aa620000e7565b620001c281620001bb8454620000fd565b8462000139565b602080601f831160018114620001fa5760008415620001e15750858301515b600019600386901b1c1916600185901b17855562000185565b600085815260208120601f198616915b828110156200022b578886015182559484019460019091019084016200020a565b50858210156200024a5787850151600019600388901b60f8161c191681555b5050505050600190811b01905550565b608051610df06200029260003960008181610221015281816103c9015281816104660152818161056e01526106350152610df06000f3fe608060405234801561001057600080fd5b50600436106100ea5760003560e01c806395d89b411161008c578063c8d4440511610066578063c8d44405146101d0578063dd62ed3e146101e3578063ea1804bb1461021c578063eef34c561461025b57600080fd5b806395d89b41146101a2578063a694fc3a146101aa578063a9059cbb146101bd57600080fd5b806323b872dd116100c857806323b872dd146101425780632e17de7814610155578063313ce5671461016a57806370a082311461017957600080fd5b806306fdde03146100ef578063095ea7b31461010d57806318160ddd14610130575b600080fd5b6100f761026e565b6040516101049190610bb3565b60405180910390f35b61012061011b366004610c1e565b610300565b6040519015158152602001610104565b6002545b604051908152602001610104565b610120610150366004610c48565b61031a565b610168610163366004610c84565b61033e565b005b60405160128152602001610104565b610134610187366004610c9d565b6001600160a01b031660009081526020819052604090205490565b6100f76104d9565b6101686101b8366004610c84565b6104e8565b6101206101cb366004610c1e565b610695565b6101686101de366004610c9d565b6106a3565b6101346101f1366004610cbf565b6001600160a01b03918216600090815260016020908152604080832093909416825291909152205490565b6102437f000000000000000000000000000000000000000000000000000000000000000081565b6040516001600160a01b039091168152602001610104565b600654610243906001600160a01b031681565b60606003805461027d90610cf2565b80601f01602080910402602001604051908101604052809291908181526020018280546102a990610cf2565b80156102f65780601f106102cb576101008083540402835291602001916102f6565b820191906000526020600020905b8154815290600101906020018083116102d957829003601f168201915b5050505050905090565b60003361030e818585610722565b60019150505b92915050565b600033610328858285610734565b6103338585856107b2565b506001949350505050565b610346610811565b6000811161039b5760405162461bcd60e51b815260206004820152601d60248201527f536861726573206d7573742062652067726561746572207468616e203000000060448201526064015b60405180910390fd5b60006103a660025490565b6040516370a0823160e01b81523060048201529091506000906001600160a01b037f000000000000000000000000000000000000000000000000000000000000000016906370a0823190602401602060405180830381865afa158015610410573d6000803e3d6000fd5b505050506040513d601f19601f820116820180604052508101906104349190610d2c565b90506000826104438386610d5b565b61044d9190610d72565b9050610459338561083b565b61048d6001600160a01b037f0000000000000000000000000000000000000000000000000000000000000000163383610875565b604080518581526020810183905233917f7fc4727e062e336010f2c282598ef5f14facb3de68cf8195c2f23e1454b2b74e91015b60405180910390a25050506104d66001600555565b50565b60606004805461027d90610cf2565b6104f0610811565b600081116105405760405162461bcd60e51b815260206004820152601d60248201527f416d6f756e74206d7573742062652067726561746572207468616e20300000006044820152606401610392565b600061054b60025490565b6040516370a0823160e01b81523060048201529091506000906001600160a01b037f000000000000000000000000000000000000000000000000000000000000000016906370a0823190602401602060405180830381865afa1580156105b5573d6000803e3d6000fd5b505050506040513d601f19601f820116820180604052508101906105d99190610d2c565b9050600082600003610606576105f361dead6103e86108d4565b6105ff6103e885610d94565b905061061e565b816106118486610d5b565b61061b9190610d72565b90505b61062833826108d4565b61065d6001600160a01b037f00000000000000000000000000000000000000000000000000000000000000001633308761090a565b604080518581526020810183905233917f1449c6dd7851abc30abf37f57715f492010519147cc2652fbc38202c18a6ee9091016104c1565b60003361030e8185856107b2565b6006546001600160a01b031615806106c557506006546001600160a01b031633145b6107005760405162461bcd60e51b815260206004820152600c60248201526b155b985d5d1a1bdc9a5e995960a21b6044820152606401610392565b600680546001600160a01b0319166001600160a01b0392909216919091179055565b61072f8383836001610943565b505050565b6001600160a01b0383811660009081526001602090815260408083209386168352929052205460001981146107ac578181101561079d57604051637dc7a0d960e11b81526001600160a01b03841660048201526024810182905260448101839052606401610392565b6107ac84848484036000610943565b50505050565b6001600160a01b0383166107dc57604051634b637e8f60e11b815260006004820152602401610392565b6001600160a01b0382166108065760405163ec442f0560e01b815260006004820152602401610392565b61072f838383610a18565b60026005540361083457604051633ee5aeb560e01b815260040160405180910390fd5b6002600555565b6001600160a01b03821661086557604051634b637e8f60e11b815260006004820152602401610392565b61087182600083610a18565b5050565b6040516001600160a01b0383811660248301526044820183905261072f91859182169063a9059cbb906064015b604051602081830303815290604052915060e01b6020820180516001600160e01b038381831617835250505050610b42565b6001600160a01b0382166108fe5760405163ec442f0560e01b815260006004820152602401610392565b61087160008383610a18565b6040516001600160a01b0384811660248301528381166044830152606482018390526107ac9186918216906323b872dd906084016108a2565b6001600160a01b03841661096d5760405163e602df0560e01b815260006004820152602401610392565b6001600160a01b03831661099757604051634a1406b160e11b815260006004820152602401610392565b6001600160a01b03808516600090815260016020908152604080832093871683529290522082905580156107ac57826001600160a01b0316846001600160a01b03167f8c5be1e5ebec7d5bd14f71427d1e84f3dd0314c0f7b2291e5b200ac8c7c3b92584604051610a0a91815260200190565b60405180910390a350505050565b6001600160a01b038316610a43578060026000828254610a389190610da7565b90915550610ab59050565b6001600160a01b03831660009081526020819052604090205481811015610a965760405163391434e360e21b81526001600160a01b03851660048201526024810182905260448101839052606401610392565b6001600160a01b03841660009081526020819052604090209082900390555b6001600160a01b038216610ad157600280548290039055610af0565b6001600160a01b03821660009081526020819052604090208054820190555b816001600160a01b0316836001600160a01b03167fddf252ad1be2c89b69c2b068fc378daa952ba7f163c4a11628f55a4df523b3ef83604051610b3591815260200190565b60405180910390a3505050565b600080602060008451602086016000885af180610b65576040513d6000823e3d81fd5b50506000513d91508115610b7d578060011415610b8a565b6001600160a01b0384163b155b156107ac57604051635274afe760e01b81526001600160a01b0385166004820152602401610392565b60006020808352835180602085015260005b81811015610be157858101830151858201604001528201610bc5565b506000604082860101526040601f19601f8301168501019250505092915050565b80356001600160a01b0381168114610c1957600080fd5b919050565b60008060408385031215610c3157600080fd5b610c3a83610c02565b946020939093013593505050565b600080600060608486031215610c5d57600080fd5b610c6684610c02565b9250610c7460208501610c02565b9150604084013590509250925092565b600060208284031215610c9657600080fd5b5035919050565b600060208284031215610caf57600080fd5b610cb882610c02565b9392505050565b60008060408385031215610cd257600080fd5b610cdb83610c02565b9150610ce960208401610c02565b90509250929050565b600181811c90821680610d0657607f821691505b602082108103610d2657634e487b7160e01b600052602260045260246000fd5b50919050565b600060208284031215610d3e57600080fd5b5051919050565b634e487b7160e01b600052601160045260246000fd5b808202811582820484141761031457610314610d45565b600082610d8f57634e487b7160e01b600052601260045260246000fd5b500490565b8181038181111561031457610314610d45565b8082018082111561031457610314610d4556fea264697066735822122011a22564df1c65e4b7099992e220b20189bbcb7b01ec6ae124cc97368bc74c3964736f6c63430008180033",
  "linkReferences": {},
  "deployedLinkReferences": {}
}