{
  "_format": "hh-sol-artifact-1",
  "contractName": "LiquidStakingSsym",
  "sourceName": "contracts/LiquidStakingSsym.sol",
  "abi": [
    {
      "inputs": [
        {
          "internalType": "address",
          "name": "_symToken",
          "type": "address"
        }
      ],
      "stateMutability": "nonpayable",
      "type": "constructor"
    },
    {
      "inputs": [
        {
          "internalType": "address",
          "name": "spender",
          "type": "address"
        },
        {
          "internalType": "uint256",
          "name": "allowance",
          "type": "uint256"
        },
        {
          "internalType": "uint256",
          "name": "needed",
          "type": "uint256"
        }
      ],
      "name": "ERC20InsufficientAllowance",
      "type": "error"
    },
    {
      "inputs": [
        {
          "internalType": "address",
          "name": "sender",
          "type": "address"
        },
        {
          "internalType": "uint256",
          "name": "balance",
          "type": "uint256"
        },
        {
          "internalType": "uint256",
          "name": "needed",
          "type": "uint256"
        }
      ],
      "name": "ERC20InsufficientBalance",
      "type": "error"
    },
    {
      "inputs": [
        {
          "internalType": "address",
          "name": "approver",
          "type": "address"
        }
      ],
      "name": "ERC20InvalidApprover",
      "type": "error"
    },
    {
      "inputs": [
        {
          "internalType": "address",
          "name": "receiver",
          "type": "address"
        }
      ],
      "name": "ERC20InvalidReceiver",
      "type": "error"
    },
    {
      "inputs": [
        {
          "internalType": "address",
          "name": "sender",
          "type": "address"
        }
      ],
      "name": "ERC20InvalidSender",
      "type": "error"
    },
    {
      "inputs": [
        {
          "internalType": "address",
          "name": "spender",
          "type": "address"
        }
      ],
      "name": "ERC20InvalidSpender",
      "type": "error"
    },
    {
      "inputs": [],
      "name": "EnforcedPause",
      "type": "error"
    },
    {
      "inputs": [],
      "name": "ExpectedPause",
      "type": "error"
    },
    {
      "inputs": [],
      "name": "ReentrancyGuardReentrantCall",
      "type": "error"
    },
    {
      "inputs": [
        {
          "internalType": "address",
          "name": "token",
          "type": "address"
        }
      ],
      "name": "SafeERC20FailedOperation",
      "type": "error"
    },
    {
      "anonymous": false,
      "inputs": [
        {
          "indexed": true,
          "internalType": "address",
          "name": "owner",
          "type": "address"
        },
        {
          "indexed": true,
          "internalType": "address",
          "name": "spender",
          "type": "address"
        },
        {
          "indexed": false,
          "internalType": "uint256",
          "name": "value",
          "type": "uint256"
        }
      ],
      "name": "Approval",
      "type": "event"
    },
    {
      "anonymous": false,
      "inputs": [
        {
          "indexed": false,
          "internalType": "address",
          "name": "account",
          "type": "address"
        }
      ],
      "name": "Paused",
      "type": "event"
    },
    {
      "anonymous": false,
      "inputs": [
        {
          "indexed": true,
          "internalType": "address",
          "name": "user",
          "type": "address"
        },
        {
          "indexed": false,
          "internalType": "uint256",
          "name": "amount",
          "type": "uint256"
        },
        {
          "indexed": false,
          "internalType": "uint256",
          "name": "sSymMinted",
          "type": "uint256"
        }
      ],
      "name": "Staked",
      "type": "event"
    },
    {
      "anonymous": false,
      "inputs": [
        {
          "indexed": true,
          "internalType": "address",
          "name": "from",
          "type": "address"
        },
        {
          "indexed": true,
          "internalType": "address",
          "name": "to",
          "type": "address"
        },
        {
          "indexed": false,
          "internalType": "uint256",
          "name": "value",
          "type": "uint256"
        }
      ],
      "name": "Transfer",
      "type": "event"
    },
    {
      "anonymous": false,
      "inputs": [
        {
          "indexed": false,
          "internalType": "address",
          "name": "account",
          "type": "address"
        }
      ],
      "name": "Unpaused",
      "type": "event"
    },
    {
      "anonymous": false,
      "inputs": [
        {
          "indexed": true,
          "internalType": "address",
          "name": "user",
          "type": "address"
        },
        {
          "indexed": false,
          "internalType": "uint256",
          "name": "sSymBurned",
          "type": "uint256"
        },
        {
          "indexed": false,
          "internalType": "uint256",
          "name": "symReturned",
          "type": "uint256"
        }
      ],
      "name": "Unstaked",
      "type": "event"
    },
    {
      "inputs": [
        {
          "internalType": "address",
          "name": "owner",
          "type": "address"
        },
        {
          "internalType": "address",
          "name": "spender",
          "type": "address"
        }
      ],
      "name": "allowance",
      "outputs": [
        {
          "internalType": "uint256",
          "name": "",
          "type": "uint256"
        }
      ],
      "stateMutability": "view",
      "type": "function"
    },
    {
      "inputs": [
        {
          "internalType": "address",
          "name": "spender",
          "type": "address"
        },
        {
          "internalType": "uint256",
          "name": "value",
          "type": "uint256"
        }
      ],
      "name": "approve",
      "outputs": [
        {
          "internalType": "bool",
          "name": "",
          "type": "bool"
        }
      ],
      "stateMutability": "nonpayable",
      "type": "function"
    },
    {
      "inputs": [
        {
          "internalType": "address",
          "name": "account",
          "type": "address"
        }
      ],
      "name": "balanceOf",
      "outputs": [
        {
          "internalType": "uint256",
          "name": "",
          "type": "uint256"
        }
      ],
      "stateMutability": "view",
      "type": "function"
    },
    {
      "inputs": [],
      "name": "decimals",
      "outputs": [
        {
          "internalType": "uint8",
          "name": "",
          "type": "uint8"
        }
      ],
      "stateMutability": "view",
      "type": "function"
    },
    {
      "inputs": [],
      "name": "name",
      "outputs": [
        {
          "internalType": "string",
          "name": "",
          "type": "string"
        }
      ],
      "stateMutability": "view",
      "type": "function"
    },
    {
      "inputs": [],
      "name": "pause",
      "outputs": [],
      "stateMutability": "nonpayable",
      "type": "function"
    },
    {
      "inputs": [],
      "name": "paused",
      "outputs": [
        {
          "internalType": "bool",
          "name": "",
          "type": "bool"
        }
      ],
      "stateMutability": "view",
      "type": "function"
    },
    {
      "inputs": [
        {
          "internalType": "uint256",
          "name": "amount",
          "type": "uint256"
        }
      ],
      "name": "stake",
      "outputs": [],
      "stateMutability": "nonpayable",
      "type": "function"
    },
    {
      "inputs": [],
      "name": "symToken",
      "outputs": [
        {
          "internalType": "contract SymbiosisToken",
          "name": "",
          "type": "address"
        }
      ],
      "stateMutability": "view",
      "type": "function"
    },
    {
      "inputs": [],
      "name": "symbol",
      "outputs": [
        {
          "internalType": "string",
          "name": "",
          "type": "string"
        }
      ],
      "stateMutability": "view",
      "type": "function"
    },
    {
      "inputs": [],
      "name": "totalSupply",
      "outputs": [
        {
          "internalType": "uint256",
          "name": "",
          "type": "uint256"
        }
      ],
      "stateMutability": "view",
      "type": "function"
    },
    {
      "inputs": [
        {
          "internalType": "address",
          "name": "to",
          "type": "address"
        },
        {
          "internalType": "uint256",
          "name": "value",
          "type": "uint256"
        }
      ],
      "name": "transfer",
      "outputs": [
        {
          "internalType": "bool",
          "name": "",
          "type": "bool"
        }
      ],
      "stateMutability": "nonpayable",
      "type": "function"
    },
    {
      "inputs": [
        {
          "internalType": "address",
          "name": "from",
          "type": "address"
        },
        {
          "internalType": "address",
          "name": "to",
          "type": "address"
        },
        {
          "internalType": "uint256",
          "name": "value",
          "type": "uint256"
        }
      ],
      "name": "transferFrom",
      "outputs": [
        {
          "internalType": "bool",
          "name": "",
          "type": "bool"
        }
      ],
      "stateMutability": "nonpayable",
      "type": "function"
    },
    {
      "inputs": [],
      "name": "unpause",
      "outputs": [],
      "stateMutability": "nonpayable",
      "type": "function"
    },
    {
      "inputs": [
        {
          "internalType": "uint256",
          "name": "shares",
          "type": "uint256"
        }
      ],
      "name": "unstake",
      "outputs": [],
      "stateMutability": "nonpayable",
      "type": "function"
    },
    {
      "inputs": [
        {
          "internalType": "address",
          "name": "newRegistry",
          "type": "address"
        }
      ],
      "name": "updateZkProver",
      "outputs": [],
      "stateMutability": "nonpayable",
      "type": "function"
    },
    {
      "inputs": [],
      "name": "zkProverRegistry",
      "outputs": [
        {
          "internalType": "address",
          "name": "",
          "type": "address"
        }
      ],
      "stateMutability": "view",
      "type": "function"
    }
  ],
  "bytecode": "0x60a06040523480156200001157600080fd5b50604051620015193803806200151983398101604081905262000034916200011a565b604051806040016040528060118152602001704c6971756964205374616b65642053594d60781b815250604051806040016040528060048152602001637353594d60e01b81525081600390816200008c9190620001f3565b5060046200009b8282620001f3565b50506001600555506006805460ff191690556001600160a01b038116620001085760405162461bcd60e51b815260206004820152601560248201527f496e76616c696420746f6b656e20616464726573730000000000000000000000604482015260640160405180910390fd5b6001600160a01b0316608052620002bf565b6000602082840312156200012d57600080fd5b81516001600160a01b03811681146200014557600080fd5b9392505050565b634e487b7160e01b600052604160045260246000fd5b600181811c908216806200017757607f821691505b6020821081036200019857634e487b7160e01b600052602260045260246000fd5b50919050565b601f821115620001ee576000816000526020600020601f850160051c81016020861015620001c95750805b601f850160051c820191505b81811015620001ea57828155600101620001d5565b5050505b505050565b81516001600160401b038111156200020f576200020f6200014c565b620002278162000220845462000162565b846200019e565b602080601f8311600181146200025f5760008415620002465750858301515b600019600386901b1c1916600185901b178555620001ea565b600085815260208120601f198616915b8281101562000290578886015182559484019460019091019084016200026f565b5085821015620002af5787850151600019600388901b60f8161c191681555b5050505050600190811b01905550565b60805161120d6200030c6000396000818161025d01528181610412015281816104af01528181610537015281816105e501528181610719015281816108320152610913015261120d6000f3fe608060405234801561001057600080fd5b506004361061010b5760003560e01c806370a08231116100a2578063a9059cbb11610071578063a9059cbb146101f9578063c8d444051461020c578063dd62ed3e1461021f578063ea1804bb14610258578063eef34c561461029757600080fd5b806370a08231146101ad5780638456cb59146101d657806395d89b41146101de578063a694fc3a146101e657600080fd5b80632e17de78116100de5780632e17de7814610176578063313ce5671461018b5780633f4ba83a1461019a5780635c975abb146101a257600080fd5b806306fdde0314610110578063095ea7b31461012e57806318160ddd1461015157806323b872dd14610163575b600080fd5b6101186102af565b6040516101259190610f6a565b60405180910390f35b61014161013c366004610fd5565b610341565b6040519015158152602001610125565b6002545b604051908152602001610125565b610141610171366004610fff565b61035b565b61018961018436600461103b565b61037f565b005b60405160128152602001610125565b610189610522565b60065460ff16610141565b6101556101bb366004611054565b6001600160a01b031660009081526020819052604090205490565b6101896105d0565b61011861067c565b6101896101f436600461103b565b61068b565b610141610207366004610fd5565b610892565b61018961021a366004611054565b6108a0565b61015561022d366004611076565b6001600160a01b03918216600090815260016020908152604080832093909416825291909152205490565b61027f7f000000000000000000000000000000000000000000000000000000000000000081565b6040516001600160a01b039091168152602001610125565b60065461027f9061010090046001600160a01b031681565b6060600380546102be906110a9565b80601f01602080910402602001604051908101604052809291908181526020018280546102ea906110a9565b80156103375780601f1061030c57610100808354040283529160200191610337565b820191906000526020600020905b81548152906001019060200180831161031a57829003601f168201915b5050505050905090565b60003361034f818585610a03565b60019150505b92915050565b600033610369858285610a15565b610374858585610a93565b506001949350505050565b610387610af2565b61038f610b1c565b600081116103e45760405162461bcd60e51b815260206004820152601d60248201527f536861726573206d7573742062652067726561746572207468616e203000000060448201526064015b60405180910390fd5b60006103ef60025490565b6040516370a0823160e01b81523060048201529091506000906001600160a01b037f000000000000000000000000000000000000000000000000000000000000000016906370a0823190602401602060405180830381865afa158015610459573d6000803e3d6000fd5b505050506040513d601f19601f8201168201806040525081019061047d91906110e3565b905060008261048c8386611112565b6104969190611129565b90506104a23385610b40565b6104d66001600160a01b037f0000000000000000000000000000000000000000000000000000000000000000163383610b7a565b604080518581526020810183905233917f7fc4727e062e336010f2c282598ef5f14facb3de68cf8195c2f23e1454b2b74e91015b60405180910390a250505061051f6001600555565b50565b604051631c86b03760e31b81523360048201527f00000000000000000000000000000000000000000000000000000000000000006001600160a01b03169063e43581b890602401602060405180830381865afa158015610586573d6000803e3d6000fd5b505050506040513d601f19601f820116820180604052508101906105aa919061114b565b6105c65760405162461bcd60e51b81526004016103db9061116d565b6105ce610bd9565b565b604051631c86b03760e31b81523360048201527f00000000000000000000000000000000000000000000000000000000000000006001600160a01b03169063e43581b890602401602060405180830381865afa158015610634573d6000803e3d6000fd5b505050506040513d601f19601f82011682018060405250810190610658919061114b565b6106745760405162461bcd60e51b81526004016103db9061116d565b6105ce610c2b565b6060600480546102be906110a9565b610693610af2565b61069b610b1c565b600081116106eb5760405162461bcd60e51b815260206004820152601d60248201527f416d6f756e74206d7573742062652067726561746572207468616e203000000060448201526064016103db565b60006106f660025490565b6040516370a0823160e01b81523060048201529091506000906001600160a01b037f000000000000000000000000000000000000000000000000000000000000000016906370a0823190602401602060405180830381865afa158015610760573d6000803e3d6000fd5b505050506040513d601f19601f8201168201806040525081019061078491906110e3565b905060006001831015610803576103e884116107e25760405162461bcd60e51b815260206004820152601f60248201527f4d696e696d756d206669727374207374616b6520697320313030312053594d0060448201526064016103db565b6107f061dead6103e8610c68565b6107fc6103e8856111b1565b905061081b565b8161080e8486611112565b6108189190611129565b90505b6108253382610c68565b61085a6001600160a01b037f000000000000000000000000000000000000000000000000000000000000000016333087610c9e565b604080518581526020810183905233917f1449c6dd7851abc30abf37f57715f492010519147cc2652fbc38202c18a6ee90910161050a565b60003361034f818585610a93565b6001600160a01b0381166108e55760405162461bcd60e51b815260206004820152600c60248201526b5a65726f206164647265737360a01b60448201526064016103db565b60065461010090046001600160a01b03161580156109865750604051631c86b03760e31b81523360048201527f00000000000000000000000000000000000000000000000000000000000000006001600160a01b03169063e43581b890602401602060405180830381865afa158015610962573d6000803e3d6000fd5b505050506040513d601f19601f82011682018060405250810190610986919061114b565b806109a0575060065461010090046001600160a01b031633145b6109db5760405162461bcd60e51b815260206004820152600c60248201526b155b985d5d1a1bdc9a5e995960a21b60448201526064016103db565b600680546001600160a01b0390921661010002610100600160a81b0319909216919091179055565b610a108383836001610cd7565b505050565b6001600160a01b038381166000908152600160209081526040808320938616835292905220546000198114610a8d5781811015610a7e57604051637dc7a0d960e11b81526001600160a01b038416600482015260248101829052604481018390526064016103db565b610a8d84848484036000610cd7565b50505050565b6001600160a01b038316610abd57604051634b637e8f60e11b8152600060048201526024016103db565b6001600160a01b038216610ae75760405163ec442f0560e01b8152600060048201526024016103db565b610a10838383610dac565b600260055403610b1557604051633ee5aeb560e01b815260040160405180910390fd5b6002600555565b60065460ff16156105ce5760405163d93c066560e01b815260040160405180910390fd5b6001600160a01b038216610b6a57604051634b637e8f60e11b8152600060048201526024016103db565b610b7682600083610dac565b5050565b6040516001600160a01b03838116602483015260448201839052610a1091859182169063a9059cbb906064015b604051602081830303815290604052915060e01b6020820180516001600160e01b038381831617835250505050610ed6565b610be1610f47565b6006805460ff191690557f5db9ee0a495bf2e6ff9c91a7834c1ba4fdd244a5e8aa4e537bd38aeae4b073aa335b6040516001600160a01b03909116815260200160405180910390a1565b610c33610b1c565b6006805460ff191660011790557f62e78cea01bee320cd4e420270b5ea74000d11b0c9f74754ebdbfc544b05a258610c0e3390565b6001600160a01b038216610c925760405163ec442f0560e01b8152600060048201526024016103db565b610b7660008383610dac565b6040516001600160a01b038481166024830152838116604483015260648201839052610a8d9186918216906323b872dd90608401610ba7565b6001600160a01b038416610d015760405163e602df0560e01b8152600060048201526024016103db565b6001600160a01b038316610d2b57604051634a1406b160e11b8152600060048201526024016103db565b6001600160a01b0380851660009081526001602090815260408083209387168352929052208290558015610a8d57826001600160a01b0316846001600160a01b03167f8c5be1e5ebec7d5bd14f71427d1e84f3dd0314c0f7b2291e5b200ac8c7c3b92584604051610d9e91815260200190565b60405180910390a350505050565b6001600160a01b038316610dd7578060026000828254610dcc91906111c4565b90915550610e499050565b6001600160a01b03831660009081526020819052604090205481811015610e2a5760405163391434e360e21b81526001600160a01b038516600482015260248101829052604481018390526064016103db565b6001600160a01b03841660009081526020819052604090209082900390555b6001600160a01b038216610e6557600280548290039055610e84565b6001600160a01b03821660009081526020819052604090208054820190555b816001600160a01b0316836001600160a01b03167fddf252ad1be2c89b69c2b068fc378daa952ba7f163c4a11628f55a4df523b3ef83604051610ec991815260200190565b60405180910390a3505050565b600080602060008451602086016000885af180610ef9576040513d6000823e3d81fd5b50506000513d91508115610f11578060011415610f1e565b6001600160a01b0384163b155b15610a8d57604051635274afe760e01b81526001600160a01b03851660048201526024016103db565b60065460ff166105ce57604051638dfc202b60e01b815260040160405180910390fd5b60006020808352835180602085015260005b81811015610f9857858101830151858201604001528201610f7c565b506000604082860101526040601f19601f8301168501019250505092915050565b80356001600160a01b0381168114610fd057600080fd5b919050565b60008060408385031215610fe857600080fd5b610ff183610fb9565b946020939093013593505050565b60008060006060848603121561101457600080fd5b61101d84610fb9565b925061102b60208501610fb9565b9150604084013590509250925092565b60006020828403121561104d57600080fd5b5035919050565b60006020828403121561106657600080fd5b61106f82610fb9565b9392505050565b6000806040838503121561108957600080fd5b61109283610fb9565b91506110a060208401610fb9565b90509250929050565b600181811c908216806110bd57607f821691505b6020821081036110dd57634e487b7160e01b600052602260045260246000fd5b50919050565b6000602082840312156110f557600080fd5b5051919050565b634e487b7160e01b600052601160045260246000fd5b8082028115828204841417610355576103556110fc565b60008261114657634e487b7160e01b600052601260045260246000fd5b500490565b60006020828403121561115d57600080fd5b8151801515811461106f57600080fd5b60208082526024908201527f43616c6c6572206973206e6f7420616e20617574686f72697a656420676f7665604082015263393737b960e11b606082015260800190565b81810381811115610355576103556110fc565b80820180821115610355576103556110fc56fea26469706673582212200c1e1ad6d17ca6b3adc2304d116b22e57d42e5805dee134282fffc0b3ee057b464736f6c63430008180033",
  "linkReferences": {},
  "deployedLinkReferences": {}
}