{
  "_format": "hh-sol-artifact-1",
  "contractName": "LiquidStakingSsym",
  "sourceName": "contracts/LiquidStakingSsym.sol",
  "abi": [
    {
      "inputs": [
        {
          "internalType": "address",
          "name": "_symToken",
          "type": "address"
        }
      ],
      "stateMutability": "nonpayable",
      "type": "constructor"
    },
    {
      "inputs": [
        {
          "internalType": "address",
          "name": "spender",
          "type": "address"
        },
        {
          "internalType": "uint256",
          "name": "allowance",
          "type": "uint256"
        },
        {
          "internalType": "uint256",
          "name": "needed",
          "type": "uint256"
        }
      ],
      "name": "ERC20InsufficientAllowance",
      "type": "error"
    },
    {
      "inputs": [
        {
          "internalType": "address",
          "name": "sender",
          "type": "address"
        },
        {
          "internalType": "uint256",
          "name": "balance",
          "type": "uint256"
        },
        {
          "internalType": "uint256",
          "name": "needed",
          "type": "uint256"
        }
      ],
      "name": "ERC20InsufficientBalance",
      "type": "error"
    },
    {
      "inputs": [
        {
          "internalType": "address",
          "name": "approver",
          "type": "address"
        }
      ],
      "name": "ERC20InvalidApprover",
      "type": "error"
    },
    {
      "inputs": [
        {
          "internalType": "address",
          "name": "receiver",
          "type": "address"
        }
      ],
      "name": "ERC20InvalidReceiver",
      "type": "error"
    },
    {
      "inputs": [
        {
          "internalType": "address",
          "name": "sender",
          "type": "address"
        }
      ],
      "name": "ERC20InvalidSender",
      "type": "error"
    },
    {
      "inputs": [
        {
          "internalType": "address",
          "name": "spender",
          "type": "address"
        }
      ],
      "name": "ERC20InvalidSpender",
      "type": "error"
    },
    {
      "inputs": [],
      "name": "EnforcedPause",
      "type": "error"
    },
    {
      "inputs": [],
      "name": "ExpectedPause",
      "type": "error"
    },
    {
      "inputs": [],
      "name": "ReentrancyGuardReentrantCall",
      "type": "error"
    },
    {
      "inputs": [
        {
          "internalType": "address",
          "name": "token",
          "type": "address"
        }
      ],
      "name": "SafeERC20FailedOperation",
      "type": "error"
    },
    {
      "anonymous": false,
      "inputs": [
        {
          "indexed": true,
          "internalType": "address",
          "name": "owner",
          "type": "address"
        },
        {
          "indexed": true,
          "internalType": "address",
          "name": "spender",
          "type": "address"
        },
        {
          "indexed": false,
          "internalType": "uint256",
          "name": "value",
          "type": "uint256"
        }
      ],
      "name": "Approval",
      "type": "event"
    },
    {
      "anonymous": false,
      "inputs": [
        {
          "indexed": false,
          "internalType": "address",
          "name": "account",
          "type": "address"
        }
      ],
      "name": "Paused",
      "type": "event"
    },
    {
      "anonymous": false,
      "inputs": [
        {
          "indexed": true,
          "internalType": "address",
          "name": "user",
          "type": "address"
        },
        {
          "indexed": false,
          "internalType": "uint256",
          "name": "amount",
          "type": "uint256"
        },
        {
          "indexed": false,
          "internalType": "uint256",
          "name": "sSymMinted",
          "type": "uint256"
        }
      ],
      "name": "Staked",
      "type": "event"
    },
    {
      "anonymous": false,
      "inputs": [
        {
          "indexed": true,
          "internalType": "address",
          "name": "from",
          "type": "address"
        },
        {
          "indexed": true,
          "internalType": "address",
          "name": "to",
          "type": "address"
        },
        {
          "indexed": false,
          "internalType": "uint256",
          "name": "value",
          "type": "uint256"
        }
      ],
      "name": "Transfer",
      "type": "event"
    },
    {
      "anonymous": false,
      "inputs": [
        {
          "indexed": false,
          "internalType": "address",
          "name": "account",
          "type": "address"
        }
      ],
      "name": "Unpaused",
      "type": "event"
    },
    {
      "anonymous": false,
      "inputs": [
        {
          "indexed": true,
          "internalType": "address",
          "name": "user",
          "type": "address"
        },
        {
          "indexed": false,
          "internalType": "uint256",
          "name": "sSymBurned",
          "type": "uint256"
        },
        {
          "indexed": false,
          "internalType": "uint256",
          "name": "symReturned",
          "type": "uint256"
        }
      ],
      "name": "Unstaked",
      "type": "event"
    },
    {
      "inputs": [
        {
          "internalType": "address",
          "name": "owner",
          "type": "address"
        },
        {
          "internalType": "address",
          "name": "spender",
          "type": "address"
        }
      ],
      "name": "allowance",
      "outputs": [
        {
          "internalType": "uint256",
          "name": "",
          "type": "uint256"
        }
      ],
      "stateMutability": "view",
      "type": "function"
    },
    {
      "inputs": [
        {
          "internalType": "address",
          "name": "spender",
          "type": "address"
        },
        {
          "internalType": "uint256",
          "name": "value",
          "type": "uint256"
        }
      ],
      "name": "approve",
      "outputs": [
        {
          "internalType": "bool",
          "name": "",
          "type": "bool"
        }
      ],
      "stateMutability": "nonpayable",
      "type": "function"
    },
    {
      "inputs": [
        {
          "internalType": "address",
          "name": "account",
          "type": "address"
        }
      ],
      "name": "balanceOf",
      "outputs": [
        {
          "internalType": "uint256",
          "name": "",
          "type": "uint256"
        }
      ],
      "stateMutability": "view",
      "type": "function"
    },
    {
      "inputs": [],
      "name": "decimals",
      "outputs": [
        {
          "internalType": "uint8",
          "name": "",
          "type": "uint8"
        }
      ],
      "stateMutability": "view",
      "type": "function"
    },
    {
      "inputs": [],
      "name": "name",
      "outputs": [
        {
          "internalType": "string",
          "name": "",
          "type": "string"
        }
      ],
      "stateMutability": "view",
      "type": "function"
    },
    {
      "inputs": [],
      "name": "pause",
      "outputs": [],
      "stateMutability": "nonpayable",
      "type": "function"
    },
    {
      "inputs": [],
      "name": "paused",
      "outputs": [
        {
          "internalType": "bool",
          "name": "",
          "type": "bool"
        }
      ],
      "stateMutability": "view",
      "type": "function"
    },
    {
      "inputs": [
        {
          "internalType": "uint256",
          "name": "amount",
          "type": "uint256"
        }
      ],
      "name": "stake",
      "outputs": [],
      "stateMutability": "nonpayable",
      "type": "function"
    },
    {
      "inputs": [],
      "name": "symToken",
      "outputs": [
        {
          "internalType": "contract SymbiosisToken",
          "name": "",
          "type": "address"
        }
      ],
      "stateMutability": "view",
      "type": "function"
    },
    {
      "inputs": [],
      "name": "symbol",
      "outputs": [
        {
          "internalType": "string",
          "name": "",
          "type": "string"
        }
      ],
      "stateMutability": "view",
      "type": "function"
    },
    {
      "inputs": [],
      "name": "totalSupply",
      "outputs": [
        {
          "internalType": "uint256",
          "name": "",
          "type": "uint256"
        }
      ],
      "stateMutability": "view",
      "type": "function"
    },
    {
      "inputs": [
        {
          "internalType": "address",
          "name": "to",
          "type": "address"
        },
        {
          "internalType": "uint256",
          "name": "value",
          "type": "uint256"
        }
      ],
      "name": "transfer",
      "outputs": [
        {
          "internalType": "bool",
          "name": "",
          "type": "bool"
        }
      ],
      "stateMutability": "nonpayable",
      "type": "function"
    },
    {
      "inputs": [
        {
          "internalType": "address",
          "name": "from",
          "type": "address"
        },
        {
          "internalType": "address",
          "name": "to",
          "type": "address"
        },
        {
          "internalType": "uint256",
          "name": "value",
          "type": "uint256"
        }
      ],
      "name": "transferFrom",
      "outputs": [
        {
          "internalType": "bool",
          "name": "",
          "type": "bool"
        }
      ],
      "stateMutability": "nonpayable",
      "type": "function"
    },
    {
      "inputs": [],
      "name": "unpause",
      "outputs": [],
      "stateMutability": "nonpayable",
      "type": "function"
    },
    {
      "inputs": [
        {
          "internalType": "uint256",
          "name": "shares",
          "type": "uint256"
        }
      ],
      "name": "unstake",
      "outputs": [],
      "stateMutability": "nonpayable",
      "type": "function"
    },
    {
      "inputs": [
        {
          "internalType": "address",
          "name": "newRegistry",
          "type": "address"
        }
      ],
      "name": "updateZkProver",
      "outputs": [],
      "stateMutability": "nonpayable",
      "type": "function"
    },
    {
      "inputs": [],
      "name": "zkProverRegistry",
      "outputs": [
        {
          "internalType": "address",
          "name": "",
          "type": "address"
        }
      ],
      "stateMutability": "view",
      "type": "function"
    }
  ],
  "bytecode": "0x60a06040523480156200001157600080fd5b50604051620013d7380380620013d78339810160408190526200003491620000bf565b604051806040016040528060118152602001704c6971756964205374616b65642053594d60781b815250604051806040016040528060048152602001637353594d60e01b81525081600390816200008c919062000198565b5060046200009b828262000198565b50506001600555506006805460ff191690556001600160a01b031660805262000264565b600060208284031215620000d257600080fd5b81516001600160a01b0381168114620000ea57600080fd5b9392505050565b634e487b7160e01b600052604160045260246000fd5b600181811c908216806200011c57607f821691505b6020821081036200013d57634e487b7160e01b600052602260045260246000fd5b50919050565b601f82111562000193576000816000526020600020601f850160051c810160208610156200016e5750805b601f850160051c820191505b818110156200018f578281556001016200017a565b5050505b505050565b81516001600160401b03811115620001b457620001b4620000f1565b620001cc81620001c5845462000107565b8462000143565b602080601f831160018114620002045760008415620001eb5750858301515b600019600386901b1c1916600185901b1785556200018f565b600085815260208120601f198616915b82811015620002355788860151825594840194600190910190840162000214565b5085821015620002545787850151600019600388901b60f8161c191681555b5050505050600190811b01905550565b60805161112d620002aa6000396000818161025d01528181610412015281816104af01528181610537015281816105e50152818161071901526107e1015261112d6000f3fe608060405234801561001057600080fd5b506004361061010b5760003560e01c806370a08231116100a2578063a9059cbb11610071578063a9059cbb146101f9578063c8d444051461020c578063dd62ed3e1461021f578063ea1804bb14610258578063eef34c561461029757600080fd5b806370a08231146101ad5780638456cb59146101d657806395d89b41146101de578063a694fc3a146101e657600080fd5b80632e17de78116100de5780632e17de7814610176578063313ce5671461018b5780633f4ba83a1461019a5780635c975abb146101a257600080fd5b806306fdde0314610110578063095ea7b31461012e57806318160ddd1461015157806323b872dd14610163575b600080fd5b6101186102af565b6040516101259190610e8a565b60405180910390f35b61014161013c366004610ef5565b610341565b6040519015158152602001610125565b6002545b604051908152602001610125565b610141610171366004610f1f565b61035b565b610189610184366004610f5b565b61037f565b005b60405160128152602001610125565b610189610522565b60065460ff16610141565b6101556101bb366004610f74565b6001600160a01b031660009081526020819052604090205490565b6101896105d0565b61011861067c565b6101896101f4366004610f5b565b61068b565b610141610207366004610ef5565b610841565b61018961021a366004610f74565b61084f565b61015561022d366004610f96565b6001600160a01b03918216600090815260016020908152604080832093909416825291909152205490565b61027f7f000000000000000000000000000000000000000000000000000000000000000081565b6040516001600160a01b039091168152602001610125565b60065461027f9061010090046001600160a01b031681565b6060600380546102be90610fc9565b80601f01602080910402602001604051908101604052809291908181526020018280546102ea90610fc9565b80156103375780601f1061030c57610100808354040283529160200191610337565b820191906000526020600020905b81548152906001019060200180831161031a57829003601f168201915b5050505050905090565b60003361034f818585610923565b60019150505b92915050565b600033610369858285610935565b6103748585856109b3565b506001949350505050565b610387610a12565b61038f610a3c565b600081116103e45760405162461bcd60e51b815260206004820152601d60248201527f536861726573206d7573742062652067726561746572207468616e203000000060448201526064015b60405180910390fd5b60006103ef60025490565b6040516370a0823160e01b81523060048201529091506000906001600160a01b037f000000000000000000000000000000000000000000000000000000000000000016906370a0823190602401602060405180830381865afa158015610459573d6000803e3d6000fd5b505050506040513d601f19601f8201168201806040525081019061047d9190611003565b905060008261048c8386611032565b6104969190611049565b90506104a23385610a60565b6104d66001600160a01b037f0000000000000000000000000000000000000000000000000000000000000000163383610a9a565b604080518581526020810183905233917f7fc4727e062e336010f2c282598ef5f14facb3de68cf8195c2f23e1454b2b74e91015b60405180910390a250505061051f6001600555565b50565b604051631c86b03760e31b81523360048201527f00000000000000000000000000000000000000000000000000000000000000006001600160a01b03169063e43581b890602401602060405180830381865afa158015610586573d6000803e3d6000fd5b505050506040513d601f19601f820116820180604052508101906105aa919061106b565b6105c65760405162461bcd60e51b81526004016103db9061108d565b6105ce610af9565b565b604051631c86b03760e31b81523360048201527f00000000000000000000000000000000000000000000000000000000000000006001600160a01b03169063e43581b890602401602060405180830381865afa158015610634573d6000803e3d6000fd5b505050506040513d601f19601f82011682018060405250810190610658919061106b565b6106745760405162461bcd60e51b81526004016103db9061108d565b6105ce610b4b565b6060600480546102be90610fc9565b610693610a12565b61069b610a3c565b600081116106eb5760405162461bcd60e51b815260206004820152601d60248201527f416d6f756e74206d7573742062652067726561746572207468616e203000000060448201526064016103db565b60006106f660025490565b6040516370a0823160e01b81523060048201529091506000906001600160a01b037f000000000000000000000000000000000000000000000000000000000000000016906370a0823190602401602060405180830381865afa158015610760573d6000803e3d6000fd5b505050506040513d601f19601f820116820180604052508101906107849190611003565b9050600060018310156107b25761079f61dead6103e8610b88565b6107ab6103e8856110d1565b90506107ca565b816107bd8486611032565b6107c79190611049565b90505b6107d43382610b88565b6108096001600160a01b037f000000000000000000000000000000000000000000000000000000000000000016333087610bbe565b604080518581526020810183905233917f1449c6dd7851abc30abf37f57715f492010519147cc2652fbc38202c18a6ee90910161050a565b60003361034f8185856109b3565b6001600160a01b0381166108945760405162461bcd60e51b815260206004820152600c60248201526b5a65726f206164647265737360a01b60448201526064016103db565b60065461010090046001600160a01b031615806108c0575060065461010090046001600160a01b031633145b6108fb5760405162461bcd60e51b815260206004820152600c60248201526b155b985d5d1a1bdc9a5e995960a21b60448201526064016103db565b600680546001600160a01b0390921661010002610100600160a81b0319909216919091179055565b6109308383836001610bf7565b505050565b6001600160a01b0383811660009081526001602090815260408083209386168352929052205460001981146109ad578181101561099e57604051637dc7a0d960e11b81526001600160a01b038416600482015260248101829052604481018390526064016103db565b6109ad84848484036000610bf7565b50505050565b6001600160a01b0383166109dd57604051634b637e8f60e11b8152600060048201526024016103db565b6001600160a01b038216610a075760405163ec442f0560e01b8152600060048201526024016103db565b610930838383610ccc565b600260055403610a3557604051633ee5aeb560e01b815260040160405180910390fd5b6002600555565b60065460ff16156105ce5760405163d93c066560e01b815260040160405180910390fd5b6001600160a01b038216610a8a57604051634b637e8f60e11b8152600060048201526024016103db565b610a9682600083610ccc565b5050565b6040516001600160a01b0383811660248301526044820183905261093091859182169063a9059cbb906064015b604051602081830303815290604052915060e01b6020820180516001600160e01b038381831617835250505050610df6565b610b01610e67565b6006805460ff191690557f5db9ee0a495bf2e6ff9c91a7834c1ba4fdd244a5e8aa4e537bd38aeae4b073aa335b6040516001600160a01b03909116815260200160405180910390a1565b610b53610a3c565b6006805460ff191660011790557f62e78cea01bee320cd4e420270b5ea74000d11b0c9f74754ebdbfc544b05a258610b2e3390565b6001600160a01b038216610bb25760405163ec442f0560e01b8152600060048201526024016103db565b610a9660008383610ccc565b6040516001600160a01b0384811660248301528381166044830152606482018390526109ad9186918216906323b872dd90608401610ac7565b6001600160a01b038416610c215760405163e602df0560e01b8152600060048201526024016103db565b6001600160a01b038316610c4b57604051634a1406b160e11b8152600060048201526024016103db565b6001600160a01b03808516600090815260016020908152604080832093871683529290522082905580156109ad57826001600160a01b0316846001600160a01b03167f8c5be1e5ebec7d5bd14f71427d1e84f3dd0314c0f7b2291e5b200ac8c7c3b92584604051610cbe91815260200190565b60405180910390a350505050565b6001600160a01b038316610cf7578060026000828254610cec91906110e4565b90915550610d699050565b6001600160a01b03831660009081526020819052604090205481811015610d4a5760405163391434e360e21b81526001600160a01b038516600482015260248101829052604481018390526064016103db565b6001600160a01b03841660009081526020819052604090209082900390555b6001600160a01b038216610d8557600280548290039055610da4565b6001600160a01b03821660009081526020819052604090208054820190555b816001600160a01b0316836001600160a01b03167fddf252ad1be2c89b69c2b068fc378daa952ba7f163c4a11628f55a4df523b3ef83604051610de991815260200190565b60405180910390a3505050565b600080602060008451602086016000885af180610e19576040513d6000823e3d81fd5b50506000513d91508115610e31578060011415610e3e565b6001600160a01b0384163b155b156109ad57604051635274afe760e01b81526001600160a01b03851660048201526024016103db565b60065460ff166105ce57604051638dfc202b60e01b815260040160405180910390fd5b60006020808352835180602085015260005b81811015610eb857858101830151858201604001528201610e9c565b506000604082860101526040601f19601f8301168501019250505092915050565b80356001600160a01b0381168114610ef057600080fd5b919050565b60008060408385031215610f0857600080fd5b610f1183610ed9565b946020939093013593505050565b600080600060608486031215610f3457600080fd5b610f3d84610ed9565b9250610f4b60208501610ed9565b9150604084013590509250925092565b600060208284031215610f6d57600080fd5b5035919050565b600060208284031215610f8657600080fd5b610f8f82610ed9565b9392505050565b60008060408385031215610fa957600080fd5b610fb283610ed9565b9150610fc060208401610ed9565b90509250929050565b600181811c90821680610fdd57607f821691505b602082108103610ffd57634e487b7160e01b600052602260045260246000fd5b50919050565b60006020828403121561101557600080fd5b5051919050565b634e487b7160e01b600052601160045260246000fd5b80820281158282048414176103555761035561101c565b60008261106657634e487b7160e01b600052601260045260246000fd5b500490565b60006020828403121561107d57600080fd5b81518015158114610f8f57600080fd5b60208082526024908201527f43616c6c6572206973206e6f7420616e20617574686f72697a656420676f7665604082015263393737b960e11b606082015260800190565b818103818111156103555761035561101c565b808201808211156103555761035561101c56fea26469706673582212206860140128c2959009f343ebbe28f1ec2f96e66b5188e49e042b5c16617c9e8364736f6c63430008180033",
  "linkReferences": {},
  "deployedLinkReferences": {}
}