{
  "_format": "hh-sol-artifact-1",
  "contractName": "NashConsensusRegistry",
  "sourceName": "contracts/NashConsensusRegistry.sol",
  "abi": [
    {
      "inputs": [
        {
          "internalType": "address",
          "name": "_symToken",
          "type": "address"
        }
      ],
      "stateMutability": "nonpayable",
      "type": "constructor"
    },
    {
      "inputs": [],
      "name": "EnforcedPause",
      "type": "error"
    },
    {
      "inputs": [],
      "name": "ExpectedPause",
      "type": "error"
    },
    {
      "inputs": [],
      "name": "ReentrancyGuardReentrantCall",
      "type": "error"
    },
    {
      "inputs": [
        {
          "internalType": "address",
          "name": "token",
          "type": "address"
        }
      ],
      "name": "SafeERC20FailedOperation",
      "type": "error"
    },
    {
      "anonymous": false,
      "inputs": [
        {
          "indexed": true,
          "internalType": "address",
          "name": "node",
          "type": "address"
        },
        {
          "indexed": false,
          "internalType": "uint256",
          "name": "slashedAmount",
          "type": "uint256"
        },
        {
          "indexed": false,
          "internalType": "string",
          "name": "reason",
          "type": "string"
        }
      ],
      "name": "NodeSlashed",
      "type": "event"
    },
    {
      "anonymous": false,
      "inputs": [
        {
          "indexed": false,
          "internalType": "string",
          "name": "name",
          "type": "string"
        },
        {
          "indexed": false,
          "internalType": "uint256",
          "name": "value",
          "type": "uint256"
        }
      ],
      "name": "ParameterUpdated",
      "type": "event"
    },
    {
      "anonymous": false,
      "inputs": [
        {
          "indexed": false,
          "internalType": "address",
          "name": "account",
          "type": "address"
        }
      ],
      "name": "Paused",
      "type": "event"
    },
    {
      "anonymous": false,
      "inputs": [
        {
          "indexed": true,
          "internalType": "address",
          "name": "validator",
          "type": "address"
        },
        {
          "indexed": false,
          "internalType": "uint256",
          "name": "newReputation",
          "type": "uint256"
        }
      ],
      "name": "ReputationBoosted",
      "type": "event"
    },
    {
      "anonymous": false,
      "inputs": [
        {
          "indexed": false,
          "internalType": "address",
          "name": "account",
          "type": "address"
        }
      ],
      "name": "Unpaused",
      "type": "event"
    },
    {
      "anonymous": false,
      "inputs": [
        {
          "indexed": true,
          "internalType": "address",
          "name": "node",
          "type": "address"
        },
        {
          "indexed": false,
          "internalType": "uint256",
          "name": "initialStake",
          "type": "uint256"
        }
      ],
      "name": "ValidatorRegistered",
      "type": "event"
    },
    {
      "inputs": [
        {
          "internalType": "address",
          "name": "",
          "type": "address"
        }
      ],
      "name": "accumulatedRewards",
      "outputs": [
        {
          "internalType": "uint256",
          "name": "",
          "type": "uint256"
        }
      ],
      "stateMutability": "view",
      "type": "function"
    },
    {
      "inputs": [
        {
          "internalType": "address",
          "name": "validator",
          "type": "address"
        },
        {
          "internalType": "uint256",
          "name": "boostAmount",
          "type": "uint256"
        }
      ],
      "name": "boostReputationWithZk",
      "outputs": [],
      "stateMutability": "nonpayable",
      "type": "function"
    },
    {
      "inputs": [
        {
          "internalType": "uint256",
          "name": "rewardAmount",
          "type": "uint256"
        }
      ],
      "name": "claimValidatorRewards",
      "outputs": [],
      "stateMutability": "nonpayable",
      "type": "function"
    },
    {
      "inputs": [
        {
          "internalType": "address",
          "name": "",
          "type": "address"
        }
      ],
      "name": "falconPublicKeys",
      "outputs": [
        {
          "internalType": "bytes",
          "name": "",
          "type": "bytes"
        }
      ],
      "stateMutability": "view",
      "type": "function"
    },
    {
      "inputs": [],
      "name": "initiateValidatorExit",
      "outputs": [],
      "stateMutability": "nonpayable",
      "type": "function"
    },
    {
      "inputs": [
        {
          "internalType": "address",
          "name": "",
          "type": "address"
        }
      ],
      "name": "lastClaimBlock",
      "outputs": [
        {
          "internalType": "uint256",
          "name": "",
          "type": "uint256"
        }
      ],
      "stateMutability": "view",
      "type": "function"
    },
    {
      "inputs": [],
      "name": "pause",
      "outputs": [],
      "stateMutability": "nonpayable",
      "type": "function"
    },
    {
      "inputs": [],
      "name": "paused",
      "outputs": [
        {
          "internalType": "bool",
          "name": "",
          "type": "bool"
        }
      ],
      "stateMutability": "view",
      "type": "function"
    },
    {
      "inputs": [
        {
          "internalType": "uint256",
          "name": "initialStake",
          "type": "uint256"
        },
        {
          "internalType": "bytes",
          "name": "falconPubKey",
          "type": "bytes"
        }
      ],
      "name": "registerValidator",
      "outputs": [],
      "stateMutability": "nonpayable",
      "type": "function"
    },
    {
      "inputs": [
        {
          "internalType": "uint256",
          "name": "newPercent",
          "type": "uint256"
        }
      ],
      "name": "setSlashPenaltyPercent",
      "outputs": [],
      "stateMutability": "nonpayable",
      "type": "function"
    },
    {
      "inputs": [
        {
          "internalType": "uint256",
          "name": "newPeriod",
          "type": "uint256"
        }
      ],
      "name": "setUnbondingPeriod",
      "outputs": [],
      "stateMutability": "nonpayable",
      "type": "function"
    },
    {
      "inputs": [
        {
          "internalType": "address",
          "name": "zkProverRegistryAddress",
          "type": "address"
        }
      ],
      "name": "setZkProverRegistry",
      "outputs": [],
      "stateMutability": "nonpayable",
      "type": "function"
    },
    {
      "inputs": [],
      "name": "slashPenaltyPercent",
      "outputs": [
        {
          "internalType": "uint256",
          "name": "",
          "type": "uint256"
        }
      ],
      "stateMutability": "view",
      "type": "function"
    },
    {
      "inputs": [
        {
          "internalType": "uint256",
          "name": "blockCount",
          "type": "uint256"
        }
      ],
      "name": "submitBlockVerification",
      "outputs": [],
      "stateMutability": "nonpayable",
      "type": "function"
    },
    {
      "inputs": [],
      "name": "symToken",
      "outputs": [
        {
          "internalType": "contract SymbiosisToken",
          "name": "",
          "type": "address"
        }
      ],
      "stateMutability": "view",
      "type": "function"
    },
    {
      "inputs": [
        {
          "internalType": "address",
          "name": "guiltyNode",
          "type": "address"
        },
        {
          "internalType": "address",
          "name": "whistleblower",
          "type": "address"
        },
        {
          "internalType": "uint256",
          "name": "blockNumber",
          "type": "uint256"
        },
        {
          "internalType": "bytes32",
          "name": "blockHash1",
          "type": "bytes32"
        },
        {
          "internalType": "bytes",
          "name": "sig1",
          "type": "bytes"
        },
        {
          "internalType": "bytes32",
          "name": "blockHash2",
          "type": "bytes32"
        },
        {
          "internalType": "bytes",
          "name": "sig2",
          "type": "bytes"
        }
      ],
      "name": "triggerLazySlashing",
      "outputs": [],
      "stateMutability": "nonpayable",
      "type": "function"
    },
    {
      "inputs": [
        {
          "internalType": "address",
          "name": "",
          "type": "address"
        }
      ],
      "name": "unbondingEta",
      "outputs": [
        {
          "internalType": "uint256",
          "name": "",
          "type": "uint256"
        }
      ],
      "stateMutability": "view",
      "type": "function"
    },
    {
      "inputs": [],
      "name": "unbondingPeriod",
      "outputs": [
        {
          "internalType": "uint256",
          "name": "",
          "type": "uint256"
        }
      ],
      "stateMutability": "view",
      "type": "function"
    },
    {
      "inputs": [],
      "name": "unpause",
      "outputs": [],
      "stateMutability": "nonpayable",
      "type": "function"
    },
    {
      "inputs": [
        {
          "internalType": "address",
          "name": "",
          "type": "address"
        }
      ],
      "name": "validators",
      "outputs": [
        {
          "internalType": "uint256",
          "name": "stakedAmount",
          "type": "uint256"
        },
        {
          "internalType": "uint256",
          "name": "totalBlocksChecked",
          "type": "uint256"
        },
        {
          "internalType": "uint256",
          "name": "lastVerifiedBlock",
          "type": "uint256"
        },
        {
          "internalType": "uint256",
          "name": "reputation",
          "type": "uint256"
        },
        {
          "internalType": "bool",
          "name": "isSlashed",
          "type": "bool"
        }
      ],
      "stateMutability": "view",
      "type": "function"
    },
    {
      "inputs": [
        {
          "internalType": "address",
          "name": "validator",
          "type": "address"
        },
        {
          "internalType": "bytes32",
          "name": "blockHash",
          "type": "bytes32"
        },
        {
          "internalType": "bytes",
          "name": "signature",
          "type": "bytes"
        }
      ],
      "name": "verifyFalconSignature",
      "outputs": [
        {
          "internalType": "bool",
          "name": "",
          "type": "bool"
        }
      ],
      "stateMutability": "view",
      "type": "function"
    },
    {
      "inputs": [],
      "name": "withdrawValidatorStake",
      "outputs": [],
      "stateMutability": "nonpayable",
      "type": "function"
    },
    {
      "inputs": [],
      "name": "zkProverRegistryAddr",
      "outputs": [
        {
          "internalType": "address",
          "name": "",
          "type": "address"
        }
      ],
      "stateMutability": "view",
      "type": "function"
    }
  ],
  "bytecode": "0x60a0604052600f600355620151806004553480156200001d57600080fd5b50604051620059bf380380620059bf833981810160405281019062000043919062000228565b60016000819055506000600160006101000a81548160ff0219169083151502179055506200008267b9a6a0a51544c50860c01b620001bb60201b60201c565b6200009e6745dd5205db12084560c01b620001bb60201b60201c565b620000ba676d1d44889aef29a960c01b620001bb60201b60201c565b620000d6677ab31aa9b7beff1160c01b620001bb60201b60201c565b600073ffffffffffffffffffffffffffffffffffffffff168173ffffffffffffffffffffffffffffffffffffffff160362000148576040517f08c379a00000000000000000000000000000000000000000000000000000000081526004016200013f90620002bb565b60405180910390fd5b6200016467e3677a932ff5144d60c01b620001bb60201b60201c565b6200018067342d3d1ad0ce379f60c01b620001bb60201b60201c565b8073ffffffffffffffffffffffffffffffffffffffff1660808173ffffffffffffffffffffffffffffffffffffffff168152505050620002dd565b50565b600080fd5b600073ffffffffffffffffffffffffffffffffffffffff82169050919050565b6000620001f082620001c3565b9050919050565b6200020281620001e3565b81146200020e57600080fd5b50565b6000815190506200022281620001f7565b92915050565b600060208284031215620002415762000240620001be565b5b6000620002518482850162000211565b91505092915050565b600082825260208201905092915050565b7f496e76616c696420746f6b656e20616464726573730000000000000000000000600082015250565b6000620002a36015836200025a565b9150620002b0826200026b565b602082019050919050565b60006020820190508181036000830152620002d68162000294565b9050919050565b6080516156796200034660003960008181610b3a01528181610c0a01528181610cc901528181610f77015281816112d401528181611e2a01528181611f270152818161211b015281816123c601528181612e7501528181612f81015261343701526156796000f3fe608060405234801561001057600080fd5b506004361061014d5760003560e01c8063a4511006116100c3578063e2936b5c1161007c578063e2936b5c1461033c578063e93a6c901461036c578063ea1804bb1461039c578063f63f32e8146103ba578063f7411c32146103c4578063fa52c7d8146103e05761014d565b8063a45110061461028e578063b98bcfa514610298578063bb03ccf9146102b6578063c2b58aaf146102d4578063d9ee183814610304578063df9c4273146103205761014d565b80633f4ba83a116101155780633f4ba83a146101f25780635c975abb146101fc5780636cf6d6751461021a57806373f273fc14610238578063757010e6146102685780638456cb59146102845761014d565b8063015d0b7f14610152578063114eaf551461016e578063150f28ef1461018a57806319343745146101a6578063295cccba146101d6575b600080fd5b61016c60048036038101906101679190613dbd565b610414565b005b61018860048036038101906101839190613e9f565b610c63565b005b6101a4600480360381019061019f9190613ecc565b610f11565b005b6101c060048036038101906101bb919061403a565b6111b5565b6040516101cd91906140c4565b60405180910390f35b6101f060048036038101906101eb9190613e9f565b611983565b005b6101fa611ec1565b005b610204612080565b60405161021191906140c4565b60405180910390f35b610222612097565b60405161022f91906140ee565b60405180910390f35b610252600480360381019061024d9190613ecc565b61209d565b60405161025f91906140ee565b60405180910390f35b610282600480360381019061027d9190613e9f565b6120b5565b005b61028c612360565b005b61029661251f565b005b6102a06126d7565b6040516102ad91906140ee565b60405180910390f35b6102be6126dd565b6040516102cb9190614118565b60405180910390f35b6102ee60048036038101906102e99190613ecc565b612703565b6040516102fb91906140ee565b60405180910390f35b61031e60048036038101906103199190614133565b61271b565b005b61033a60048036038101906103359190614173565b612a27565b005b61035660048036038101906103519190613ecc565b612ec7565b6040516103639190614252565b60405180910390f35b61038660048036038101906103819190613ecc565b612f67565b60405161039391906140ee565b60405180910390f35b6103a4612f7f565b6040516103b191906142d3565b60405180910390f35b6103c2612fa3565b005b6103de60048036038101906103d99190613e9f565b613488565b005b6103fa60048036038101906103f59190613ecc565b61388b565b60405161040b9594939291906142ee565b60405180910390f35b6104286779f864cff3c87f0360c01b6138ce565b6104306138d1565b61044467b7b0de846b692ec360c01b6138ce565b61045867ed70a7e40bce1d2160c01b6138ce565b610460613917565b6104746778372cc59759b7cc60c01b6138ce565b610488671b44c75bbf62f14d60c01b6138ce565b61049c67358d6147d3b2d07760c01b6138ce565b6104b067865c683bd8570d9a60c01b6138ce565b617a694614610604576104cd6765a41082bbbda26a60c01b6138ce565b6104e1677e792e60b14478e560c01b6138ce565b6104f567bf325544d509768f60c01b6138ce565b61050967a8812745a086fb9d60c01b6138ce565b8643101561054c576040517f08c379a00000000000000000000000000000000000000000000000000000000081526004016105439061439e565b60405180910390fd5b610560672774093055a34abc60c01b6138ce565b61057467a07cbb6a97a4b06d60c01b6138ce565b61058867c09c55b6059579e260c01b6138ce565b61059c67a7d9cf8276d2a57860c01b6138ce565b6103e887436105ab91906143ed565b106105eb576040517f08c379a00000000000000000000000000000000000000000000000000000000081526004016105e29061446d565b60405180910390fd5b6105ff67849608838e51438360c01b6138ce565b610619565b610618673935888c6faf39f460c01b6138ce565b5b61062d67d674a677dd4c580a60c01b6138ce565b61064167eadefca916635cca60c01b6138ce565b6000600260008b73ffffffffffffffffffffffffffffffffffffffff1673ffffffffffffffffffffffffffffffffffffffff1681526020019081526020016000209050610698670e9058934f5242db60c01b6138ce565b6106ac67c843d08645486e6b60c01b6138ce565b6106c067a2b2cbd613118c8c60c01b6138ce565b8060040160009054906101000a900460ff1615610712576040517f08c379a0000000000000000000000000000000000000000000000000000000008152600401610709906144d9565b60405180910390fd5b610726672d4e88a0f7b5be9760c01b6138ce565b61073a67d4175b3c911fd05360c01b6138ce565b61074e673a9c14ccd51a592e60c01b6138ce565b61076267597ebc38943a452c60c01b6138ce565b8387036107a4576040517f08c379a000000000000000000000000000000000000000000000000000000000815260040161079b90614545565b60405180910390fd5b6107b867046de9b879d9cf4460c01b6138ce565b6107cc67844d8f0acacac3b560c01b6138ce565b6001600960006101000a81548160ff0219169083151502179055506107fb674a7bc0d18d00d01b60c01b6138ce565b61080f67146fc9f016726cf760c01b6138ce565b610823671a18c2d350308a6860c01b6138ce565b6108728a8888888080601f016020809104026020016040519081016040528093929190818152602001838380828437600081840152601f19601f820116905080830192505050505050506111b5565b6108b1576040517f08c379a00000000000000000000000000000000000000000000000000000000081526004016108a8906145b1565b60405180910390fd5b6108c567a4525fd1b5e7c7a360c01b6138ce565b6108d9670bc6edd2d1894ff360c01b6138ce565b6108ed67b746b1c3bd0ec15760c01b6138ce565b610901670af8a731b6085e7660c01b6138ce565b6109508a8585858080601f016020809104026020016040519081016040528093929190818152602001838380828437600081840152601f19601f820116905080830192505050505050506111b5565b61098f576040517f08c379a00000000000000000000000000000000000000000000000000000000081526004016109869061461d565b60405180910390fd5b6109a36778a95b3ae2597a8d60c01b6138ce565b6109b767db445a6475931fe660c01b6138ce565b6000600960006101000a81548160ff0219169083151502179055506109e66735ba7807ffe90b9760c01b6138ce565b6109fa67984b21d1ac6b0d9f60c01b6138ce565b600060646003548360000154610a10919061463d565b610a1a91906146ae565b9050610a3067d789a4e3a041e6d860c01b6138ce565b80826000016000828254610a4491906143ed565b92505081905550610a5f67d38086ee5ac8d15f60c01b6138ce565b60018260040160006101000a81548160ff021916908315150217905550610a90675e994c20868f7acc60c01b6138ce565b60008260030181905550610aae675c5d61becb72a6a160c01b6138ce565b610ac267bbb970eefec4158160c01b6138ce565b8a73ffffffffffffffffffffffffffffffffffffffff167f992bebd8a6e574d4b441fbc6155cf5486a16f70f9003d8189f63374675c5022b82604051610b089190614751565b60405180910390a2610b246784c0251d0430017960c01b6138ce565b610b38675060b6e9f4ff2db260c01b6138ce565b7f000000000000000000000000000000000000000000000000000000000000000073ffffffffffffffffffffffffffffffffffffffff166342966c68600283610b8191906146ae565b6040518263ffffffff1660e01b8152600401610b9d91906140ee565b600060405180830381600087803b158015610bb757600080fd5b505af1158015610bcb573d6000803e3d6000fd5b50505050610be36758e659bc292b97b160c01b6138ce565b610bf76755d81733b98d2ac860c01b6138ce565b610c4e8a600283610c0891906146ae565b7f000000000000000000000000000000000000000000000000000000000000000073ffffffffffffffffffffffffffffffffffffffff166139589092919063ffffffff16565b5050610c586139d7565b505050505050505050565b610c7767f4336e5bdfb91fe860c01b6138ce565b610c8b6797509f603969829460c01b6138ce565b610c9f67bdaefe06d5b5aaa160c01b6138ce565b610cb367ef3378821da3caf960c01b6138ce565b610cc767fe5bf63cc7dda4fb60c01b6138ce565b7f000000000000000000000000000000000000000000000000000000000000000073ffffffffffffffffffffffffffffffffffffffff1663e43581b8336040518263ffffffff1660e01b8152600401610d209190614118565b602060405180830381865afa158015610d3d573d6000803e3d6000fd5b505050506040513d601f19601f82011682018060405250810190610d6191906147ab565b610da0576040517f08c379a0000000000000000000000000000000000000000000000000000000008152600401610d979061484a565b60405180910390fd5b610db467636be2a916959afd60c01b6138ce565b610dc867e6e8ede0f1c6f64560c01b6138ce565b610ddc673ae1ce1533ecc44b60c01b6138ce565b610df067cfebfe842a3655c160c01b6138ce565b610e0467a63cc3e50053ad6c60c01b6138ce565b610e1867cba7df0ffd82254c60c01b6138ce565b610e2c674d52f505fb9e0a2b60c01b6138ce565b610e108110158015610e41575062278d008111155b610e80576040517f08c379a0000000000000000000000000000000000000000000000000000000008152600401610e77906148b6565b60405180910390fd5b610e94678c56b8c12f984de160c01b6138ce565b610ea8673779265ffe5adc0560c01b6138ce565b80600481905550610ec36787dcf3cc36d882af60c01b6138ce565b610ed7675b8bc2d1805f069f60c01b6138ce565b7f3a64504f0bc0c335e2aecb78638a257e0351a3fe0370861fd54ee4190b92093381604051610f069190614922565b60405180910390a150565b610f25676b0ac5c6225411f860c01b6138ce565b610f396797509f603969829460c01b6138ce565b610f4d67bdaefe06d5b5aaa160c01b6138ce565b610f6167ef3378821da3caf960c01b6138ce565b610f7567fe5bf63cc7dda4fb60c01b6138ce565b7f000000000000000000000000000000000000000000000000000000000000000073ffffffffffffffffffffffffffffffffffffffff1663e43581b8336040518263ffffffff1660e01b8152600401610fce9190614118565b602060405180830381865afa158015610feb573d6000803e3d6000fd5b505050506040513d601f19601f8201168201806040525081019061100f91906147ab565b61104e576040517f08c379a00000000000000000000000000000000000000000000000000000000081526004016110459061484a565b60405180910390fd5b61106267636be2a916959afd60c01b6138ce565b61107667e6e8ede0f1c6f64560c01b6138ce565b61108a6706b929d06b8acfd860c01b6138ce565b61109e6771cf7fa3b5fb5b9d60c01b6138ce565b6110b2670729ea82b90ceff460c01b6138ce565b6110c667f482ea03b1cb47d160c01b6138ce565b6110da674ad42de45da71e9c60c01b6138ce565b600073ffffffffffffffffffffffffffffffffffffffff168173ffffffffffffffffffffffffffffffffffffffff1603611149576040517f08c379a00000000000000000000000000000000000000000000000000000000081526004016111409061499c565b60405180910390fd5b61115d67fca1fb463aebbd5460c01b6138ce565b611171671362e9485cd5628c60c01b6138ce565b80600960016101000a81548173ffffffffffffffffffffffffffffffffffffffff021916908373ffffffffffffffffffffffffffffffffffffffff16021790555050565b60006111cb6775d0604431b026e060c01b6138ce565b6111df671c33c2b60a15327e60c01b6138ce565b6111f367aced68a4efa401bc60c01b6138ce565b61120767c5fbe265f551fbbc60c01b6138ce565b61121b67f0629b39bcb4326e60c01b6138ce565b600960009054906101000a900460ff1680156112475750611246676cb01f6d9d15f90660c01b6139e1565b5b806112cc57506000600260003373ffffffffffffffffffffffffffffffffffffffff1673ffffffffffffffffffffffffffffffffffffffff168152602001908152602001600020600001541180156112af57506112ae675ea1174ac38133d360c01b6139e1565b5b80156112cb57506112ca6750def2d7d5d8c1dd60c01b6139e1565b5b5b8061138957507f000000000000000000000000000000000000000000000000000000000000000073ffffffffffffffffffffffffffffffffffffffff1663e43581b8336040518263ffffffff1660e01b815260040161132b9190614118565b602060405180830381865afa158015611348573d6000803e3d6000fd5b505050506040513d601f19601f8201168201806040525081019061136c91906147ab565b80156113885750611387674d717f73cbe1eb5560c01b6139e1565b5b5b6113c8576040517f08c379a00000000000000000000000000000000000000000000000000000000081526004016113bf90614a08565b60405180910390fd5b6113dc67bb62d146cc45f1fc60c01b6138ce565b6113f0671976b1757d39cb1960c01b6138ce565b611404677b6ea29388af1d5f60c01b6138ce565b6114186797650e694438a74e60c01b6138ce565b61142c679255c7d8ada89e4760c01b6138ce565b61144067df3d729a8e8e622660c01b6138ce565b611454671a3f4016e44e70d360c01b6138ce565b600073ffffffffffffffffffffffffffffffffffffffff168473ffffffffffffffffffffffffffffffffffffffff16036114c3576040517f08c379a00000000000000000000000000000000000000000000000000000000081526004016114ba90614a74565b60405180910390fd5b6114d76716e4d5fda3a7b72660c01b6138ce565b6114ea668d90fa2e6bc94560c01b6138ce565b6114fe676069936c460547d560c01b6138ce565b611512671a6abdc5124160df60c01b6138ce565b60408251101580156115345750611533675b63376b88e89b8a60c01b6139e1565b5b8061155c57506063825114801561155b575061155a6718f5dd4c042aa04560c01b6139e1565b5b5b61159b576040517f08c379a000000000000000000000000000000000000000000000000000000000815260040161159290614b06565b60405180910390fd5b6115af67e0f64d92cf0ee3be60c01b6138ce565b6115c367c67cef0d081b690360c01b6138ce565b6115d767e470af261d11bac460c01b6138ce565b6000600560008673ffffffffffffffffffffffffffffffffffffffff1673ffffffffffffffffffffffffffffffffffffffff168152602001908152602001600020805461162390614b55565b80601f016020809104026020016040519081016040528092919081815260200182805461164f90614b55565b801561169c5780601f106116715761010080835404028352916020019161169c565b820191906000526020600020905b81548152906001019060200180831161167f57829003601f168201915b505050505090506116b7676d0f33d24780bc9d60c01b6138ce565b6116cb67cafffe2735181dab60c01b6138ce565b600081510361171a576116e86798e0593facd0260260c01b6138ce565b6116fc670dd05af2fdba0b9660c01b6138ce565b6117106746eb530e44c79fa360c01b6138ce565b600091505061197c565b61172e6737f173a4ac60d94f60c01b6138ce565b61174267b22e20ab3d25dad060c01b6138ce565b61175667ff76d12f2b185efe60c01b6138ce565b600061176c67fa59403fd4d6237e60c01b6138ce565b6040518581528460208201528260838201526020600060a38360f9620493e0fa9150506117a367a637943b5c86872260c01b6138ce565b6117b7670d33fffcb462011360c01b6138ce565b80611939576117d0679f156e47277389e760c01b6138ce565b6117e467676851704bb9a91160c01b6138ce565b6117f867fdd78218f26054fa60c01b6138ce565b617a694603611890576118156701cc79ef1e7829c860c01b6138ce565b6118296789af485b99991d1e60c01b6138ce565b61183d6704d2432e45d6c6b160c01b6138ce565b6063845114801561185e575061185d674ad5ff042b3c8f7e60c01b6139e1565b5b806118875750604084511015801561188657506118856758ff0a6154f4d80360c01b6139e1565b5b5b9250505061197c565b6118a467837995c4398da61560c01b6138ce565b6118b8670d0e17ecf61feb9960c01b6138ce565b6118cc67f1a575b089f775f560c01b6138ce565b6118e067b892e18463b50d0a60c01b6138ce565b80611920576040517f08c379a000000000000000000000000000000000000000000000000000000000815260040161191790614bf8565b60405180910390fd5b61193467f54ba4bc4aa9cf2b60c01b6138ce565b61194e565b61194d67ab09c18ffcdc3f5160c01b6138ce565b5b6119626766320469c740e31860c01b6138ce565b61197667442afc078044744060c01b6138ce565b80925050505b9392505050565b611997675f3da14b26b02b6260c01b6138ce565b61199f6138d1565b6119b367061d563f27f8ac2e60c01b6138ce565b6119c767ea4c3993eb1fa4fa60c01b6138ce565b6119cf613917565b6119e36702c8204bc2d08f2460c01b6138ce565b6119f76759a622256baab54a60c01b6138ce565b611a0b674ab149293dd6a8fc60c01b6138ce565b611a1f6736f979135886ec0860c01b6138ce565b611a33675d8ddeb0dc79d65d60c01b6138ce565b6000600260003373ffffffffffffffffffffffffffffffffffffffff1673ffffffffffffffffffffffffffffffffffffffff1681526020019081526020016000206000015411611ab8576040517f08c379a0000000000000000000000000000000000000000000000000000000008152600401611aaf90614c64565b60405180910390fd5b611acc67a3205f3fd7999f9760c01b6138ce565b611ae067419278923ba3ae3d60c01b6138ce565b611af467a627715e5c4137c860c01b6138ce565b611b08675b5554f51192199260c01b6138ce565b600260003373ffffffffffffffffffffffffffffffffffffffff1673ffffffffffffffffffffffffffffffffffffffff16815260200190815260200160002060040160009054906101000a900460ff1615611b98576040517f08c379a0000000000000000000000000000000000000000000000000000000008152600401611b8f90614cf6565b60405180910390fd5b611bac670b296eb3ecb8486a60c01b6138ce565b611bc067cbe81e9ea7e7fa7260c01b6138ce565b611bd467a22d2c1fb7412a7360c01b6138ce565b6000600760003373ffffffffffffffffffffffffffffffffffffffff1673ffffffffffffffffffffffffffffffffffffffff168152602001908152602001600020549050611c2c670c9934023d29787260c01b6138ce565b611c406706302c9fd38f2a7d60c01b6138ce565b611c54675b3c88d8f29444cf60c01b6138ce565b60008211611c97576040517f08c379a0000000000000000000000000000000000000000000000000000000008152600401611c8e90614d62565b60405180910390fd5b611cab6748bc1fd1e64c3fc860c01b6138ce565b611cbf6713f984ae98d129b360c01b6138ce565b611cd367e70049ac57b8dfaa60c01b6138ce565b611ce7670fe33eb35b07755d60c01b6138ce565b80821115611d2a576040517f08c379a0000000000000000000000000000000000000000000000000000000008152600401611d2190614dce565b60405180910390fd5b611d3e67155d6c32e56a7aa060c01b6138ce565b611d5267c9f4a1246696d06c60c01b6138ce565b81600760003373ffffffffffffffffffffffffffffffffffffffff1673ffffffffffffffffffffffffffffffffffffffff1681526020019081526020016000206000828254611da191906143ed565b92505081905550611dbc67fbea1a88cc73cf4860c01b6138ce565b43600860003373ffffffffffffffffffffffffffffffffffffffff1673ffffffffffffffffffffffffffffffffffffffff16815260200190815260200160002081905550611e1467aa15f18a89b0ae0860c01b6138ce565b611e286708587e7e5224c3ee60c01b6138ce565b7f000000000000000000000000000000000000000000000000000000000000000073ffffffffffffffffffffffffffffffffffffffff1663e307495133846040518363ffffffff1660e01b8152600401611e83929190614dee565b600060405180830381600087803b158015611e9d57600080fd5b505af1158015611eb1573d6000803e3d6000fd5b5050505050611ebe6139d7565b50565b611ed5679ce9afb6e41871e560c01b6138ce565b611ee96797509f603969829460c01b6138ce565b611efd67bdaefe06d5b5aaa160c01b6138ce565b611f1167ef3378821da3caf960c01b6138ce565b611f2567fe5bf63cc7dda4fb60c01b6138ce565b7f000000000000000000000000000000000000000000000000000000000000000073ffffffffffffffffffffffffffffffffffffffff1663e43581b8336040518263ffffffff1660e01b8152600401611f7e9190614118565b602060405180830381865afa158015611f9b573d6000803e3d6000fd5b505050506040513d601f19601f82011682018060405250810190611fbf91906147ab565b611ffe576040517f08c379a0000000000000000000000000000000000000000000000000000000008152600401611ff59061484a565b60405180910390fd5b61201267636be2a916959afd60c01b6138ce565b61202667e6e8ede0f1c6f64560c01b6138ce565b61203a676ef6f91bc868928960c01b6138ce565b61204e6751b250649322555c60c01b6138ce565b61206267397a1a861831364760c01b6138ce565b612076674cbbe77fb1f9b0bc60c01b6138ce565b61207e6139ec565b565b6000600160009054906101000a900460ff16905090565b60045481565b60076020528060005260406000206000915090505481565b6120c9673f065aa5d5378d7c60c01b6138ce565b6120dd6797509f603969829460c01b6138ce565b6120f167bdaefe06d5b5aaa160c01b6138ce565b61210567ef3378821da3caf960c01b6138ce565b61211967fe5bf63cc7dda4fb60c01b6138ce565b7f000000000000000000000000000000000000000000000000000000000000000073ffffffffffffffffffffffffffffffffffffffff1663e43581b8336040518263ffffffff1660e01b81526004016121729190614118565b602060405180830381865afa15801561218f573d6000803e3d6000fd5b505050506040513d601f19601f820116820180604052508101906121b391906147ab565b6121f2576040517f08c379a00000000000000000000000000000000000000000000000000000000081526004016121e99061484a565b60405180910390fd5b61220667636be2a916959afd60c01b6138ce565b61221a67e6e8ede0f1c6f64560c01b6138ce565b61222e67632a6b82580218c660c01b6138ce565b612242672885826748d710db60c01b6138ce565b61225667dcb420475e994e1060c01b6138ce565b61226a6770f7436e746818cb60c01b6138ce565b61227e6781c31e9892e7403f60c01b6138ce565b60058110158015612290575060328111155b6122cf576040517f08c379a00000000000000000000000000000000000000000000000000000000081526004016122c690614e63565b60405180910390fd5b6122e367037f4ed6b706df0260c01b6138ce565b6122f767c2e308dcb30c7f0c60c01b6138ce565b806003819055506123126706cce26714e66bcc60c01b6138ce565b612326672dcffc2aebd596d860c01b6138ce565b7f3a64504f0bc0c335e2aecb78638a257e0351a3fe0370861fd54ee4190b920933816040516123559190614ecf565b60405180910390a150565b61237467e4c34a96dc98bbd160c01b6138ce565b6123886797509f603969829460c01b6138ce565b61239c67bdaefe06d5b5aaa160c01b6138ce565b6123b067ef3378821da3caf960c01b6138ce565b6123c467fe5bf63cc7dda4fb60c01b6138ce565b7f000000000000000000000000000000000000000000000000000000000000000073ffffffffffffffffffffffffffffffffffffffff1663e43581b8336040518263ffffffff1660e01b815260040161241d9190614118565b602060405180830381865afa15801561243a573d6000803e3d6000fd5b505050506040513d601f19601f8201168201806040525081019061245e91906147ab565b61249d576040517f08c379a00000000000000000000000000000000000000000000000000000000081526004016124949061484a565b60405180910390fd5b6124b167636be2a916959afd60c01b6138ce565b6124c567e6e8ede0f1c6f64560c01b6138ce565b6124d9676aafec680218789b60c01b6138ce565b6124ed67271e4af4a1c8852460c01b6138ce565b612501675e8bc930890c79a460c01b6138ce565b612515676b2802e14ffcd06860c01b6138ce565b61251d613a4f565b565b612533676a13e9580d3e366f60c01b6138ce565b61253b6138d1565b61254f67319696c4466825f260c01b6138ce565b61256367c3b5e3615349d56660c01b6138ce565b61256b613917565b61257f67cbd10db4b2dd49aa60c01b6138ce565b612593673f38d6f60e0e03cb60c01b6138ce565b6125a767eb59379bb592a97560c01b6138ce565b6125bb67a6ff2f657bcc157160c01b6138ce565b6125cf67fe3027729b463fd860c01b6138ce565b6000600260003373ffffffffffffffffffffffffffffffffffffffff1673ffffffffffffffffffffffffffffffffffffffff1681526020019081526020016000206000015411612654576040517f08c379a000000000000000000000000000000000000000000000000000000000815260040161264b90614f49565b60405180910390fd5b6126686713d643a7b73392ca60c01b6138ce565b61267c67c34faf31a510181f60c01b6138ce565b6004544261268a9190614f69565b600660003373ffffffffffffffffffffffffffffffffffffffff1673ffffffffffffffffffffffffffffffffffffffff168152602001908152602001600020819055506126d56139d7565b565b60035481565b600960019054906101000a900473ffffffffffffffffffffffffffffffffffffffff1681565b60066020528060005260406000206000915090505481565b61272f67a5a90ba991f8e57f60c01b6138ce565b61274367c04b02d98695344160c01b6138ce565b61275767ad91607a3464a62e60c01b6138ce565b61276b67d545118e68f3ffed60c01b6138ce565b600960019054906101000a900473ffffffffffffffffffffffffffffffffffffffff1673ffffffffffffffffffffffffffffffffffffffff163373ffffffffffffffffffffffffffffffffffffffff16146127fb576040517f08c379a00000000000000000000000000000000000000000000000000000000081526004016127f29061500f565b60405180910390fd5b61280f674f535c68289b034660c01b6138ce565b61282367ecee0522a1745d7360c01b6138ce565b61283767037b972fd850b0e960c01b6138ce565b6000600260008473ffffffffffffffffffffffffffffffffffffffff1673ffffffffffffffffffffffffffffffffffffffff168152602001908152602001600020905061288e6770155f097d4e9b2860c01b6138ce565b6128a267dc4764abea13ba6960c01b6138ce565b600081600001541180156128c557508060040160009054906101000a900460ff16155b15612a0d576128de67bec42351a8ff3f7660c01b6138ce565b6128f2679d0c0b5d351048c960c01b6138ce565b818160030160008282546129069190614f69565b92505081905550612921674849ddde50bd0a9c60c01b6138ce565b612935678054581824962d2260c01b6138ce565b60c881600301541115612979576129566752bc86e79ee6cc8e60c01b6138ce565b61296a67062ab4631ce6a36360c01b6138ce565b60c8816003018190555061298e565b61298d670d7d8828cf3749ac60c01b6138ce565b5b6129a267a3f5ab27dd9d984160c01b6138ce565b6129b66750b67c1ad47b8a2060c01b6138ce565b8273ffffffffffffffffffffffffffffffffffffffff167ff317d3724c6cbb97cf4cf3d99a46e1439de9eabc8eb46d6a0b187c3928f7422f8260030154604051612a0091906140ee565b60405180910390a2612a22565b612a21672c4e1a2a072e171360c01b6138ce565b5b505050565b612a3b67ba82547cd813063460c01b6138ce565b612a436138d1565b612a576790e10d615f5cd6bb60c01b6138ce565b612a6b6783a66708b477cf8760c01b6138ce565b612a73613917565b612a8767ae132ef66613173e60c01b6138ce565b612a9b67500d40b6ad13a3ae60c01b6138ce565b612aaf67f186fdc2f726421360c01b6138ce565b612ac36709991ae9eb2a2e7360c01b6138ce565b612ad7673ee36c253582467560c01b6138ce565b68056bc75e2d63100000831015612b23576040517f08c379a0000000000000000000000000000000000000000000000000000000008152600401612b1a9061507b565b60405180910390fd5b612b3767b64beea4cd05871660c01b6138ce565b612b4b67e7073caaf2c1f25e60c01b6138ce565b612b5f6746bad994cac79fd560c01b6138ce565b612b7367538677855f43424f60c01b6138ce565b60008282905011612bb9576040517f08c379a0000000000000000000000000000000000000000000000000000000008152600401612bb0906150e7565b60405180910390fd5b612bcd6799adc6a3af3f771660c01b6138ce565b612be1674ead48909764079b60c01b6138ce565b612bf567be7b20b59f53fd8560c01b6138ce565b612c0967e4b0ec5b897fad4660c01b6138ce565b6000600260003373ffffffffffffffffffffffffffffffffffffffff1673ffffffffffffffffffffffffffffffffffffffff1681526020019081526020016000206000015414612c8e576040517f08c379a0000000000000000000000000000000000000000000000000000000008152600401612c8590615153565b60405180910390fd5b612ca267470981f73779444360c01b6138ce565b612cb667f15b75169fc7f41b60c01b6138ce565b6040518060a00160405280848152602001600081526020014381526020016064815260200160001515815250600260003373ffffffffffffffffffffffffffffffffffffffff1673ffffffffffffffffffffffffffffffffffffffff1681526020019081526020016000206000820151816000015560208201518160010155604082015181600201556060820151816003015560808201518160040160006101000a81548160ff021916908315150217905550905050612d80674566f596a0acd53160c01b6138ce565b8181600560003373ffffffffffffffffffffffffffffffffffffffff1673ffffffffffffffffffffffffffffffffffffffff1681526020019081526020016000209182612dce929190615320565b50612de3677633aaf1e37ec9d160c01b6138ce565b612df767c3699f447115f48660c01b6138ce565b3373ffffffffffffffffffffffffffffffffffffffff167fb4a7f5c563a0e35593d156394ed681bdc9c39467d7d722749d23862c2e4b712c84604051612e3d91906140ee565b60405180910390a2612e59676b8955e7eb61186c60c01b6138ce565b612e6d67c3593fb90bef1afe60c01b6138ce565b612eba3330857f000000000000000000000000000000000000000000000000000000000000000073ffffffffffffffffffffffffffffffffffffffff16613ab1909392919063ffffffff16565b612ec26139d7565b505050565b60056020528060005260406000206000915090508054612ee690614b55565b80601f0160208091040260200160405190810160405280929190818152602001828054612f1290614b55565b8015612f5f5780601f10612f3457610100808354040283529160200191612f5f565b820191906000526020600020905b815481529060010190602001808311612f4257829003601f168201915b505050505081565b60086020528060005260406000206000915090505481565b7f000000000000000000000000000000000000000000000000000000000000000081565b612fb767dcb5cf6e8be92f7c60c01b6138ce565b612fbf6138d1565b612fd367bf4593e0f772ec1960c01b6138ce565b612fe767ea13b6be296dd66a60c01b6138ce565b612fef613917565b61300367ece0d976c9d3a5a860c01b6138ce565b61301767760c9502576fa3d260c01b6138ce565b61302b6725d5cb8841522e9060c01b6138ce565b61303f671318be84bf7fd8d360c01b6138ce565b6000600660003373ffffffffffffffffffffffffffffffffffffffff1673ffffffffffffffffffffffffffffffffffffffff16815260200190815260200160002054905061309767401f87012373a5d060c01b6138ce565b6130ab679faea162ffb7295b60c01b6138ce565b6130bf6736f4897953be0af260c01b6138ce565b60008111613102576040517f08c379a00000000000000000000000000000000000000000000000000000000081526004016130f99061543c565b60405180910390fd5b61311667ad7b2c6a9197aca060c01b6138ce565b61312a674cd78400d05fbce760c01b6138ce565b61313e67a5517ad6f130845260c01b6138ce565b61315267b3fe0ccde76d502260c01b6138ce565b80421015613195576040517f08c379a000000000000000000000000000000000000000000000000000000000815260040161318c906154a8565b60405180910390fd5b6131a9673bb1ec7e8d76216260c01b6138ce565b6131bd67f5b2d48a9a626a2660c01b6138ce565b6131d1677f69a1616733e81760c01b6138ce565b6000600260003373ffffffffffffffffffffffffffffffffffffffff1673ffffffffffffffffffffffffffffffffffffffff168152602001908152602001600020905061322867d9a1be175ac727fe60c01b6138ce565b61323c675db53bd83765cd3960c01b6138ce565b60008160000154905061325967e0afce6cb77489b260c01b6138ce565b61326d6718837b2911f4cde760c01b6138ce565b613281671c22a57f63fca0f260c01b6138ce565b600081116132c4576040517f08c379a00000000000000000000000000000000000000000000000000000000081526004016132bb90615514565b60405180910390fd5b6132d867bef899f0854b5ebb60c01b6138ce565b6132ec67f15ed9da5d68424b60c01b6138ce565b6000826000018190555061330a672e4874d86841427260c01b6138ce565b6000826003018190555061332867ca088fed1db22f4360c01b6138ce565b60008260010181905550613346674b9db020612a7a3d60c01b6138ce565b60008260020181905550613364678b7bcc45bd60eab960c01b6138ce565b600560003373ffffffffffffffffffffffffffffffffffffffff1673ffffffffffffffffffffffffffffffffffffffff16815260200190815260200160002060006133af9190613c1d565b6133c367fff269cbc6d1aae560c01b6138ce565b6000600660003373ffffffffffffffffffffffffffffffffffffffff1673ffffffffffffffffffffffffffffffffffffffff1681526020019081526020016000208190555061341c673eec83cbffacf3ca60c01b6138ce565b61343067f65144bc93dc99ca60c01b6138ce565b61347b33827f000000000000000000000000000000000000000000000000000000000000000073ffffffffffffffffffffffffffffffffffffffff166139589092919063ffffffff16565b5050506134866139d7565b565b61349c6787376bf2de7ec0ac60c01b6138ce565b6134a46138d1565b6134b86740c6274fc9d59afd60c01b6138ce565b6134cc6752791baaf395442760c01b6138ce565b6134d4613917565b6134e8679e777b068a1acfec60c01b6138ce565b6134fc678223698414e9262760c01b6138ce565b613510676b0685f28054638c60c01b6138ce565b61352467854472acfddaa45e60c01b6138ce565b6000600260003373ffffffffffffffffffffffffffffffffffffffff1673ffffffffffffffffffffffffffffffffffffffff168152602001908152602001600020905061357b672430db65ca6145f660c01b6138ce565b61358f67169d49fe5f99eec660c01b6138ce565b6135a367fecf5646a21a15a160c01b6138ce565b60008160000154116135ea576040517f08c379a00000000000000000000000000000000000000000000000000000000081526004016135e190615580565b60405180910390fd5b6135fe674674744c90807eb460c01b6138ce565b61361267a8f5e505ea81752360c01b6138ce565b61362667d3e8acad3f4d351060c01b6138ce565b61363a67b16a6be3f22ffb4660c01b6138ce565b8060040160009054906101000a900460ff161561368c576040517f08c379a000000000000000000000000000000000000000000000000000000000815260040161368390614cf6565b60405180910390fd5b6136a0676cb3fc207cf7156260c01b6138ce565b6136b46759a877672b49ae9c60c01b6138ce565b6136c867a03799085a4ac1ef60c01b6138ce565b6136dc67ba50deea8059046460c01b6138ce565b6000821161371f576040517f08c379a0000000000000000000000000000000000000000000000000000000008152600401613716906155ec565b60405180910390fd5b613733672bfe95b735bd67eb60c01b6138ce565b61374767379f27e8dd3cb38b60c01b6138ce565b61375b673162919b8279436960c01b6138ce565b6000670de0b6b3a7640000600584613773919061463d565b61377d919061463d565b905061379367596bdfbc612de68e60c01b6138ce565b6137a7679db1cbcd1955d8eb60c01b6138ce565b600060648360030154836137bb919061463d565b6137c591906146ae565b90506137db67aa818d11d9d7552760c01b6138ce565b838360010160008282546137ef9190614f69565b9250508190555061380a67bffe2eb6cf7f57a560c01b6138ce565b438360020181905550613827675d2e2ebe4a17d5ed60c01b6138ce565b80600760003373ffffffffffffffffffffffffffffffffffffffff1673ffffffffffffffffffffffffffffffffffffffff16815260200190815260200160002060008282546138769190614f69565b925050819055505050506138886139d7565b50565b60026020528060005260406000206000915090508060000154908060010154908060020154908060030154908060040160009054906101000a900460ff16905085565b50565b60026000540361390d576040517f3ee5aeb500000000000000000000000000000000000000000000000000000000815260040160405180910390fd5b6002600081905550565b61391f612080565b15613956576040517fd93c066500000000000000000000000000000000000000000000000000000000815260040160405180910390fd5b565b6139d2838473ffffffffffffffffffffffffffffffffffffffff1663a9059cbb858560405160240161398b929190614dee565b604051602081830303815290604052915060e01b6020820180517bffffffffffffffffffffffffffffffffffffffffffffffffffffffff8381831617835250505050613b33565b505050565b6001600081905550565b600060019050919050565b6139f4613bd5565b6000600160006101000a81548160ff0219169083151502179055507f5db9ee0a495bf2e6ff9c91a7834c1ba4fdd244a5e8aa4e537bd38aeae4b073aa613a38613c15565b604051613a459190614118565b60405180910390a1565b613a57613917565b60018060006101000a81548160ff0219169083151502179055507f62e78cea01bee320cd4e420270b5ea74000d11b0c9f74754ebdbfc544b05a258613a9a613c15565b604051613aa79190614118565b60405180910390a1565b613b2d848573ffffffffffffffffffffffffffffffffffffffff166323b872dd868686604051602401613ae69392919061560c565b604051602081830303815290604052915060e01b6020820180517bffffffffffffffffffffffffffffffffffffffffffffffffffffffff8381831617835250505050613b33565b50505050565b600080602060008451602086016000885af180613b56576040513d6000823e3d81fd5b3d925060005191505060008214613b71576001811415613b8d565b60008473ffffffffffffffffffffffffffffffffffffffff163b145b15613bcf57836040517f5274afe7000000000000000000000000000000000000000000000000000000008152600401613bc69190614118565b60405180910390fd5b50505050565b613bdd612080565b613c13576040517f8dfc202b00000000000000000000000000000000000000000000000000000000815260040160405180910390fd5b565b600033905090565b508054613c2990614b55565b6000825580601f10613c3b5750613c5a565b601f016020900490600052602060002090810190613c599190613c5d565b5b50565b5b80821115613c76576000816000905550600101613c5e565b5090565b6000604051905090565b600080fd5b600080fd5b600073ffffffffffffffffffffffffffffffffffffffff82169050919050565b6000613cb982613c8e565b9050919050565b613cc981613cae565b8114613cd457600080fd5b50565b600081359050613ce681613cc0565b92915050565b6000819050919050565b613cff81613cec565b8114613d0a57600080fd5b50565b600081359050613d1c81613cf6565b92915050565b6000819050919050565b613d3581613d22565b8114613d4057600080fd5b50565b600081359050613d5281613d2c565b92915050565b600080fd5b600080fd5b600080fd5b60008083601f840112613d7d57613d7c613d58565b5b8235905067ffffffffffffffff811115613d9a57613d99613d5d565b5b602083019150836001820283011115613db657613db5613d62565b5b9250929050565b600080600080600080600080600060e08a8c031215613ddf57613dde613c84565b5b6000613ded8c828d01613cd7565b9950506020613dfe8c828d01613cd7565b9850506040613e0f8c828d01613d0d565b9750506060613e208c828d01613d43565b96505060808a013567ffffffffffffffff811115613e4157613e40613c89565b5b613e4d8c828d01613d67565b955095505060a0613e608c828d01613d43565b93505060c08a013567ffffffffffffffff811115613e8157613e80613c89565b5b613e8d8c828d01613d67565b92509250509295985092959850929598565b600060208284031215613eb557613eb4613c84565b5b6000613ec384828501613d0d565b91505092915050565b600060208284031215613ee257613ee1613c84565b5b6000613ef084828501613cd7565b91505092915050565b600080fd5b6000601f19601f8301169050919050565b7f4e487b7100000000000000000000000000000000000000000000000000000000600052604160045260246000fd5b613f4782613efe565b810181811067ffffffffffffffff82111715613f6657613f65613f0f565b5b80604052505050565b6000613f79613c7a565b9050613f858282613f3e565b919050565b600067ffffffffffffffff821115613fa557613fa4613f0f565b5b613fae82613efe565b9050602081019050919050565b82818337600083830152505050565b6000613fdd613fd884613f8a565b613f6f565b905082815260208101848484011115613ff957613ff8613ef9565b5b614004848285613fbb565b509392505050565b600082601f83011261402157614020613d58565b5b8135614031848260208601613fca565b91505092915050565b60008060006060848603121561405357614052613c84565b5b600061406186828701613cd7565b935050602061407286828701613d43565b925050604084013567ffffffffffffffff81111561409357614092613c89565b5b61409f8682870161400c565b9150509250925092565b60008115159050919050565b6140be816140a9565b82525050565b60006020820190506140d960008301846140b5565b92915050565b6140e881613cec565b82525050565b600060208201905061410360008301846140df565b92915050565b61411281613cae565b82525050565b600060208201905061412d6000830184614109565b92915050565b6000806040838503121561414a57614149613c84565b5b600061415885828601613cd7565b925050602061416985828601613d0d565b9150509250929050565b60008060006040848603121561418c5761418b613c84565b5b600061419a86828701613d0d565b935050602084013567ffffffffffffffff8111156141bb576141ba613c89565b5b6141c786828701613d67565b92509250509250925092565b600081519050919050565b600082825260208201905092915050565b60005b8381101561420d5780820151818401526020810190506141f2565b60008484015250505050565b6000614224826141d3565b61422e81856141de565b935061423e8185602086016141ef565b61424781613efe565b840191505092915050565b6000602082019050818103600083015261426c8184614219565b905092915050565b6000819050919050565b600061429961429461428f84613c8e565b614274565b613c8e565b9050919050565b60006142ab8261427e565b9050919050565b60006142bd826142a0565b9050919050565b6142cd816142b2565b82525050565b60006020820190506142e860008301846142c4565b92915050565b600060a08201905061430360008301886140df565b61431060208301876140df565b61431d60408301866140df565b61432a60608301856140df565b61433760808301846140b5565b9695505050505050565b600082825260208201905092915050565b7f426c6f636b207363656e6172696f20697320696e207468652066757475726500600082015250565b6000614388601f83614341565b915061439382614352565b602082019050919050565b600060208201905081810360008301526143b78161437b565b9050919050565b7f4e487b7100000000000000000000000000000000000000000000000000000000600052601160045260246000fd5b60006143f882613cec565b915061440383613cec565b925082820390508181111561441b5761441a6143be565b5b92915050565b7f426c6f636b20766572696669636174696f6e20697320746f6f206f6c64000000600082015250565b6000614457601d83614341565b915061446282614421565b602082019050919050565b600060208201905081810360008301526144868161444a565b9050919050565b7f4e6f646520697320616c726561647920736c6173686564000000000000000000600082015250565b60006144c3601783614341565b91506144ce8261448d565b602082019050919050565b600060208201905081810360008301526144f2816144b6565b9050919050565b7f53616d6520626c6f636b20686173680000000000000000000000000000000000600082015250565b600061452f600f83614341565b915061453a826144f9565b602082019050919050565b6000602082019050818103600083015261455e81614522565b9050919050565b7f496e76616c6964207369676e6174757265203100000000000000000000000000600082015250565b600061459b601383614341565b91506145a682614565565b602082019050919050565b600060208201905081810360008301526145ca8161458e565b9050919050565b7f496e76616c6964207369676e6174757265203200000000000000000000000000600082015250565b6000614607601383614341565b9150614612826145d1565b602082019050919050565b60006020820190508181036000830152614636816145fa565b9050919050565b600061464882613cec565b915061465383613cec565b925082820261466181613cec565b91508282048414831517614678576146776143be565b5b5092915050565b7f4e487b7100000000000000000000000000000000000000000000000000000000600052601260045260246000fd5b60006146b982613cec565b91506146c483613cec565b9250826146d4576146d361467f565b5b828204905092915050565b7f4c617a79207369676e61747572652076616c696461746564206f6e205265642d60008201527f48657272696e6720626c6f636b00000000000000000000000000000000000000602082015250565b600061473b602d83614341565b9150614746826146df565b604082019050919050565b600060408201905061476660008301846140df565b81810360208301526147778161472e565b905092915050565b614788816140a9565b811461479357600080fd5b50565b6000815190506147a58161477f565b92915050565b6000602082840312156147c1576147c0613c84565b5b60006147cf84828501614796565b91505092915050565b7f43616c6c6572206973206e6f7420616e20617574686f72697a656420676f766560008201527f726e6f7200000000000000000000000000000000000000000000000000000000602082015250565b6000614834602483614341565b915061483f826147d8565b604082019050919050565b6000602082019050818103600083015261486381614827565b9050919050565b7f556e626f6e64696e6720706572696f64206f7574206f662072616e6765000000600082015250565b60006148a0601d83614341565b91506148ab8261486a565b602082019050919050565b600060208201905081810360008301526148cf81614893565b9050919050565b7f756e626f6e64696e67506572696f640000000000000000000000000000000000600082015250565b600061490c600f83614341565b9150614917826148d6565b602082019050919050565b6000604082019050818103600083015261493b816148ff565b905061494a60208301846140df565b92915050565b7f5a65726f20616464726573730000000000000000000000000000000000000000600082015250565b6000614986600c83614341565b915061499182614950565b602082019050919050565b600060208201905081810360008301526149b581614979565b9050919050565b7f556e617574686f72697a65642076657269666965722063616c6c657200000000600082015250565b60006149f2601c83614341565b91506149fd826149bc565b602082019050919050565b60006020820190508181036000830152614a21816149e5565b9050919050565b7f496e76616c69642076616c696461746f72206164647265737300000000000000600082015250565b6000614a5e601983614341565b9150614a6982614a28565b602082019050919050565b60006020820190508181036000830152614a8d81614a51565b9050919050565b7f496e76616c69642046616c636f6e207369676e61747572652062797465206c6560008201527f6e67746820636f6d7061746962696c6974790000000000000000000000000000602082015250565b6000614af0603283614341565b9150614afb82614a94565b604082019050919050565b60006020820190508181036000830152614b1f81614ae3565b9050919050565b7f4e487b7100000000000000000000000000000000000000000000000000000000600052602260045260246000fd5b60006002820490506001821680614b6d57607f821691505b602082108103614b8057614b7f614b26565b5b50919050565b7f46616c636f6e20707265636f6d70696c65206e6f7420617661696c61626c652060008201527f6f6e207468697320636861696e00000000000000000000000000000000000000602082015250565b6000614be2602d83614341565b9150614bed82614b86565b604082019050919050565b60006020820190508181036000830152614c1181614bd5565b9050919050565b7f4d75737420626520612076616c696461746f7220746f20636c61696d00000000600082015250565b6000614c4e601c83614341565b9150614c5982614c18565b602082019050919050565b60006020820190508181036000830152614c7d81614c41565b9050919050565b7f536c6173686564206e6f6465732063616e6e6f74206f627461696e207265776160008201527f7264730000000000000000000000000000000000000000000000000000000000602082015250565b6000614ce0602383614341565b9150614ceb82614c84565b604082019050919050565b60006020820190508181036000830152614d0f81614cd3565b9050919050565b7f52657761726420616d6f756e74206d75737420626520706f7369746976650000600082015250565b6000614d4c601e83614341565b9150614d5782614d16565b602082019050919050565b60006020820190508181036000830152614d7b81614d3f565b9050919050565b7f4578636565647320616363756d756c6174656420726577617264730000000000600082015250565b6000614db8601b83614341565b9150614dc382614d82565b602082019050919050565b60006020820190508181036000830152614de781614dab565b9050919050565b6000604082019050614e036000830185614109565b614e1060208301846140df565b9392505050565b7f536c6173682070656e616c7479206f7574206f662072616e6765000000000000600082015250565b6000614e4d601a83614341565b9150614e5882614e17565b602082019050919050565b60006020820190508181036000830152614e7c81614e40565b9050919050565b7f736c61736850656e616c747950657263656e7400000000000000000000000000600082015250565b6000614eb9601383614341565b9150614ec482614e83565b602082019050919050565b60006040820190508181036000830152614ee881614eac565b9050614ef760208301846140df565b92915050565b7f4e6f7420612076616c696461746f72206f72206e6f207374616b650000000000600082015250565b6000614f33601b83614341565b9150614f3e82614efd565b602082019050919050565b60006020820190508181036000830152614f6281614f26565b9050919050565b6000614f7482613cec565b9150614f7f83613cec565b9250828201905080821115614f9757614f966143be565b5b92915050565b7f4f6e6c79205a4b2050726f7665722052656769737472792063616e20626f6f7360008201527f742072657075746174696f6e0000000000000000000000000000000000000000602082015250565b6000614ff9602c83614341565b915061500482614f9d565b604082019050919050565b6000602082019050818103600083015261502881614fec565b9050919050565b7f4d696e696d756d207374616b65206973203130302053594d0000000000000000600082015250565b6000615065601883614341565b91506150708261502f565b602082019050919050565b6000602082019050818103600083015261509481615058565b9050919050565b7f46616c636f6e205075626c6963204b6579207265717569726564000000000000600082015250565b60006150d1601a83614341565b91506150dc8261509b565b602082019050919050565b60006020820190508181036000830152615100816150c4565b9050919050565b7f416c726561647920726567697374657265640000000000000000000000000000600082015250565b600061513d601283614341565b915061514882615107565b602082019050919050565b6000602082019050818103600083015261516c81615130565b9050919050565b600082905092915050565b60008190508160005260206000209050919050565b60006020601f8301049050919050565b600082821b905092915050565b6000600883026151e07fffffffffffffffffffffffffffffffffffffffffffffffffffffffffffffffff826151a3565b6151ea86836151a3565b95508019841693508086168417925050509392505050565b600061521d61521861521384613cec565b614274565b613cec565b9050919050565b6000819050919050565b61523783615202565b61524b61524382615224565b8484546151b0565b825550505050565b600090565b615260615253565b61526b81848461522e565b505050565b5b8181101561528f57615284600082615258565b600181019050615271565b5050565b601f8211156152d4576152a58161517e565b6152ae84615193565b810160208510156152bd578190505b6152d16152c985615193565b830182615270565b50505b505050565b600082821c905092915050565b60006152f7600019846008026152d9565b1980831691505092915050565b600061531083836152e6565b9150826002028217905092915050565b61532a8383615173565b67ffffffffffffffff81111561534357615342613f0f565b5b61534d8254614b55565b615358828285615293565b6000601f8311600181146153875760008415615375578287013590505b61537f8582615304565b8655506153e7565b601f1984166153958661517e565b60005b828110156153bd57848901358255600182019150602085019450602081019050615398565b868310156153da57848901356153d6601f8916826152e6565b8355505b6001600288020188555050505b50505050505050565b7f45786974206e6f7420696e697469617465640000000000000000000000000000600082015250565b6000615426601283614341565b9150615431826153f0565b602082019050919050565b6000602082019050818103600083015261545581615419565b9050919050565b7f556e626f6e64696e6720706572696f6420616374697665000000000000000000600082015250565b6000615492601783614341565b915061549d8261545c565b602082019050919050565b600060208201905081810360008301526154c181615485565b9050919050565b7f4e6f207374616b6520746f207769746864726177000000000000000000000000600082015250565b60006154fe601483614341565b9150615509826154c8565b602082019050919050565b6000602082019050818103600083015261552d816154f1565b9050919050565b7f4d75737420626520612076616c696461746f7200000000000000000000000000600082015250565b600061556a601383614341565b915061557582615534565b602082019050919050565b600060208201905081810360008301526155998161555d565b9050919050565b7f496e76616c696420626c6f636b20636f756e7400000000000000000000000000600082015250565b60006155d6601383614341565b91506155e1826155a0565b602082019050919050565b60006020820190508181036000830152615605816155c9565b9050919050565b60006060820190506156216000830186614109565b61562e6020830185614109565b61563b60408301846140df565b94935050505056fea264697066735822122062d32e4dda07a31019e5d78a476e23de42663daf160fd8a0671b3439250f806064736f6c63430008180033",
  "linkReferences": {},
  "deployedLinkReferences": {}
}