{
  "_format": "hh-sol-artifact-1",
  "contractName": "NashConsensusRegistry",
  "sourceName": "contracts/NashConsensusRegistry.sol",
  "abi": [
    {
      "inputs": [
        {
          "internalType": "address",
          "name": "_symToken",
          "type": "address"
        }
      ],
      "stateMutability": "nonpayable",
      "type": "constructor"
    },
    {
      "inputs": [],
      "name": "EnforcedPause",
      "type": "error"
    },
    {
      "inputs": [],
      "name": "ExpectedPause",
      "type": "error"
    },
    {
      "inputs": [],
      "name": "ReentrancyGuardReentrantCall",
      "type": "error"
    },
    {
      "inputs": [
        {
          "internalType": "address",
          "name": "token",
          "type": "address"
        }
      ],
      "name": "SafeERC20FailedOperation",
      "type": "error"
    },
    {
      "anonymous": false,
      "inputs": [
        {
          "indexed": true,
          "internalType": "address",
          "name": "node",
          "type": "address"
        },
        {
          "indexed": false,
          "internalType": "uint256",
          "name": "slashedAmount",
          "type": "uint256"
        },
        {
          "indexed": false,
          "internalType": "string",
          "name": "reason",
          "type": "string"
        }
      ],
      "name": "NodeSlashed",
      "type": "event"
    },
    {
      "anonymous": false,
      "inputs": [
        {
          "indexed": false,
          "internalType": "address",
          "name": "account",
          "type": "address"
        }
      ],
      "name": "Paused",
      "type": "event"
    },
    {
      "anonymous": false,
      "inputs": [
        {
          "indexed": false,
          "internalType": "address",
          "name": "account",
          "type": "address"
        }
      ],
      "name": "Unpaused",
      "type": "event"
    },
    {
      "anonymous": false,
      "inputs": [
        {
          "indexed": true,
          "internalType": "address",
          "name": "node",
          "type": "address"
        },
        {
          "indexed": false,
          "internalType": "uint256",
          "name": "initialStake",
          "type": "uint256"
        }
      ],
      "name": "ValidatorRegistered",
      "type": "event"
    },
    {
      "inputs": [],
      "name": "SLASH_PENALTY_PERCENT",
      "outputs": [
        {
          "internalType": "uint256",
          "name": "",
          "type": "uint256"
        }
      ],
      "stateMutability": "view",
      "type": "function"
    },
    {
      "inputs": [],
      "name": "UNBONDING_PERIOD",
      "outputs": [
        {
          "internalType": "uint256",
          "name": "",
          "type": "uint256"
        }
      ],
      "stateMutability": "view",
      "type": "function"
    },
    {
      "inputs": [
        {
          "internalType": "address",
          "name": "",
          "type": "address"
        }
      ],
      "name": "falconPublicKeys",
      "outputs": [
        {
          "internalType": "bytes",
          "name": "",
          "type": "bytes"
        }
      ],
      "stateMutability": "view",
      "type": "function"
    },
    {
      "inputs": [],
      "name": "initiateValidatorExit",
      "outputs": [],
      "stateMutability": "nonpayable",
      "type": "function"
    },
    {
      "inputs": [],
      "name": "pause",
      "outputs": [],
      "stateMutability": "nonpayable",
      "type": "function"
    },
    {
      "inputs": [],
      "name": "paused",
      "outputs": [
        {
          "internalType": "bool",
          "name": "",
          "type": "bool"
        }
      ],
      "stateMutability": "view",
      "type": "function"
    },
    {
      "inputs": [
        {
          "internalType": "uint256",
          "name": "initialStake",
          "type": "uint256"
        },
        {
          "internalType": "bytes",
          "name": "falconPubKey",
          "type": "bytes"
        }
      ],
      "name": "registerValidator",
      "outputs": [],
      "stateMutability": "nonpayable",
      "type": "function"
    },
    {
      "inputs": [],
      "name": "symToken",
      "outputs": [
        {
          "internalType": "contract SymbiosisToken",
          "name": "",
          "type": "address"
        }
      ],
      "stateMutability": "view",
      "type": "function"
    },
    {
      "inputs": [
        {
          "internalType": "address",
          "name": "guiltyNode",
          "type": "address"
        },
        {
          "internalType": "address",
          "name": "whistleblower",
          "type": "address"
        },
        {
          "internalType": "uint256",
          "name": "",
          "type": "uint256"
        },
        {
          "internalType": "bytes32",
          "name": "blockHash1",
          "type": "bytes32"
        },
        {
          "internalType": "bytes",
          "name": "sig1",
          "type": "bytes"
        },
        {
          "internalType": "bytes32",
          "name": "blockHash2",
          "type": "bytes32"
        },
        {
          "internalType": "bytes",
          "name": "sig2",
          "type": "bytes"
        }
      ],
      "name": "triggerLazySlashing",
      "outputs": [],
      "stateMutability": "nonpayable",
      "type": "function"
    },
    {
      "inputs": [
        {
          "internalType": "address",
          "name": "",
          "type": "address"
        }
      ],
      "name": "unbondingEta",
      "outputs": [
        {
          "internalType": "uint256",
          "name": "",
          "type": "uint256"
        }
      ],
      "stateMutability": "view",
      "type": "function"
    },
    {
      "inputs": [],
      "name": "unpause",
      "outputs": [],
      "stateMutability": "nonpayable",
      "type": "function"
    },
    {
      "inputs": [
        {
          "internalType": "address",
          "name": "",
          "type": "address"
        }
      ],
      "name": "validators",
      "outputs": [
        {
          "internalType": "uint256",
          "name": "stakedAmount",
          "type": "uint256"
        },
        {
          "internalType": "uint256",
          "name": "totalBlocksChecked",
          "type": "uint256"
        },
        {
          "internalType": "uint256",
          "name": "lastVerifiedBlock",
          "type": "uint256"
        },
        {
          "internalType": "uint256",
          "name": "reputation",
          "type": "uint256"
        },
        {
          "internalType": "bool",
          "name": "isSlashed",
          "type": "bool"
        }
      ],
      "stateMutability": "view",
      "type": "function"
    },
    {
      "inputs": [
        {
          "internalType": "address",
          "name": "validator",
          "type": "address"
        },
        {
          "internalType": "bytes32",
          "name": "blockHash",
          "type": "bytes32"
        },
        {
          "internalType": "bytes",
          "name": "signature",
          "type": "bytes"
        }
      ],
      "name": "verifyFalconSignature",
      "outputs": [
        {
          "internalType": "bool",
          "name": "",
          "type": "bool"
        }
      ],
      "stateMutability": "view",
      "type": "function"
    },
    {
      "inputs": [],
      "name": "withdrawValidatorStake",
      "outputs": [],
      "stateMutability": "nonpayable",
      "type": "function"
    }
  ],
  "bytecode": "0x60a060405234801561001057600080fd5b506040516115a43803806115a483398101604081905261002f916100a9565b60016000819055805460ff191690556001600160a01b0381166100985760405162461bcd60e51b815260206004820152601560248201527f496e76616c696420746f6b656e20616464726573730000000000000000000000604482015260640160405180910390fd5b6001600160a01b03166080526100d9565b6000602082840312156100bb57600080fd5b81516001600160a01b03811681146100d257600080fd5b9392505050565b60805161148661011e600039600081816101c701528181610526015281816105c1015281816107eb0152818161089901528181610b3b0152610d2f01526114866000f3fe608060405234801561001057600080fd5b50600436106100ea5760003560e01c8063d9a912ec1161008c578063e62e04bc11610066578063e62e04bc146101ba578063ea1804bb146101c2578063f63f32e814610201578063fa52c7d81461020957600080fd5b8063d9a912ec1461017d578063df9c427314610187578063e2936b5c1461019a57600080fd5b80635c975abb116100c85780635c975abb146101345780638456cb591461013f578063a451100614610147578063c2b58aaf1461014f57600080fd5b8063015d0b7f146100ef57806319343745146101045780633f4ba83a1461012c575b600080fd5b6101026100fd366004610fdd565b610273565b005b6101176101123660046110a3565b6105ff565b60405190151581526020015b60405180910390f35b6101026107d6565b60015460ff16610117565b610102610884565b610102610930565b61016f61015d36600461116e565b60046020526000908152604090205481565b604051908152602001610123565b61016f6201518081565b610102610195366004611189565b6109c3565b6101ad6101a836600461116e565b610b72565b60405161012391906111d5565b61016f600f81565b6101e97f000000000000000000000000000000000000000000000000000000000000000081565b6040516001600160a01b039091168152602001610123565b610102610c0c565b61024961021736600461116e565b600260208190526000918252604090912080546001820154928201546003830154600490930154919392909160ff1685565b6040805195865260208601949094529284019190915260608301521515608082015260a001610123565b61027b610d6b565b610283610d95565b6001600160a01b0389166000908152600260205260409020600481015460ff16156102f55760405162461bcd60e51b815260206004820152601760248201527f4e6f646520697320616c726561647920736c617368656400000000000000000060448201526064015b60405180910390fd5b8387036103365760405162461bcd60e51b815260206004820152600f60248201526e0a6c2daca40c4d8dec6d640d0c2e6d608b1b60448201526064016102ec565b6103778a8888888080601f0160208091040260200160405190810160405280939291908181526020018383808284376000920191909152506105ff92505050565b6103b95760405162461bcd60e51b8152602060048201526013602482015272496e76616c6964207369676e6174757265203160681b60448201526064016102ec565b6103fa8a8585858080601f0160208091040260200160405190810160405280939291908181526020018383808284376000920191909152506105ff92505050565b61043c5760405162461bcd60e51b815260206004820152601360248201527224b73b30b634b21039b4b3b730ba3ab932901960691b60448201526064016102ec565b60006064600f8360000154610451919061123a565b61045b9190611257565b9050808260000160008282546104719190611279565b909155505060048201805460ff19166001179055600060038301556040516001600160a01b038c16907f992bebd8a6e574d4b441fbc6155cf5486a16f70f9003d8189f63374675c5022b9061051490848152604060208201819052602d908201527f4c617a79207369676e61747572652076616c696461746564206f6e205265642d60608201526c48657272696e6720626c6f636b60981b608082015260a00190565b60405180910390a26001600160a01b037f0000000000000000000000000000000000000000000000000000000000000000166342966c68610556600284611257565b6040518263ffffffff1660e01b815260040161057491815260200190565b600060405180830381600087803b15801561058e57600080fd5b505af11580156105a2573d6000803e3d6000fd5b505050506105e88a6002836105b79190611257565b6001600160a01b037f0000000000000000000000000000000000000000000000000000000000000000169190610db9565b50506105f46001600055565b505050505050505050565b60006001600160a01b0384166106575760405162461bcd60e51b815260206004820152601960248201527f496e76616c69642076616c696461746f7220616464726573730000000000000060448201526064016102ec565b60408251101580610669575081516063145b6106d05760405162461bcd60e51b815260206004820152603260248201527f496e76616c69642046616c636f6e207369676e61747572652062797465206c656044820152716e67746820636f6d7061746962696c69747960701b60648201526084016102ec565b6001600160a01b038416600090815260036020526040812080546106f39061128c565b80601f016020809104026020016040519081016040528092919081815260200182805461071f9061128c565b801561076c5780601f106107415761010080835404028352916020019161076c565b820191906000526020600020905b81548152906001019060200180831161074f57829003601f168201915b5050505050905080516000036107865760009150506107cf565b60006040518581528460208201528260838201526020600060a38360f9620493e0fa915050806107cb578351606314806107c257506040845110155b925050506107cf565b9150505b9392505050565b604051631c86b03760e31b81523360048201527f00000000000000000000000000000000000000000000000000000000000000006001600160a01b03169063e43581b890602401602060405180830381865afa15801561083a573d6000803e3d6000fd5b505050506040513d601f19601f8201168201806040525081019061085e91906112c6565b61087a5760405162461bcd60e51b81526004016102ec906112e8565b610882610e18565b565b604051631c86b03760e31b81523360048201527f00000000000000000000000000000000000000000000000000000000000000006001600160a01b03169063e43581b890602401602060405180830381865afa1580156108e8573d6000803e3d6000fd5b505050506040513d601f19601f8201168201806040525081019061090c91906112c6565b6109285760405162461bcd60e51b81526004016102ec906112e8565b610882610e6a565b610938610d6b565b610940610d95565b3360009081526002602052604090205461099c5760405162461bcd60e51b815260206004820152601b60248201527f4e6f7420612076616c696461746f72206f72206e6f207374616b65000000000060448201526064016102ec565b6109a9620151804261132c565b336000908152600460205260409020556108826001600055565b6109cb610d6b565b6109d3610d95565b68056bc75e2d63100000831015610a2c5760405162461bcd60e51b815260206004820152601860248201527f4d696e696d756d207374616b65206973203130302053594d000000000000000060448201526064016102ec565b80610a795760405162461bcd60e51b815260206004820152601a60248201527f46616c636f6e205075626c6963204b657920726571756972656400000000000060448201526064016102ec565b6040805160a08101825284815260006020808301828152438486019081526064606086019081526080860185815233865260028086528887209751885593516001880155915192860192909255905160038086019190915590516004909401805460ff1916941515949094179093559190915220610af882848361138f565b5060405183815233907fb4a7f5c563a0e35593d156394ed681bdc9c39467d7d722749d23862c2e4b712c9060200160405180910390a2610b636001600160a01b037f000000000000000000000000000000000000000000000000000000000000000016333086610ea5565b610b6d6001600055565b505050565b60036020526000908152604090208054610b8b9061128c565b80601f0160208091040260200160405190810160405280929190818152602001828054610bb79061128c565b8015610c045780601f10610bd957610100808354040283529160200191610c04565b820191906000526020600020905b815481529060010190602001808311610be757829003601f168201915b505050505081565b610c14610d6b565b610c1c610d95565b3360009081526004602052604090205480610c6e5760405162461bcd60e51b8152602060048201526012602482015271115e1a5d081b9bdd081a5b9a5d1a585d195960721b60448201526064016102ec565b80421015610cbe5760405162461bcd60e51b815260206004820152601760248201527f556e626f6e64696e6720706572696f642061637469766500000000000000000060448201526064016102ec565b336000908152600260205260409020805480610d135760405162461bcd60e51b81526020600482015260146024820152734e6f207374616b6520746f20776974686472617760601b60448201526064016102ec565b60008083553380825260046020526040822091909155610d5e907f00000000000000000000000000000000000000000000000000000000000000006001600160a01b03169083610db9565b5050506108826001600055565b600260005403610d8e57604051633ee5aeb560e01b815260040160405180910390fd5b6002600055565b60015460ff16156108825760405163d93c066560e01b815260040160405180910390fd5b6040516001600160a01b03838116602483015260448201839052610b6d91859182169063a9059cbb906064015b604051602081830303815290604052915060e01b6020820180516001600160e01b038381831617835250505050610ee4565b610e20610f55565b6001805460ff191690557f5db9ee0a495bf2e6ff9c91a7834c1ba4fdd244a5e8aa4e537bd38aeae4b073aa335b6040516001600160a01b03909116815260200160405180910390a1565b610e72610d95565b6001805460ff1916811790557f62e78cea01bee320cd4e420270b5ea74000d11b0c9f74754ebdbfc544b05a25833610e4d565b6040516001600160a01b038481166024830152838116604483015260648201839052610ede9186918216906323b872dd90608401610de6565b50505050565b600080602060008451602086016000885af180610f07576040513d6000823e3d81fd5b50506000513d91508115610f1f578060011415610f2c565b6001600160a01b0384163b155b15610ede57604051635274afe760e01b81526001600160a01b03851660048201526024016102ec565b60015460ff1661088257604051638dfc202b60e01b815260040160405180910390fd5b80356001600160a01b0381168114610f8f57600080fd5b919050565b60008083601f840112610fa657600080fd5b50813567ffffffffffffffff811115610fbe57600080fd5b602083019150836020828501011115610fd657600080fd5b9250929050565b600080600080600080600080600060e08a8c031215610ffb57600080fd5b6110048a610f78565b985061101260208b01610f78565b975060408a0135965060608a0135955060808a013567ffffffffffffffff8082111561103d57600080fd5b6110498d838e01610f94565b909750955060a08c0135945060c08c013591508082111561106957600080fd5b506110768c828d01610f94565b915080935050809150509295985092959850929598565b634e487b7160e01b600052604160045260246000fd5b6000806000606084860312156110b857600080fd5b6110c184610f78565b925060208401359150604084013567ffffffffffffffff808211156110e557600080fd5b818601915086601f8301126110f957600080fd5b81358181111561110b5761110b61108d565b604051601f8201601f19908116603f011681019083821181831017156111335761113361108d565b8160405282815289602084870101111561114c57600080fd5b8260208601602083013760006020848301015280955050505050509250925092565b60006020828403121561118057600080fd5b6107cf82610f78565b60008060006040848603121561119e57600080fd5b83359250602084013567ffffffffffffffff8111156111bc57600080fd5b6111c886828701610f94565b9497909650939450505050565b60006020808352835180602085015260005b81811015611203578581018301518582016040015282016111e7565b506000604082860101526040601f19601f8301168501019250505092915050565b634e487b7160e01b600052601160045260246000fd5b808202811582820484141761125157611251611224565b92915050565b60008261127457634e487b7160e01b600052601260045260246000fd5b500490565b8181038181111561125157611251611224565b600181811c908216806112a057607f821691505b6020821081036112c057634e487b7160e01b600052602260045260246000fd5b50919050565b6000602082840312156112d857600080fd5b815180151581146107cf57600080fd5b60208082526024908201527f43616c6c6572206973206e6f7420616e20617574686f72697a656420676f7665604082015263393737b960e11b606082015260800190565b8082018082111561125157611251611224565b601f821115610b6d576000816000526020600020601f850160051c810160208610156113685750805b601f850160051c820191505b8181101561138757828155600101611374565b505050505050565b67ffffffffffffffff8311156113a7576113a761108d565b6113bb836113b5835461128c565b8361133f565b6000601f8411600181146113ef57600085156113d75750838201355b600019600387901b1c1916600186901b178355611449565b600083815260209020601f19861690835b828110156114205786850135825560209485019460019092019101611400565b508682101561143d5760001960f88860031b161c19848701351681555b505060018560011b0183555b505050505056fea2646970667358221220610aa09ce061fa23305c067209a520dc6322055dcc8e7a76770b2961ce2459cb64736f6c63430008180033",
  "linkReferences": {},
  "deployedLinkReferences": {}
}