{
  "_format": "hh-sol-artifact-1",
  "contractName": "NashConsensusRegistry",
  "sourceName": "contracts/NashConsensusRegistry.sol",
  "abi": [
    {
      "inputs": [
        {
          "internalType": "address",
          "name": "_symToken",
          "type": "address"
        }
      ],
      "stateMutability": "nonpayable",
      "type": "constructor"
    },
    {
      "inputs": [],
      "name": "EnforcedPause",
      "type": "error"
    },
    {
      "inputs": [],
      "name": "ExpectedPause",
      "type": "error"
    },
    {
      "inputs": [],
      "name": "ReentrancyGuardReentrantCall",
      "type": "error"
    },
    {
      "inputs": [
        {
          "internalType": "address",
          "name": "token",
          "type": "address"
        }
      ],
      "name": "SafeERC20FailedOperation",
      "type": "error"
    },
    {
      "anonymous": false,
      "inputs": [
        {
          "indexed": true,
          "internalType": "address",
          "name": "node",
          "type": "address"
        },
        {
          "indexed": false,
          "internalType": "uint256",
          "name": "slashedAmount",
          "type": "uint256"
        },
        {
          "indexed": false,
          "internalType": "string",
          "name": "reason",
          "type": "string"
        }
      ],
      "name": "NodeSlashed",
      "type": "event"
    },
    {
      "anonymous": false,
      "inputs": [
        {
          "indexed": false,
          "internalType": "string",
          "name": "name",
          "type": "string"
        },
        {
          "indexed": false,
          "internalType": "uint256",
          "name": "value",
          "type": "uint256"
        }
      ],
      "name": "ParameterUpdated",
      "type": "event"
    },
    {
      "anonymous": false,
      "inputs": [
        {
          "indexed": false,
          "internalType": "address",
          "name": "account",
          "type": "address"
        }
      ],
      "name": "Paused",
      "type": "event"
    },
    {
      "anonymous": false,
      "inputs": [
        {
          "indexed": false,
          "internalType": "address",
          "name": "account",
          "type": "address"
        }
      ],
      "name": "Unpaused",
      "type": "event"
    },
    {
      "anonymous": false,
      "inputs": [
        {
          "indexed": true,
          "internalType": "address",
          "name": "node",
          "type": "address"
        },
        {
          "indexed": false,
          "internalType": "uint256",
          "name": "initialStake",
          "type": "uint256"
        }
      ],
      "name": "ValidatorRegistered",
      "type": "event"
    },
    {
      "inputs": [
        {
          "internalType": "address",
          "name": "",
          "type": "address"
        }
      ],
      "name": "accumulatedRewards",
      "outputs": [
        {
          "internalType": "uint256",
          "name": "",
          "type": "uint256"
        }
      ],
      "stateMutability": "view",
      "type": "function"
    },
    {
      "inputs": [
        {
          "internalType": "uint256",
          "name": "rewardAmount",
          "type": "uint256"
        }
      ],
      "name": "claimValidatorRewards",
      "outputs": [],
      "stateMutability": "nonpayable",
      "type": "function"
    },
    {
      "inputs": [
        {
          "internalType": "address",
          "name": "",
          "type": "address"
        }
      ],
      "name": "falconPublicKeys",
      "outputs": [
        {
          "internalType": "bytes",
          "name": "",
          "type": "bytes"
        }
      ],
      "stateMutability": "view",
      "type": "function"
    },
    {
      "inputs": [],
      "name": "initiateValidatorExit",
      "outputs": [],
      "stateMutability": "nonpayable",
      "type": "function"
    },
    {
      "inputs": [
        {
          "internalType": "address",
          "name": "",
          "type": "address"
        }
      ],
      "name": "lastClaimBlock",
      "outputs": [
        {
          "internalType": "uint256",
          "name": "",
          "type": "uint256"
        }
      ],
      "stateMutability": "view",
      "type": "function"
    },
    {
      "inputs": [],
      "name": "pause",
      "outputs": [],
      "stateMutability": "nonpayable",
      "type": "function"
    },
    {
      "inputs": [],
      "name": "paused",
      "outputs": [
        {
          "internalType": "bool",
          "name": "",
          "type": "bool"
        }
      ],
      "stateMutability": "view",
      "type": "function"
    },
    {
      "inputs": [
        {
          "internalType": "uint256",
          "name": "initialStake",
          "type": "uint256"
        },
        {
          "internalType": "bytes",
          "name": "falconPubKey",
          "type": "bytes"
        }
      ],
      "name": "registerValidator",
      "outputs": [],
      "stateMutability": "nonpayable",
      "type": "function"
    },
    {
      "inputs": [
        {
          "internalType": "uint256",
          "name": "newPercent",
          "type": "uint256"
        }
      ],
      "name": "setSlashPenaltyPercent",
      "outputs": [],
      "stateMutability": "nonpayable",
      "type": "function"
    },
    {
      "inputs": [
        {
          "internalType": "uint256",
          "name": "newPeriod",
          "type": "uint256"
        }
      ],
      "name": "setUnbondingPeriod",
      "outputs": [],
      "stateMutability": "nonpayable",
      "type": "function"
    },
    {
      "inputs": [],
      "name": "slashPenaltyPercent",
      "outputs": [
        {
          "internalType": "uint256",
          "name": "",
          "type": "uint256"
        }
      ],
      "stateMutability": "view",
      "type": "function"
    },
    {
      "inputs": [
        {
          "internalType": "uint256",
          "name": "blockCount",
          "type": "uint256"
        }
      ],
      "name": "submitBlockVerification",
      "outputs": [],
      "stateMutability": "nonpayable",
      "type": "function"
    },
    {
      "inputs": [],
      "name": "symToken",
      "outputs": [
        {
          "internalType": "contract SymbiosisToken",
          "name": "",
          "type": "address"
        }
      ],
      "stateMutability": "view",
      "type": "function"
    },
    {
      "inputs": [
        {
          "internalType": "address",
          "name": "guiltyNode",
          "type": "address"
        },
        {
          "internalType": "address",
          "name": "whistleblower",
          "type": "address"
        },
        {
          "internalType": "uint256",
          "name": "blockNumber",
          "type": "uint256"
        },
        {
          "internalType": "bytes32",
          "name": "blockHash1",
          "type": "bytes32"
        },
        {
          "internalType": "bytes",
          "name": "sig1",
          "type": "bytes"
        },
        {
          "internalType": "bytes32",
          "name": "blockHash2",
          "type": "bytes32"
        },
        {
          "internalType": "bytes",
          "name": "sig2",
          "type": "bytes"
        }
      ],
      "name": "triggerLazySlashing",
      "outputs": [],
      "stateMutability": "nonpayable",
      "type": "function"
    },
    {
      "inputs": [
        {
          "internalType": "address",
          "name": "",
          "type": "address"
        }
      ],
      "name": "unbondingEta",
      "outputs": [
        {
          "internalType": "uint256",
          "name": "",
          "type": "uint256"
        }
      ],
      "stateMutability": "view",
      "type": "function"
    },
    {
      "inputs": [],
      "name": "unbondingPeriod",
      "outputs": [
        {
          "internalType": "uint256",
          "name": "",
          "type": "uint256"
        }
      ],
      "stateMutability": "view",
      "type": "function"
    },
    {
      "inputs": [],
      "name": "unpause",
      "outputs": [],
      "stateMutability": "nonpayable",
      "type": "function"
    },
    {
      "inputs": [
        {
          "internalType": "address",
          "name": "",
          "type": "address"
        }
      ],
      "name": "validators",
      "outputs": [
        {
          "internalType": "uint256",
          "name": "stakedAmount",
          "type": "uint256"
        },
        {
          "internalType": "uint256",
          "name": "totalBlocksChecked",
          "type": "uint256"
        },
        {
          "internalType": "uint256",
          "name": "lastVerifiedBlock",
          "type": "uint256"
        },
        {
          "internalType": "uint256",
          "name": "reputation",
          "type": "uint256"
        },
        {
          "internalType": "bool",
          "name": "isSlashed",
          "type": "bool"
        }
      ],
      "stateMutability": "view",
      "type": "function"
    },
    {
      "inputs": [
        {
          "internalType": "address",
          "name": "validator",
          "type": "address"
        },
        {
          "internalType": "bytes32",
          "name": "blockHash",
          "type": "bytes32"
        },
        {
          "internalType": "bytes",
          "name": "signature",
          "type": "bytes"
        }
      ],
      "name": "verifyFalconSignature",
      "outputs": [
        {
          "internalType": "bool",
          "name": "",
          "type": "bool"
        }
      ],
      "stateMutability": "view",
      "type": "function"
    },
    {
      "inputs": [],
      "name": "withdrawValidatorStake",
      "outputs": [],
      "stateMutability": "nonpayable",
      "type": "function"
    }
  ],
  "bytecode": "0x60a0604052600f6003556201518060045534801561001c57600080fd5b506040516200200d3803806200200d83398101604081905261003d916100b7565b60016000819055805460ff191690556001600160a01b0381166100a65760405162461bcd60e51b815260206004820152601560248201527f496e76616c696420746f6b656e20616464726573730000000000000000000000604482015260640160405180910390fd5b6001600160a01b03166080526100e7565b6000602082840312156100c957600080fd5b81516001600160a01b03811681146100e057600080fd5b9392505050565b608051611ec46200014960003960008181610282015281816106be01528181610759015281816107ac0152818161093e01528181610de601528181610e6501528181610f13015281816110770152818161136701526115840152611ec46000f3fe608060405234801561001057600080fd5b506004361061012c5760003560e01c8063a4511006116100ad578063e93a6c9011610071578063e93a6c901461025d578063ea1804bb1461027d578063f63f32e8146102bc578063f7411c32146102c4578063fa52c7d8146102d757600080fd5b8063a4511006146101f9578063b98bcfa514610201578063c2b58aaf1461020a578063df9c42731461022a578063e2936b5c1461023d57600080fd5b80635c975abb116100f45780635c975abb1461019c5780636cf6d675146101a757806373f273fc146101be578063757010e6146101de5780638456cb59146101f157600080fd5b8063015d0b7f14610131578063114eaf55146101465780631934374514610159578063295cccba146101815780633f4ba83a14610194575b600080fd5b61014461013f3660046119bf565b610341565b005b610144610154366004611a6f565b610797565b61016c610167366004611a9e565b610901565b60405190151581526020015b60405180910390f35b61014461018f366004611a6f565b610c3e565b610144610e50565b60015460ff1661016c565b6101b060045481565b604051908152602001610178565b6101b06101cc366004611b69565b60076020526000908152604090205481565b6101446101ec366004611a6f565b610efe565b610144611062565b61014461110e565b6101b060035481565b6101b0610218366004611b69565b60066020526000908152604090205481565b610144610238366004611b84565b6111a1565b61025061024b366004611b69565b61139e565b6040516101789190611bd0565b6101b061026b366004611b69565b60086020526000908152604090205481565b6102a47f000000000000000000000000000000000000000000000000000000000000000081565b6040516001600160a01b039091168152602001610178565b610144611438565b6101446102d2366004611a6f565b6115c0565b6103176102e5366004611b69565b600260208190526000918252604090912080546001820154928201546003830154600490930154919392909160ff1685565b6040805195865260208601949094529284019190915260608301521515608082015260a001610178565b6103496116ff565b610351611729565b46617a691461040957864310156103af5760405162461bcd60e51b815260206004820152601f60248201527f426c6f636b207363656e6172696f20697320696e20746865206675747572650060448201526064015b60405180910390fd5b6103e86103bc8843611c35565b106104095760405162461bcd60e51b815260206004820152601d60248201527f426c6f636b20766572696669636174696f6e20697320746f6f206f6c6400000060448201526064016103a6565b6001600160a01b0389166000908152600260205260409020600481015460ff16156104765760405162461bcd60e51b815260206004820152601760248201527f4e6f646520697320616c726561647920736c617368656400000000000000000060448201526064016103a6565b8387036104b75760405162461bcd60e51b815260206004820152600f60248201526e0a6c2daca40c4d8dec6d640d0c2e6d608b1b60448201526064016103a6565b6009805460ff19166001179055604080516020601f8801819004810282018101909252868152610505918c918a918a908a908190840183828082843760009201919091525061090192505050565b6105475760405162461bcd60e51b8152602060048201526013602482015272496e76616c6964207369676e6174757265203160681b60448201526064016103a6565b6105888a8585858080601f01602080910402602001604051908101604052809392919081815260200183838082843760009201919091525061090192505050565b6105ca5760405162461bcd60e51b815260206004820152601360248201527224b73b30b634b21039b4b3b730ba3ab932901960691b60448201526064016103a6565b6009805460ff1916905560035481546000916064916105e99190611c4e565b6105f39190611c65565b9050808260000160008282546106099190611c35565b909155505060048201805460ff19166001179055600060038301556040516001600160a01b038c16907f992bebd8a6e574d4b441fbc6155cf5486a16f70f9003d8189f63374675c5022b906106ac90848152604060208201819052602d908201527f4c617a79207369676e61747572652076616c696461746564206f6e205265642d60608201526c48657272696e6720626c6f636b60981b608082015260a00190565b60405180910390a26001600160a01b037f0000000000000000000000000000000000000000000000000000000000000000166342966c686106ee600284611c65565b6040518263ffffffff1660e01b815260040161070c91815260200190565b600060405180830381600087803b15801561072657600080fd5b505af115801561073a573d6000803e3d6000fd5b505050506107808a60028361074f9190611c65565b6001600160a01b037f000000000000000000000000000000000000000000000000000000000000000016919061174d565b505061078c6001600055565b505050505050505050565b604051631c86b03760e31b81523360048201527f00000000000000000000000000000000000000000000000000000000000000006001600160a01b03169063e43581b890602401602060405180830381865afa1580156107fb573d6000803e3d6000fd5b505050506040513d601f19601f8201168201806040525081019061081f9190611c87565b61083b5760405162461bcd60e51b81526004016103a690611ca9565b610e108110158015610850575062278d008111155b61089c5760405162461bcd60e51b815260206004820152601d60248201527f556e626f6e64696e6720706572696f64206f7574206f662072616e676500000060448201526064016103a6565b600481905560408051818152600f918101919091526e1d5b989bdb991a5b99d4195c9a5bd9608a1b6060820152602081018290527f3a64504f0bc0c335e2aecb78638a257e0351a3fe0370861fd54ee4190b920933906080015b60405180910390a150565b60095460009060ff168061092357503360009081526002602052604090205415155b806109b15750604051631c86b03760e31b81523360048201527f00000000000000000000000000000000000000000000000000000000000000006001600160a01b03169063e43581b890602401602060405180830381865afa15801561098d573d6000803e3d6000fd5b505050506040513d601f19601f820116820180604052508101906109b19190611c87565b6109fd5760405162461bcd60e51b815260206004820152601c60248201527f556e617574686f72697a65642076657269666965722063616c6c65720000000060448201526064016103a6565b6001600160a01b038416610a535760405162461bcd60e51b815260206004820152601960248201527f496e76616c69642076616c696461746f7220616464726573730000000000000060448201526064016103a6565b60408251101580610a65575081516063145b610acc5760405162461bcd60e51b815260206004820152603260248201527f496e76616c69642046616c636f6e207369676e61747572652062797465206c656044820152716e67746820636f6d7061746962696c69747960701b60648201526084016103a6565b6001600160a01b03841660009081526005602052604081208054610aef90611ced565b80601f0160208091040260200160405190810160405280929190818152602001828054610b1b90611ced565b8015610b685780601f10610b3d57610100808354040283529160200191610b68565b820191906000526020600020905b815481529060010190602001808311610b4b57829003601f168201915b505050505090508051600003610b82576000915050610c37565b60006040518581528460208201528260838201526020600060a38360f9620493e0fa91505080610c335746617a6903610bd057835160631480610bc757506040845110155b92505050610c37565b80610c335760405162461bcd60e51b815260206004820152602d60248201527f46616c636f6e20707265636f6d70696c65206e6f7420617661696c61626c652060448201526c37b7103a3434b99031b430b4b760991b60648201526084016103a6565b9150505b9392505050565b610c466116ff565b610c4e611729565b33600090815260026020526040902054610caa5760405162461bcd60e51b815260206004820152601c60248201527f4d75737420626520612076616c696461746f7220746f20636c61696d0000000060448201526064016103a6565b3360009081526002602052604090206004015460ff1615610cdd5760405162461bcd60e51b81526004016103a690611d27565b3360009081526007602052604090205481610d3a5760405162461bcd60e51b815260206004820152601e60248201527f52657761726420616d6f756e74206d75737420626520706f736974697665000060448201526064016103a6565b80821115610d8a5760405162461bcd60e51b815260206004820152601b60248201527f4578636565647320616363756d756c617465642072657761726473000000000060448201526064016103a6565b3360009081526007602052604081208054849290610da9908490611c35565b909155505033600081815260086020526040908190204390555163e307495160e01b81526004810191909152602481018390526001600160a01b037f0000000000000000000000000000000000000000000000000000000000000000169063e307495190604401600060405180830381600087803b158015610e2a57600080fd5b505af1158015610e3e573d6000803e3d6000fd5b5050505050610e4d6001600055565b50565b604051631c86b03760e31b81523360048201527f00000000000000000000000000000000000000000000000000000000000000006001600160a01b03169063e43581b890602401602060405180830381865afa158015610eb4573d6000803e3d6000fd5b505050506040513d601f19601f82011682018060405250810190610ed89190611c87565b610ef45760405162461bcd60e51b81526004016103a690611ca9565b610efc6117ac565b565b604051631c86b03760e31b81523360048201527f00000000000000000000000000000000000000000000000000000000000000006001600160a01b03169063e43581b890602401602060405180830381865afa158015610f62573d6000803e3d6000fd5b505050506040513d601f19601f82011682018060405250810190610f869190611c87565b610fa25760405162461bcd60e51b81526004016103a690611ca9565b60058110158015610fb4575060328111155b6110005760405162461bcd60e51b815260206004820152601a60248201527f536c6173682070656e616c7479206f7574206f662072616e676500000000000060448201526064016103a6565b600381905560408051818152601391810191909152721cdb185cda14195b985b1d1e54195c98d95b9d606a1b6060820152602081018290527f3a64504f0bc0c335e2aecb78638a257e0351a3fe0370861fd54ee4190b920933906080016108f6565b604051631c86b03760e31b81523360048201527f00000000000000000000000000000000000000000000000000000000000000006001600160a01b03169063e43581b890602401602060405180830381865afa1580156110c6573d6000803e3d6000fd5b505050506040513d601f19601f820116820180604052508101906110ea9190611c87565b6111065760405162461bcd60e51b81526004016103a690611ca9565b610efc6117fe565b6111166116ff565b61111e611729565b3360009081526002602052604090205461117a5760405162461bcd60e51b815260206004820152601b60248201527f4e6f7420612076616c696461746f72206f72206e6f207374616b65000000000060448201526064016103a6565b6004546111879042611d6a565b33600090815260066020526040902055610efc6001600055565b6111a96116ff565b6111b1611729565b68056bc75e2d6310000083101561120a5760405162461bcd60e51b815260206004820152601860248201527f4d696e696d756d207374616b65206973203130302053594d000000000000000060448201526064016103a6565b806112575760405162461bcd60e51b815260206004820152601a60248201527f46616c636f6e205075626c6963204b657920726571756972656400000000000060448201526064016103a6565b33600090815260026020526040902054156112a95760405162461bcd60e51b8152602060048201526012602482015271105b1c9958591e481c9959da5cdd195c995960721b60448201526064016103a6565b6040805160a0810182528481526000602080830182815243848601908152606460608601908152608086018581523386526002808652888720975188559351600188015591519286019290925590516003850155516004909301805460ff191693151593909317909255600590915220611324828483611dcd565b5060405183815233907fb4a7f5c563a0e35593d156394ed681bdc9c39467d7d722749d23862c2e4b712c9060200160405180910390a261138f6001600160a01b037f000000000000000000000000000000000000000000000000000000000000000016333086611839565b6113996001600055565b505050565b600560205260009081526040902080546113b790611ced565b80601f01602080910402602001604051908101604052809291908181526020018280546113e390611ced565b80156114305780601f1061140557610100808354040283529160200191611430565b820191906000526020600020905b81548152906001019060200180831161141357829003601f168201915b505050505081565b6114406116ff565b611448611729565b336000908152600660205260409020548061149a5760405162461bcd60e51b8152602060048201526012602482015271115e1a5d081b9bdd081a5b9a5d1a585d195960721b60448201526064016103a6565b804210156114ea5760405162461bcd60e51b815260206004820152601760248201527f556e626f6e64696e6720706572696f642061637469766500000000000000000060448201526064016103a6565b33600090815260026020526040902080548061153f5760405162461bcd60e51b81526020600482015260146024820152734e6f207374616b6520746f20776974686472617760601b60448201526064016103a6565b600080835560038301819055600183018190556002830181905533815260056020526040812061156e9161190c565b336000818152600660205260408120556115b3907f00000000000000000000000000000000000000000000000000000000000000006001600160a01b0316908361174d565b505050610efc6001600055565b6115c86116ff565b6115d0611729565b33600090815260026020526040902080546116235760405162461bcd60e51b815260206004820152601360248201527226bab9ba1031329030903b30b634b230ba37b960691b60448201526064016103a6565b600481015460ff16156116485760405162461bcd60e51b81526004016103a690611d27565b6000821161168e5760405162461bcd60e51b8152602060048201526013602482015272125b9d985b1a5908189b1bd8dac818dbdd5b9d606a1b60448201526064016103a6565b600061169b836005611c4e565b6116ad90670de0b6b3a7640000611c4e565b9050828260010160008282546116c39190611d6a565b909155505043600283015533600090815260076020526040812080548392906116ed908490611d6a565b9091555050600160005550610e4d9050565b60026000540361172257604051633ee5aeb560e01b815260040160405180910390fd5b6002600055565b60015460ff1615610efc5760405163d93c066560e01b815260040160405180910390fd5b6040516001600160a01b0383811660248301526044820183905261139991859182169063a9059cbb906064015b604051602081830303815290604052915060e01b6020820180516001600160e01b038381831617835250505050611878565b6117b46118e9565b6001805460ff191690557f5db9ee0a495bf2e6ff9c91a7834c1ba4fdd244a5e8aa4e537bd38aeae4b073aa335b6040516001600160a01b03909116815260200160405180910390a1565b611806611729565b6001805460ff1916811790557f62e78cea01bee320cd4e420270b5ea74000d11b0c9f74754ebdbfc544b05a258336117e1565b6040516001600160a01b0384811660248301528381166044830152606482018390526118729186918216906323b872dd9060840161177a565b50505050565b600080602060008451602086016000885af18061189b576040513d6000823e3d81fd5b50506000513d915081156118b35780600114156118c0565b6001600160a01b0384163b155b1561187257604051635274afe760e01b81526001600160a01b03851660048201526024016103a6565b60015460ff16610efc57604051638dfc202b60e01b815260040160405180910390fd5b50805461191890611ced565b6000825580601f10611928575050565b601f016020900490600052602060002090810190610e4d91905b808211156119565760008155600101611942565b5090565b80356001600160a01b038116811461197157600080fd5b919050565b60008083601f84011261198857600080fd5b50813567ffffffffffffffff8111156119a057600080fd5b6020830191508360208285010111156119b857600080fd5b9250929050565b600080600080600080600080600060e08a8c0312156119dd57600080fd5b6119e68a61195a565b98506119f460208b0161195a565b975060408a0135965060608a0135955060808a013567ffffffffffffffff80821115611a1f57600080fd5b611a2b8d838e01611976565b909750955060a08c0135945060c08c0135915080821115611a4b57600080fd5b50611a588c828d01611976565b915080935050809150509295985092959850929598565b600060208284031215611a8157600080fd5b5035919050565b634e487b7160e01b600052604160045260246000fd5b600080600060608486031215611ab357600080fd5b611abc8461195a565b925060208401359150604084013567ffffffffffffffff80821115611ae057600080fd5b818601915086601f830112611af457600080fd5b813581811115611b0657611b06611a88565b604051601f8201601f19908116603f01168101908382118183101715611b2e57611b2e611a88565b81604052828152896020848701011115611b4757600080fd5b8260208601602083013760006020848301015280955050505050509250925092565b600060208284031215611b7b57600080fd5b610c378261195a565b600080600060408486031215611b9957600080fd5b83359250602084013567ffffffffffffffff811115611bb757600080fd5b611bc386828701611976565b9497909650939450505050565b60006020808352835180602085015260005b81811015611bfe57858101830151858201604001528201611be2565b506000604082860101526040601f19601f8301168501019250505092915050565b634e487b7160e01b600052601160045260246000fd5b81810381811115611c4857611c48611c1f565b92915050565b8082028115828204841417611c4857611c48611c1f565b600082611c8257634e487b7160e01b600052601260045260246000fd5b500490565b600060208284031215611c9957600080fd5b81518015158114610c3757600080fd5b60208082526024908201527f43616c6c6572206973206e6f7420616e20617574686f72697a656420676f7665604082015263393737b960e11b606082015260800190565b600181811c90821680611d0157607f821691505b602082108103611d2157634e487b7160e01b600052602260045260246000fd5b50919050565b60208082526023908201527f536c6173686564206e6f6465732063616e6e6f74206f627461696e207265776160408201526272647360e81b606082015260800190565b80820180821115611c4857611c48611c1f565b601f821115611399576000816000526020600020601f850160051c81016020861015611da65750805b601f850160051c820191505b81811015611dc557828155600101611db2565b505050505050565b67ffffffffffffffff831115611de557611de5611a88565b611df983611df38354611ced565b83611d7d565b6000601f841160018114611e2d5760008515611e155750838201355b600019600387901b1c1916600186901b178355611e87565b600083815260209020601f19861690835b82811015611e5e5786850135825560209485019460019092019101611e3e565b5086821015611e7b5760001960f88860031b161c19848701351681555b505060018560011b0183555b505050505056fea26469706673582212206da64c5ac34dfcfd5b18fd4900710c0091d4d5652621d52fe08edb865ff7414e64736f6c63430008180033",
  "linkReferences": {},
  "deployedLinkReferences": {}
}