{
  "_format": "hh-sol-artifact-1",
  "contractName": "NashConsensusRegistry",
  "sourceName": "contracts/NashConsensusRegistry.sol",
  "abi": [
    {
      "inputs": [
        {
          "internalType": "address",
          "name": "_symToken",
          "type": "address"
        }
      ],
      "stateMutability": "nonpayable",
      "type": "constructor"
    },
    {
      "inputs": [],
      "name": "ReentrancyGuardReentrantCall",
      "type": "error"
    },
    {
      "inputs": [
        {
          "internalType": "address",
          "name": "token",
          "type": "address"
        }
      ],
      "name": "SafeERC20FailedOperation",
      "type": "error"
    },
    {
      "anonymous": false,
      "inputs": [
        {
          "indexed": true,
          "internalType": "address",
          "name": "node",
          "type": "address"
        },
        {
          "indexed": false,
          "internalType": "uint256",
          "name": "slashedAmount",
          "type": "uint256"
        },
        {
          "indexed": false,
          "internalType": "string",
          "name": "reason",
          "type": "string"
        }
      ],
      "name": "NodeSlashed",
      "type": "event"
    },
    {
      "anonymous": false,
      "inputs": [
        {
          "indexed": true,
          "internalType": "address",
          "name": "node",
          "type": "address"
        },
        {
          "indexed": false,
          "internalType": "uint256",
          "name": "initialStake",
          "type": "uint256"
        }
      ],
      "name": "ValidatorRegistered",
      "type": "event"
    },
    {
      "inputs": [],
      "name": "SLASH_PENALTY_PERCENT",
      "outputs": [
        {
          "internalType": "uint256",
          "name": "",
          "type": "uint256"
        }
      ],
      "stateMutability": "view",
      "type": "function"
    },
    {
      "inputs": [
        {
          "internalType": "address",
          "name": "",
          "type": "address"
        }
      ],
      "name": "falconPublicKeys",
      "outputs": [
        {
          "internalType": "bytes",
          "name": "",
          "type": "bytes"
        }
      ],
      "stateMutability": "view",
      "type": "function"
    },
    {
      "inputs": [
        {
          "internalType": "uint256",
          "name": "initialStake",
          "type": "uint256"
        },
        {
          "internalType": "bytes",
          "name": "falconPubKey",
          "type": "bytes"
        }
      ],
      "name": "registerValidator",
      "outputs": [],
      "stateMutability": "nonpayable",
      "type": "function"
    },
    {
      "inputs": [],
      "name": "symToken",
      "outputs": [
        {
          "internalType": "contract SymbiosisToken",
          "name": "",
          "type": "address"
        }
      ],
      "stateMutability": "view",
      "type": "function"
    },
    {
      "inputs": [
        {
          "internalType": "address",
          "name": "guiltyNode",
          "type": "address"
        },
        {
          "internalType": "address",
          "name": "whistleblower",
          "type": "address"
        },
        {
          "internalType": "uint256",
          "name": "",
          "type": "uint256"
        }
      ],
      "name": "triggerLazySlashing",
      "outputs": [],
      "stateMutability": "nonpayable",
      "type": "function"
    },
    {
      "inputs": [
        {
          "internalType": "address",
          "name": "",
          "type": "address"
        }
      ],
      "name": "validators",
      "outputs": [
        {
          "internalType": "uint256",
          "name": "stakedAmount",
          "type": "uint256"
        },
        {
          "internalType": "uint256",
          "name": "totalBlocksChecked",
          "type": "uint256"
        },
        {
          "internalType": "uint256",
          "name": "lastVerifiedBlock",
          "type": "uint256"
        },
        {
          "internalType": "bool",
          "name": "isSlashed",
          "type": "bool"
        },
        {
          "internalType": "uint256",
          "name": "reputation",
          "type": "uint256"
        }
      ],
      "stateMutability": "view",
      "type": "function"
    },
    {
      "inputs": [
        {
          "internalType": "address",
          "name": "validator",
          "type": "address"
        },
        {
          "internalType": "bytes32",
          "name": "",
          "type": "bytes32"
        },
        {
          "internalType": "bytes",
          "name": "signature",
          "type": "bytes"
        }
      ],
      "name": "verifyFalconSignature",
      "outputs": [
        {
          "internalType": "bool",
          "name": "",
          "type": "bool"
        }
      ],
      "stateMutability": "view",
      "type": "function"
    }
  ],
  "bytecode": "0x60a060405234801561001057600080fd5b50604051610db3380380610db383398101604081905261002f91610045565b60016000556001600160a01b0316608052610075565b60006020828403121561005757600080fd5b81516001600160a01b038116811461006e57600080fd5b9392505050565b608051610d0e6100a56000396000818161010d015281816104bc0152818161055701526107010152610d0e6000f3fe608060405234801561001057600080fd5b506004361061007d5760003560e01c8063e2936b5c1161005b578063e2936b5c146100d2578063e62e04bc146100f2578063ea1804bb14610108578063fa52c7d81461014757600080fd5b80631934374514610082578063669dd1d5146100aa578063df9c4273146100bf575b600080fd5b610095610090366004610938565b6101b3565b60405190151581526020015b60405180910390f35b6100bd6100b8366004610a03565b61035d565b005b6100bd6100cd366004610a3f565b61058f565b6100e56100e0366004610abb565b610733565b6040516100a19190610ad6565b6100fa600f81565b6040519081526020016100a1565b61012f7f000000000000000000000000000000000000000000000000000000000000000081565b6040516001600160a01b0390911681526020016100a1565b610189610155366004610abb565b6001602081905260009182526040909120805491810154600282015460038301546004909301549192909160ff9091169085565b6040805195865260208601949094529284019190915215156060830152608082015260a0016100a1565b60006001600160a01b0384166102105760405162461bcd60e51b815260206004820152601960248201527f496e76616c69642076616c696461746f7220616464726573730000000000000060448201526064015b60405180910390fd5b60408251101580610222575081516063145b6102895760405162461bcd60e51b815260206004820152603260248201527f496e76616c69642046616c636f6e207369676e61747572652062797465206c656044820152716e67746820636f6d7061746962696c69747960701b6064820152608401610207565b815160630361029a57506001610356565b6001600160a01b038416600090815260026020526040812080546102bd90610b25565b80601f01602080910402602001604051908101604052809291908181526020018280546102e990610b25565b80156103365780601f1061030b57610100808354040283529160200191610336565b820191906000526020600020905b81548152906001019060200180831161031957829003601f168201915b505050505090508051600003610350576000915050610356565b60019150505b9392505050565b6103656107cd565b6001600160a01b0383166000908152600160205260409020600381015460ff16156103d25760405162461bcd60e51b815260206004820152601760248201527f4e6f646520697320616c726561647920736c61736865640000000000000000006044820152606401610207565b60006064600f83600001546103e79190610b75565b6103f19190610b92565b9050808260000160008282546104079190610bb4565b909155505060038201805460ff19166001179055600060048301556040516001600160a01b038616907f992bebd8a6e574d4b441fbc6155cf5486a16f70f9003d8189f63374675c5022b906104aa90848152604060208201819052602d908201527f4c617a79207369676e61747572652076616c696461746564206f6e205265642d60608201526c48657272696e6720626c6f636b60981b608082015260a00190565b60405180910390a26001600160a01b037f0000000000000000000000000000000000000000000000000000000000000000166342966c686104ec600284610b92565b6040518263ffffffff1660e01b815260040161050a91815260200190565b600060405180830381600087803b15801561052457600080fd5b505af1158015610538573d6000803e3d6000fd5b5050505061057e8460028361054d9190610b92565b6001600160a01b037f00000000000000000000000000000000000000000000000000000000000000001691906107f7565b505061058a6001600055565b505050565b6105976107cd565b68056bc75e2d631000008310156105f05760405162461bcd60e51b815260206004820152601860248201527f4d696e696d756d207374616b65206973203130302053594d00000000000000006044820152606401610207565b8061063d5760405162461bcd60e51b815260206004820152601a60248201527f46616c636f6e205075626c6963204b65792072657175697265640000000000006044820152606401610207565b6040805160a0810182528481526000602080830182815243848601908152606085018481526064608087019081523386526001808652888720975188559351938701939093559051600280870191909155905160038601805460ff1916911515919091179055905160049094019390935591909152206106be828483610c17565b5060405183815233907fb4a7f5c563a0e35593d156394ed681bdc9c39467d7d722749d23862c2e4b712c9060200160405180910390a26107296001600160a01b037f000000000000000000000000000000000000000000000000000000000000000016333086610856565b61058a6001600055565b6002602052600090815260409020805461074c90610b25565b80601f016020809104026020016040519081016040528092919081815260200182805461077890610b25565b80156107c55780601f1061079a576101008083540402835291602001916107c5565b820191906000526020600020905b8154815290600101906020018083116107a857829003601f168201915b505050505081565b6002600054036107f057604051633ee5aeb560e01b815260040160405180910390fd5b6002600055565b6040516001600160a01b0383811660248301526044820183905261058a91859182169063a9059cbb906064015b604051602081830303815290604052915060e01b6020820180516001600160e01b038381831617835250505050610895565b6040516001600160a01b03848116602483015283811660448301526064820183905261088f9186918216906323b872dd90608401610824565b50505050565b600080602060008451602086016000885af1806108b8576040513d6000823e3d81fd5b50506000513d915081156108d05780600114156108dd565b6001600160a01b0384163b155b1561088f57604051635274afe760e01b81526001600160a01b0385166004820152602401610207565b80356001600160a01b038116811461091d57600080fd5b919050565b634e487b7160e01b600052604160045260246000fd5b60008060006060848603121561094d57600080fd5b61095684610906565b925060208401359150604084013567ffffffffffffffff8082111561097a57600080fd5b818601915086601f83011261098e57600080fd5b8135818111156109a0576109a0610922565b604051601f8201601f19908116603f011681019083821181831017156109c8576109c8610922565b816040528281528960208487010111156109e157600080fd5b8260208601602083013760006020848301015280955050505050509250925092565b600080600060608486031215610a1857600080fd5b610a2184610906565b9250610a2f60208501610906565b9150604084013590509250925092565b600080600060408486031215610a5457600080fd5b83359250602084013567ffffffffffffffff80821115610a7357600080fd5b818601915086601f830112610a8757600080fd5b813581811115610a9657600080fd5b876020828501011115610aa857600080fd5b6020830194508093505050509250925092565b600060208284031215610acd57600080fd5b61035682610906565b60006020808352835180602085015260005b81811015610b0457858101830151858201604001528201610ae8565b506000604082860101526040601f19601f8301168501019250505092915050565b600181811c90821680610b3957607f821691505b602082108103610b5957634e487b7160e01b600052602260045260246000fd5b50919050565b634e487b7160e01b600052601160045260246000fd5b8082028115828204841417610b8c57610b8c610b5f565b92915050565b600082610baf57634e487b7160e01b600052601260045260246000fd5b500490565b81810381811115610b8c57610b8c610b5f565b601f82111561058a576000816000526020600020601f850160051c81016020861015610bf05750805b601f850160051c820191505b81811015610c0f57828155600101610bfc565b505050505050565b67ffffffffffffffff831115610c2f57610c2f610922565b610c4383610c3d8354610b25565b83610bc7565b6000601f841160018114610c775760008515610c5f5750838201355b600019600387901b1c1916600186901b178355610cd1565b600083815260209020601f19861690835b82811015610ca85786850135825560209485019460019092019101610c88565b5086821015610cc55760001960f88860031b161c19848701351681555b505060018560011b0183555b505050505056fea264697066735822122023406209ee8471864f02d0c9c810ea8b288bc555ce62521a5a0ca7d8690ae3ac64736f6c63430008180033",
  "linkReferences": {},
  "deployedLinkReferences": {}
}