{
  "_format": "hh-sol-artifact-1",
  "contractName": "NashConsensusRegistry",
  "sourceName": "contracts/NashConsensusRegistry.sol",
  "abi": [
    {
      "inputs": [
        {
          "internalType": "address",
          "name": "_symToken",
          "type": "address"
        }
      ],
      "stateMutability": "nonpayable",
      "type": "constructor"
    },
    {
      "inputs": [],
      "name": "EnforcedPause",
      "type": "error"
    },
    {
      "inputs": [],
      "name": "ExpectedPause",
      "type": "error"
    },
    {
      "inputs": [],
      "name": "ReentrancyGuardReentrantCall",
      "type": "error"
    },
    {
      "inputs": [
        {
          "internalType": "address",
          "name": "token",
          "type": "address"
        }
      ],
      "name": "SafeERC20FailedOperation",
      "type": "error"
    },
    {
      "anonymous": false,
      "inputs": [
        {
          "indexed": true,
          "internalType": "address",
          "name": "node",
          "type": "address"
        },
        {
          "indexed": false,
          "internalType": "uint256",
          "name": "slashedAmount",
          "type": "uint256"
        },
        {
          "indexed": false,
          "internalType": "string",
          "name": "reason",
          "type": "string"
        }
      ],
      "name": "NodeSlashed",
      "type": "event"
    },
    {
      "anonymous": false,
      "inputs": [
        {
          "indexed": false,
          "internalType": "string",
          "name": "name",
          "type": "string"
        },
        {
          "indexed": false,
          "internalType": "uint256",
          "name": "value",
          "type": "uint256"
        }
      ],
      "name": "ParameterUpdated",
      "type": "event"
    },
    {
      "anonymous": false,
      "inputs": [
        {
          "indexed": false,
          "internalType": "address",
          "name": "account",
          "type": "address"
        }
      ],
      "name": "Paused",
      "type": "event"
    },
    {
      "anonymous": false,
      "inputs": [
        {
          "indexed": false,
          "internalType": "address",
          "name": "account",
          "type": "address"
        }
      ],
      "name": "Unpaused",
      "type": "event"
    },
    {
      "anonymous": false,
      "inputs": [
        {
          "indexed": true,
          "internalType": "address",
          "name": "node",
          "type": "address"
        },
        {
          "indexed": false,
          "internalType": "uint256",
          "name": "initialStake",
          "type": "uint256"
        }
      ],
      "name": "ValidatorRegistered",
      "type": "event"
    },
    {
      "inputs": [
        {
          "internalType": "uint256",
          "name": "rewardAmount",
          "type": "uint256"
        }
      ],
      "name": "claimValidatorRewards",
      "outputs": [],
      "stateMutability": "nonpayable",
      "type": "function"
    },
    {
      "inputs": [
        {
          "internalType": "address",
          "name": "",
          "type": "address"
        }
      ],
      "name": "falconPublicKeys",
      "outputs": [
        {
          "internalType": "bytes",
          "name": "",
          "type": "bytes"
        }
      ],
      "stateMutability": "view",
      "type": "function"
    },
    {
      "inputs": [],
      "name": "initiateValidatorExit",
      "outputs": [],
      "stateMutability": "nonpayable",
      "type": "function"
    },
    {
      "inputs": [],
      "name": "pause",
      "outputs": [],
      "stateMutability": "nonpayable",
      "type": "function"
    },
    {
      "inputs": [],
      "name": "paused",
      "outputs": [
        {
          "internalType": "bool",
          "name": "",
          "type": "bool"
        }
      ],
      "stateMutability": "view",
      "type": "function"
    },
    {
      "inputs": [
        {
          "internalType": "uint256",
          "name": "initialStake",
          "type": "uint256"
        },
        {
          "internalType": "bytes",
          "name": "falconPubKey",
          "type": "bytes"
        }
      ],
      "name": "registerValidator",
      "outputs": [],
      "stateMutability": "nonpayable",
      "type": "function"
    },
    {
      "inputs": [
        {
          "internalType": "uint256",
          "name": "newPercent",
          "type": "uint256"
        }
      ],
      "name": "setSlashPenaltyPercent",
      "outputs": [],
      "stateMutability": "nonpayable",
      "type": "function"
    },
    {
      "inputs": [
        {
          "internalType": "uint256",
          "name": "newPeriod",
          "type": "uint256"
        }
      ],
      "name": "setUnbondingPeriod",
      "outputs": [],
      "stateMutability": "nonpayable",
      "type": "function"
    },
    {
      "inputs": [],
      "name": "slashPenaltyPercent",
      "outputs": [
        {
          "internalType": "uint256",
          "name": "",
          "type": "uint256"
        }
      ],
      "stateMutability": "view",
      "type": "function"
    },
    {
      "inputs": [],
      "name": "symToken",
      "outputs": [
        {
          "internalType": "contract SymbiosisToken",
          "name": "",
          "type": "address"
        }
      ],
      "stateMutability": "view",
      "type": "function"
    },
    {
      "inputs": [
        {
          "internalType": "address",
          "name": "guiltyNode",
          "type": "address"
        },
        {
          "internalType": "address",
          "name": "whistleblower",
          "type": "address"
        },
        {
          "internalType": "uint256",
          "name": "",
          "type": "uint256"
        },
        {
          "internalType": "bytes32",
          "name": "blockHash1",
          "type": "bytes32"
        },
        {
          "internalType": "bytes",
          "name": "sig1",
          "type": "bytes"
        },
        {
          "internalType": "bytes32",
          "name": "blockHash2",
          "type": "bytes32"
        },
        {
          "internalType": "bytes",
          "name": "sig2",
          "type": "bytes"
        }
      ],
      "name": "triggerLazySlashing",
      "outputs": [],
      "stateMutability": "nonpayable",
      "type": "function"
    },
    {
      "inputs": [
        {
          "internalType": "address",
          "name": "",
          "type": "address"
        }
      ],
      "name": "unbondingEta",
      "outputs": [
        {
          "internalType": "uint256",
          "name": "",
          "type": "uint256"
        }
      ],
      "stateMutability": "view",
      "type": "function"
    },
    {
      "inputs": [],
      "name": "unbondingPeriod",
      "outputs": [
        {
          "internalType": "uint256",
          "name": "",
          "type": "uint256"
        }
      ],
      "stateMutability": "view",
      "type": "function"
    },
    {
      "inputs": [],
      "name": "unpause",
      "outputs": [],
      "stateMutability": "nonpayable",
      "type": "function"
    },
    {
      "inputs": [
        {
          "internalType": "address",
          "name": "",
          "type": "address"
        }
      ],
      "name": "validators",
      "outputs": [
        {
          "internalType": "uint256",
          "name": "stakedAmount",
          "type": "uint256"
        },
        {
          "internalType": "uint256",
          "name": "totalBlocksChecked",
          "type": "uint256"
        },
        {
          "internalType": "uint256",
          "name": "lastVerifiedBlock",
          "type": "uint256"
        },
        {
          "internalType": "uint256",
          "name": "reputation",
          "type": "uint256"
        },
        {
          "internalType": "bool",
          "name": "isSlashed",
          "type": "bool"
        }
      ],
      "stateMutability": "view",
      "type": "function"
    },
    {
      "inputs": [
        {
          "internalType": "address",
          "name": "validator",
          "type": "address"
        },
        {
          "internalType": "bytes32",
          "name": "blockHash",
          "type": "bytes32"
        },
        {
          "internalType": "bytes",
          "name": "signature",
          "type": "bytes"
        }
      ],
      "name": "verifyFalconSignature",
      "outputs": [
        {
          "internalType": "bool",
          "name": "",
          "type": "bool"
        }
      ],
      "stateMutability": "view",
      "type": "function"
    },
    {
      "inputs": [],
      "name": "withdrawValidatorStake",
      "outputs": [],
      "stateMutability": "nonpayable",
      "type": "function"
    }
  ],
  "bytecode": "0x60a0604052600f6003556201518060045534801561001c57600080fd5b50604051611abb380380611abb83398101604081905261003b916100b5565b60016000819055805460ff191690556001600160a01b0381166100a45760405162461bcd60e51b815260206004820152601560248201527f496e76616c696420746f6b656e20616464726573730000000000000000000000604482015260640160405180910390fd5b6001600160a01b03166080526100e5565b6000602082840312156100c757600080fd5b81516001600160a01b03811681146100de57600080fd5b9392505050565b60805161197c61013f60003960008181610221015281816105810152818161061c0152818161066f01528181610a3101528181610ab701528181610b6501528181610cb101528181610fa101526111be015261197c6000f3fe608060405234801561001057600080fd5b506004361061010b5760003560e01c80638456cb59116100a2578063df9c427311610071578063df9c4273146101e9578063e2936b5c146101fc578063ea1804bb1461021c578063f63f32e81461025b578063fa52c7d81461026357600080fd5b80638456cb59146101b0578063a4511006146101b8578063b98bcfa5146101c0578063c2b58aaf146101c957600080fd5b80633f4ba83a116100de5780633f4ba83a146101735780635c975abb1461017b5780636cf6d67514610186578063757010e61461019d57600080fd5b8063015d0b7f14610110578063114eaf55146101255780631934374514610138578063295cccba14610160575b600080fd5b61012361011e3660046114ba565b6102cd565b005b61012361013336600461156a565b61065a565b61014b610146366004611599565b610763565b60405190151581526020015b60405180910390f35b61012361016e36600461156a565b61093a565b610123610aa2565b60015460ff1661014b565b61018f60045481565b604051908152602001610157565b6101236101ab36600461156a565b610b50565b610123610c9c565b610123610d48565b61018f60035481565b61018f6101d7366004611664565b60066020526000908152604090205481565b6101236101f736600461167f565b610ddb565b61020f61020a366004611664565b610fd8565b60405161015791906116cb565b6102437f000000000000000000000000000000000000000000000000000000000000000081565b6040516001600160a01b039091168152602001610157565b610123611072565b6102a3610271366004611664565b600260208190526000918252604090912080546001820154928201546003830154600490930154919392909160ff1685565b6040805195865260208601949094529284019190915260608301521515608082015260a001610157565b6102d56111fa565b6102dd611224565b6001600160a01b0389166000908152600260205260409020600481015460ff161561034f5760405162461bcd60e51b815260206004820152601760248201527f4e6f646520697320616c726561647920736c617368656400000000000000000060448201526064015b60405180910390fd5b8387036103905760405162461bcd60e51b815260206004820152600f60248201526e0a6c2daca40c4d8dec6d640d0c2e6d608b1b6044820152606401610346565b6103d18a8888888080601f01602080910402602001604051908101604052809392919081815260200183838082843760009201919091525061076392505050565b6104135760405162461bcd60e51b8152602060048201526013602482015272496e76616c6964207369676e6174757265203160681b6044820152606401610346565b6104548a8585858080601f01602080910402602001604051908101604052809392919081815260200183838082843760009201919091525061076392505050565b6104965760405162461bcd60e51b815260206004820152601360248201527224b73b30b634b21039b4b3b730ba3ab932901960691b6044820152606401610346565b6000606460035483600001546104ac9190611730565b6104b6919061174d565b9050808260000160008282546104cc919061176f565b909155505060048201805460ff19166001179055600060038301556040516001600160a01b038c16907f992bebd8a6e574d4b441fbc6155cf5486a16f70f9003d8189f63374675c5022b9061056f90848152604060208201819052602d908201527f4c617a79207369676e61747572652076616c696461746564206f6e205265642d60608201526c48657272696e6720626c6f636b60981b608082015260a00190565b60405180910390a26001600160a01b037f0000000000000000000000000000000000000000000000000000000000000000166342966c686105b160028461174d565b6040518263ffffffff1660e01b81526004016105cf91815260200190565b600060405180830381600087803b1580156105e957600080fd5b505af11580156105fd573d6000803e3d6000fd5b505050506106438a600283610612919061174d565b6001600160a01b037f0000000000000000000000000000000000000000000000000000000000000000169190611248565b505061064f6001600055565b505050505050505050565b604051631c86b03760e31b81523360048201527f00000000000000000000000000000000000000000000000000000000000000006001600160a01b03169063e43581b890602401602060405180830381865afa1580156106be573d6000803e3d6000fd5b505050506040513d601f19601f820116820180604052508101906106e29190611782565b6106fe5760405162461bcd60e51b8152600401610346906117a4565b600481905560408051818152600f918101919091526e1d5b989bdb991a5b99d4195c9a5bd9608a1b6060820152602081018290527f3a64504f0bc0c335e2aecb78638a257e0351a3fe0370861fd54ee4190b920933906080015b60405180910390a150565b60006001600160a01b0384166107bb5760405162461bcd60e51b815260206004820152601960248201527f496e76616c69642076616c696461746f722061646472657373000000000000006044820152606401610346565b604082511015806107cd575081516063145b6108345760405162461bcd60e51b815260206004820152603260248201527f496e76616c69642046616c636f6e207369676e61747572652062797465206c656044820152716e67746820636f6d7061746962696c69747960701b6064820152608401610346565b6001600160a01b03841660009081526005602052604081208054610857906117e8565b80601f0160208091040260200160405190810160405280929190818152602001828054610883906117e8565b80156108d05780601f106108a5576101008083540402835291602001916108d0565b820191906000526020600020905b8154815290600101906020018083116108b357829003601f168201915b5050505050905080516000036108ea576000915050610933565b60006040518581528460208201528260838201526020600060a38360f9620493e0fa9150508061092f5783516063148061092657506040845110155b92505050610933565b9150505b9392505050565b6109426111fa565b61094a611224565b336000908152600260205260409020546109a65760405162461bcd60e51b815260206004820152601c60248201527f4d75737420626520612076616c696461746f7220746f20636c61696d000000006044820152606401610346565b3360009081526002602052604090206004015460ff1615610a155760405162461bcd60e51b815260206004820152602360248201527f536c6173686564206e6f6465732063616e6e6f74206f627461696e207265776160448201526272647360e81b6064820152608401610346565b60405163e307495160e01b8152336004820152602481018290527f00000000000000000000000000000000000000000000000000000000000000006001600160a01b03169063e307495190604401600060405180830381600087803b158015610a7d57600080fd5b505af1158015610a91573d6000803e3d6000fd5b50505050610a9f6001600055565b50565b604051631c86b03760e31b81523360048201527f00000000000000000000000000000000000000000000000000000000000000006001600160a01b03169063e43581b890602401602060405180830381865afa158015610b06573d6000803e3d6000fd5b505050506040513d601f19601f82011682018060405250810190610b2a9190611782565b610b465760405162461bcd60e51b8152600401610346906117a4565b610b4e6112a7565b565b604051631c86b03760e31b81523360048201527f00000000000000000000000000000000000000000000000000000000000000006001600160a01b03169063e43581b890602401602060405180830381865afa158015610bb4573d6000803e3d6000fd5b505050506040513d601f19601f82011682018060405250810190610bd89190611782565b610bf45760405162461bcd60e51b8152600401610346906117a4565b6064811115610c3a5760405162461bcd60e51b8152602060048201526012602482015271496e76616c69642070657263656e7461676560701b6044820152606401610346565b600381905560408051818152601391810191909152721cdb185cda14195b985b1d1e54195c98d95b9d606a1b6060820152602081018290527f3a64504f0bc0c335e2aecb78638a257e0351a3fe0370861fd54ee4190b92093390608001610758565b604051631c86b03760e31b81523360048201527f00000000000000000000000000000000000000000000000000000000000000006001600160a01b03169063e43581b890602401602060405180830381865afa158015610d00573d6000803e3d6000fd5b505050506040513d601f19601f82011682018060405250810190610d249190611782565b610d405760405162461bcd60e51b8152600401610346906117a4565b610b4e6112f9565b610d506111fa565b610d58611224565b33600090815260026020526040902054610db45760405162461bcd60e51b815260206004820152601b60248201527f4e6f7420612076616c696461746f72206f72206e6f207374616b6500000000006044820152606401610346565b600454610dc19042611822565b33600090815260066020526040902055610b4e6001600055565b610de36111fa565b610deb611224565b68056bc75e2d63100000831015610e445760405162461bcd60e51b815260206004820152601860248201527f4d696e696d756d207374616b65206973203130302053594d00000000000000006044820152606401610346565b80610e915760405162461bcd60e51b815260206004820152601a60248201527f46616c636f6e205075626c6963204b65792072657175697265640000000000006044820152606401610346565b3360009081526002602052604090205415610ee35760405162461bcd60e51b8152602060048201526012602482015271105b1c9958591e481c9959da5cdd195c995960721b6044820152606401610346565b6040805160a0810182528481526000602080830182815243848601908152606460608601908152608086018581523386526002808652888720975188559351600188015591519286019290925590516003850155516004909301805460ff191693151593909317909255600590915220610f5e828483611885565b5060405183815233907fb4a7f5c563a0e35593d156394ed681bdc9c39467d7d722749d23862c2e4b712c9060200160405180910390a2610fc96001600160a01b037f000000000000000000000000000000000000000000000000000000000000000016333086611334565b610fd36001600055565b505050565b60056020526000908152604090208054610ff1906117e8565b80601f016020809104026020016040519081016040528092919081815260200182805461101d906117e8565b801561106a5780601f1061103f5761010080835404028352916020019161106a565b820191906000526020600020905b81548152906001019060200180831161104d57829003601f168201915b505050505081565b61107a6111fa565b611082611224565b33600090815260066020526040902054806110d45760405162461bcd60e51b8152602060048201526012602482015271115e1a5d081b9bdd081a5b9a5d1a585d195960721b6044820152606401610346565b804210156111245760405162461bcd60e51b815260206004820152601760248201527f556e626f6e64696e6720706572696f64206163746976650000000000000000006044820152606401610346565b3360009081526002602052604090208054806111795760405162461bcd60e51b81526020600482015260146024820152734e6f207374616b6520746f20776974686472617760601b6044820152606401610346565b60008083556003830181905560018301819055600283018190553381526005602052604081206111a891611407565b336000818152600660205260408120556111ed907f00000000000000000000000000000000000000000000000000000000000000006001600160a01b03169083611248565b505050610b4e6001600055565b60026000540361121d57604051633ee5aeb560e01b815260040160405180910390fd5b6002600055565b60015460ff1615610b4e5760405163d93c066560e01b815260040160405180910390fd5b6040516001600160a01b03838116602483015260448201839052610fd391859182169063a9059cbb906064015b604051602081830303815290604052915060e01b6020820180516001600160e01b038381831617835250505050611373565b6112af6113e4565b6001805460ff191690557f5db9ee0a495bf2e6ff9c91a7834c1ba4fdd244a5e8aa4e537bd38aeae4b073aa335b6040516001600160a01b03909116815260200160405180910390a1565b611301611224565b6001805460ff1916811790557f62e78cea01bee320cd4e420270b5ea74000d11b0c9f74754ebdbfc544b05a258336112dc565b6040516001600160a01b03848116602483015283811660448301526064820183905261136d9186918216906323b872dd90608401611275565b50505050565b600080602060008451602086016000885af180611396576040513d6000823e3d81fd5b50506000513d915081156113ae5780600114156113bb565b6001600160a01b0384163b155b1561136d57604051635274afe760e01b81526001600160a01b0385166004820152602401610346565b60015460ff16610b4e57604051638dfc202b60e01b815260040160405180910390fd5b508054611413906117e8565b6000825580601f10611423575050565b601f016020900490600052602060002090810190610a9f91905b80821115611451576000815560010161143d565b5090565b80356001600160a01b038116811461146c57600080fd5b919050565b60008083601f84011261148357600080fd5b50813567ffffffffffffffff81111561149b57600080fd5b6020830191508360208285010111156114b357600080fd5b9250929050565b600080600080600080600080600060e08a8c0312156114d857600080fd5b6114e18a611455565b98506114ef60208b01611455565b975060408a0135965060608a0135955060808a013567ffffffffffffffff8082111561151a57600080fd5b6115268d838e01611471565b909750955060a08c0135945060c08c013591508082111561154657600080fd5b506115538c828d01611471565b915080935050809150509295985092959850929598565b60006020828403121561157c57600080fd5b5035919050565b634e487b7160e01b600052604160045260246000fd5b6000806000606084860312156115ae57600080fd5b6115b784611455565b925060208401359150604084013567ffffffffffffffff808211156115db57600080fd5b818601915086601f8301126115ef57600080fd5b81358181111561160157611601611583565b604051601f8201601f19908116603f0116810190838211818310171561162957611629611583565b8160405282815289602084870101111561164257600080fd5b8260208601602083013760006020848301015280955050505050509250925092565b60006020828403121561167657600080fd5b61093382611455565b60008060006040848603121561169457600080fd5b83359250602084013567ffffffffffffffff8111156116b257600080fd5b6116be86828701611471565b9497909650939450505050565b60006020808352835180602085015260005b818110156116f9578581018301518582016040015282016116dd565b506000604082860101526040601f19601f8301168501019250505092915050565b634e487b7160e01b600052601160045260246000fd5b80820281158282048414176117475761174761171a565b92915050565b60008261176a57634e487b7160e01b600052601260045260246000fd5b500490565b818103818111156117475761174761171a565b60006020828403121561179457600080fd5b8151801515811461093357600080fd5b60208082526024908201527f43616c6c6572206973206e6f7420616e20617574686f72697a656420676f7665604082015263393737b960e11b606082015260800190565b600181811c908216806117fc57607f821691505b60208210810361181c57634e487b7160e01b600052602260045260246000fd5b50919050565b808201808211156117475761174761171a565b601f821115610fd3576000816000526020600020601f850160051c8101602086101561185e5750805b601f850160051c820191505b8181101561187d5782815560010161186a565b505050505050565b67ffffffffffffffff83111561189d5761189d611583565b6118b1836118ab83546117e8565b83611835565b6000601f8411600181146118e557600085156118cd5750838201355b600019600387901b1c1916600186901b17835561193f565b600083815260209020601f19861690835b8281101561191657868501358255602094850194600190920191016118f6565b50868210156119335760001960f88860031b161c19848701351681555b505060018560011b0183555b505050505056fea2646970667358221220d8043d175e49a64067fd11e2f1dc7d20afb6633134324628c671c2c1d99547bc64736f6c63430008180033",
  "linkReferences": {},
  "deployedLinkReferences": {}
}