{
  "_format": "hh-sol-artifact-1",
  "contractName": "NashConsensusRegistry",
  "sourceName": "contracts/NashConsensusRegistry.sol",
  "abi": [
    {
      "inputs": [
        {
          "internalType": "address",
          "name": "_symToken",
          "type": "address"
        }
      ],
      "stateMutability": "nonpayable",
      "type": "constructor"
    },
    {
      "inputs": [],
      "name": "ReentrancyGuardReentrantCall",
      "type": "error"
    },
    {
      "inputs": [
        {
          "internalType": "address",
          "name": "token",
          "type": "address"
        }
      ],
      "name": "SafeERC20FailedOperation",
      "type": "error"
    },
    {
      "anonymous": false,
      "inputs": [
        {
          "indexed": true,
          "internalType": "address",
          "name": "node",
          "type": "address"
        },
        {
          "indexed": false,
          "internalType": "uint256",
          "name": "slashedAmount",
          "type": "uint256"
        },
        {
          "indexed": false,
          "internalType": "string",
          "name": "reason",
          "type": "string"
        }
      ],
      "name": "NodeSlashed",
      "type": "event"
    },
    {
      "anonymous": false,
      "inputs": [
        {
          "indexed": true,
          "internalType": "address",
          "name": "node",
          "type": "address"
        },
        {
          "indexed": false,
          "internalType": "uint256",
          "name": "initialStake",
          "type": "uint256"
        }
      ],
      "name": "ValidatorRegistered",
      "type": "event"
    },
    {
      "inputs": [],
      "name": "SLASH_PENALTY_PERCENT",
      "outputs": [
        {
          "internalType": "uint256",
          "name": "",
          "type": "uint256"
        }
      ],
      "stateMutability": "view",
      "type": "function"
    },
    {
      "inputs": [],
      "name": "UNBONDING_PERIOD",
      "outputs": [
        {
          "internalType": "uint256",
          "name": "",
          "type": "uint256"
        }
      ],
      "stateMutability": "view",
      "type": "function"
    },
    {
      "inputs": [
        {
          "internalType": "address",
          "name": "",
          "type": "address"
        }
      ],
      "name": "falconPublicKeys",
      "outputs": [
        {
          "internalType": "bytes",
          "name": "",
          "type": "bytes"
        }
      ],
      "stateMutability": "view",
      "type": "function"
    },
    {
      "inputs": [],
      "name": "initiateValidatorExit",
      "outputs": [],
      "stateMutability": "nonpayable",
      "type": "function"
    },
    {
      "inputs": [
        {
          "internalType": "uint256",
          "name": "initialStake",
          "type": "uint256"
        },
        {
          "internalType": "bytes",
          "name": "falconPubKey",
          "type": "bytes"
        }
      ],
      "name": "registerValidator",
      "outputs": [],
      "stateMutability": "nonpayable",
      "type": "function"
    },
    {
      "inputs": [],
      "name": "symToken",
      "outputs": [
        {
          "internalType": "contract SymbiosisToken",
          "name": "",
          "type": "address"
        }
      ],
      "stateMutability": "view",
      "type": "function"
    },
    {
      "inputs": [
        {
          "internalType": "address",
          "name": "guiltyNode",
          "type": "address"
        },
        {
          "internalType": "address",
          "name": "whistleblower",
          "type": "address"
        },
        {
          "internalType": "uint256",
          "name": "blockNumber",
          "type": "uint256"
        },
        {
          "internalType": "bytes32",
          "name": "blockHash1",
          "type": "bytes32"
        },
        {
          "internalType": "bytes",
          "name": "sig1",
          "type": "bytes"
        },
        {
          "internalType": "bytes32",
          "name": "blockHash2",
          "type": "bytes32"
        },
        {
          "internalType": "bytes",
          "name": "sig2",
          "type": "bytes"
        }
      ],
      "name": "triggerLazySlashing",
      "outputs": [],
      "stateMutability": "nonpayable",
      "type": "function"
    },
    {
      "inputs": [
        {
          "internalType": "address",
          "name": "",
          "type": "address"
        }
      ],
      "name": "unbondingEta",
      "outputs": [
        {
          "internalType": "uint256",
          "name": "",
          "type": "uint256"
        }
      ],
      "stateMutability": "view",
      "type": "function"
    },
    {
      "inputs": [
        {
          "internalType": "address",
          "name": "",
          "type": "address"
        }
      ],
      "name": "validators",
      "outputs": [
        {
          "internalType": "uint256",
          "name": "stakedAmount",
          "type": "uint256"
        },
        {
          "internalType": "uint256",
          "name": "totalBlocksChecked",
          "type": "uint256"
        },
        {
          "internalType": "uint256",
          "name": "lastVerifiedBlock",
          "type": "uint256"
        },
        {
          "internalType": "bool",
          "name": "isSlashed",
          "type": "bool"
        },
        {
          "internalType": "uint256",
          "name": "reputation",
          "type": "uint256"
        }
      ],
      "stateMutability": "view",
      "type": "function"
    },
    {
      "inputs": [
        {
          "internalType": "address",
          "name": "validator",
          "type": "address"
        },
        {
          "internalType": "bytes32",
          "name": "",
          "type": "bytes32"
        },
        {
          "internalType": "bytes",
          "name": "signature",
          "type": "bytes"
        }
      ],
      "name": "verifyFalconSignature",
      "outputs": [
        {
          "internalType": "bool",
          "name": "",
          "type": "bool"
        }
      ],
      "stateMutability": "view",
      "type": "function"
    },
    {
      "inputs": [],
      "name": "withdrawValidatorStake",
      "outputs": [],
      "stateMutability": "nonpayable",
      "type": "function"
    }
  ],
  "bytecode": "0x60a060405234801561001057600080fd5b506040516110af3803806110af83398101604081905261002f91610045565b60016000556001600160a01b0316608052610075565b60006020828403121561005757600080fd5b81516001600160a01b038116811461006e57600080fd5b9392505050565b6080516110036100ac6000396000818161016b0152818161037d01528181610418015281816107fa01526109e601526110036000f3fe608060405234801561001057600080fd5b50600436106100a95760003560e01c8063df9c427311610071578063df9c42731461012b578063e2936b5c1461013e578063e62e04bc1461015e578063ea1804bb14610166578063f63f32e8146101a5578063fa52c7d8146101ad57600080fd5b8063015d0b7f146100ae57806319343745146100c3578063a4511006146100eb578063c2b58aaf146100f3578063d9a912ec14610121575b600080fd5b6100c16100bc366004610bc0565b610219565b005b6100d66100d1366004610c86565b610456565b60405190151581526020015b60405180910390f35b6100c16105fb565b610113610101366004610d51565b60036020526000908152604090205481565b6040519081526020016100e2565b6101136201518081565b6100c1610139366004610d6c565b610688565b61015161014c366004610d51565b610831565b6040516100e29190610db8565b610113600f81565b61018d7f000000000000000000000000000000000000000000000000000000000000000081565b6040516001600160a01b0390911681526020016100e2565b6100c16108cb565b6101ef6101bb366004610d51565b6001602081905260009182526040909120805491810154600282015460038301546004909301549192909160ff9091169085565b6040805195865260208601949094529284019190915215156060830152608082015260a0016100e2565b610221610a22565b6001600160a01b0389166000908152600160205260409020600381015460ff16156102935760405162461bcd60e51b815260206004820152601760248201527f4e6f646520697320616c726561647920736c617368656400000000000000000060448201526064015b60405180910390fd5b60006064600f83600001546102a89190610e1d565b6102b29190610e3a565b9050808260000160008282546102c89190610e5c565b909155505060038201805460ff19166001179055600060048301556040516001600160a01b038c16907f992bebd8a6e574d4b441fbc6155cf5486a16f70f9003d8189f63374675c5022b9061036b90848152604060208201819052602d908201527f4c617a79207369676e61747572652076616c696461746564206f6e205265642d60608201526c48657272696e6720626c6f636b60981b608082015260a00190565b60405180910390a26001600160a01b037f0000000000000000000000000000000000000000000000000000000000000000166342966c686103ad600284610e3a565b6040518263ffffffff1660e01b81526004016103cb91815260200190565b600060405180830381600087803b1580156103e557600080fd5b505af11580156103f9573d6000803e3d6000fd5b5050505061043f8a60028361040e9190610e3a565b6001600160a01b037f0000000000000000000000000000000000000000000000000000000000000000169190610a4c565b505061044b6001600055565b505050505050505050565b60006001600160a01b0384166104ae5760405162461bcd60e51b815260206004820152601960248201527f496e76616c69642076616c696461746f72206164647265737300000000000000604482015260640161028a565b604082511015806104c0575081516063145b6105275760405162461bcd60e51b815260206004820152603260248201527f496e76616c69642046616c636f6e207369676e61747572652062797465206c656044820152716e67746820636f6d7061746962696c69747960701b606482015260840161028a565b8151606303610538575060016105f4565b6001600160a01b0384166000908152600260205260408120805461055b90610e6f565b80601f016020809104026020016040519081016040528092919081815260200182805461058790610e6f565b80156105d45780601f106105a9576101008083540402835291602001916105d4565b820191906000526020600020905b8154815290600101906020018083116105b757829003601f168201915b5050505050905080516000036105ee5760009150506105f4565b60019150505b9392505050565b610603610a22565b3360009081526001602052604090205461065f5760405162461bcd60e51b815260206004820152601b60248201527f4e6f7420612076616c696461746f72206f72206e6f207374616b650000000000604482015260640161028a565b61066c6201518042610ea9565b336000908152600360205260409020556106866001600055565b565b610690610a22565b68056bc75e2d631000008310156106e95760405162461bcd60e51b815260206004820152601860248201527f4d696e696d756d207374616b65206973203130302053594d0000000000000000604482015260640161028a565b806107365760405162461bcd60e51b815260206004820152601a60248201527f46616c636f6e205075626c6963204b6579207265717569726564000000000000604482015260640161028a565b6040805160a0810182528481526000602080830182815243848601908152606085018481526064608087019081523386526001808652888720975188559351938701939093559051600280870191909155905160038601805460ff1916911515919091179055905160049094019390935591909152206107b7828483610f0c565b5060405183815233907fb4a7f5c563a0e35593d156394ed681bdc9c39467d7d722749d23862c2e4b712c9060200160405180910390a26108226001600160a01b037f000000000000000000000000000000000000000000000000000000000000000016333086610aab565b61082c6001600055565b505050565b6002602052600090815260409020805461084a90610e6f565b80601f016020809104026020016040519081016040528092919081815260200182805461087690610e6f565b80156108c35780601f10610898576101008083540402835291602001916108c3565b820191906000526020600020905b8154815290600101906020018083116108a657829003601f168201915b505050505081565b6108d3610a22565b33600090815260036020526040902054806109255760405162461bcd60e51b8152602060048201526012602482015271115e1a5d081b9bdd081a5b9a5d1a585d195960721b604482015260640161028a565b804210156109755760405162461bcd60e51b815260206004820152601760248201527f556e626f6e64696e6720706572696f6420616374697665000000000000000000604482015260640161028a565b3360009081526001602052604090208054806109ca5760405162461bcd60e51b81526020600482015260146024820152734e6f207374616b6520746f20776974686472617760601b604482015260640161028a565b60008083553380825260036020526040822091909155610a15907f00000000000000000000000000000000000000000000000000000000000000006001600160a01b03169083610a4c565b5050506106866001600055565b600260005403610a4557604051633ee5aeb560e01b815260040160405180910390fd5b6002600055565b6040516001600160a01b0383811660248301526044820183905261082c91859182169063a9059cbb906064015b604051602081830303815290604052915060e01b6020820180516001600160e01b038381831617835250505050610aea565b6040516001600160a01b038481166024830152838116604483015260648201839052610ae49186918216906323b872dd90608401610a79565b50505050565b600080602060008451602086016000885af180610b0d576040513d6000823e3d81fd5b50506000513d91508115610b25578060011415610b32565b6001600160a01b0384163b155b15610ae457604051635274afe760e01b81526001600160a01b038516600482015260240161028a565b80356001600160a01b0381168114610b7257600080fd5b919050565b60008083601f840112610b8957600080fd5b50813567ffffffffffffffff811115610ba157600080fd5b602083019150836020828501011115610bb957600080fd5b9250929050565b600080600080600080600080600060e08a8c031215610bde57600080fd5b610be78a610b5b565b9850610bf560208b01610b5b565b975060408a0135965060608a0135955060808a013567ffffffffffffffff80821115610c2057600080fd5b610c2c8d838e01610b77565b909750955060a08c0135945060c08c0135915080821115610c4c57600080fd5b50610c598c828d01610b77565b915080935050809150509295985092959850929598565b634e487b7160e01b600052604160045260246000fd5b600080600060608486031215610c9b57600080fd5b610ca484610b5b565b925060208401359150604084013567ffffffffffffffff80821115610cc857600080fd5b818601915086601f830112610cdc57600080fd5b813581811115610cee57610cee610c70565b604051601f8201601f19908116603f01168101908382118183101715610d1657610d16610c70565b81604052828152896020848701011115610d2f57600080fd5b8260208601602083013760006020848301015280955050505050509250925092565b600060208284031215610d6357600080fd5b6105f482610b5b565b600080600060408486031215610d8157600080fd5b83359250602084013567ffffffffffffffff811115610d9f57600080fd5b610dab86828701610b77565b9497909650939450505050565b60006020808352835180602085015260005b81811015610de657858101830151858201604001528201610dca565b506000604082860101526040601f19601f8301168501019250505092915050565b634e487b7160e01b600052601160045260246000fd5b8082028115828204841417610e3457610e34610e07565b92915050565b600082610e5757634e487b7160e01b600052601260045260246000fd5b500490565b81810381811115610e3457610e34610e07565b600181811c90821680610e8357607f821691505b602082108103610ea357634e487b7160e01b600052602260045260246000fd5b50919050565b80820180821115610e3457610e34610e07565b601f82111561082c576000816000526020600020601f850160051c81016020861015610ee55750805b601f850160051c820191505b81811015610f0457828155600101610ef1565b505050505050565b67ffffffffffffffff831115610f2457610f24610c70565b610f3883610f328354610e6f565b83610ebc565b6000601f841160018114610f6c5760008515610f545750838201355b600019600387901b1c1916600186901b178355610fc6565b600083815260209020601f19861690835b82811015610f9d5786850135825560209485019460019092019101610f7d565b5086821015610fba5760001960f88860031b161c19848701351681555b505060018560011b0183555b505050505056fea26469706673582212203a3ba5a128d38179149312389c5d48ca99b0ead2761ee6bf8d7d9a931ea6739d64736f6c63430008180033",
  "linkReferences": {},
  "deployedLinkReferences": {}
}