{
  "_format": "hh-sol-artifact-1",
  "contractName": "NashConsensusRegistry",
  "sourceName": "contracts/NashConsensusRegistry.sol",
  "abi": [
    {
      "inputs": [
        {
          "internalType": "address",
          "name": "_symToken",
          "type": "address"
        }
      ],
      "stateMutability": "nonpayable",
      "type": "constructor"
    },
    {
      "anonymous": false,
      "inputs": [
        {
          "indexed": true,
          "internalType": "address",
          "name": "node",
          "type": "address"
        },
        {
          "indexed": false,
          "internalType": "uint256",
          "name": "slashedAmount",
          "type": "uint256"
        },
        {
          "indexed": false,
          "internalType": "string",
          "name": "reason",
          "type": "string"
        }
      ],
      "name": "NodeSlashed",
      "type": "event"
    },
    {
      "anonymous": false,
      "inputs": [
        {
          "indexed": true,
          "internalType": "address",
          "name": "node",
          "type": "address"
        },
        {
          "indexed": false,
          "internalType": "uint256",
          "name": "initialStake",
          "type": "uint256"
        }
      ],
      "name": "ValidatorRegistered",
      "type": "event"
    },
    {
      "inputs": [],
      "name": "SLASH_PENALTY_PERCENT",
      "outputs": [
        {
          "internalType": "uint256",
          "name": "",
          "type": "uint256"
        }
      ],
      "stateMutability": "view",
      "type": "function"
    },
    {
      "inputs": [
        {
          "internalType": "address",
          "name": "",
          "type": "address"
        }
      ],
      "name": "falconPublicKeys",
      "outputs": [
        {
          "internalType": "bytes",
          "name": "",
          "type": "bytes"
        }
      ],
      "stateMutability": "view",
      "type": "function"
    },
    {
      "inputs": [
        {
          "internalType": "uint256",
          "name": "initialStake",
          "type": "uint256"
        },
        {
          "internalType": "bytes",
          "name": "falconPubKey",
          "type": "bytes"
        }
      ],
      "name": "registerValidator",
      "outputs": [],
      "stateMutability": "nonpayable",
      "type": "function"
    },
    {
      "inputs": [],
      "name": "symToken",
      "outputs": [
        {
          "internalType": "contract SymbiosisToken",
          "name": "",
          "type": "address"
        }
      ],
      "stateMutability": "view",
      "type": "function"
    },
    {
      "inputs": [
        {
          "internalType": "address",
          "name": "guiltyNode",
          "type": "address"
        },
        {
          "internalType": "address",
          "name": "whistleblower",
          "type": "address"
        },
        {
          "internalType": "uint256",
          "name": "",
          "type": "uint256"
        }
      ],
      "name": "triggerLazySlashing",
      "outputs": [],
      "stateMutability": "nonpayable",
      "type": "function"
    },
    {
      "inputs": [
        {
          "internalType": "address",
          "name": "",
          "type": "address"
        }
      ],
      "name": "validators",
      "outputs": [
        {
          "internalType": "uint256",
          "name": "stakedAmount",
          "type": "uint256"
        },
        {
          "internalType": "uint256",
          "name": "totalBlocksChecked",
          "type": "uint256"
        },
        {
          "internalType": "uint256",
          "name": "lastVerifiedBlock",
          "type": "uint256"
        },
        {
          "internalType": "bool",
          "name": "isSlashed",
          "type": "bool"
        },
        {
          "internalType": "uint256",
          "name": "reputation",
          "type": "uint256"
        }
      ],
      "stateMutability": "view",
      "type": "function"
    },
    {
      "inputs": [
        {
          "internalType": "address",
          "name": "validator",
          "type": "address"
        },
        {
          "internalType": "bytes32",
          "name": "",
          "type": "bytes32"
        },
        {
          "internalType": "bytes",
          "name": "signature",
          "type": "bytes"
        }
      ],
      "name": "verifyFalconSignature",
      "outputs": [
        {
          "internalType": "bool",
          "name": "",
          "type": "bool"
        }
      ],
      "stateMutability": "view",
      "type": "function"
    }
  ],
  "bytecode": "0x60a060405234801561001057600080fd5b50604051610d3e380380610d3e83398101604081905261002f91610040565b6001600160a01b0316608052610070565b60006020828403121561005257600080fd5b81516001600160a01b038116811461006957600080fd5b9392505050565b608051610c9e6100a06000396000818161010d01528181610422015281816104a401526106ac0152610c9e6000f3fe608060405234801561001057600080fd5b506004361061007d5760003560e01c8063e2936b5c1161005b578063e2936b5c146100d2578063e62e04bc146100f2578063ea1804bb14610108578063fa52c7d81461014757600080fd5b80631934374514610082578063669dd1d5146100aa578063df9c4273146100bf575b600080fd5b6100956100903660046108a5565b6101b1565b60405190151581526020015b60405180910390f35b6100bd6100b8366004610970565b61035b565b005b6100bd6100cd3660046109ac565b6105e4565b6100e56100e0366004610a28565b6107d9565b6040516100a19190610a43565b6100fa600f81565b6040519081526020016100a1565b61012f7f000000000000000000000000000000000000000000000000000000000000000081565b6040516001600160a01b0390911681526020016100a1565b610187610155366004610a28565b6000602081905290815260409020805460018201546002830154600384015460049094015492939192909160ff169085565b6040805195865260208601949094529284019190915215156060830152608082015260a0016100a1565b60006001600160a01b03841661020e5760405162461bcd60e51b815260206004820152601960248201527f496e76616c69642076616c696461746f7220616464726573730000000000000060448201526064015b60405180910390fd5b60408251101580610220575081516063145b6102875760405162461bcd60e51b815260206004820152603260248201527f496e76616c69642046616c636f6e207369676e61747572652062797465206c656044820152716e67746820636f6d7061746962696c69747960701b6064820152608401610205565b815160630361029857506001610354565b6001600160a01b038416600090815260016020526040812080546102bb90610a92565b80601f01602080910402602001604051908101604052809291908181526020018280546102e790610a92565b80156103345780601f1061030957610100808354040283529160200191610334565b820191906000526020600020905b81548152906001019060200180831161031757829003601f168201915b50505050509050805160000361034e576000915050610354565b60019150505b9392505050565b6001600160a01b0383166000908152602081905260409020600381015460ff16156103c85760405162461bcd60e51b815260206004820152601760248201527f4e6f646520697320616c726561647920736c61736865640000000000000000006044820152606401610205565b60006064600f83600001546103dd9190610ae2565b6103e79190610aff565b9050808260000160008282546103fd9190610b21565b909155505060038201805460ff19166001179055600060048301556001600160a01b037f0000000000000000000000000000000000000000000000000000000000000000166342966c68610452600284610aff565b6040518263ffffffff1660e01b815260040161047091815260200190565b600060405180830381600087803b15801561048a57600080fd5b505af115801561049e573d6000803e3d6000fd5b505050507f00000000000000000000000000000000000000000000000000000000000000006001600160a01b031663a9059cbb856002846104df9190610aff565b6040516001600160e01b031960e085901b1681526001600160a01b03909216600483015260248201526044016020604051808303816000875af115801561052a573d6000803e3d6000fd5b505050506040513d601f19601f8201168201806040525081019061054e9190610b34565b50846001600160a01b03167f992bebd8a6e574d4b441fbc6155cf5486a16f70f9003d8189f63374675c5022b826040516105d5918152604060208201819052602d908201527f4c617a79207369676e61747572652076616c696461746564206f6e205265642d60608201526c48657272696e6720626c6f636b60981b608082015260a00190565b60405180910390a25050505050565b68056bc75e2d6310000083101561063d5760405162461bcd60e51b815260206004820152601860248201527f4d696e696d756d207374616b65206973203130302053594d00000000000000006044820152606401610205565b8061068a5760405162461bcd60e51b815260206004820152601a60248201527f46616c636f6e205075626c6963204b65792072657175697265640000000000006044820152606401610205565b6040516323b872dd60e01b8152336004820152306024820152604481018490527f00000000000000000000000000000000000000000000000000000000000000006001600160a01b0316906323b872dd906064016020604051808303816000875af11580156106fd573d6000803e3d6000fd5b505050506040513d601f19601f820116820180604052508101906107219190610b34565b506040805160a081018252848152600060208083018281524384860190815260608501848152606460808701908152338652858552878620965187559251600180880191909155915160028701555160038601805460ff19169115159190911790559051600490940193909355919091522061079e828483610ba7565b5060405183815233907fb4a7f5c563a0e35593d156394ed681bdc9c39467d7d722749d23862c2e4b712c9060200160405180910390a2505050565b600160205260009081526040902080546107f290610a92565b80601f016020809104026020016040519081016040528092919081815260200182805461081e90610a92565b801561086b5780601f106108405761010080835404028352916020019161086b565b820191906000526020600020905b81548152906001019060200180831161084e57829003601f168201915b505050505081565b80356001600160a01b038116811461088a57600080fd5b919050565b634e487b7160e01b600052604160045260246000fd5b6000806000606084860312156108ba57600080fd5b6108c384610873565b925060208401359150604084013567ffffffffffffffff808211156108e757600080fd5b818601915086601f8301126108fb57600080fd5b81358181111561090d5761090d61088f565b604051601f8201601f19908116603f011681019083821181831017156109355761093561088f565b8160405282815289602084870101111561094e57600080fd5b8260208601602083013760006020848301015280955050505050509250925092565b60008060006060848603121561098557600080fd5b61098e84610873565b925061099c60208501610873565b9150604084013590509250925092565b6000806000604084860312156109c157600080fd5b83359250602084013567ffffffffffffffff808211156109e057600080fd5b818601915086601f8301126109f457600080fd5b813581811115610a0357600080fd5b876020828501011115610a1557600080fd5b6020830194508093505050509250925092565b600060208284031215610a3a57600080fd5b61035482610873565b60006020808352835180602085015260005b81811015610a7157858101830151858201604001528201610a55565b506000604082860101526040601f19601f8301168501019250505092915050565b600181811c90821680610aa657607f821691505b602082108103610ac657634e487b7160e01b600052602260045260246000fd5b50919050565b634e487b7160e01b600052601160045260246000fd5b8082028115828204841417610af957610af9610acc565b92915050565b600082610b1c57634e487b7160e01b600052601260045260246000fd5b500490565b81810381811115610af957610af9610acc565b600060208284031215610b4657600080fd5b8151801515811461035457600080fd5b601f821115610ba2576000816000526020600020601f850160051c81016020861015610b7f5750805b601f850160051c820191505b81811015610b9e57828155600101610b8b565b5050505b505050565b67ffffffffffffffff831115610bbf57610bbf61088f565b610bd383610bcd8354610a92565b83610b56565b6000601f841160018114610c075760008515610bef5750838201355b600019600387901b1c1916600186901b178355610c61565b600083815260209020601f19861690835b82811015610c385786850135825560209485019460019092019101610c18565b5086821015610c555760001960f88860031b161c19848701351681555b505060018560011b0183555b505050505056fea26469706673582212202d909c236376b2def7ad80ee44e383b7e2d2c4ac639bb939c5c26d767baa32a964736f6c63430008180033",
  "linkReferences": {},
  "deployedLinkReferences": {}
}