{
  "_format": "hh-sol-artifact-1",
  "contractName": "NashConsensusRegistry",
  "sourceName": "contracts/NashConsensusRegistry.sol",
  "abi": [
    {
      "inputs": [
        {
          "internalType": "address",
          "name": "_symToken",
          "type": "address"
        }
      ],
      "stateMutability": "nonpayable",
      "type": "constructor"
    },
    {
      "anonymous": false,
      "inputs": [
        {
          "indexed": true,
          "internalType": "address",
          "name": "node",
          "type": "address"
        },
        {
          "indexed": false,
          "internalType": "uint256",
          "name": "slashedAmount",
          "type": "uint256"
        },
        {
          "indexed": false,
          "internalType": "string",
          "name": "reason",
          "type": "string"
        }
      ],
      "name": "NodeSlashed",
      "type": "event"
    },
    {
      "anonymous": false,
      "inputs": [
        {
          "indexed": true,
          "internalType": "address",
          "name": "validator",
          "type": "address"
        },
        {
          "indexed": false,
          "internalType": "uint256",
          "name": "unbondingEta",
          "type": "uint256"
        }
      ],
      "name": "ValidatorExitInitiated",
      "type": "event"
    },
    {
      "anonymous": false,
      "inputs": [
        {
          "indexed": true,
          "internalType": "address",
          "name": "node",
          "type": "address"
        },
        {
          "indexed": false,
          "internalType": "uint256",
          "name": "initialStake",
          "type": "uint256"
        }
      ],
      "name": "ValidatorRegistered",
      "type": "event"
    },
    {
      "anonymous": false,
      "inputs": [
        {
          "indexed": true,
          "internalType": "address",
          "name": "validator",
          "type": "address"
        },
        {
          "indexed": false,
          "internalType": "uint256",
          "name": "amountWithdrawn",
          "type": "uint256"
        }
      ],
      "name": "ValidatorStakeWithdrawn",
      "type": "event"
    },
    {
      "inputs": [],
      "name": "SLASH_PENALTY_PERCENT",
      "outputs": [
        {
          "internalType": "uint256",
          "name": "",
          "type": "uint256"
        }
      ],
      "stateMutability": "view",
      "type": "function"
    },
    {
      "inputs": [
        {
          "internalType": "address",
          "name": "",
          "type": "address"
        }
      ],
      "name": "falconPublicKeys",
      "outputs": [
        {
          "internalType": "bytes",
          "name": "",
          "type": "bytes"
        }
      ],
      "stateMutability": "view",
      "type": "function"
    },
    {
      "inputs": [],
      "name": "initiateValidatorExit",
      "outputs": [],
      "stateMutability": "nonpayable",
      "type": "function"
    },
    {
      "inputs": [
        {
          "internalType": "uint256",
          "name": "initialStake",
          "type": "uint256"
        },
        {
          "internalType": "bytes",
          "name": "falconPubKey",
          "type": "bytes"
        }
      ],
      "name": "registerValidator",
      "outputs": [],
      "stateMutability": "nonpayable",
      "type": "function"
    },
    {
      "inputs": [],
      "name": "symToken",
      "outputs": [
        {
          "internalType": "contract SymbiosisToken",
          "name": "",
          "type": "address"
        }
      ],
      "stateMutability": "view",
      "type": "function"
    },
    {
      "inputs": [
        {
          "internalType": "address",
          "name": "guiltyNode",
          "type": "address"
        },
        {
          "internalType": "address",
          "name": "whistleblower",
          "type": "address"
        },
        {
          "internalType": "uint256",
          "name": "",
          "type": "uint256"
        },
        {
          "internalType": "bytes32",
          "name": "blockHash1",
          "type": "bytes32"
        },
        {
          "internalType": "bytes",
          "name": "sig1",
          "type": "bytes"
        },
        {
          "internalType": "bytes32",
          "name": "blockHash2",
          "type": "bytes32"
        },
        {
          "internalType": "bytes",
          "name": "sig2",
          "type": "bytes"
        }
      ],
      "name": "triggerLazySlashing",
      "outputs": [],
      "stateMutability": "nonpayable",
      "type": "function"
    },
    {
      "inputs": [
        {
          "internalType": "address",
          "name": "",
          "type": "address"
        }
      ],
      "name": "unbondingEta",
      "outputs": [
        {
          "internalType": "uint256",
          "name": "",
          "type": "uint256"
        }
      ],
      "stateMutability": "view",
      "type": "function"
    },
    {
      "inputs": [
        {
          "internalType": "address",
          "name": "",
          "type": "address"
        }
      ],
      "name": "validators",
      "outputs": [
        {
          "internalType": "uint256",
          "name": "stakedAmount",
          "type": "uint256"
        },
        {
          "internalType": "uint256",
          "name": "totalBlocksChecked",
          "type": "uint256"
        },
        {
          "internalType": "uint256",
          "name": "lastVerifiedBlock",
          "type": "uint256"
        },
        {
          "internalType": "bool",
          "name": "isSlashed",
          "type": "bool"
        },
        {
          "internalType": "uint256",
          "name": "reputation",
          "type": "uint256"
        }
      ],
      "stateMutability": "view",
      "type": "function"
    },
    {
      "inputs": [
        {
          "internalType": "address",
          "name": "validator",
          "type": "address"
        },
        {
          "internalType": "bytes32",
          "name": "blockHash",
          "type": "bytes32"
        },
        {
          "internalType": "bytes",
          "name": "signature",
          "type": "bytes"
        }
      ],
      "name": "verifyFalconSignature",
      "outputs": [
        {
          "internalType": "bool",
          "name": "",
          "type": "bool"
        }
      ],
      "stateMutability": "view",
      "type": "function"
    },
    {
      "inputs": [],
      "name": "withdrawValidatorStake",
      "outputs": [],
      "stateMutability": "nonpayable",
      "type": "function"
    }
  ],
  "bytecode": "0x60a060405234801561001057600080fd5b5060405161144538038061144583398101604081905261002f91610040565b6001600160a01b0316608052610070565b60006020828403121561005257600080fd5b81516001600160a01b038116811461006957600080fd5b9392505050565b60805161139e6100a760003960008181610156015281816103e10152818161046301528181610ab20152610e24015261139e6000f3fe608060405234801561001057600080fd5b506004361061009e5760003560e01c8063e2936b5c11610066578063e2936b5c14610129578063e62e04bc14610149578063ea1804bb14610151578063f63f32e814610190578063fa52c7d81461019857600080fd5b8063015d0b7f146100a357806319343745146100b8578063a4511006146100e0578063c2b58aaf146100e8578063df9c427314610116575b600080fd5b6100b66100b1366004610f8a565b610202565b005b6100cb6100c636600461102c565b6105a7565b60405190151581526020015b60405180910390f35b6100b6610879565b6101086100f6366004611083565b60026020526000908152604090205481565b6040519081526020016100d7565b6100b661012436600461109e565b6109ea565b61013c610137366004611083565b610bdf565b6040516100d7919061111a565b610108600f81565b6101787f000000000000000000000000000000000000000000000000000000000000000081565b6040516001600160a01b0390911681526020016100d7565b6100b6610c79565b6101d86101a6366004611083565b6000602081905290815260409020805460018201546002830154600384015460049094015492939192909160ff169085565b6040805195865260208601949094529284019190915215156060830152608082015260a0016100d7565b81840361026c5760405162461bcd60e51b815260206004820152602d60248201527f4964656e746963616c20626c6f636b2068617368657320617265206e6f74206460448201526c6f75626c65207369676e696e6760981b60648201526084015b60405180910390fd5b6102778785856105a7565b6102c35760405162461bcd60e51b815260206004820152601a60248201527f496e76616c69642046616c636f6e207369676e617475726520310000000000006044820152606401610263565b6102ce8783836105a7565b61031a5760405162461bcd60e51b815260206004820152601a60248201527f496e76616c69642046616c636f6e207369676e617475726520320000000000006044820152606401610263565b6001600160a01b0387166000908152602081905260409020600381015460ff16156103875760405162461bcd60e51b815260206004820152601760248201527f4e6f646520697320616c726561647920736c61736865640000000000000000006044820152606401610263565b60006064600f836000015461039c919061117f565b6103a6919061119c565b9050808260000160008282546103bc91906111be565b909155505060038201805460ff19166001179055600060048301556001600160a01b037f0000000000000000000000000000000000000000000000000000000000000000166342966c6861041160028461119c565b6040518263ffffffff1660e01b815260040161042f91815260200190565b600060405180830381600087803b15801561044957600080fd5b505af115801561045d573d6000803e3d6000fd5b505050507f00000000000000000000000000000000000000000000000000000000000000006001600160a01b031663a9059cbb8960028461049e919061119c565b6040516001600160e01b031960e085901b1681526001600160a01b03909216600483015260248201526044016020604051808303816000875af11580156104e9573d6000803e3d6000fd5b505050506040513d601f19601f8201168201806040525081019061050d91906111d1565b50886001600160a01b03167f992bebd8a6e574d4b441fbc6155cf5486a16f70f9003d8189f63374675c5022b82604051610594918152604060208201819052602d908201527f4c617a79207369676e61747572652076616c696461746564206f6e205265642d60608201526c48657272696e6720626c6f636b60981b608082015260a00190565b60405180910390a2505050505050505050565b60006001600160a01b0384166105ff5760405162461bcd60e51b815260206004820152601960248201527f496e76616c69642076616c696461746f722061646472657373000000000000006044820152606401610263565b60408251101580610611575081516063145b6106785760405162461bcd60e51b815260206004820152603260248201527f496e76616c69642046616c636f6e207369676e61747572652062797465206c656044820152716e67746820636f6d7061746962696c69747960701b6064820152608401610263565b81516063036107135746617a691480610692575046610539145b8061069f57504662066eee145b806106ac57504662aa36a7145b61070b5760405162461bcd60e51b815260206004820152602a60248201527f4d6f636b207374756273207374726963746c792064697361626c656420696e20604482015269383937b23ab1ba34b7b760b11b6064820152608401610263565b506001610872565b6001600160a01b03841660009081526001602052604081208054610736906111f3565b80601f0160208091040260200160405190810160405280929190818152602001828054610762906111f3565b80156107af5780601f10610784576101008083540402835291602001916107af565b820191906000526020600020905b81548152906001019060200180831161079257829003601f168201915b5050505050905080516000036107c9576000915050610872565b6040805160208082528183019092526000918291906020820181803683370190505090506040518681526020816102008360f9620186a0fa925060003d1183161561081357805182525b5060003d1161082157600091505b81610843576000835111801561083957506040855110155b9350505050610872565b806000815181106108565761085661122d565b6020910101516001600160f81b031916600160f81b1493505050505b9392505050565b336000908152602081905260409020805468056bc75e2d6310000011156108e25760405162461bcd60e51b815260206004820152601960248201527f4e6f206163746976652076616c696461746f72207374616b65000000000000006044820152606401610263565b600381015460ff16156109375760405162461bcd60e51b815260206004820152601960248201527f536c6173686564206e6f6465732063616e6e6f742065786974000000000000006044820152606401610263565b336000908152600260205260409020541561098d5760405162461bcd60e51b8152602060048201526016602482015275115e1a5d08185b1c9958591e481a5b9a5d1a585d195960521b6044820152606401610263565b61099a4262015180611243565b33600081815260026020526040908190208390555190917fdd1125433830df4a0813fa08a7f063de9882b935b649f2eaee6d51066d733062916109df91815260200190565b60405180910390a250565b68056bc75e2d63100000831015610a435760405162461bcd60e51b815260206004820152601860248201527f4d696e696d756d207374616b65206973203130302053594d00000000000000006044820152606401610263565b80610a905760405162461bcd60e51b815260206004820152601a60248201527f46616c636f6e205075626c6963204b65792072657175697265640000000000006044820152606401610263565b6040516323b872dd60e01b8152336004820152306024820152604481018490527f00000000000000000000000000000000000000000000000000000000000000006001600160a01b0316906323b872dd906064016020604051808303816000875af1158015610b03573d6000803e3d6000fd5b505050506040513d601f19601f82011682018060405250810190610b2791906111d1565b506040805160a081018252848152600060208083018281524384860190815260608501848152606460808701908152338652858552878620965187559251600180880191909155915160028701555160038601805460ff191691151591909117905590516004909401939093559190915220610ba48284836112a7565b5060405183815233907fb4a7f5c563a0e35593d156394ed681bdc9c39467d7d722749d23862c2e4b712c9060200160405180910390a2505050565b60016020526000908152604090208054610bf8906111f3565b80601f0160208091040260200160405190810160405280929190818152602001828054610c24906111f3565b8015610c715780601f10610c4657610100808354040283529160200191610c71565b820191906000526020600020905b815481529060010190602001808311610c5457829003601f168201915b505050505081565b3360009081526020819052604090208054610cd65760405162461bcd60e51b815260206004820152601c60248201527f4e6f207374616b656420616d6f756e7420746f207769746864726177000000006044820152606401610263565b600381015460ff1615610d2b5760405162461bcd60e51b815260206004820152601d60248201527f536c6173686564206e6f6465732063616e6e6f742077697468647261770000006044820152606401610263565b33600090815260026020526040902054610d875760405162461bcd60e51b815260206004820152601f60248201527f45786974206f7220756e626f6e64696e67206e6f7420696e69746961746564006044820152606401610263565b33600090815260026020526040902054421015610de65760405162461bcd60e51b815260206004820152601760248201527f556e626f6e64696e6720706572696f64206163746976650000000000000000006044820152606401610263565b80546000808355338082526002602052604080832092909255905163a9059cbb60e01b81526004810191909152602481018290526001600160a01b037f0000000000000000000000000000000000000000000000000000000000000000169063a9059cbb906044016020604051808303816000875af1158015610e6d573d6000803e3d6000fd5b505050506040513d601f19601f82011682018060405250810190610e9191906111d1565b5060405181815233907f81aaefb9330fc67e66b679d8c80d96bd8614776319b79469b64a31d2f87c2a659060200160405180910390a25050565b80356001600160a01b0381168114610ee257600080fd5b919050565b634e487b7160e01b600052604160045260246000fd5b600082601f830112610f0e57600080fd5b813567ffffffffffffffff80821115610f2957610f29610ee7565b604051601f8301601f19908116603f01168101908282118183101715610f5157610f51610ee7565b81604052838152866020858801011115610f6a57600080fd5b836020870160208301376000602085830101528094505050505092915050565b600080600080600080600060e0888a031215610fa557600080fd5b610fae88610ecb565b9650610fbc60208901610ecb565b95506040880135945060608801359350608088013567ffffffffffffffff80821115610fe757600080fd5b610ff38b838c01610efd565b945060a08a0135935060c08a013591508082111561101057600080fd5b5061101d8a828b01610efd565b91505092959891949750929550565b60008060006060848603121561104157600080fd5b61104a84610ecb565b925060208401359150604084013567ffffffffffffffff81111561106d57600080fd5b61107986828701610efd565b9150509250925092565b60006020828403121561109557600080fd5b61087282610ecb565b6000806000604084860312156110b357600080fd5b83359250602084013567ffffffffffffffff808211156110d257600080fd5b818601915086601f8301126110e657600080fd5b8135818111156110f557600080fd5b87602082850101111561110757600080fd5b6020830194508093505050509250925092565b60006020808352835180602085015260005b818110156111485785810183015185820160400152820161112c565b506000604082860101526040601f19601f8301168501019250505092915050565b634e487b7160e01b600052601160045260246000fd5b808202811582820484141761119657611196611169565b92915050565b6000826111b957634e487b7160e01b600052601260045260246000fd5b500490565b8181038181111561119657611196611169565b6000602082840312156111e357600080fd5b8151801515811461087257600080fd5b600181811c9082168061120757607f821691505b60208210810361122757634e487b7160e01b600052602260045260246000fd5b50919050565b634e487b7160e01b600052603260045260246000fd5b8082018082111561119657611196611169565b601f8211156112a2576000816000526020600020601f850160051c8101602086101561127f5750805b601f850160051c820191505b8181101561129e5782815560010161128b565b5050505b505050565b67ffffffffffffffff8311156112bf576112bf610ee7565b6112d3836112cd83546111f3565b83611256565b6000601f84116001811461130757600085156112ef5750838201355b600019600387901b1c1916600186901b178355611361565b600083815260209020601f19861690835b828110156113385786850135825560209485019460019092019101611318565b50868210156113555760001960f88860031b161c19848701351681555b505060018560011b0183555b505050505056fea2646970667358221220224902d1564dd8bca0cc967110c7750f5060ef9d4468fc136cf9aa20ed97163664736f6c63430008180033",
  "linkReferences": {},
  "deployedLinkReferences": {}
}