{
  "_format": "hh-sol-artifact-1",
  "contractName": "NashConsensusRegistry",
  "sourceName": "contracts/NashConsensusRegistry.sol",
  "abi": [
    {
      "inputs": [
        {
          "internalType": "address",
          "name": "_symToken",
          "type": "address"
        }
      ],
      "stateMutability": "nonpayable",
      "type": "constructor"
    },
    {
      "inputs": [],
      "name": "EnforcedPause",
      "type": "error"
    },
    {
      "inputs": [],
      "name": "ExpectedPause",
      "type": "error"
    },
    {
      "inputs": [],
      "name": "ReentrancyGuardReentrantCall",
      "type": "error"
    },
    {
      "inputs": [
        {
          "internalType": "address",
          "name": "token",
          "type": "address"
        }
      ],
      "name": "SafeERC20FailedOperation",
      "type": "error"
    },
    {
      "anonymous": false,
      "inputs": [
        {
          "indexed": true,
          "internalType": "address",
          "name": "node",
          "type": "address"
        },
        {
          "indexed": false,
          "internalType": "uint256",
          "name": "slashedAmount",
          "type": "uint256"
        },
        {
          "indexed": false,
          "internalType": "string",
          "name": "reason",
          "type": "string"
        }
      ],
      "name": "NodeSlashed",
      "type": "event"
    },
    {
      "anonymous": false,
      "inputs": [
        {
          "indexed": false,
          "internalType": "string",
          "name": "name",
          "type": "string"
        },
        {
          "indexed": false,
          "internalType": "uint256",
          "name": "value",
          "type": "uint256"
        }
      ],
      "name": "ParameterUpdated",
      "type": "event"
    },
    {
      "anonymous": false,
      "inputs": [
        {
          "indexed": false,
          "internalType": "address",
          "name": "account",
          "type": "address"
        }
      ],
      "name": "Paused",
      "type": "event"
    },
    {
      "anonymous": false,
      "inputs": [
        {
          "indexed": true,
          "internalType": "address",
          "name": "validator",
          "type": "address"
        },
        {
          "indexed": false,
          "internalType": "uint256",
          "name": "newReputation",
          "type": "uint256"
        }
      ],
      "name": "ReputationBoosted",
      "type": "event"
    },
    {
      "anonymous": false,
      "inputs": [
        {
          "indexed": false,
          "internalType": "address",
          "name": "account",
          "type": "address"
        }
      ],
      "name": "Unpaused",
      "type": "event"
    },
    {
      "anonymous": false,
      "inputs": [
        {
          "indexed": true,
          "internalType": "address",
          "name": "node",
          "type": "address"
        },
        {
          "indexed": false,
          "internalType": "uint256",
          "name": "initialStake",
          "type": "uint256"
        }
      ],
      "name": "ValidatorRegistered",
      "type": "event"
    },
    {
      "inputs": [
        {
          "internalType": "address",
          "name": "",
          "type": "address"
        }
      ],
      "name": "accumulatedRewards",
      "outputs": [
        {
          "internalType": "uint256",
          "name": "",
          "type": "uint256"
        }
      ],
      "stateMutability": "view",
      "type": "function"
    },
    {
      "inputs": [
        {
          "internalType": "address",
          "name": "validator",
          "type": "address"
        },
        {
          "internalType": "uint256",
          "name": "boostAmount",
          "type": "uint256"
        }
      ],
      "name": "boostReputationWithZk",
      "outputs": [],
      "stateMutability": "nonpayable",
      "type": "function"
    },
    {
      "inputs": [
        {
          "internalType": "uint256",
          "name": "rewardAmount",
          "type": "uint256"
        }
      ],
      "name": "claimValidatorRewards",
      "outputs": [],
      "stateMutability": "nonpayable",
      "type": "function"
    },
    {
      "inputs": [
        {
          "internalType": "address",
          "name": "",
          "type": "address"
        }
      ],
      "name": "falconPublicKeys",
      "outputs": [
        {
          "internalType": "bytes",
          "name": "",
          "type": "bytes"
        }
      ],
      "stateMutability": "view",
      "type": "function"
    },
    {
      "inputs": [],
      "name": "initiateValidatorExit",
      "outputs": [],
      "stateMutability": "nonpayable",
      "type": "function"
    },
    {
      "inputs": [
        {
          "internalType": "address",
          "name": "",
          "type": "address"
        }
      ],
      "name": "lastClaimBlock",
      "outputs": [
        {
          "internalType": "uint256",
          "name": "",
          "type": "uint256"
        }
      ],
      "stateMutability": "view",
      "type": "function"
    },
    {
      "inputs": [],
      "name": "pause",
      "outputs": [],
      "stateMutability": "nonpayable",
      "type": "function"
    },
    {
      "inputs": [],
      "name": "paused",
      "outputs": [
        {
          "internalType": "bool",
          "name": "",
          "type": "bool"
        }
      ],
      "stateMutability": "view",
      "type": "function"
    },
    {
      "inputs": [
        {
          "internalType": "uint256",
          "name": "initialStake",
          "type": "uint256"
        },
        {
          "internalType": "bytes",
          "name": "falconPubKey",
          "type": "bytes"
        }
      ],
      "name": "registerValidator",
      "outputs": [],
      "stateMutability": "nonpayable",
      "type": "function"
    },
    {
      "inputs": [
        {
          "internalType": "uint256",
          "name": "newPercent",
          "type": "uint256"
        }
      ],
      "name": "setSlashPenaltyPercent",
      "outputs": [],
      "stateMutability": "nonpayable",
      "type": "function"
    },
    {
      "inputs": [
        {
          "internalType": "uint256",
          "name": "newPeriod",
          "type": "uint256"
        }
      ],
      "name": "setUnbondingPeriod",
      "outputs": [],
      "stateMutability": "nonpayable",
      "type": "function"
    },
    {
      "inputs": [
        {
          "internalType": "address",
          "name": "zkProverRegistryAddress",
          "type": "address"
        }
      ],
      "name": "setZkProverRegistry",
      "outputs": [],
      "stateMutability": "nonpayable",
      "type": "function"
    },
    {
      "inputs": [],
      "name": "slashPenaltyPercent",
      "outputs": [
        {
          "internalType": "uint256",
          "name": "",
          "type": "uint256"
        }
      ],
      "stateMutability": "view",
      "type": "function"
    },
    {
      "inputs": [
        {
          "internalType": "uint256",
          "name": "blockCount",
          "type": "uint256"
        }
      ],
      "name": "submitBlockVerification",
      "outputs": [],
      "stateMutability": "nonpayable",
      "type": "function"
    },
    {
      "inputs": [],
      "name": "symToken",
      "outputs": [
        {
          "internalType": "contract SymbiosisToken",
          "name": "",
          "type": "address"
        }
      ],
      "stateMutability": "view",
      "type": "function"
    },
    {
      "inputs": [
        {
          "internalType": "address",
          "name": "guiltyNode",
          "type": "address"
        },
        {
          "internalType": "address",
          "name": "whistleblower",
          "type": "address"
        },
        {
          "internalType": "uint256",
          "name": "blockNumber",
          "type": "uint256"
        },
        {
          "internalType": "bytes32",
          "name": "blockHash1",
          "type": "bytes32"
        },
        {
          "internalType": "bytes",
          "name": "sig1",
          "type": "bytes"
        },
        {
          "internalType": "bytes32",
          "name": "blockHash2",
          "type": "bytes32"
        },
        {
          "internalType": "bytes",
          "name": "sig2",
          "type": "bytes"
        }
      ],
      "name": "triggerLazySlashing",
      "outputs": [],
      "stateMutability": "nonpayable",
      "type": "function"
    },
    {
      "inputs": [
        {
          "internalType": "address",
          "name": "",
          "type": "address"
        }
      ],
      "name": "unbondingEta",
      "outputs": [
        {
          "internalType": "uint256",
          "name": "",
          "type": "uint256"
        }
      ],
      "stateMutability": "view",
      "type": "function"
    },
    {
      "inputs": [],
      "name": "unbondingPeriod",
      "outputs": [
        {
          "internalType": "uint256",
          "name": "",
          "type": "uint256"
        }
      ],
      "stateMutability": "view",
      "type": "function"
    },
    {
      "inputs": [],
      "name": "unpause",
      "outputs": [],
      "stateMutability": "nonpayable",
      "type": "function"
    },
    {
      "inputs": [
        {
          "internalType": "address",
          "name": "",
          "type": "address"
        }
      ],
      "name": "validators",
      "outputs": [
        {
          "internalType": "uint256",
          "name": "stakedAmount",
          "type": "uint256"
        },
        {
          "internalType": "uint256",
          "name": "totalBlocksChecked",
          "type": "uint256"
        },
        {
          "internalType": "uint256",
          "name": "lastVerifiedBlock",
          "type": "uint256"
        },
        {
          "internalType": "uint256",
          "name": "reputation",
          "type": "uint256"
        },
        {
          "internalType": "bool",
          "name": "isSlashed",
          "type": "bool"
        }
      ],
      "stateMutability": "view",
      "type": "function"
    },
    {
      "inputs": [
        {
          "internalType": "address",
          "name": "validator",
          "type": "address"
        },
        {
          "internalType": "bytes32",
          "name": "blockHash",
          "type": "bytes32"
        },
        {
          "internalType": "bytes",
          "name": "signature",
          "type": "bytes"
        }
      ],
      "name": "verifyFalconSignature",
      "outputs": [
        {
          "internalType": "bool",
          "name": "",
          "type": "bool"
        }
      ],
      "stateMutability": "view",
      "type": "function"
    },
    {
      "inputs": [],
      "name": "withdrawValidatorStake",
      "outputs": [],
      "stateMutability": "nonpayable",
      "type": "function"
    },
    {
      "inputs": [],
      "name": "zkProverRegistryAddr",
      "outputs": [
        {
          "internalType": "address",
          "name": "",
          "type": "address"
        }
      ],
      "stateMutability": "view",
      "type": "function"
    }
  ],
  "bytecode": "0x60a0604052600f600355620151806004553480156200001d57600080fd5b50604051620022f2380380620022f28339810160408190526200004091620000bc565b60016000819055805460ff191690556001600160a01b038116620000aa5760405162461bcd60e51b815260206004820152601560248201527f496e76616c696420746f6b656e20616464726573730000000000000000000000604482015260640160405180910390fd5b6001600160a01b0316608052620000ee565b600060208284031215620000cf57600080fd5b81516001600160a01b0381168114620000e757600080fd5b9392505050565b60805161219b62000157600039600081816102f90152818161071d015281816107b80152818161080b0152818161097501528181610aae01528181610f5601528181610fd501528181611083015281816111e7015281816115f80152611810015261219b6000f3fe608060405234801561001057600080fd5b506004361061014d5760003560e01c8063a4511006116100c3578063e2936b5c1161007c578063e2936b5c146102b4578063e93a6c90146102d4578063ea1804bb146102f4578063f63f32e81461031b578063f7411c3214610323578063fa52c7d81461033657600080fd5b8063a45110061461022d578063b98bcfa514610235578063bb03ccf91461023e578063c2b58aaf1461026e578063d9ee18381461028e578063df9c4273146102a157600080fd5b80633f4ba83a116101155780633f4ba83a146101c85780635c975abb146101d05780636cf6d675146101db57806373f273fc146101f2578063757010e6146102125780638456cb591461022557600080fd5b8063015d0b7f14610152578063114eaf5514610167578063150f28ef1461017a578063193437451461018d578063295cccba146101b5575b600080fd5b610165610160366004611c6c565b6103a0565b005b610165610175366004611d1c565b6107f6565b610165610188366004611d35565b610960565b6101a061019b366004611d66565b610a71565b60405190151581526020015b60405180910390f35b6101656101c3366004611d1c565b610dae565b610165610fc0565b60015460ff166101a0565b6101e460045481565b6040519081526020016101ac565b6101e4610200366004611d35565b60076020526000908152604090205481565b610165610220366004611d1c565b61106e565b6101656111d2565b61016561127e565b6101e460035481565b6009546102569061010090046001600160a01b031681565b6040516001600160a01b0390911681526020016101ac565b6101e461027c366004611d35565b60066020526000908152604090205481565b61016561029c366004611e31565b611311565b6101656102af366004611e5b565b611432565b6102c76102c2366004611d35565b61162a565b6040516101ac9190611ea7565b6101e46102e2366004611d35565b60086020526000908152604090205481565b6102567f000000000000000000000000000000000000000000000000000000000000000081565b6101656116c4565b610165610331366004611d1c565b61184c565b610376610344366004611d35565b600260208190526000918252604090912080546001820154928201546003830154600490930154919392909160ff1685565b6040805195865260208601949094529284019190915260608301521515608082015260a0016101ac565b6103a86119ac565b6103b06119d6565b46617a6914610468578643101561040e5760405162461bcd60e51b815260206004820152601f60248201527f426c6f636b207363656e6172696f20697320696e20746865206675747572650060448201526064015b60405180910390fd5b6103e861041b8843611f0c565b106104685760405162461bcd60e51b815260206004820152601d60248201527f426c6f636b20766572696669636174696f6e20697320746f6f206f6c640000006044820152606401610405565b6001600160a01b0389166000908152600260205260409020600481015460ff16156104d55760405162461bcd60e51b815260206004820152601760248201527f4e6f646520697320616c726561647920736c61736865640000000000000000006044820152606401610405565b8387036105165760405162461bcd60e51b815260206004820152600f60248201526e0a6c2daca40c4d8dec6d640d0c2e6d608b1b6044820152606401610405565b6009805460ff19166001179055604080516020601f8801819004810282018101909252868152610564918c918a918a908a9081908401838280828437600092019190915250610a7192505050565b6105a65760405162461bcd60e51b8152602060048201526013602482015272496e76616c6964207369676e6174757265203160681b6044820152606401610405565b6105e78a8585858080601f016020809104026020016040519081016040528093929190818152602001838380828437600092019190915250610a7192505050565b6106295760405162461bcd60e51b815260206004820152601360248201527224b73b30b634b21039b4b3b730ba3ab932901960691b6044820152606401610405565b6009805460ff1916905560035481546000916064916106489190611f25565b6106529190611f3c565b9050808260000160008282546106689190611f0c565b909155505060048201805460ff19166001179055600060038301556040516001600160a01b038c16907f992bebd8a6e574d4b441fbc6155cf5486a16f70f9003d8189f63374675c5022b9061070b90848152604060208201819052602d908201527f4c617a79207369676e61747572652076616c696461746564206f6e205265642d60608201526c48657272696e6720626c6f636b60981b608082015260a00190565b60405180910390a26001600160a01b037f0000000000000000000000000000000000000000000000000000000000000000166342966c6861074d600284611f3c565b6040518263ffffffff1660e01b815260040161076b91815260200190565b600060405180830381600087803b15801561078557600080fd5b505af1158015610799573d6000803e3d6000fd5b505050506107df8a6002836107ae9190611f3c565b6001600160a01b037f00000000000000000000000000000000000000000000000000000000000000001691906119fa565b50506107eb6001600055565b505050505050505050565b604051631c86b03760e31b81523360048201527f00000000000000000000000000000000000000000000000000000000000000006001600160a01b03169063e43581b890602401602060405180830381865afa15801561085a573d6000803e3d6000fd5b505050506040513d601f19601f8201168201806040525081019061087e9190611f5e565b61089a5760405162461bcd60e51b815260040161040590611f80565b610e1081101580156108af575062278d008111155b6108fb5760405162461bcd60e51b815260206004820152601d60248201527f556e626f6e64696e6720706572696f64206f7574206f662072616e67650000006044820152606401610405565b600481905560408051818152600f918101919091526e1d5b989bdb991a5b99d4195c9a5bd9608a1b6060820152602081018290527f3a64504f0bc0c335e2aecb78638a257e0351a3fe0370861fd54ee4190b920933906080015b60405180910390a150565b604051631c86b03760e31b81523360048201527f00000000000000000000000000000000000000000000000000000000000000006001600160a01b03169063e43581b890602401602060405180830381865afa1580156109c4573d6000803e3d6000fd5b505050506040513d601f19601f820116820180604052508101906109e89190611f5e565b610a045760405162461bcd60e51b815260040161040590611f80565b6001600160a01b038116610a495760405162461bcd60e51b815260206004820152600c60248201526b5a65726f206164647265737360a01b6044820152606401610405565b600980546001600160a01b0390921661010002610100600160a81b0319909216919091179055565b60095460009060ff1680610a9357503360009081526002602052604090205415155b80610b215750604051631c86b03760e31b81523360048201527f00000000000000000000000000000000000000000000000000000000000000006001600160a01b03169063e43581b890602401602060405180830381865afa158015610afd573d6000803e3d6000fd5b505050506040513d601f19601f82011682018060405250810190610b219190611f5e565b610b6d5760405162461bcd60e51b815260206004820152601c60248201527f556e617574686f72697a65642076657269666965722063616c6c6572000000006044820152606401610405565b6001600160a01b038416610bc35760405162461bcd60e51b815260206004820152601960248201527f496e76616c69642076616c696461746f722061646472657373000000000000006044820152606401610405565b60408251101580610bd5575081516063145b610c3c5760405162461bcd60e51b815260206004820152603260248201527f496e76616c69642046616c636f6e207369676e61747572652062797465206c656044820152716e67746820636f6d7061746962696c69747960701b6064820152608401610405565b6001600160a01b03841660009081526005602052604081208054610c5f90611fc4565b80601f0160208091040260200160405190810160405280929190818152602001828054610c8b90611fc4565b8015610cd85780601f10610cad57610100808354040283529160200191610cd8565b820191906000526020600020905b815481529060010190602001808311610cbb57829003601f168201915b505050505090508051600003610cf2576000915050610da7565b60006040518581528460208201528260838201526020600060a38360f9620493e0fa91505080610da35746617a6903610d4057835160631480610d3757506040845110155b92505050610da7565b80610da35760405162461bcd60e51b815260206004820152602d60248201527f46616c636f6e20707265636f6d70696c65206e6f7420617661696c61626c652060448201526c37b7103a3434b99031b430b4b760991b6064820152608401610405565b9150505b9392505050565b610db66119ac565b610dbe6119d6565b33600090815260026020526040902054610e1a5760405162461bcd60e51b815260206004820152601c60248201527f4d75737420626520612076616c696461746f7220746f20636c61696d000000006044820152606401610405565b3360009081526002602052604090206004015460ff1615610e4d5760405162461bcd60e51b815260040161040590611ffe565b3360009081526007602052604090205481610eaa5760405162461bcd60e51b815260206004820152601e60248201527f52657761726420616d6f756e74206d75737420626520706f73697469766500006044820152606401610405565b80821115610efa5760405162461bcd60e51b815260206004820152601b60248201527f4578636565647320616363756d756c61746564207265776172647300000000006044820152606401610405565b3360009081526007602052604081208054849290610f19908490611f0c565b909155505033600081815260086020526040908190204390555163e307495160e01b81526004810191909152602481018390526001600160a01b037f0000000000000000000000000000000000000000000000000000000000000000169063e307495190604401600060405180830381600087803b158015610f9a57600080fd5b505af1158015610fae573d6000803e3d6000fd5b5050505050610fbd6001600055565b50565b604051631c86b03760e31b81523360048201527f00000000000000000000000000000000000000000000000000000000000000006001600160a01b03169063e43581b890602401602060405180830381865afa158015611024573d6000803e3d6000fd5b505050506040513d601f19601f820116820180604052508101906110489190611f5e565b6110645760405162461bcd60e51b815260040161040590611f80565b61106c611a59565b565b604051631c86b03760e31b81523360048201527f00000000000000000000000000000000000000000000000000000000000000006001600160a01b03169063e43581b890602401602060405180830381865afa1580156110d2573d6000803e3d6000fd5b505050506040513d601f19601f820116820180604052508101906110f69190611f5e565b6111125760405162461bcd60e51b815260040161040590611f80565b60058110158015611124575060328111155b6111705760405162461bcd60e51b815260206004820152601a60248201527f536c6173682070656e616c7479206f7574206f662072616e67650000000000006044820152606401610405565b600381905560408051818152601391810191909152721cdb185cda14195b985b1d1e54195c98d95b9d606a1b6060820152602081018290527f3a64504f0bc0c335e2aecb78638a257e0351a3fe0370861fd54ee4190b92093390608001610955565b604051631c86b03760e31b81523360048201527f00000000000000000000000000000000000000000000000000000000000000006001600160a01b03169063e43581b890602401602060405180830381865afa158015611236573d6000803e3d6000fd5b505050506040513d601f19601f8201168201806040525081019061125a9190611f5e565b6112765760405162461bcd60e51b815260040161040590611f80565b61106c611aab565b6112866119ac565b61128e6119d6565b336000908152600260205260409020546112ea5760405162461bcd60e51b815260206004820152601b60248201527f4e6f7420612076616c696461746f72206f72206e6f207374616b6500000000006044820152606401610405565b6004546112f79042612041565b3360009081526006602052604090205561106c6001600055565b60095461010090046001600160a01b031633146113855760405162461bcd60e51b815260206004820152602c60248201527f4f6e6c79205a4b2050726f7665722052656769737472792063616e20626f6f7360448201526b3a103932b83aba30ba34b7b760a11b6064820152608401610405565b6001600160a01b03821660009081526002602052604090208054158015906113b25750600481015460ff16155b1561142d57818160030160008282546113cb9190612041565b9091555050600381015460c810156113e55760c860038201555b826001600160a01b03167ff317d3724c6cbb97cf4cf3d99a46e1439de9eabc8eb46d6a0b187c3928f7422f826003015460405161142491815260200190565b60405180910390a25b505050565b61143a6119ac565b6114426119d6565b68056bc75e2d6310000083101561149b5760405162461bcd60e51b815260206004820152601860248201527f4d696e696d756d207374616b65206973203130302053594d00000000000000006044820152606401610405565b806114e85760405162461bcd60e51b815260206004820152601a60248201527f46616c636f6e205075626c6963204b65792072657175697265640000000000006044820152606401610405565b336000908152600260205260409020541561153a5760405162461bcd60e51b8152602060048201526012602482015271105b1c9958591e481c9959da5cdd195c995960721b6044820152606401610405565b6040805160a0810182528481526000602080830182815243848601908152606460608601908152608086018581523386526002808652888720975188559351600188015591519286019290925590516003850155516004909301805460ff1916931515939093179092556005909152206115b58284836120a4565b5060405183815233907fb4a7f5c563a0e35593d156394ed681bdc9c39467d7d722749d23862c2e4b712c9060200160405180910390a26116206001600160a01b037f000000000000000000000000000000000000000000000000000000000000000016333086611ae6565b61142d6001600055565b6005602052600090815260409020805461164390611fc4565b80601f016020809104026020016040519081016040528092919081815260200182805461166f90611fc4565b80156116bc5780601f10611691576101008083540402835291602001916116bc565b820191906000526020600020905b81548152906001019060200180831161169f57829003601f168201915b505050505081565b6116cc6119ac565b6116d46119d6565b33600090815260066020526040902054806117265760405162461bcd60e51b8152602060048201526012602482015271115e1a5d081b9bdd081a5b9a5d1a585d195960721b6044820152606401610405565b804210156117765760405162461bcd60e51b815260206004820152601760248201527f556e626f6e64696e6720706572696f64206163746976650000000000000000006044820152606401610405565b3360009081526002602052604090208054806117cb5760405162461bcd60e51b81526020600482015260146024820152734e6f207374616b6520746f20776974686472617760601b6044820152606401610405565b60008083556003830181905560018301819055600283018190553381526005602052604081206117fa91611bb9565b3360008181526006602052604081205561183f907f00000000000000000000000000000000000000000000000000000000000000006001600160a01b031690836119fa565b50505061106c6001600055565b6118546119ac565b61185c6119d6565b33600090815260026020526040902080546118af5760405162461bcd60e51b815260206004820152601360248201527226bab9ba1031329030903b30b634b230ba37b960691b6044820152606401610405565b600481015460ff16156118d45760405162461bcd60e51b815260040161040590611ffe565b6000821161191a5760405162461bcd60e51b8152602060048201526013602482015272125b9d985b1a5908189b1bd8dac818dbdd5b9d606a1b6044820152606401610405565b6000611927836005611f25565b61193990670de0b6b3a7640000611f25565b90506000606483600301548361194f9190611f25565b6119599190611f3c565b90508383600101600082825461196f9190612041565b90915550504360028401553360009081526007602052604081208054839290611999908490612041565b9091555050600160005550610fbd915050565b6002600054036119cf57604051633ee5aeb560e01b815260040160405180910390fd5b6002600055565b60015460ff161561106c5760405163d93c066560e01b815260040160405180910390fd5b6040516001600160a01b0383811660248301526044820183905261142d91859182169063a9059cbb906064015b604051602081830303815290604052915060e01b6020820180516001600160e01b038381831617835250505050611b25565b611a61611b96565b6001805460ff191690557f5db9ee0a495bf2e6ff9c91a7834c1ba4fdd244a5e8aa4e537bd38aeae4b073aa335b6040516001600160a01b03909116815260200160405180910390a1565b611ab36119d6565b6001805460ff1916811790557f62e78cea01bee320cd4e420270b5ea74000d11b0c9f74754ebdbfc544b05a25833611a8e565b6040516001600160a01b038481166024830152838116604483015260648201839052611b1f9186918216906323b872dd90608401611a27565b50505050565b600080602060008451602086016000885af180611b48576040513d6000823e3d81fd5b50506000513d91508115611b60578060011415611b6d565b6001600160a01b0384163b155b15611b1f57604051635274afe760e01b81526001600160a01b0385166004820152602401610405565b60015460ff1661106c57604051638dfc202b60e01b815260040160405180910390fd5b508054611bc590611fc4565b6000825580601f10611bd5575050565b601f016020900490600052602060002090810190610fbd91905b80821115611c035760008155600101611bef565b5090565b80356001600160a01b0381168114611c1e57600080fd5b919050565b60008083601f840112611c3557600080fd5b50813567ffffffffffffffff811115611c4d57600080fd5b602083019150836020828501011115611c6557600080fd5b9250929050565b600080600080600080600080600060e08a8c031215611c8a57600080fd5b611c938a611c07565b9850611ca160208b01611c07565b975060408a0135965060608a0135955060808a013567ffffffffffffffff80821115611ccc57600080fd5b611cd88d838e01611c23565b909750955060a08c0135945060c08c0135915080821115611cf857600080fd5b50611d058c828d01611c23565b915080935050809150509295985092959850929598565b600060208284031215611d2e57600080fd5b5035919050565b600060208284031215611d4757600080fd5b610da782611c07565b634e487b7160e01b600052604160045260246000fd5b600080600060608486031215611d7b57600080fd5b611d8484611c07565b925060208401359150604084013567ffffffffffffffff80821115611da857600080fd5b818601915086601f830112611dbc57600080fd5b813581811115611dce57611dce611d50565b604051601f8201601f19908116603f01168101908382118183101715611df657611df6611d50565b81604052828152896020848701011115611e0f57600080fd5b8260208601602083013760006020848301015280955050505050509250925092565b60008060408385031215611e4457600080fd5b611e4d83611c07565b946020939093013593505050565b600080600060408486031215611e7057600080fd5b83359250602084013567ffffffffffffffff811115611e8e57600080fd5b611e9a86828701611c23565b9497909650939450505050565b60006020808352835180602085015260005b81811015611ed557858101830151858201604001528201611eb9565b506000604082860101526040601f19601f8301168501019250505092915050565b634e487b7160e01b600052601160045260246000fd5b81810381811115611f1f57611f1f611ef6565b92915050565b8082028115828204841417611f1f57611f1f611ef6565b600082611f5957634e487b7160e01b600052601260045260246000fd5b500490565b600060208284031215611f7057600080fd5b81518015158114610da757600080fd5b60208082526024908201527f43616c6c6572206973206e6f7420616e20617574686f72697a656420676f7665604082015263393737b960e11b606082015260800190565b600181811c90821680611fd857607f821691505b602082108103611ff857634e487b7160e01b600052602260045260246000fd5b50919050565b60208082526023908201527f536c6173686564206e6f6465732063616e6e6f74206f627461696e207265776160408201526272647360e81b606082015260800190565b80820180821115611f1f57611f1f611ef6565b601f82111561142d576000816000526020600020601f850160051c8101602086101561207d5750805b601f850160051c820191505b8181101561209c57828155600101612089565b505050505050565b67ffffffffffffffff8311156120bc576120bc611d50565b6120d0836120ca8354611fc4565b83612054565b6000601f84116001811461210457600085156120ec5750838201355b600019600387901b1c1916600186901b17835561215e565b600083815260209020601f19861690835b828110156121355786850135825560209485019460019092019101612115565b50868210156121525760001960f88860031b161c19848701351681555b505060018560011b0183555b505050505056fea264697066735822122021319ac9042ab5793c76a0eb3b9ff9670de6d63e0c585ed3c8ef4c857cd8b4bf64736f6c63430008180033",
  "linkReferences": {},
  "deployedLinkReferences": {}
}